{
	"SmallProjects/Auction.sol": {
		"AuctionCreator": {
			"abi": [
				{
					"inputs": [
						{
							"internalType": "uint256",
							"name": "",
							"type": "uint256"
						}
					],
					"name": "auctions",
					"outputs": [
						{
							"internalType": "contract Auction",
							"name": "",
							"type": "address"
						}
					],
					"stateMutability": "view",
					"type": "function"
				},
				{
					"inputs": [],
					"name": "createAuction",
					"outputs": [],
					"stateMutability": "nonpayable",
					"type": "function"
				}
			],
			"devdoc": {
				"kind": "dev",
				"methods": {},
				"version": 1
			},
			"evm": {
				"assembly": "    /* \"SmallProjects/Auction.sol\":75:330  contract AuctionCreator{  //Creator contract so we can have more auctions at once\r... */\n  mstore(0x40, 0x80)\n  callvalue\n  dup1\n  iszero\n  tag_1\n  jumpi\n  0x00\n  dup1\n  revert\ntag_1:\n  pop\n  dataSize(sub_0)\n  dup1\n  dataOffset(sub_0)\n  0x00\n  codecopy\n  0x00\n  return\nstop\n\nsub_0: assembly {\n        /* \"SmallProjects/Auction.sol\":75:330  contract AuctionCreator{  //Creator contract so we can have more auctions at once\r... */\n      mstore(0x40, 0x80)\n      callvalue\n      dup1\n      iszero\n      tag_1\n      jumpi\n      0x00\n      dup1\n      revert\n    tag_1:\n      pop\n      jumpi(tag_2, lt(calldatasize, 0x04))\n      shr(0xe0, calldataload(0x00))\n      dup1\n      0x571a26a0\n      eq\n      tag_3\n      jumpi\n      dup1\n      0xf5811447\n      eq\n      tag_4\n      jumpi\n    tag_2:\n      0x00\n      dup1\n      revert\n        /* \"SmallProjects/Auction.sol\":162:187  Auction[] public auctions */\n    tag_3:\n      tag_5\n      0x04\n      dup1\n      calldatasize\n      sub\n      dup2\n      add\n      swap1\n      tag_6\n      swap2\n      swap1\n      tag_7\n      jump\t// in\n    tag_6:\n      tag_8\n      jump\t// in\n    tag_5:\n      mload(0x40)\n      tag_9\n      swap2\n      swap1\n      tag_10\n      jump\t// in\n    tag_9:\n      mload(0x40)\n      dup1\n      swap2\n      sub\n      swap1\n      return\n        /* \"SmallProjects/Auction.sol\":196:327  function createAuction() public{\r... */\n    tag_4:\n      tag_11\n      tag_12\n      jump\t// in\n    tag_11:\n      stop\n        /* \"SmallProjects/Auction.sol\":162:187  Auction[] public auctions */\n    tag_8:\n      0x00\n      dup2\n      dup2\n      sload\n      dup2\n      lt\n      tag_13\n      jumpi\n      0x00\n      dup1\n      revert\n    tag_13:\n      swap1\n      0x00\n      mstore\n      keccak256(0x00, 0x20)\n      add\n      0x00\n      swap2\n      pop\n      sload\n      swap1\n      0x0100\n      exp\n      swap1\n      div\n      0xffffffffffffffffffffffffffffffffffffffff\n      and\n      dup2\n      jump\t// out\n        /* \"SmallProjects/Auction.sol\":196:327  function createAuction() public{\r... */\n    tag_12:\n        /* \"SmallProjects/Auction.sol\":238:256  Auction newAuction */\n      0x00\n        /* \"SmallProjects/Auction.sol\":272:282  msg.sender */\n      caller\n        /* \"SmallProjects/Auction.sol\":259:283  new Auction( msg.sender) */\n      mload(0x40)\n      tag_16\n      swap1\n      tag_17\n      jump\t// in\n    tag_16:\n      tag_18\n      swap2\n      swap1\n      tag_19\n      jump\t// in\n    tag_18:\n      mload(0x40)\n      dup1\n      swap2\n      sub\n      swap1\n      0x00\n      create\n      dup1\n      iszero\n      dup1\n      iszero\n      tag_20\n      jumpi\n      returndatasize\n      0x00\n      dup1\n      returndatacopy\n      revert(0x00, returndatasize)\n    tag_20:\n      pop\n        /* \"SmallProjects/Auction.sol\":238:283  Auction newAuction = new Auction( msg.sender) */\n      swap1\n      pop\n        /* \"SmallProjects/Auction.sol\":294:302  auctions */\n      0x00\n        /* \"SmallProjects/Auction.sol\":308:318  newAuction */\n      dup2\n        /* \"SmallProjects/Auction.sol\":294:319  auctions.push(newAuction) */\n      swap1\n      dup1\n      0x01\n      dup2\n      sload\n      add\n      dup1\n      dup3\n      sstore\n      dup1\n      swap2\n      pop\n      pop\n      0x01\n      swap1\n      sub\n      swap1\n      0x00\n      mstore\n      keccak256(0x00, 0x20)\n      add\n      0x00\n      swap1\n      swap2\n      swap1\n      swap2\n      swap1\n      swap2\n      0x0100\n      exp\n      dup2\n      sload\n      dup2\n      0xffffffffffffffffffffffffffffffffffffffff\n      mul\n      not\n      and\n      swap1\n      dup4\n      0xffffffffffffffffffffffffffffffffffffffff\n      and\n      mul\n      or\n      swap1\n      sstore\n      pop\n        /* \"SmallProjects/Auction.sol\":227:327  {\r... */\n      pop\n        /* \"SmallProjects/Auction.sol\":196:327  function createAuction() public{\r... */\n      jump\t// out\n    tag_17:\n      dataSize(sub_0)\n      dup1\n      dataOffset(sub_0)\n      dup4\n      codecopy\n      add\n      swap1\n      jump\t// out\n        /* \"#utility.yul\":7:146   */\n    tag_23:\n        /* \"#utility.yul\":53:58   */\n      0x00\n        /* \"#utility.yul\":91:97   */\n      dup2\n        /* \"#utility.yul\":78:98   */\n      calldataload\n        /* \"#utility.yul\":69:98   */\n      swap1\n      pop\n        /* \"#utility.yul\":107:140   */\n      tag_25\n        /* \"#utility.yul\":134:139   */\n      dup2\n        /* \"#utility.yul\":107:140   */\n      tag_26\n      jump\t// in\n    tag_25:\n        /* \"#utility.yul\":7:146   */\n      swap3\n      swap2\n      pop\n      pop\n      jump\t// out\n        /* \"#utility.yul\":152:481   */\n    tag_7:\n        /* \"#utility.yul\":211:217   */\n      0x00\n        /* \"#utility.yul\":260:262   */\n      0x20\n        /* \"#utility.yul\":248:257   */\n      dup3\n        /* \"#utility.yul\":239:246   */\n      dup5\n        /* \"#utility.yul\":235:258   */\n      sub\n        /* \"#utility.yul\":231:263   */\n      slt\n        /* \"#utility.yul\":228:347   */\n      iszero\n      tag_28\n      jumpi\n        /* \"#utility.yul\":266:345   */\n      tag_29\n      tag_30\n      jump\t// in\n    tag_29:\n        /* \"#utility.yul\":228:347   */\n    tag_28:\n        /* \"#utility.yul\":386:387   */\n      0x00\n        /* \"#utility.yul\":411:464   */\n      tag_31\n        /* \"#utility.yul\":456:463   */\n      dup5\n        /* \"#utility.yul\":447:453   */\n      dup3\n        /* \"#utility.yul\":436:445   */\n      dup6\n        /* \"#utility.yul\":432:454   */\n      add\n        /* \"#utility.yul\":411:464   */\n      tag_23\n      jump\t// in\n    tag_31:\n        /* \"#utility.yul\":401:464   */\n      swap2\n      pop\n        /* \"#utility.yul\":357:474   */\n      pop\n        /* \"#utility.yul\":152:481   */\n      swap3\n      swap2\n      pop\n      pop\n      jump\t// out\n        /* \"#utility.yul\":487:605   */\n    tag_32:\n        /* \"#utility.yul\":574:598   */\n      tag_34\n        /* \"#utility.yul\":592:597   */\n      dup2\n        /* \"#utility.yul\":574:598   */\n      tag_35\n      jump\t// in\n    tag_34:\n        /* \"#utility.yul\":569:572   */\n      dup3\n        /* \"#utility.yul\":562:599   */\n      mstore\n        /* \"#utility.yul\":487:605   */\n      pop\n      pop\n      jump\t// out\n        /* \"#utility.yul\":611:772   */\n    tag_36:\n        /* \"#utility.yul\":713:765   */\n      tag_38\n        /* \"#utility.yul\":759:764   */\n      dup2\n        /* \"#utility.yul\":713:765   */\n      tag_39\n      jump\t// in\n    tag_38:\n        /* \"#utility.yul\":708:711   */\n      dup3\n        /* \"#utility.yul\":701:766   */\n      mstore\n        /* \"#utility.yul\":611:772   */\n      pop\n      pop\n      jump\t// out\n        /* \"#utility.yul\":778:1000   */\n    tag_19:\n        /* \"#utility.yul\":871:875   */\n      0x00\n        /* \"#utility.yul\":909:911   */\n      0x20\n        /* \"#utility.yul\":898:907   */\n      dup3\n        /* \"#utility.yul\":894:912   */\n      add\n        /* \"#utility.yul\":886:912   */\n      swap1\n      pop\n        /* \"#utility.yul\":922:993   */\n      tag_41\n        /* \"#utility.yul\":990:991   */\n      0x00\n        /* \"#utility.yul\":979:988   */\n      dup4\n        /* \"#utility.yul\":975:992   */\n      add\n        /* \"#utility.yul\":966:972   */\n      dup5\n        /* \"#utility.yul\":922:993   */\n      tag_32\n      jump\t// in\n    tag_41:\n        /* \"#utility.yul\":778:1000   */\n      swap3\n      swap2\n      pop\n      pop\n      jump\t// out\n        /* \"#utility.yul\":1006:1258   */\n    tag_10:\n        /* \"#utility.yul\":1114:1118   */\n      0x00\n        /* \"#utility.yul\":1152:1154   */\n      0x20\n        /* \"#utility.yul\":1141:1150   */\n      dup3\n        /* \"#utility.yul\":1137:1155   */\n      add\n        /* \"#utility.yul\":1129:1155   */\n      swap1\n      pop\n        /* \"#utility.yul\":1165:1251   */\n      tag_43\n        /* \"#utility.yul\":1248:1249   */\n      0x00\n        /* \"#utility.yul\":1237:1246   */\n      dup4\n        /* \"#utility.yul\":1233:1250   */\n      add\n        /* \"#utility.yul\":1224:1230   */\n      dup5\n        /* \"#utility.yul\":1165:1251   */\n      tag_36\n      jump\t// in\n    tag_43:\n        /* \"#utility.yul\":1006:1258   */\n      swap3\n      swap2\n      pop\n      pop\n      jump\t// out\n        /* \"#utility.yul\":1345:1441   */\n    tag_35:\n        /* \"#utility.yul\":1382:1389   */\n      0x00\n        /* \"#utility.yul\":1411:1435   */\n      tag_47\n        /* \"#utility.yul\":1429:1434   */\n      dup3\n        /* \"#utility.yul\":1411:1435   */\n      tag_48\n      jump\t// in\n    tag_47:\n        /* \"#utility.yul\":1400:1435   */\n      swap1\n      pop\n        /* \"#utility.yul\":1345:1441   */\n      swap2\n      swap1\n      pop\n      jump\t// out\n        /* \"#utility.yul\":1447:1573   */\n    tag_48:\n        /* \"#utility.yul\":1484:1491   */\n      0x00\n        /* \"#utility.yul\":1524:1566   */\n      0xffffffffffffffffffffffffffffffffffffffff\n        /* \"#utility.yul\":1517:1522   */\n      dup3\n        /* \"#utility.yul\":1513:1567   */\n      and\n        /* \"#utility.yul\":1502:1567   */\n      swap1\n      pop\n        /* \"#utility.yul\":1447:1573   */\n      swap2\n      swap1\n      pop\n      jump\t// out\n        /* \"#utility.yul\":1579:1656   */\n    tag_50:\n        /* \"#utility.yul\":1616:1623   */\n      0x00\n        /* \"#utility.yul\":1645:1650   */\n      dup2\n        /* \"#utility.yul\":1634:1650   */\n      swap1\n      pop\n        /* \"#utility.yul\":1579:1656   */\n      swap2\n      swap1\n      pop\n      jump\t// out\n        /* \"#utility.yul\":1662:1803   */\n    tag_39:\n        /* \"#utility.yul\":1727:1736   */\n      0x00\n        /* \"#utility.yul\":1760:1797   */\n      tag_53\n        /* \"#utility.yul\":1791:1796   */\n      dup3\n        /* \"#utility.yul\":1760:1797   */\n      tag_54\n      jump\t// in\n    tag_53:\n        /* \"#utility.yul\":1747:1797   */\n      swap1\n      pop\n        /* \"#utility.yul\":1662:1803   */\n      swap2\n      swap1\n      pop\n      jump\t// out\n        /* \"#utility.yul\":1809:1935   */\n    tag_54:\n        /* \"#utility.yul\":1859:1868   */\n      0x00\n        /* \"#utility.yul\":1892:1929   */\n      tag_56\n        /* \"#utility.yul\":1923:1928   */\n      dup3\n        /* \"#utility.yul\":1892:1929   */\n      tag_57\n      jump\t// in\n    tag_56:\n        /* \"#utility.yul\":1879:1929   */\n      swap1\n      pop\n        /* \"#utility.yul\":1809:1935   */\n      swap2\n      swap1\n      pop\n      jump\t// out\n        /* \"#utility.yul\":1941:2054   */\n    tag_57:\n        /* \"#utility.yul\":1991:2000   */\n      0x00\n        /* \"#utility.yul\":2024:2048   */\n      tag_59\n        /* \"#utility.yul\":2042:2047   */\n      dup3\n        /* \"#utility.yul\":2024:2048   */\n      tag_48\n      jump\t// in\n    tag_59:\n        /* \"#utility.yul\":2011:2048   */\n      swap1\n      pop\n        /* \"#utility.yul\":1941:2054   */\n      swap2\n      swap1\n      pop\n      jump\t// out\n        /* \"#utility.yul\":2183:2300   */\n    tag_30:\n        /* \"#utility.yul\":2292:2293   */\n      0x00\n        /* \"#utility.yul\":2289:2290   */\n      dup1\n        /* \"#utility.yul\":2282:2294   */\n      revert\n        /* \"#utility.yul\":2306:2428   */\n    tag_26:\n        /* \"#utility.yul\":2379:2403   */\n      tag_64\n        /* \"#utility.yul\":2397:2402   */\n      dup2\n        /* \"#utility.yul\":2379:2403   */\n      tag_50\n      jump\t// in\n    tag_64:\n        /* \"#utility.yul\":2372:2377   */\n      dup2\n        /* \"#utility.yul\":2369:2404   */\n      eq\n        /* \"#utility.yul\":2359:2422   */\n      tag_65\n      jumpi\n        /* \"#utility.yul\":2418:2419   */\n      0x00\n        /* \"#utility.yul\":2415:2416   */\n      dup1\n        /* \"#utility.yul\":2408:2420   */\n      revert\n        /* \"#utility.yul\":2359:2422   */\n    tag_65:\n        /* \"#utility.yul\":2306:2428   */\n      pop\n      jump\t// out\n    stop\n\n    sub_0: assembly {\n            /* \"SmallProjects/Auction.sol\":332:4020  contract Auction{\r... */\n          mstore(0x40, 0x80)\n            /* \"SmallProjects/Auction.sol\":715:1038  constructor(address eoa){\r... */\n          callvalue\n          dup1\n          iszero\n          tag_1\n          jumpi\n          0x00\n          dup1\n          revert\n        tag_1:\n          pop\n          mload(0x40)\n          sub(codesize, bytecodeSize)\n          dup1\n          bytecodeSize\n          dup4\n          codecopy\n          dup2\n          dup2\n          add\n          0x40\n          mstore\n          dup2\n          add\n          swap1\n          tag_2\n          swap2\n          swap1\n          tag_3\n          jump\t// in\n        tag_2:\n            /* \"SmallProjects/Auction.sol\":766:769  eoa */\n          dup1\n            /* \"SmallProjects/Auction.sol\":750:755  owner */\n          0x00\n          dup1\n            /* \"SmallProjects/Auction.sol\":750:770  owner = payable(eoa) */\n          0x0100\n          exp\n          dup2\n          sload\n          dup2\n          0xffffffffffffffffffffffffffffffffffffffff\n          mul\n          not\n          and\n          swap1\n          dup4\n          0xffffffffffffffffffffffffffffffffffffffff\n          and\n          mul\n          or\n          swap1\n          sstore\n          pop\n            /* \"SmallProjects/Auction.sol\":796:809  State.Running */\n          0x01\n            /* \"SmallProjects/Auction.sol\":781:793  auctionState */\n          0x04\n          0x00\n            /* \"SmallProjects/Auction.sol\":781:809  auctionState = State.Running */\n          0x0100\n          exp\n          dup2\n          sload\n          dup2\n          0xff\n          mul\n          not\n          and\n          swap1\n          dup4\n          0x03\n          dup2\n          gt\n          iszero\n          tag_6\n          jumpi\n          tag_7\n          tag_8\n          jump\t// in\n        tag_7:\n        tag_6:\n          mul\n          or\n          swap1\n          sstore\n          pop\n            /* \"SmallProjects/Auction.sol\":833:845  block.number */\n          number\n            /* \"SmallProjects/Auction.sol\":820:830  startBlock */\n          0x01\n            /* \"SmallProjects/Auction.sol\":820:845  startBlock = block.number */\n          dup2\n          swap1\n          sstore\n          pop\n            /* \"SmallProjects/Auction.sol\":880:885  40320 */\n          0x9d80\n            /* \"SmallProjects/Auction.sol\":867:877  startBlock */\n          sload(0x01)\n            /* \"SmallProjects/Auction.sol\":867:885  startBlock + 40320 */\n          tag_9\n          swap2\n          swap1\n          tag_10\n          jump\t// in\n        tag_9:\n            /* \"SmallProjects/Auction.sol\":856:864  endBlock */\n          0x02\n            /* \"SmallProjects/Auction.sol\":856:885  endBlock = startBlock + 40320 */\n          dup2\n          swap1\n          sstore\n          pop\n            /* \"SmallProjects/Auction.sol\":979:992  ipfsHash = \"\" */\n          mload(0x40)\n          dup1\n          0x20\n          add\n          0x40\n          mstore\n          dup1\n          0x00\n          dup2\n          mstore\n          pop\n            /* \"SmallProjects/Auction.sol\":979:987  ipfsHash */\n          0x03\n            /* \"SmallProjects/Auction.sol\":979:992  ipfsHash = \"\" */\n          swap1\n          dup1\n          mload\n          swap1\n          0x20\n          add\n          swap1\n          tag_11\n          swap3\n          swap2\n          swap1\n          tag_12\n          jump\t// in\n        tag_11:\n          pop\n            /* \"SmallProjects/Auction.sol\":1018:1030  1000000 gwei */\n          0x038d7ea4c68000\n            /* \"SmallProjects/Auction.sol\":1003:1015  bidIncrement */\n          0x08\n            /* \"SmallProjects/Auction.sol\":1003:1030  bidIncrement = 1000000 gwei */\n          dup2\n          swap1\n          sstore\n          pop\n            /* \"SmallProjects/Auction.sol\":715:1038  constructor(address eoa){\r... */\n          pop\n            /* \"SmallProjects/Auction.sol\":332:4020  contract Auction{\r... */\n          jump(tag_13)\n        tag_12:\n          dup3\n          dup1\n          sload\n          tag_14\n          swap1\n          tag_15\n          jump\t// in\n        tag_14:\n          swap1\n          0x00\n          mstore\n          keccak256(0x00, 0x20)\n          swap1\n          0x1f\n          add\n          0x20\n          swap1\n          div\n          dup2\n          add\n          swap3\n          dup3\n          tag_17\n          jumpi\n          0x00\n          dup6\n          sstore\n          jump(tag_16)\n        tag_17:\n          dup3\n          0x1f\n          lt\n          tag_18\n          jumpi\n          dup1\n          mload\n          not(0xff)\n          and\n          dup4\n          dup1\n          add\n          or\n          dup6\n          sstore\n          jump(tag_16)\n        tag_18:\n          dup3\n          dup1\n          add\n          0x01\n          add\n          dup6\n          sstore\n          dup3\n          iszero\n          tag_16\n          jumpi\n          swap2\n          dup3\n          add\n        tag_19:\n          dup3\n          dup2\n          gt\n          iszero\n          tag_20\n          jumpi\n          dup3\n          mload\n          dup3\n          sstore\n          swap2\n          0x20\n          add\n          swap2\n          swap1\n          0x01\n          add\n          swap1\n          jump(tag_19)\n        tag_20:\n        tag_16:\n          pop\n          swap1\n          pop\n          tag_21\n          swap2\n          swap1\n          tag_22\n          jump\t// in\n        tag_21:\n          pop\n          swap1\n          jump\t// out\n        tag_22:\n        tag_23:\n          dup1\n          dup3\n          gt\n          iszero\n          tag_24\n          jumpi\n          0x00\n          dup2\n          0x00\n          swap1\n          sstore\n          pop\n          0x01\n          add\n          jump(tag_23)\n        tag_24:\n          pop\n          swap1\n          jump\t// out\n            /* \"#utility.yul\":7:150   */\n        tag_26:\n            /* \"#utility.yul\":64:69   */\n          0x00\n            /* \"#utility.yul\":95:101   */\n          dup2\n            /* \"#utility.yul\":89:102   */\n          mload\n            /* \"#utility.yul\":80:102   */\n          swap1\n          pop\n            /* \"#utility.yul\":111:144   */\n          tag_28\n            /* \"#utility.yul\":138:143   */\n          dup2\n            /* \"#utility.yul\":111:144   */\n          tag_29\n          jump\t// in\n        tag_28:\n            /* \"#utility.yul\":7:150   */\n          swap3\n          swap2\n          pop\n          pop\n          jump\t// out\n            /* \"#utility.yul\":156:507   */\n        tag_3:\n            /* \"#utility.yul\":226:232   */\n          0x00\n            /* \"#utility.yul\":275:277   */\n          0x20\n            /* \"#utility.yul\":263:272   */\n          dup3\n            /* \"#utility.yul\":254:261   */\n          dup5\n            /* \"#utility.yul\":250:273   */\n          sub\n            /* \"#utility.yul\":246:278   */\n          slt\n            /* \"#utility.yul\":243:362   */\n          iszero\n          tag_31\n          jumpi\n            /* \"#utility.yul\":281:360   */\n          tag_32\n          tag_33\n          jump\t// in\n        tag_32:\n            /* \"#utility.yul\":243:362   */\n        tag_31:\n            /* \"#utility.yul\":401:402   */\n          0x00\n            /* \"#utility.yul\":426:490   */\n          tag_34\n            /* \"#utility.yul\":482:489   */\n          dup5\n            /* \"#utility.yul\":473:479   */\n          dup3\n            /* \"#utility.yul\":462:471   */\n          dup6\n            /* \"#utility.yul\":458:480   */\n          add\n            /* \"#utility.yul\":426:490   */\n          tag_26\n          jump\t// in\n        tag_34:\n            /* \"#utility.yul\":416:490   */\n          swap2\n          pop\n            /* \"#utility.yul\":372:500   */\n          pop\n            /* \"#utility.yul\":156:507   */\n          swap3\n          swap2\n          pop\n          pop\n          jump\t// out\n            /* \"#utility.yul\":594:899   */\n        tag_10:\n            /* \"#utility.yul\":634:637   */\n          0x00\n            /* \"#utility.yul\":653:673   */\n          tag_38\n            /* \"#utility.yul\":671:672   */\n          dup3\n            /* \"#utility.yul\":653:673   */\n          tag_39\n          jump\t// in\n        tag_38:\n            /* \"#utility.yul\":648:673   */\n          swap2\n          pop\n            /* \"#utility.yul\":687:707   */\n          tag_40\n            /* \"#utility.yul\":705:706   */\n          dup4\n            /* \"#utility.yul\":687:707   */\n          tag_39\n          jump\t// in\n        tag_40:\n            /* \"#utility.yul\":682:707   */\n          swap3\n          pop\n            /* \"#utility.yul\":841:842   */\n          dup3\n            /* \"#utility.yul\":773:839   */\n          0xffffffffffffffffffffffffffffffffffffffffffffffffffffffffffffffff\n            /* \"#utility.yul\":769:843   */\n          sub\n            /* \"#utility.yul\":766:767   */\n          dup3\n            /* \"#utility.yul\":763:844   */\n          gt\n            /* \"#utility.yul\":760:867   */\n          iszero\n          tag_41\n          jumpi\n            /* \"#utility.yul\":847:865   */\n          tag_42\n          tag_43\n          jump\t// in\n        tag_42:\n            /* \"#utility.yul\":760:867   */\n        tag_41:\n            /* \"#utility.yul\":891:892   */\n          dup3\n            /* \"#utility.yul\":888:889   */\n          dup3\n            /* \"#utility.yul\":884:893   */\n          add\n            /* \"#utility.yul\":877:893   */\n          swap1\n          pop\n            /* \"#utility.yul\":594:899   */\n          swap3\n          swap2\n          pop\n          pop\n          jump\t// out\n            /* \"#utility.yul\":905:1001   */\n        tag_44:\n            /* \"#utility.yul\":942:949   */\n          0x00\n            /* \"#utility.yul\":971:995   */\n          tag_46\n            /* \"#utility.yul\":989:994   */\n          dup3\n            /* \"#utility.yul\":971:995   */\n          tag_47\n          jump\t// in\n        tag_46:\n            /* \"#utility.yul\":960:995   */\n          swap1\n          pop\n            /* \"#utility.yul\":905:1001   */\n          swap2\n          swap1\n          pop\n          jump\t// out\n            /* \"#utility.yul\":1007:1133   */\n        tag_47:\n            /* \"#utility.yul\":1044:1051   */\n          0x00\n            /* \"#utility.yul\":1084:1126   */\n          0xffffffffffffffffffffffffffffffffffffffff\n            /* \"#utility.yul\":1077:1082   */\n          dup3\n            /* \"#utility.yul\":1073:1127   */\n          and\n            /* \"#utility.yul\":1062:1127   */\n          swap1\n          pop\n            /* \"#utility.yul\":1007:1133   */\n          swap2\n          swap1\n          pop\n          jump\t// out\n            /* \"#utility.yul\":1139:1216   */\n        tag_39:\n            /* \"#utility.yul\":1176:1183   */\n          0x00\n            /* \"#utility.yul\":1205:1210   */\n          dup2\n            /* \"#utility.yul\":1194:1210   */\n          swap1\n          pop\n            /* \"#utility.yul\":1139:1216   */\n          swap2\n          swap1\n          pop\n          jump\t// out\n            /* \"#utility.yul\":1222:1542   */\n        tag_15:\n            /* \"#utility.yul\":1266:1272   */\n          0x00\n            /* \"#utility.yul\":1303:1304   */\n          0x02\n            /* \"#utility.yul\":1297:1301   */\n          dup3\n            /* \"#utility.yul\":1293:1305   */\n          div\n            /* \"#utility.yul\":1283:1305   */\n          swap1\n          pop\n            /* \"#utility.yul\":1350:1351   */\n          0x01\n            /* \"#utility.yul\":1344:1348   */\n          dup3\n            /* \"#utility.yul\":1340:1352   */\n          and\n            /* \"#utility.yul\":1371:1389   */\n          dup1\n            /* \"#utility.yul\":1361:1442   */\n          tag_51\n          jumpi\n            /* \"#utility.yul\":1427:1431   */\n          0x7f\n            /* \"#utility.yul\":1419:1425   */\n          dup3\n            /* \"#utility.yul\":1415:1432   */\n          and\n            /* \"#utility.yul\":1405:1432   */\n          swap2\n          pop\n            /* \"#utility.yul\":1361:1442   */\n        tag_51:\n            /* \"#utility.yul\":1489:1491   */\n          0x20\n            /* \"#utility.yul\":1481:1487   */\n          dup3\n            /* \"#utility.yul\":1478:1492   */\n          lt\n            /* \"#utility.yul\":1458:1476   */\n          dup2\n            /* \"#utility.yul\":1455:1493   */\n          eq\n            /* \"#utility.yul\":1452:1536   */\n          iszero\n          tag_52\n          jumpi\n            /* \"#utility.yul\":1508:1526   */\n          tag_53\n          tag_54\n          jump\t// in\n        tag_53:\n            /* \"#utility.yul\":1452:1536   */\n        tag_52:\n            /* \"#utility.yul\":1273:1542   */\n          pop\n            /* \"#utility.yul\":1222:1542   */\n          swap2\n          swap1\n          pop\n          jump\t// out\n            /* \"#utility.yul\":1548:1728   */\n        tag_43:\n            /* \"#utility.yul\":1596:1673   */\n          0x4e487b7100000000000000000000000000000000000000000000000000000000\n            /* \"#utility.yul\":1593:1594   */\n          0x00\n            /* \"#utility.yul\":1586:1674   */\n          mstore\n            /* \"#utility.yul\":1693:1697   */\n          0x11\n            /* \"#utility.yul\":1690:1691   */\n          0x04\n            /* \"#utility.yul\":1683:1698   */\n          mstore\n            /* \"#utility.yul\":1717:1721   */\n          0x24\n            /* \"#utility.yul\":1714:1715   */\n          0x00\n            /* \"#utility.yul\":1707:1722   */\n          revert\n            /* \"#utility.yul\":1734:1914   */\n        tag_8:\n            /* \"#utility.yul\":1782:1859   */\n          0x4e487b7100000000000000000000000000000000000000000000000000000000\n            /* \"#utility.yul\":1779:1780   */\n          0x00\n            /* \"#utility.yul\":1772:1860   */\n          mstore\n            /* \"#utility.yul\":1879:1883   */\n          0x21\n            /* \"#utility.yul\":1876:1877   */\n          0x04\n            /* \"#utility.yul\":1869:1884   */\n          mstore\n            /* \"#utility.yul\":1903:1907   */\n          0x24\n            /* \"#utility.yul\":1900:1901   */\n          0x00\n            /* \"#utility.yul\":1893:1908   */\n          revert\n            /* \"#utility.yul\":1920:2100   */\n        tag_54:\n            /* \"#utility.yul\":1968:2045   */\n          0x4e487b7100000000000000000000000000000000000000000000000000000000\n            /* \"#utility.yul\":1965:1966   */\n          0x00\n            /* \"#utility.yul\":1958:2046   */\n          mstore\n            /* \"#utility.yul\":2065:2069   */\n          0x22\n            /* \"#utility.yul\":2062:2063   */\n          0x04\n            /* \"#utility.yul\":2055:2070   */\n          mstore\n            /* \"#utility.yul\":2089:2093   */\n          0x24\n            /* \"#utility.yul\":2086:2087   */\n          0x00\n            /* \"#utility.yul\":2079:2094   */\n          revert\n            /* \"#utility.yul\":2229:2346   */\n        tag_33:\n            /* \"#utility.yul\":2338:2339   */\n          0x00\n            /* \"#utility.yul\":2335:2336   */\n          dup1\n            /* \"#utility.yul\":2328:2340   */\n          revert\n            /* \"#utility.yul\":2352:2474   */\n        tag_29:\n            /* \"#utility.yul\":2425:2449   */\n          tag_62\n            /* \"#utility.yul\":2443:2448   */\n          dup2\n            /* \"#utility.yul\":2425:2449   */\n          tag_44\n          jump\t// in\n        tag_62:\n            /* \"#utility.yul\":2418:2423   */\n          dup2\n            /* \"#utility.yul\":2415:2450   */\n          eq\n            /* \"#utility.yul\":2405:2468   */\n          tag_63\n          jumpi\n            /* \"#utility.yul\":2464:2465   */\n          0x00\n            /* \"#utility.yul\":2461:2462   */\n          dup1\n            /* \"#utility.yul\":2454:2466   */\n          revert\n            /* \"#utility.yul\":2405:2468   */\n        tag_63:\n            /* \"#utility.yul\":2352:2474   */\n          pop\n          jump\t// out\n            /* \"SmallProjects/Auction.sol\":332:4020  contract Auction{\r... */\n        tag_13:\n          dataSize(sub_0)\n          dup1\n          dataOffset(sub_0)\n          0x00\n          codecopy\n          0x00\n          return\n        stop\n\n        sub_0: assembly {\n                /* \"SmallProjects/Auction.sol\":332:4020  contract Auction{\r... */\n              mstore(0x40, 0x80)\n              jumpi(tag_1, lt(calldatasize, 0x04))\n              shr(0xe0, calldataload(0x00))\n              dup1\n              0x8fa8b790\n              gt\n              tag_13\n              jumpi\n              dup1\n              0x8fa8b790\n              eq\n              tag_7\n              jumpi\n              dup1\n              0x91f90157\n              eq\n              tag_8\n              jumpi\n              dup1\n              0xc623674f\n              eq\n              tag_9\n              jumpi\n              dup1\n              0xecfc7ecc\n              eq\n              tag_10\n              jumpi\n              dup1\n              0xf5b56c56\n              eq\n              tag_11\n              jumpi\n              dup1\n              0xf77282ab\n              eq\n              tag_12\n              jumpi\n              jump(tag_1)\n            tag_13:\n              dup1\n              0x083c6323\n              eq\n              tag_2\n              jumpi\n              dup1\n              0x48cd4cb1\n              eq\n              tag_3\n              jumpi\n              dup1\n              0x62ea82db\n              eq\n              tag_4\n              jumpi\n              dup1\n              0x7fb45099\n              eq\n              tag_5\n              jumpi\n              dup1\n              0x8da5cb5b\n              eq\n              tag_6\n              jumpi\n            tag_1:\n              0x00\n              dup1\n              revert\n                /* \"SmallProjects/Auction.sol\":419:439  uint public endBlock */\n            tag_2:\n              callvalue\n              dup1\n              iszero\n              tag_14\n              jumpi\n              0x00\n              dup1\n              revert\n            tag_14:\n              pop\n              tag_15\n              tag_16\n              jump\t// in\n            tag_15:\n              mload(0x40)\n              tag_17\n              swap2\n              swap1\n              tag_18\n              jump\t// in\n            tag_17:\n              mload(0x40)\n              dup1\n              swap2\n              sub\n              swap1\n              return\n                /* \"SmallProjects/Auction.sol\":390:412  uint public startBlock */\n            tag_3:\n              callvalue\n              dup1\n              iszero\n              tag_19\n              jumpi\n              0x00\n              dup1\n              revert\n            tag_19:\n              pop\n              tag_20\n              tag_21\n              jump\t// in\n            tag_20:\n              mload(0x40)\n              tag_22\n              swap2\n              swap1\n              tag_18\n              jump\t// in\n            tag_22:\n              mload(0x40)\n              dup1\n              swap2\n              sub\n              swap1\n              return\n                /* \"SmallProjects/Auction.sol\":645:681  mapping(address => uint) public bids */\n            tag_4:\n              callvalue\n              dup1\n              iszero\n              tag_23\n              jumpi\n              0x00\n              dup1\n              revert\n            tag_23:\n              pop\n              tag_24\n              0x04\n              dup1\n              calldatasize\n              sub\n              dup2\n              add\n              swap1\n              tag_25\n              swap2\n              swap1\n              tag_26\n              jump\t// in\n            tag_25:\n              tag_27\n              jump\t// in\n            tag_24:\n              mload(0x40)\n              tag_28\n              swap2\n              swap1\n              tag_18\n              jump\t// in\n            tag_28:\n              mload(0x40)\n              dup1\n              swap2\n              sub\n              swap1\n              return\n                /* \"SmallProjects/Auction.sol\":527:552  State public auctionState */\n            tag_5:\n              callvalue\n              dup1\n              iszero\n              tag_29\n              jumpi\n              0x00\n              dup1\n              revert\n            tag_29:\n              pop\n              tag_30\n              tag_31\n              jump\t// in\n            tag_30:\n              mload(0x40)\n              tag_32\n              swap2\n              swap1\n              tag_33\n              jump\t// in\n            tag_32:\n              mload(0x40)\n              dup1\n              swap2\n              sub\n              swap1\n              return\n                /* \"SmallProjects/Auction.sol\":355:383  address payable public owner */\n            tag_6:\n              callvalue\n              dup1\n              iszero\n              tag_34\n              jumpi\n              0x00\n              dup1\n              revert\n            tag_34:\n              pop\n              tag_35\n              tag_36\n              jump\t// in\n            tag_35:\n              mload(0x40)\n              tag_37\n              swap2\n              swap1\n              tag_38\n              jump\t// in\n            tag_37:\n              mload(0x40)\n              dup1\n              swap2\n              sub\n              swap1\n              return\n                /* \"SmallProjects/Auction.sol\":1699:1788  function cancelAuction() public onlyOwner{\r... */\n            tag_7:\n              callvalue\n              dup1\n              iszero\n              tag_39\n              jumpi\n              0x00\n              dup1\n              revert\n            tag_39:\n              pop\n              tag_40\n              tag_41\n              jump\t// in\n            tag_40:\n              stop\n                /* \"SmallProjects/Auction.sol\":599:635  address payable public highestBidder */\n            tag_8:\n              callvalue\n              dup1\n              iszero\n              tag_42\n              jumpi\n              0x00\n              dup1\n              revert\n            tag_42:\n              pop\n              tag_43\n              tag_44\n              jump\t// in\n            tag_43:\n              mload(0x40)\n              tag_45\n              swap2\n              swap1\n              tag_38\n              jump\t// in\n            tag_45:\n              mload(0x40)\n              dup1\n              swap2\n              sub\n              swap1\n              return\n                /* \"SmallProjects/Auction.sol\":446:468  string public ipfsHash */\n            tag_9:\n              callvalue\n              dup1\n              iszero\n              tag_46\n              jumpi\n              0x00\n              dup1\n              revert\n            tag_46:\n              pop\n              tag_47\n              tag_48\n              jump\t// in\n            tag_47:\n              mload(0x40)\n              tag_49\n              swap2\n              swap1\n              tag_50\n              jump\t// in\n            tag_49:\n              mload(0x40)\n              dup1\n              swap2\n              sub\n              swap1\n              return\n                /* \"SmallProjects/Auction.sol\":1796:2569  function placeBid() public payable notOwner afterStart beforeEnd{\r... */\n            tag_10:\n              tag_51\n              tag_52\n              jump\t// in\n            tag_51:\n              stop\n                /* \"SmallProjects/Auction.sol\":562:591  uint public highestBindingBid */\n            tag_11:\n              callvalue\n              dup1\n              iszero\n              tag_53\n              jumpi\n              0x00\n              dup1\n              revert\n            tag_53:\n              pop\n              tag_54\n              tag_55\n              jump\t// in\n            tag_54:\n              mload(0x40)\n              tag_56\n              swap2\n              swap1\n              tag_18\n              jump\t// in\n            tag_56:\n              mload(0x40)\n              dup1\n              swap2\n              sub\n              swap1\n              return\n                /* \"SmallProjects/Auction.sol\":2578:4017  function finalizeAuction () public{\r... */\n            tag_12:\n              callvalue\n              dup1\n              iszero\n              tag_57\n              jumpi\n              0x00\n              dup1\n              revert\n            tag_57:\n              pop\n              tag_58\n              tag_59\n              jump\t// in\n            tag_58:\n              stop\n                /* \"SmallProjects/Auction.sol\":419:439  uint public endBlock */\n            tag_16:\n              sload(0x02)\n              dup2\n              jump\t// out\n                /* \"SmallProjects/Auction.sol\":390:412  uint public startBlock */\n            tag_21:\n              sload(0x01)\n              dup2\n              jump\t// out\n                /* \"SmallProjects/Auction.sol\":645:681  mapping(address => uint) public bids */\n            tag_27:\n              mstore(0x20, 0x07)\n              dup1\n              0x00\n              mstore\n              keccak256(0x00, 0x40)\n              0x00\n              swap2\n              pop\n              swap1\n              pop\n              sload\n              dup2\n              jump\t// out\n                /* \"SmallProjects/Auction.sol\":527:552  State public auctionState */\n            tag_31:\n              0x04\n              0x00\n              swap1\n              sload\n              swap1\n              0x0100\n              exp\n              swap1\n              div\n              0xff\n              and\n              dup2\n              jump\t// out\n                /* \"SmallProjects/Auction.sol\":355:383  address payable public owner */\n            tag_36:\n              0x00\n              dup1\n              sload\n              swap1\n              0x0100\n              exp\n              swap1\n              div\n              0xffffffffffffffffffffffffffffffffffffffff\n              and\n              dup2\n              jump\t// out\n                /* \"SmallProjects/Auction.sol\":1699:1788  function cancelAuction() public onlyOwner{\r... */\n            tag_41:\n                /* \"SmallProjects/Auction.sol\":1464:1469  owner */\n              0x00\n              dup1\n              sload\n              swap1\n              0x0100\n              exp\n              swap1\n              div\n              0xffffffffffffffffffffffffffffffffffffffff\n              and\n                /* \"SmallProjects/Auction.sol\":1450:1469  msg.sender == owner */\n              0xffffffffffffffffffffffffffffffffffffffff\n              and\n                /* \"SmallProjects/Auction.sol\":1450:1460  msg.sender */\n              caller\n                /* \"SmallProjects/Auction.sol\":1450:1469  msg.sender == owner */\n              0xffffffffffffffffffffffffffffffffffffffff\n              and\n              eq\n                /* \"SmallProjects/Auction.sol\":1442:1495  require(msg.sender == owner,\"You are not the owner!\") */\n              tag_61\n              jumpi\n              mload(0x40)\n              0x08c379a000000000000000000000000000000000000000000000000000000000\n              dup2\n              mstore\n              0x04\n              add\n              tag_62\n              swap1\n              tag_63\n              jump\t// in\n            tag_62:\n              mload(0x40)\n              dup1\n              swap2\n              sub\n              swap1\n              revert\n            tag_61:\n                /* \"SmallProjects/Auction.sol\":1766:1780  State.Canceled */\n              0x03\n                /* \"SmallProjects/Auction.sol\":1751:1763  auctionState */\n              0x04\n              0x00\n                /* \"SmallProjects/Auction.sol\":1751:1780  auctionState = State.Canceled */\n              0x0100\n              exp\n              dup2\n              sload\n              dup2\n              0xff\n              mul\n              not\n              and\n              swap1\n              dup4\n              0x03\n              dup2\n              gt\n              iszero\n              tag_65\n              jumpi\n              tag_66\n              tag_67\n              jump\t// in\n            tag_66:\n            tag_65:\n              mul\n              or\n              swap1\n              sstore\n              pop\n                /* \"SmallProjects/Auction.sol\":1699:1788  function cancelAuction() public onlyOwner{\r... */\n              jump\t// out\n                /* \"SmallProjects/Auction.sol\":599:635  address payable public highestBidder */\n            tag_44:\n              0x06\n              0x00\n              swap1\n              sload\n              swap1\n              0x0100\n              exp\n              swap1\n              div\n              0xffffffffffffffffffffffffffffffffffffffff\n              and\n              dup2\n              jump\t// out\n                /* \"SmallProjects/Auction.sol\":446:468  string public ipfsHash */\n            tag_48:\n              0x03\n              dup1\n              sload\n              tag_68\n              swap1\n              tag_69\n              jump\t// in\n            tag_68:\n              dup1\n              0x1f\n              add\n              0x20\n              dup1\n              swap2\n              div\n              mul\n              0x20\n              add\n              mload(0x40)\n              swap1\n              dup2\n              add\n              0x40\n              mstore\n              dup1\n              swap3\n              swap2\n              swap1\n              dup2\n              dup2\n              mstore\n              0x20\n              add\n              dup3\n              dup1\n              sload\n              tag_70\n              swap1\n              tag_69\n              jump\t// in\n            tag_70:\n              dup1\n              iszero\n              tag_71\n              jumpi\n              dup1\n              0x1f\n              lt\n              tag_72\n              jumpi\n              0x0100\n              dup1\n              dup4\n              sload\n              div\n              mul\n              dup4\n              mstore\n              swap2\n              0x20\n              add\n              swap2\n              jump(tag_71)\n            tag_72:\n              dup3\n              add\n              swap2\n              swap1\n              0x00\n              mstore\n              keccak256(0x00, 0x20)\n              swap1\n            tag_73:\n              dup2\n              sload\n              dup2\n              mstore\n              swap1\n              0x01\n              add\n              swap1\n              0x20\n              add\n              dup1\n              dup4\n              gt\n              tag_73\n              jumpi\n              dup3\n              swap1\n              sub\n              0x1f\n              and\n              dup3\n              add\n              swap2\n            tag_71:\n              pop\n              pop\n              pop\n              pop\n              pop\n              dup2\n              jump\t// out\n                /* \"SmallProjects/Auction.sol\":1796:2569  function placeBid() public payable notOwner afterStart beforeEnd{\r... */\n            tag_52:\n                /* \"SmallProjects/Auction.sol\":1098:1103  owner */\n              0x00\n              dup1\n              sload\n              swap1\n              0x0100\n              exp\n              swap1\n              div\n              0xffffffffffffffffffffffffffffffffffffffff\n              and\n                /* \"SmallProjects/Auction.sol\":1084:1103  msg.sender != owner */\n              0xffffffffffffffffffffffffffffffffffffffff\n              and\n                /* \"SmallProjects/Auction.sol\":1084:1094  msg.sender */\n              caller\n                /* \"SmallProjects/Auction.sol\":1084:1103  msg.sender != owner */\n              0xffffffffffffffffffffffffffffffffffffffff\n              and\n              eq\n              iszero\n                /* \"SmallProjects/Auction.sol\":1076:1149  require(msg.sender != owner,\"You are the owner, you cant participate...\") */\n              tag_75\n              jumpi\n              mload(0x40)\n              0x08c379a000000000000000000000000000000000000000000000000000000000\n              dup2\n              mstore\n              0x04\n              add\n              tag_76\n              swap1\n              tag_77\n              jump\t// in\n            tag_76:\n              mload(0x40)\n              dup1\n              swap2\n              sub\n              swap1\n              revert\n            tag_75:\n                /* \"SmallProjects/Auction.sol\":1233:1243  startBlock */\n              sload(0x01)\n                /* \"SmallProjects/Auction.sol\":1217:1229  block.number */\n              number\n                /* \"SmallProjects/Auction.sol\":1217:1243  block.number >= startBlock */\n              lt\n              iszero\n                /* \"SmallProjects/Auction.sol\":1209:1268  require(block.number >= startBlock,\"Block number is wrong\") */\n              tag_79\n              jumpi\n              mload(0x40)\n              0x08c379a000000000000000000000000000000000000000000000000000000000\n              dup2\n              mstore\n              0x04\n              add\n              tag_80\n              swap1\n              tag_81\n              jump\t// in\n            tag_80:\n              mload(0x40)\n              dup1\n              swap2\n              sub\n              swap1\n              revert\n            tag_79:\n                /* \"SmallProjects/Auction.sol\":1349:1357  endBlock */\n              sload(0x02)\n                /* \"SmallProjects/Auction.sol\":1333:1345  block.number */\n              number\n                /* \"SmallProjects/Auction.sol\":1333:1357  block.number <= endBlock */\n              gt\n              iszero\n                /* \"SmallProjects/Auction.sol\":1325:1383  require(block.number <= endBlock,\"The auction has ended!\") */\n              tag_83\n              jumpi\n              mload(0x40)\n              0x08c379a000000000000000000000000000000000000000000000000000000000\n              dup2\n              mstore\n              0x04\n              add\n              tag_84\n              swap1\n              tag_85\n              jump\t// in\n            tag_84:\n              mload(0x40)\n              dup1\n              swap2\n              sub\n              swap1\n              revert\n            tag_83:\n                /* \"SmallProjects/Auction.sol\":1896:1909  State.Running */\n              0x01\n                /* \"SmallProjects/Auction.sol\":1880:1909  auctionState == State.Running */\n              0x03\n              dup2\n              gt\n              iszero\n              tag_87\n              jumpi\n              tag_88\n              tag_67\n              jump\t// in\n            tag_88:\n            tag_87:\n                /* \"SmallProjects/Auction.sol\":1880:1892  auctionState */\n              0x04\n              0x00\n              swap1\n              sload\n              swap1\n              0x0100\n              exp\n              swap1\n              div\n              0xff\n              and\n                /* \"SmallProjects/Auction.sol\":1880:1909  auctionState == State.Running */\n              0x03\n              dup2\n              gt\n              iszero\n              tag_89\n              jumpi\n              tag_90\n              tag_67\n              jump\t// in\n            tag_90:\n            tag_89:\n              eq\n                /* \"SmallProjects/Auction.sol\":1871:1947  require (auctionState == State.Running,\"The auction is not running anymore\") */\n              tag_91\n              jumpi\n              mload(0x40)\n              0x08c379a000000000000000000000000000000000000000000000000000000000\n              dup2\n              mstore\n              0x04\n              add\n              tag_92\n              swap1\n              tag_93\n              jump\t// in\n            tag_92:\n              mload(0x40)\n              dup1\n              swap2\n              sub\n              swap1\n              revert\n            tag_91:\n                /* \"SmallProjects/Auction.sol\":1979:1990  100000 gwei */\n              0x5af3107a4000\n                /* \"SmallProjects/Auction.sol\":1966:1975  msg.value */\n              callvalue\n                /* \"SmallProjects/Auction.sol\":1966:1990  msg.value >= 100000 gwei */\n              lt\n              iszero\n                /* \"SmallProjects/Auction.sol\":1958:2035  require(msg.value >= 100000 gwei, \"The smallest amount to bid is 0.0001 eth\") */\n              tag_94\n              jumpi\n              mload(0x40)\n              0x08c379a000000000000000000000000000000000000000000000000000000000\n              dup2\n              mstore\n              0x04\n              add\n              tag_95\n              swap1\n              tag_96\n              jump\t// in\n            tag_95:\n              mload(0x40)\n              dup1\n              swap2\n              sub\n              swap1\n              revert\n            tag_94:\n                /* \"SmallProjects/Auction.sol\":2074:2089  uint currentBid */\n              0x00\n                /* \"SmallProjects/Auction.sol\":2111:2120  msg.value */\n              callvalue\n                /* \"SmallProjects/Auction.sol\":2092:2096  bids */\n              0x07\n                /* \"SmallProjects/Auction.sol\":2092:2108  bids[msg.sender] */\n              0x00\n                /* \"SmallProjects/Auction.sol\":2097:2107  msg.sender */\n              caller\n                /* \"SmallProjects/Auction.sol\":2092:2108  bids[msg.sender] */\n              0xffffffffffffffffffffffffffffffffffffffff\n              and\n              0xffffffffffffffffffffffffffffffffffffffff\n              and\n              dup2\n              mstore\n              0x20\n              add\n              swap1\n              dup2\n              mstore\n              0x20\n              add\n              0x00\n              keccak256\n              sload\n                /* \"SmallProjects/Auction.sol\":2092:2120  bids[msg.sender] + msg.value */\n              tag_97\n              swap2\n              swap1\n              tag_98\n              jump\t// in\n            tag_97:\n                /* \"SmallProjects/Auction.sol\":2074:2120  uint currentBid = bids[msg.sender] + msg.value */\n              swap1\n              pop\n                /* \"SmallProjects/Auction.sol\":2152:2169  highestBindingBid */\n              sload(0x05)\n                /* \"SmallProjects/Auction.sol\":2139:2149  currentBid */\n              dup2\n                /* \"SmallProjects/Auction.sol\":2139:2169  currentBid > highestBindingBid */\n              gt\n                /* \"SmallProjects/Auction.sol\":2131:2211  require(currentBid > highestBindingBid, \"It already is a bigger bid than yours\") */\n              tag_99\n              jumpi\n              mload(0x40)\n              0x08c379a000000000000000000000000000000000000000000000000000000000\n              dup2\n              mstore\n              0x04\n              add\n              tag_100\n              swap1\n              tag_101\n              jump\t// in\n            tag_100:\n              mload(0x40)\n              dup1\n              swap2\n              sub\n              swap1\n              revert\n            tag_99:\n                /* \"SmallProjects/Auction.sol\":2243:2253  currentBid */\n              dup1\n                /* \"SmallProjects/Auction.sol\":2224:2228  bids */\n              0x07\n                /* \"SmallProjects/Auction.sol\":2224:2240  bids[msg.sender] */\n              0x00\n                /* \"SmallProjects/Auction.sol\":2229:2239  msg.sender */\n              caller\n                /* \"SmallProjects/Auction.sol\":2224:2240  bids[msg.sender] */\n              0xffffffffffffffffffffffffffffffffffffffff\n              and\n              0xffffffffffffffffffffffffffffffffffffffff\n              and\n              dup2\n              mstore\n              0x20\n              add\n              swap1\n              dup2\n              mstore\n              0x20\n              add\n              0x00\n              keccak256\n                /* \"SmallProjects/Auction.sol\":2224:2253  bids[msg.sender] = currentBid */\n              dup2\n              swap1\n              sstore\n              pop\n                /* \"SmallProjects/Auction.sol\":2283:2287  bids */\n              0x07\n                /* \"SmallProjects/Auction.sol\":2283:2302  bids[highestBidder] */\n              0x00\n                /* \"SmallProjects/Auction.sol\":2288:2301  highestBidder */\n              0x06\n              0x00\n              swap1\n              sload\n              swap1\n              0x0100\n              exp\n              swap1\n              div\n              0xffffffffffffffffffffffffffffffffffffffff\n              and\n                /* \"SmallProjects/Auction.sol\":2283:2302  bids[highestBidder] */\n              0xffffffffffffffffffffffffffffffffffffffff\n              and\n              0xffffffffffffffffffffffffffffffffffffffff\n              and\n              dup2\n              mstore\n              0x20\n              add\n              swap1\n              dup2\n              mstore\n              0x20\n              add\n              0x00\n              keccak256\n              sload\n                /* \"SmallProjects/Auction.sol\":2269:2279  currentBid */\n              dup2\n                /* \"SmallProjects/Auction.sol\":2269:2302  currentBid <= bids[highestBidder] */\n              gt\n                /* \"SmallProjects/Auction.sol\":2266:2562  if(currentBid <= bids[highestBidder]){\r... */\n              tag_102\n              jumpi\n                /* \"SmallProjects/Auction.sol\":2338:2388  min(currentBid + bidIncrement,bids[highestBidder]) */\n              tag_103\n                /* \"SmallProjects/Auction.sol\":2355:2367  bidIncrement */\n              sload(0x08)\n                /* \"SmallProjects/Auction.sol\":2342:2352  currentBid */\n              dup3\n                /* \"SmallProjects/Auction.sol\":2342:2367  currentBid + bidIncrement */\n              tag_104\n              swap2\n              swap1\n              tag_98\n              jump\t// in\n            tag_104:\n                /* \"SmallProjects/Auction.sol\":2368:2372  bids */\n              0x07\n                /* \"SmallProjects/Auction.sol\":2368:2387  bids[highestBidder] */\n              0x00\n                /* \"SmallProjects/Auction.sol\":2373:2386  highestBidder */\n              0x06\n              0x00\n              swap1\n              sload\n              swap1\n              0x0100\n              exp\n              swap1\n              div\n              0xffffffffffffffffffffffffffffffffffffffff\n              and\n                /* \"SmallProjects/Auction.sol\":2368:2387  bids[highestBidder] */\n              0xffffffffffffffffffffffffffffffffffffffff\n              and\n              0xffffffffffffffffffffffffffffffffffffffff\n              and\n              dup2\n              mstore\n              0x20\n              add\n              swap1\n              dup2\n              mstore\n              0x20\n              add\n              0x00\n              keccak256\n              sload\n                /* \"SmallProjects/Auction.sol\":2338:2341  min */\n              tag_105\n                /* \"SmallProjects/Auction.sol\":2338:2388  min(currentBid + bidIncrement,bids[highestBidder]) */\n              jump\t// in\n            tag_103:\n                /* \"SmallProjects/Auction.sol\":2318:2335  highestBindingBid */\n              0x05\n                /* \"SmallProjects/Auction.sol\":2318:2388  highestBindingBid = min(currentBid + bidIncrement,bids[highestBidder]) */\n              dup2\n              swap1\n              sstore\n              pop\n                /* \"SmallProjects/Auction.sol\":2266:2562  if(currentBid <= bids[highestBidder]){\r... */\n              jump(tag_106)\n            tag_102:\n                /* \"SmallProjects/Auction.sol\":2449:2500  min(currentBid, bids[highestBidder] + bidIncrement) */\n              tag_107\n                /* \"SmallProjects/Auction.sol\":2453:2463  currentBid */\n              dup2\n                /* \"SmallProjects/Auction.sol\":2487:2499  bidIncrement */\n              sload(0x08)\n                /* \"SmallProjects/Auction.sol\":2465:2469  bids */\n              0x07\n                /* \"SmallProjects/Auction.sol\":2465:2484  bids[highestBidder] */\n              0x00\n                /* \"SmallProjects/Auction.sol\":2470:2483  highestBidder */\n              0x06\n              0x00\n              swap1\n              sload\n              swap1\n              0x0100\n              exp\n              swap1\n              div\n              0xffffffffffffffffffffffffffffffffffffffff\n              and\n                /* \"SmallProjects/Auction.sol\":2465:2484  bids[highestBidder] */\n              0xffffffffffffffffffffffffffffffffffffffff\n              and\n              0xffffffffffffffffffffffffffffffffffffffff\n              and\n              dup2\n              mstore\n              0x20\n              add\n              swap1\n              dup2\n              mstore\n              0x20\n              add\n              0x00\n              keccak256\n              sload\n                /* \"SmallProjects/Auction.sol\":2465:2499  bids[highestBidder] + bidIncrement */\n              tag_108\n              swap2\n              swap1\n              tag_98\n              jump\t// in\n            tag_108:\n                /* \"SmallProjects/Auction.sol\":2449:2452  min */\n              tag_105\n                /* \"SmallProjects/Auction.sol\":2449:2500  min(currentBid, bids[highestBidder] + bidIncrement) */\n              jump\t// in\n            tag_107:\n                /* \"SmallProjects/Auction.sol\":2429:2446  highestBindingBid */\n              0x05\n                /* \"SmallProjects/Auction.sol\":2429:2500  highestBindingBid = min(currentBid, bids[highestBidder] + bidIncrement) */\n              dup2\n              swap1\n              sstore\n              pop\n                /* \"SmallProjects/Auction.sol\":2539:2549  msg.sender */\n              caller\n                /* \"SmallProjects/Auction.sol\":2515:2528  highestBidder */\n              0x06\n              0x00\n                /* \"SmallProjects/Auction.sol\":2515:2550  highestBidder = payable(msg.sender) */\n              0x0100\n              exp\n              dup2\n              sload\n              dup2\n              0xffffffffffffffffffffffffffffffffffffffff\n              mul\n              not\n              and\n              swap1\n              dup4\n              0xffffffffffffffffffffffffffffffffffffffff\n              and\n              mul\n              or\n              swap1\n              sstore\n              pop\n                /* \"SmallProjects/Auction.sol\":2266:2562  if(currentBid <= bids[highestBidder]){\r... */\n            tag_106:\n                /* \"SmallProjects/Auction.sol\":1860:2569  {\r... */\n              pop\n                /* \"SmallProjects/Auction.sol\":1796:2569  function placeBid() public payable notOwner afterStart beforeEnd{\r... */\n              jump\t// out\n                /* \"SmallProjects/Auction.sol\":562:591  uint public highestBindingBid */\n            tag_55:\n              sload(0x05)\n              dup2\n              jump\t// out\n                /* \"SmallProjects/Auction.sol\":2578:4017  function finalizeAuction () public{\r... */\n            tag_59:\n                /* \"SmallProjects/Auction.sol\":2647:2661  State.Canceled */\n              0x03\n                /* \"SmallProjects/Auction.sol\":2631:2661  auctionState == State.Canceled */\n              dup1\n              dup2\n              gt\n              iszero\n              tag_110\n              jumpi\n              tag_111\n              tag_67\n              jump\t// in\n            tag_111:\n            tag_110:\n                /* \"SmallProjects/Auction.sol\":2631:2643  auctionState */\n              0x04\n              0x00\n              swap1\n              sload\n              swap1\n              0x0100\n              exp\n              swap1\n              div\n              0xff\n              and\n                /* \"SmallProjects/Auction.sol\":2631:2661  auctionState == State.Canceled */\n              0x03\n              dup2\n              gt\n              iszero\n              tag_112\n              jumpi\n              tag_113\n              tag_67\n              jump\t// in\n            tag_113:\n            tag_112:\n              eq\n                /* \"SmallProjects/Auction.sol\":2631:2688  auctionState == State.Canceled || block.number > endBlock */\n              dup1\n              tag_114\n              jumpi\n              pop\n                /* \"SmallProjects/Auction.sol\":2680:2688  endBlock */\n              sload(0x02)\n                /* \"SmallProjects/Auction.sol\":2665:2677  block.number */\n              number\n                /* \"SmallProjects/Auction.sol\":2665:2688  block.number > endBlock */\n              gt\n                /* \"SmallProjects/Auction.sol\":2631:2688  auctionState == State.Canceled || block.number > endBlock */\n            tag_114:\n                /* \"SmallProjects/Auction.sol\":2623:2737  require(auctionState == State.Canceled || block.number > endBlock,\"The auction has to be canceled or to be ended\") */\n              tag_115\n              jumpi\n              mload(0x40)\n              0x08c379a000000000000000000000000000000000000000000000000000000000\n              dup2\n              mstore\n              0x04\n              add\n              tag_116\n              swap1\n              tag_117\n              jump\t// in\n            tag_116:\n              mload(0x40)\n              dup1\n              swap2\n              sub\n              swap1\n              revert\n            tag_115:\n                /* \"SmallProjects/Auction.sol\":2780:2785  owner */\n              0x00\n              dup1\n              sload\n              swap1\n              0x0100\n              exp\n              swap1\n              div\n              0xffffffffffffffffffffffffffffffffffffffff\n              and\n                /* \"SmallProjects/Auction.sol\":2766:2785  msg.sender == owner */\n              0xffffffffffffffffffffffffffffffffffffffff\n              and\n                /* \"SmallProjects/Auction.sol\":2766:2776  msg.sender */\n              caller\n                /* \"SmallProjects/Auction.sol\":2766:2785  msg.sender == owner */\n              0xffffffffffffffffffffffffffffffffffffffff\n              and\n              eq\n                /* \"SmallProjects/Auction.sol\":2766:2809  msg.sender == owner || bids[msg.sender] > 0 */\n              dup1\n              tag_118\n              jumpi\n              pop\n                /* \"SmallProjects/Auction.sol\":2808:2809  0 */\n              0x00\n                /* \"SmallProjects/Auction.sol\":2789:2793  bids */\n              0x07\n                /* \"SmallProjects/Auction.sol\":2789:2805  bids[msg.sender] */\n              0x00\n                /* \"SmallProjects/Auction.sol\":2794:2804  msg.sender */\n              caller\n                /* \"SmallProjects/Auction.sol\":2789:2805  bids[msg.sender] */\n              0xffffffffffffffffffffffffffffffffffffffff\n              and\n              0xffffffffffffffffffffffffffffffffffffffff\n              and\n              dup2\n              mstore\n              0x20\n              add\n              swap1\n              dup2\n              mstore\n              0x20\n              add\n              0x00\n              keccak256\n              sload\n                /* \"SmallProjects/Auction.sol\":2789:2809  bids[msg.sender] > 0 */\n              gt\n                /* \"SmallProjects/Auction.sol\":2766:2809  msg.sender == owner || bids[msg.sender] > 0 */\n            tag_118:\n                /* \"SmallProjects/Auction.sol\":2758:2878  require(msg.sender == owner || bids[msg.sender] > 0, \"You didnt participate to the auction or you already  withdrawed \") */\n              tag_119\n              jumpi\n              mload(0x40)\n              0x08c379a000000000000000000000000000000000000000000000000000000000\n              dup2\n              mstore\n              0x04\n              add\n              tag_120\n              swap1\n              tag_121\n              jump\t// in\n            tag_120:\n              mload(0x40)\n              dup1\n              swap2\n              sub\n              swap1\n              revert\n            tag_119:\n                /* \"SmallProjects/Auction.sol\":2891:2916  address payable recipient */\n              0x00\n                /* \"SmallProjects/Auction.sol\":2927:2937  uint value */\n              dup1\n                /* \"SmallProjects/Auction.sol\":2969:2983  State.Canceled */\n              0x03\n                /* \"SmallProjects/Auction.sol\":2953:2983  auctionState == State.Canceled */\n              dup1\n              dup2\n              gt\n              iszero\n              tag_122\n              jumpi\n              tag_123\n              tag_67\n              jump\t// in\n            tag_123:\n            tag_122:\n                /* \"SmallProjects/Auction.sol\":2953:2965  auctionState */\n              0x04\n              0x00\n              swap1\n              sload\n              swap1\n              0x0100\n              exp\n              swap1\n              div\n              0xff\n              and\n                /* \"SmallProjects/Auction.sol\":2953:2983  auctionState == State.Canceled */\n              0x03\n              dup2\n              gt\n              iszero\n              tag_124\n              jumpi\n              tag_125\n              tag_67\n              jump\t// in\n            tag_125:\n            tag_124:\n              eq\n                /* \"SmallProjects/Auction.sol\":2950:3843  if(auctionState == State.Canceled){ // auction was canceled\r... */\n              iszero\n              tag_126\n              jumpi\n                /* \"SmallProjects/Auction.sol\":3043:3053  msg.sender */\n              caller\n                /* \"SmallProjects/Auction.sol\":3023:3054  recipient = payable(msg.sender) */\n              swap2\n              pop\n                /* \"SmallProjects/Auction.sol\":3077:3081  bids */\n              0x07\n                /* \"SmallProjects/Auction.sol\":3077:3093  bids[msg.sender] */\n              0x00\n                /* \"SmallProjects/Auction.sol\":3082:3092  msg.sender */\n              caller\n                /* \"SmallProjects/Auction.sol\":3077:3093  bids[msg.sender] */\n              0xffffffffffffffffffffffffffffffffffffffff\n              and\n              0xffffffffffffffffffffffffffffffffffffffff\n              and\n              dup2\n              mstore\n              0x20\n              add\n              swap1\n              dup2\n              mstore\n              0x20\n              add\n              0x00\n              keccak256\n              sload\n                /* \"SmallProjects/Auction.sol\":3069:3093  value = bids[msg.sender] */\n              swap1\n              pop\n                /* \"SmallProjects/Auction.sol\":2950:3843  if(auctionState == State.Canceled){ // auction was canceled\r... */\n              jump(tag_127)\n            tag_126:\n                /* \"SmallProjects/Auction.sol\":3174:3179  owner */\n              0x00\n              dup1\n              sload\n              swap1\n              0x0100\n              exp\n              swap1\n              div\n              0xffffffffffffffffffffffffffffffffffffffff\n              and\n                /* \"SmallProjects/Auction.sol\":3160:3179  msg.sender == owner */\n              0xffffffffffffffffffffffffffffffffffffffff\n              and\n                /* \"SmallProjects/Auction.sol\":3160:3170  msg.sender */\n              caller\n                /* \"SmallProjects/Auction.sol\":3160:3179  msg.sender == owner */\n              0xffffffffffffffffffffffffffffffffffffffff\n              and\n              eq\n                /* \"SmallProjects/Auction.sol\":3160:3210  msg.sender == owner && auctionState != State.Ended */\n              dup1\n              iszero\n              tag_128\n              jumpi\n              pop\n                /* \"SmallProjects/Auction.sol\":3199:3210  State.Ended */\n              0x02\n                /* \"SmallProjects/Auction.sol\":3183:3210  auctionState != State.Ended */\n              0x03\n              dup2\n              gt\n              iszero\n              tag_129\n              jumpi\n              tag_130\n              tag_67\n              jump\t// in\n            tag_130:\n            tag_129:\n                /* \"SmallProjects/Auction.sol\":3183:3195  auctionState */\n              0x04\n              0x00\n              swap1\n              sload\n              swap1\n              0x0100\n              exp\n              swap1\n              div\n              0xff\n              and\n                /* \"SmallProjects/Auction.sol\":3183:3210  auctionState != State.Ended */\n              0x03\n              dup2\n              gt\n              iszero\n              tag_131\n              jumpi\n              tag_132\n              tag_67\n              jump\t// in\n            tag_132:\n            tag_131:\n              eq\n              iszero\n                /* \"SmallProjects/Auction.sol\":3160:3210  msg.sender == owner && auctionState != State.Ended */\n            tag_128:\n                /* \"SmallProjects/Auction.sol\":3157:3832  if(msg.sender == owner && auctionState != State.Ended){\r... */\n              iszero\n              tag_133\n              jumpi\n                /* \"SmallProjects/Auction.sol\":3242:3247  owner */\n              0x00\n              dup1\n              sload\n              swap1\n              0x0100\n              exp\n              swap1\n              div\n              0xffffffffffffffffffffffffffffffffffffffff\n              and\n                /* \"SmallProjects/Auction.sol\":3230:3247  recipient = owner */\n              swap2\n              pop\n                /* \"SmallProjects/Auction.sol\":3274:3291  highestBindingBid */\n              sload(0x05)\n                /* \"SmallProjects/Auction.sol\":3266:3291  value = highestBindingBid */\n              swap1\n              pop\n                /* \"SmallProjects/Auction.sol\":3325:3336  State.Ended */\n              0x02\n                /* \"SmallProjects/Auction.sol\":3310:3322  auctionState */\n              0x04\n              0x00\n                /* \"SmallProjects/Auction.sol\":3310:3336  auctionState = State.Ended */\n              0x0100\n              exp\n              dup2\n              sload\n              dup2\n              0xff\n              mul\n              not\n              and\n              swap1\n              dup4\n              0x03\n              dup2\n              gt\n              iszero\n              tag_134\n              jumpi\n              tag_135\n              tag_67\n              jump\t// in\n            tag_135:\n            tag_134:\n              mul\n              or\n              swap1\n              sstore\n              pop\n                /* \"SmallProjects/Auction.sol\":3157:3832  if(msg.sender == owner && auctionState != State.Ended){\r... */\n              jump(tag_136)\n            tag_133:\n                /* \"SmallProjects/Auction.sol\":3461:3474  highestBidder */\n              0x06\n              0x00\n              swap1\n              sload\n              swap1\n              0x0100\n              exp\n              swap1\n              div\n              0xffffffffffffffffffffffffffffffffffffffff\n              and\n                /* \"SmallProjects/Auction.sol\":3447:3474  msg.sender == highestBidder */\n              0xffffffffffffffffffffffffffffffffffffffff\n              and\n                /* \"SmallProjects/Auction.sol\":3447:3457  msg.sender */\n              caller\n                /* \"SmallProjects/Auction.sol\":3447:3474  msg.sender == highestBidder */\n              0xffffffffffffffffffffffffffffffffffffffff\n              and\n              eq\n                /* \"SmallProjects/Auction.sol\":3444:3817  if(msg.sender == highestBidder){\r... */\n              iszero\n              tag_137\n              jumpi\n                /* \"SmallProjects/Auction.sol\":3510:3523  highestBidder */\n              0x06\n              0x00\n              swap1\n              sload\n              swap1\n              0x0100\n              exp\n              swap1\n              div\n              0xffffffffffffffffffffffffffffffffffffffff\n              and\n                /* \"SmallProjects/Auction.sol\":3498:3523  recipient = highestBidder */\n              swap2\n              pop\n                /* \"SmallProjects/Auction.sol\":3576:3593  highestBindingBid */\n              sload(0x05)\n                /* \"SmallProjects/Auction.sol\":3554:3558  bids */\n              0x07\n                /* \"SmallProjects/Auction.sol\":3554:3573  bids[highestBidder] */\n              0x00\n                /* \"SmallProjects/Auction.sol\":3559:3572  highestBidder */\n              0x06\n              0x00\n              swap1\n              sload\n              swap1\n              0x0100\n              exp\n              swap1\n              div\n              0xffffffffffffffffffffffffffffffffffffffff\n              and\n                /* \"SmallProjects/Auction.sol\":3554:3573  bids[highestBidder] */\n              0xffffffffffffffffffffffffffffffffffffffff\n              and\n              0xffffffffffffffffffffffffffffffffffffffff\n              and\n              dup2\n              mstore\n              0x20\n              add\n              swap1\n              dup2\n              mstore\n              0x20\n              add\n              0x00\n              keccak256\n              sload\n                /* \"SmallProjects/Auction.sol\":3554:3593  bids[highestBidder] - highestBindingBid */\n              tag_138\n              swap2\n              swap1\n              tag_139\n              jump\t// in\n            tag_138:\n                /* \"SmallProjects/Auction.sol\":3546:3593  value = bids[highestBidder] - highestBindingBid */\n              swap1\n              pop\n                /* \"SmallProjects/Auction.sol\":3444:3817  if(msg.sender == highestBidder){\r... */\n              jump(tag_140)\n            tag_137:\n                /* \"SmallProjects/Auction.sol\":3716:3726  msg.sender */\n              caller\n                /* \"SmallProjects/Auction.sol\":3696:3727  recipient = payable(msg.sender) */\n              swap2\n              pop\n                /* \"SmallProjects/Auction.sol\":3758:3762  bids */\n              0x07\n                /* \"SmallProjects/Auction.sol\":3758:3774  bids[msg.sender] */\n              0x00\n                /* \"SmallProjects/Auction.sol\":3763:3773  msg.sender */\n              caller\n                /* \"SmallProjects/Auction.sol\":3758:3774  bids[msg.sender] */\n              0xffffffffffffffffffffffffffffffffffffffff\n              and\n              0xffffffffffffffffffffffffffffffffffffffff\n              and\n              dup2\n              mstore\n              0x20\n              add\n              swap1\n              dup2\n              mstore\n              0x20\n              add\n              0x00\n              keccak256\n              sload\n                /* \"SmallProjects/Auction.sol\":3750:3774  value = bids[msg.sender] */\n              swap1\n              pop\n                /* \"SmallProjects/Auction.sol\":3444:3817  if(msg.sender == highestBidder){\r... */\n            tag_140:\n                /* \"SmallProjects/Auction.sol\":3157:3832  if(msg.sender == owner && auctionState != State.Ended){\r... */\n            tag_136:\n                /* \"SmallProjects/Auction.sol\":2950:3843  if(auctionState == State.Canceled){ // auction was canceled\r... */\n            tag_127:\n                /* \"SmallProjects/Auction.sol\":3961:3962  0 */\n              0x00\n                /* \"SmallProjects/Auction.sol\":3943:3947  bids */\n              0x07\n                /* \"SmallProjects/Auction.sol\":3943:3958  bids[recipient] */\n              0x00\n                /* \"SmallProjects/Auction.sol\":3948:3957  recipient */\n              dup5\n                /* \"SmallProjects/Auction.sol\":3943:3958  bids[recipient] */\n              0xffffffffffffffffffffffffffffffffffffffff\n              and\n              0xffffffffffffffffffffffffffffffffffffffff\n              and\n              dup2\n              mstore\n              0x20\n              add\n              swap1\n              dup2\n              mstore\n              0x20\n              add\n              0x00\n              keccak256\n                /* \"SmallProjects/Auction.sol\":3943:3962  bids[recipient] = 0 */\n              dup2\n              swap1\n              sstore\n              pop\n                /* \"SmallProjects/Auction.sol\":3984:3993  recipient */\n              dup2\n                /* \"SmallProjects/Auction.sol\":3984:4002  recipient.transfer */\n              0xffffffffffffffffffffffffffffffffffffffff\n              and\n                /* \"SmallProjects/Auction.sol\":3984:4009  recipient.transfer(value) */\n              0x08fc\n                /* \"SmallProjects/Auction.sol\":4003:4008  value */\n              dup3\n                /* \"SmallProjects/Auction.sol\":3984:4009  recipient.transfer(value) */\n              swap1\n              dup2\n              iszero\n              mul\n              swap1\n              mload(0x40)\n              0x00\n              mload(0x40)\n              dup1\n              dup4\n              sub\n              dup2\n              dup6\n              dup9\n              dup9\n              call\n              swap4\n              pop\n              pop\n              pop\n              pop\n              iszero\n              dup1\n              iszero\n              tag_142\n              jumpi\n              returndatasize\n              0x00\n              dup1\n              returndatacopy\n              revert(0x00, returndatasize)\n            tag_142:\n              pop\n                /* \"SmallProjects/Auction.sol\":2612:4017  {\r... */\n              pop\n              pop\n                /* \"SmallProjects/Auction.sol\":2578:4017  function finalizeAuction () public{\r... */\n              jump\t// out\n                /* \"SmallProjects/Auction.sol\":1521:1691  function min(uint a, uint b )  pure internal returns(uint){\r... */\n            tag_105:\n                /* \"SmallProjects/Auction.sol\":1574:1578  uint */\n              0x00\n                /* \"SmallProjects/Auction.sol\":1598:1599  b */\n              dup2\n                /* \"SmallProjects/Auction.sol\":1593:1594  a */\n              dup4\n                /* \"SmallProjects/Auction.sol\":1593:1599  a <= b */\n              gt\n                /* \"SmallProjects/Auction.sol\":1590:1684  if(a <= b){\r... */\n              tag_144\n              jumpi\n                /* \"SmallProjects/Auction.sol\":1622:1623  a */\n              dup3\n                /* \"SmallProjects/Auction.sol\":1615:1623  return a */\n              swap1\n              pop\n              jump(tag_143)\n                /* \"SmallProjects/Auction.sol\":1590:1684  if(a <= b){\r... */\n            tag_144:\n                /* \"SmallProjects/Auction.sol\":1671:1672  b */\n              dup2\n                /* \"SmallProjects/Auction.sol\":1664:1672  return b */\n              swap1\n              pop\n                /* \"SmallProjects/Auction.sol\":1521:1691  function min(uint a, uint b )  pure internal returns(uint){\r... */\n            tag_143:\n              swap3\n              swap2\n              pop\n              pop\n              jump\t// out\n                /* \"#utility.yul\":7:146   */\n            tag_147:\n                /* \"#utility.yul\":53:58   */\n              0x00\n                /* \"#utility.yul\":91:97   */\n              dup2\n                /* \"#utility.yul\":78:98   */\n              calldataload\n                /* \"#utility.yul\":69:98   */\n              swap1\n              pop\n                /* \"#utility.yul\":107:140   */\n              tag_149\n                /* \"#utility.yul\":134:139   */\n              dup2\n                /* \"#utility.yul\":107:140   */\n              tag_150\n              jump\t// in\n            tag_149:\n                /* \"#utility.yul\":7:146   */\n              swap3\n              swap2\n              pop\n              pop\n              jump\t// out\n                /* \"#utility.yul\":152:481   */\n            tag_26:\n                /* \"#utility.yul\":211:217   */\n              0x00\n                /* \"#utility.yul\":260:262   */\n              0x20\n                /* \"#utility.yul\":248:257   */\n              dup3\n                /* \"#utility.yul\":239:246   */\n              dup5\n                /* \"#utility.yul\":235:258   */\n              sub\n                /* \"#utility.yul\":231:263   */\n              slt\n                /* \"#utility.yul\":228:347   */\n              iszero\n              tag_152\n              jumpi\n                /* \"#utility.yul\":266:345   */\n              tag_153\n              tag_154\n              jump\t// in\n            tag_153:\n                /* \"#utility.yul\":228:347   */\n            tag_152:\n                /* \"#utility.yul\":386:387   */\n              0x00\n                /* \"#utility.yul\":411:464   */\n              tag_155\n                /* \"#utility.yul\":456:463   */\n              dup5\n                /* \"#utility.yul\":447:453   */\n              dup3\n                /* \"#utility.yul\":436:445   */\n              dup6\n                /* \"#utility.yul\":432:454   */\n              add\n                /* \"#utility.yul\":411:464   */\n              tag_147\n              jump\t// in\n            tag_155:\n                /* \"#utility.yul\":401:464   */\n              swap2\n              pop\n                /* \"#utility.yul\":357:474   */\n              pop\n                /* \"#utility.yul\":152:481   */\n              swap3\n              swap2\n              pop\n              pop\n              jump\t// out\n                /* \"#utility.yul\":487:629   */\n            tag_156:\n                /* \"#utility.yul\":590:622   */\n              tag_158\n                /* \"#utility.yul\":616:621   */\n              dup2\n                /* \"#utility.yul\":590:622   */\n              tag_159\n              jump\t// in\n            tag_158:\n                /* \"#utility.yul\":585:588   */\n              dup3\n                /* \"#utility.yul\":578:623   */\n              mstore\n                /* \"#utility.yul\":487:629   */\n              pop\n              pop\n              jump\t// out\n                /* \"#utility.yul\":635:778   */\n            tag_160:\n                /* \"#utility.yul\":728:771   */\n              tag_162\n                /* \"#utility.yul\":765:770   */\n              dup2\n                /* \"#utility.yul\":728:771   */\n              tag_163\n              jump\t// in\n            tag_162:\n                /* \"#utility.yul\":723:726   */\n              dup3\n                /* \"#utility.yul\":716:772   */\n              mstore\n                /* \"#utility.yul\":635:778   */\n              pop\n              pop\n              jump\t// out\n                /* \"#utility.yul\":784:1148   */\n            tag_164:\n                /* \"#utility.yul\":872:875   */\n              0x00\n                /* \"#utility.yul\":900:939   */\n              tag_166\n                /* \"#utility.yul\":933:938   */\n              dup3\n                /* \"#utility.yul\":900:939   */\n              tag_167\n              jump\t// in\n            tag_166:\n                /* \"#utility.yul\":955:1026   */\n              tag_168\n                /* \"#utility.yul\":1019:1025   */\n              dup2\n                /* \"#utility.yul\":1014:1017   */\n              dup6\n                /* \"#utility.yul\":955:1026   */\n              tag_169\n              jump\t// in\n            tag_168:\n                /* \"#utility.yul\":948:1026   */\n              swap4\n              pop\n                /* \"#utility.yul\":1035:1087   */\n              tag_170\n                /* \"#utility.yul\":1080:1086   */\n              dup2\n                /* \"#utility.yul\":1075:1078   */\n              dup6\n                /* \"#utility.yul\":1068:1072   */\n              0x20\n                /* \"#utility.yul\":1061:1066   */\n              dup7\n                /* \"#utility.yul\":1057:1073   */\n              add\n                /* \"#utility.yul\":1035:1087   */\n              tag_171\n              jump\t// in\n            tag_170:\n                /* \"#utility.yul\":1112:1141   */\n              tag_172\n                /* \"#utility.yul\":1134:1140   */\n              dup2\n                /* \"#utility.yul\":1112:1141   */\n              tag_173\n              jump\t// in\n            tag_172:\n                /* \"#utility.yul\":1107:1110   */\n              dup5\n                /* \"#utility.yul\":1103:1142   */\n              add\n                /* \"#utility.yul\":1096:1142   */\n              swap2\n              pop\n                /* \"#utility.yul\":876:1148   */\n              pop\n                /* \"#utility.yul\":784:1148   */\n              swap3\n              swap2\n              pop\n              pop\n              jump\t// out\n                /* \"#utility.yul\":1154:1520   */\n            tag_174:\n                /* \"#utility.yul\":1296:1299   */\n              0x00\n                /* \"#utility.yul\":1317:1384   */\n              tag_176\n                /* \"#utility.yul\":1381:1383   */\n              0x15\n                /* \"#utility.yul\":1376:1379   */\n              dup4\n                /* \"#utility.yul\":1317:1384   */\n              tag_169\n              jump\t// in\n            tag_176:\n                /* \"#utility.yul\":1310:1384   */\n              swap2\n              pop\n                /* \"#utility.yul\":1393:1486   */\n              tag_177\n                /* \"#utility.yul\":1482:1485   */\n              dup3\n                /* \"#utility.yul\":1393:1486   */\n              tag_178\n              jump\t// in\n            tag_177:\n                /* \"#utility.yul\":1511:1513   */\n              0x20\n                /* \"#utility.yul\":1506:1509   */\n              dup3\n                /* \"#utility.yul\":1502:1514   */\n              add\n                /* \"#utility.yul\":1495:1514   */\n              swap1\n              pop\n                /* \"#utility.yul\":1154:1520   */\n              swap2\n              swap1\n              pop\n              jump\t// out\n                /* \"#utility.yul\":1526:1892   */\n            tag_179:\n                /* \"#utility.yul\":1668:1671   */\n              0x00\n                /* \"#utility.yul\":1689:1756   */\n              tag_181\n                /* \"#utility.yul\":1753:1755   */\n              0x16\n                /* \"#utility.yul\":1748:1751   */\n              dup4\n                /* \"#utility.yul\":1689:1756   */\n              tag_169\n              jump\t// in\n            tag_181:\n                /* \"#utility.yul\":1682:1756   */\n              swap2\n              pop\n                /* \"#utility.yul\":1765:1858   */\n              tag_182\n                /* \"#utility.yul\":1854:1857   */\n              dup3\n                /* \"#utility.yul\":1765:1858   */\n              tag_183\n              jump\t// in\n            tag_182:\n                /* \"#utility.yul\":1883:1885   */\n              0x20\n                /* \"#utility.yul\":1878:1881   */\n              dup3\n                /* \"#utility.yul\":1874:1886   */\n              add\n                /* \"#utility.yul\":1867:1886   */\n              swap1\n              pop\n                /* \"#utility.yul\":1526:1892   */\n              swap2\n              swap1\n              pop\n              jump\t// out\n                /* \"#utility.yul\":1898:2264   */\n            tag_184:\n                /* \"#utility.yul\":2040:2043   */\n              0x00\n                /* \"#utility.yul\":2061:2128   */\n              tag_186\n                /* \"#utility.yul\":2125:2127   */\n              0x25\n                /* \"#utility.yul\":2120:2123   */\n              dup4\n                /* \"#utility.yul\":2061:2128   */\n              tag_169\n              jump\t// in\n            tag_186:\n                /* \"#utility.yul\":2054:2128   */\n              swap2\n              pop\n                /* \"#utility.yul\":2137:2230   */\n              tag_187\n                /* \"#utility.yul\":2226:2229   */\n              dup3\n                /* \"#utility.yul\":2137:2230   */\n              tag_188\n              jump\t// in\n            tag_187:\n                /* \"#utility.yul\":2255:2257   */\n              0x40\n                /* \"#utility.yul\":2250:2253   */\n              dup3\n                /* \"#utility.yul\":2246:2258   */\n              add\n                /* \"#utility.yul\":2239:2258   */\n              swap1\n              pop\n                /* \"#utility.yul\":1898:2264   */\n              swap2\n              swap1\n              pop\n              jump\t// out\n                /* \"#utility.yul\":2270:2636   */\n            tag_189:\n                /* \"#utility.yul\":2412:2415   */\n              0x00\n                /* \"#utility.yul\":2433:2500   */\n              tag_191\n                /* \"#utility.yul\":2497:2499   */\n              0x16\n                /* \"#utility.yul\":2492:2495   */\n              dup4\n                /* \"#utility.yul\":2433:2500   */\n              tag_169\n              jump\t// in\n            tag_191:\n                /* \"#utility.yul\":2426:2500   */\n              swap2\n              pop\n                /* \"#utility.yul\":2509:2602   */\n              tag_192\n                /* \"#utility.yul\":2598:2601   */\n              dup3\n                /* \"#utility.yul\":2509:2602   */\n              tag_193\n              jump\t// in\n            tag_192:\n                /* \"#utility.yul\":2627:2629   */\n              0x20\n                /* \"#utility.yul\":2622:2625   */\n              dup3\n                /* \"#utility.yul\":2618:2630   */\n              add\n                /* \"#utility.yul\":2611:2630   */\n              swap1\n              pop\n                /* \"#utility.yul\":2270:2636   */\n              swap2\n              swap1\n              pop\n              jump\t// out\n                /* \"#utility.yul\":2642:3008   */\n            tag_194:\n                /* \"#utility.yul\":2784:2787   */\n              0x00\n                /* \"#utility.yul\":2805:2872   */\n              tag_196\n                /* \"#utility.yul\":2869:2871   */\n              0x2a\n                /* \"#utility.yul\":2864:2867   */\n              dup4\n                /* \"#utility.yul\":2805:2872   */\n              tag_169\n              jump\t// in\n            tag_196:\n                /* \"#utility.yul\":2798:2872   */\n              swap2\n              pop\n                /* \"#utility.yul\":2881:2974   */\n              tag_197\n                /* \"#utility.yul\":2970:2973   */\n              dup3\n                /* \"#utility.yul\":2881:2974   */\n              tag_198\n              jump\t// in\n            tag_197:\n                /* \"#utility.yul\":2999:3001   */\n              0x40\n                /* \"#utility.yul\":2994:2997   */\n              dup3\n                /* \"#utility.yul\":2990:3002   */\n              add\n                /* \"#utility.yul\":2983:3002   */\n              swap1\n              pop\n                /* \"#utility.yul\":2642:3008   */\n              swap2\n              swap1\n              pop\n              jump\t// out\n                /* \"#utility.yul\":3014:3380   */\n            tag_199:\n                /* \"#utility.yul\":3156:3159   */\n              0x00\n                /* \"#utility.yul\":3177:3244   */\n              tag_201\n                /* \"#utility.yul\":3241:3243   */\n              0x40\n                /* \"#utility.yul\":3236:3239   */\n              dup4\n                /* \"#utility.yul\":3177:3244   */\n              tag_169\n              jump\t// in\n            tag_201:\n                /* \"#utility.yul\":3170:3244   */\n              swap2\n              pop\n                /* \"#utility.yul\":3253:3346   */\n              tag_202\n                /* \"#utility.yul\":3342:3345   */\n              dup3\n                /* \"#utility.yul\":3253:3346   */\n              tag_203\n              jump\t// in\n            tag_202:\n                /* \"#utility.yul\":3371:3373   */\n              0x40\n                /* \"#utility.yul\":3366:3369   */\n              dup3\n                /* \"#utility.yul\":3362:3374   */\n              add\n                /* \"#utility.yul\":3355:3374   */\n              swap1\n              pop\n                /* \"#utility.yul\":3014:3380   */\n              swap2\n              swap1\n              pop\n              jump\t// out\n                /* \"#utility.yul\":3386:3752   */\n            tag_204:\n                /* \"#utility.yul\":3528:3531   */\n              0x00\n                /* \"#utility.yul\":3549:3616   */\n              tag_206\n                /* \"#utility.yul\":3613:3615   */\n              0x22\n                /* \"#utility.yul\":3608:3611   */\n              dup4\n                /* \"#utility.yul\":3549:3616   */\n              tag_169\n              jump\t// in\n            tag_206:\n                /* \"#utility.yul\":3542:3616   */\n              swap2\n              pop\n                /* \"#utility.yul\":3625:3718   */\n              tag_207\n                /* \"#utility.yul\":3714:3717   */\n              dup3\n                /* \"#utility.yul\":3625:3718   */\n              tag_208\n              jump\t// in\n            tag_207:\n                /* \"#utility.yul\":3743:3745   */\n              0x40\n                /* \"#utility.yul\":3738:3741   */\n              dup3\n                /* \"#utility.yul\":3734:3746   */\n              add\n                /* \"#utility.yul\":3727:3746   */\n              swap1\n              pop\n                /* \"#utility.yul\":3386:3752   */\n              swap2\n              swap1\n              pop\n              jump\t// out\n                /* \"#utility.yul\":3758:4124   */\n            tag_209:\n                /* \"#utility.yul\":3900:3903   */\n              0x00\n                /* \"#utility.yul\":3921:3988   */\n              tag_211\n                /* \"#utility.yul\":3985:3987   */\n              0x28\n                /* \"#utility.yul\":3980:3983   */\n              dup4\n                /* \"#utility.yul\":3921:3988   */\n              tag_169\n              jump\t// in\n            tag_211:\n                /* \"#utility.yul\":3914:3988   */\n              swap2\n              pop\n                /* \"#utility.yul\":3997:4090   */\n              tag_212\n                /* \"#utility.yul\":4086:4089   */\n              dup3\n                /* \"#utility.yul\":3997:4090   */\n              tag_213\n              jump\t// in\n            tag_212:\n                /* \"#utility.yul\":4115:4117   */\n              0x40\n                /* \"#utility.yul\":4110:4113   */\n              dup3\n                /* \"#utility.yul\":4106:4118   */\n              add\n                /* \"#utility.yul\":4099:4118   */\n              swap1\n              pop\n                /* \"#utility.yul\":3758:4124   */\n              swap2\n              swap1\n              pop\n              jump\t// out\n                /* \"#utility.yul\":4130:4496   */\n            tag_214:\n                /* \"#utility.yul\":4272:4275   */\n              0x00\n                /* \"#utility.yul\":4293:4360   */\n              tag_216\n                /* \"#utility.yul\":4357:4359   */\n              0x2d\n                /* \"#utility.yul\":4352:4355   */\n              dup4\n                /* \"#utility.yul\":4293:4360   */\n              tag_169\n              jump\t// in\n            tag_216:\n                /* \"#utility.yul\":4286:4360   */\n              swap2\n              pop\n                /* \"#utility.yul\":4369:4462   */\n              tag_217\n                /* \"#utility.yul\":4458:4461   */\n              dup3\n                /* \"#utility.yul\":4369:4462   */\n              tag_218\n              jump\t// in\n            tag_217:\n                /* \"#utility.yul\":4487:4489   */\n              0x40\n                /* \"#utility.yul\":4482:4485   */\n              dup3\n                /* \"#utility.yul\":4478:4490   */\n              add\n                /* \"#utility.yul\":4471:4490   */\n              swap1\n              pop\n                /* \"#utility.yul\":4130:4496   */\n              swap2\n              swap1\n              pop\n              jump\t// out\n                /* \"#utility.yul\":4502:4620   */\n            tag_219:\n                /* \"#utility.yul\":4589:4613   */\n              tag_221\n                /* \"#utility.yul\":4607:4612   */\n              dup2\n                /* \"#utility.yul\":4589:4613   */\n              tag_222\n              jump\t// in\n            tag_221:\n                /* \"#utility.yul\":4584:4587   */\n              dup3\n                /* \"#utility.yul\":4577:4614   */\n              mstore\n                /* \"#utility.yul\":4502:4620   */\n              pop\n              pop\n              jump\t// out\n                /* \"#utility.yul\":4626:4880   */\n            tag_38:\n                /* \"#utility.yul\":4735:4739   */\n              0x00\n                /* \"#utility.yul\":4773:4775   */\n              0x20\n                /* \"#utility.yul\":4762:4771   */\n              dup3\n                /* \"#utility.yul\":4758:4776   */\n              add\n                /* \"#utility.yul\":4750:4776   */\n              swap1\n              pop\n                /* \"#utility.yul\":4786:4873   */\n              tag_224\n                /* \"#utility.yul\":4870:4871   */\n              0x00\n                /* \"#utility.yul\":4859:4868   */\n              dup4\n                /* \"#utility.yul\":4855:4872   */\n              add\n                /* \"#utility.yul\":4846:4852   */\n              dup5\n                /* \"#utility.yul\":4786:4873   */\n              tag_156\n              jump\t// in\n            tag_224:\n                /* \"#utility.yul\":4626:4880   */\n              swap3\n              swap2\n              pop\n              pop\n              jump\t// out\n                /* \"#utility.yul\":4886:5120   */\n            tag_33:\n                /* \"#utility.yul\":4985:4989   */\n              0x00\n                /* \"#utility.yul\":5023:5025   */\n              0x20\n                /* \"#utility.yul\":5012:5021   */\n              dup3\n                /* \"#utility.yul\":5008:5026   */\n              add\n                /* \"#utility.yul\":5000:5026   */\n              swap1\n              pop\n                /* \"#utility.yul\":5036:5113   */\n              tag_226\n                /* \"#utility.yul\":5110:5111   */\n              0x00\n                /* \"#utility.yul\":5099:5108   */\n              dup4\n                /* \"#utility.yul\":5095:5112   */\n              add\n                /* \"#utility.yul\":5086:5092   */\n              dup5\n                /* \"#utility.yul\":5036:5113   */\n              tag_160\n              jump\t// in\n            tag_226:\n                /* \"#utility.yul\":4886:5120   */\n              swap3\n              swap2\n              pop\n              pop\n              jump\t// out\n                /* \"#utility.yul\":5126:5439   */\n            tag_50:\n                /* \"#utility.yul\":5239:5243   */\n              0x00\n                /* \"#utility.yul\":5277:5279   */\n              0x20\n                /* \"#utility.yul\":5266:5275   */\n              dup3\n                /* \"#utility.yul\":5262:5280   */\n              add\n                /* \"#utility.yul\":5254:5280   */\n              swap1\n              pop\n                /* \"#utility.yul\":5326:5335   */\n              dup2\n                /* \"#utility.yul\":5320:5324   */\n              dup2\n                /* \"#utility.yul\":5316:5336   */\n              sub\n                /* \"#utility.yul\":5312:5313   */\n              0x00\n                /* \"#utility.yul\":5301:5310   */\n              dup4\n                /* \"#utility.yul\":5297:5314   */\n              add\n                /* \"#utility.yul\":5290:5337   */\n              mstore\n                /* \"#utility.yul\":5354:5432   */\n              tag_228\n                /* \"#utility.yul\":5427:5431   */\n              dup2\n                /* \"#utility.yul\":5418:5424   */\n              dup5\n                /* \"#utility.yul\":5354:5432   */\n              tag_164\n              jump\t// in\n            tag_228:\n                /* \"#utility.yul\":5346:5432   */\n              swap1\n              pop\n                /* \"#utility.yul\":5126:5439   */\n              swap3\n              swap2\n              pop\n              pop\n              jump\t// out\n                /* \"#utility.yul\":5445:5864   */\n            tag_81:\n                /* \"#utility.yul\":5611:5615   */\n              0x00\n                /* \"#utility.yul\":5649:5651   */\n              0x20\n                /* \"#utility.yul\":5638:5647   */\n              dup3\n                /* \"#utility.yul\":5634:5652   */\n              add\n                /* \"#utility.yul\":5626:5652   */\n              swap1\n              pop\n                /* \"#utility.yul\":5698:5707   */\n              dup2\n                /* \"#utility.yul\":5692:5696   */\n              dup2\n                /* \"#utility.yul\":5688:5708   */\n              sub\n                /* \"#utility.yul\":5684:5685   */\n              0x00\n                /* \"#utility.yul\":5673:5682   */\n              dup4\n                /* \"#utility.yul\":5669:5686   */\n              add\n                /* \"#utility.yul\":5662:5709   */\n              mstore\n                /* \"#utility.yul\":5726:5857   */\n              tag_230\n                /* \"#utility.yul\":5852:5856   */\n              dup2\n                /* \"#utility.yul\":5726:5857   */\n              tag_174\n              jump\t// in\n            tag_230:\n                /* \"#utility.yul\":5718:5857   */\n              swap1\n              pop\n                /* \"#utility.yul\":5445:5864   */\n              swap2\n              swap1\n              pop\n              jump\t// out\n                /* \"#utility.yul\":5870:6289   */\n            tag_63:\n                /* \"#utility.yul\":6036:6040   */\n              0x00\n                /* \"#utility.yul\":6074:6076   */\n              0x20\n                /* \"#utility.yul\":6063:6072   */\n              dup3\n                /* \"#utility.yul\":6059:6077   */\n              add\n                /* \"#utility.yul\":6051:6077   */\n              swap1\n              pop\n                /* \"#utility.yul\":6123:6132   */\n              dup2\n                /* \"#utility.yul\":6117:6121   */\n              dup2\n                /* \"#utility.yul\":6113:6133   */\n              sub\n                /* \"#utility.yul\":6109:6110   */\n              0x00\n                /* \"#utility.yul\":6098:6107   */\n              dup4\n                /* \"#utility.yul\":6094:6111   */\n              add\n                /* \"#utility.yul\":6087:6134   */\n              mstore\n                /* \"#utility.yul\":6151:6282   */\n              tag_232\n                /* \"#utility.yul\":6277:6281   */\n              dup2\n                /* \"#utility.yul\":6151:6282   */\n              tag_179\n              jump\t// in\n            tag_232:\n                /* \"#utility.yul\":6143:6282   */\n              swap1\n              pop\n                /* \"#utility.yul\":5870:6289   */\n              swap2\n              swap1\n              pop\n              jump\t// out\n                /* \"#utility.yul\":6295:6714   */\n            tag_101:\n                /* \"#utility.yul\":6461:6465   */\n              0x00\n                /* \"#utility.yul\":6499:6501   */\n              0x20\n                /* \"#utility.yul\":6488:6497   */\n              dup3\n                /* \"#utility.yul\":6484:6502   */\n              add\n                /* \"#utility.yul\":6476:6502   */\n              swap1\n              pop\n                /* \"#utility.yul\":6548:6557   */\n              dup2\n                /* \"#utility.yul\":6542:6546   */\n              dup2\n                /* \"#utility.yul\":6538:6558   */\n              sub\n                /* \"#utility.yul\":6534:6535   */\n              0x00\n                /* \"#utility.yul\":6523:6532   */\n              dup4\n                /* \"#utility.yul\":6519:6536   */\n              add\n                /* \"#utility.yul\":6512:6559   */\n              mstore\n                /* \"#utility.yul\":6576:6707   */\n              tag_234\n                /* \"#utility.yul\":6702:6706   */\n              dup2\n                /* \"#utility.yul\":6576:6707   */\n              tag_184\n              jump\t// in\n            tag_234:\n                /* \"#utility.yul\":6568:6707   */\n              swap1\n              pop\n                /* \"#utility.yul\":6295:6714   */\n              swap2\n              swap1\n              pop\n              jump\t// out\n                /* \"#utility.yul\":6720:7139   */\n            tag_85:\n                /* \"#utility.yul\":6886:6890   */\n              0x00\n                /* \"#utility.yul\":6924:6926   */\n              0x20\n                /* \"#utility.yul\":6913:6922   */\n              dup3\n                /* \"#utility.yul\":6909:6927   */\n              add\n                /* \"#utility.yul\":6901:6927   */\n              swap1\n              pop\n                /* \"#utility.yul\":6973:6982   */\n              dup2\n                /* \"#utility.yul\":6967:6971   */\n              dup2\n                /* \"#utility.yul\":6963:6983   */\n              sub\n                /* \"#utility.yul\":6959:6960   */\n              0x00\n                /* \"#utility.yul\":6948:6957   */\n              dup4\n                /* \"#utility.yul\":6944:6961   */\n              add\n                /* \"#utility.yul\":6937:6984   */\n              mstore\n                /* \"#utility.yul\":7001:7132   */\n              tag_236\n                /* \"#utility.yul\":7127:7131   */\n              dup2\n                /* \"#utility.yul\":7001:7132   */\n              tag_189\n              jump\t// in\n            tag_236:\n                /* \"#utility.yul\":6993:7132   */\n              swap1\n              pop\n                /* \"#utility.yul\":6720:7139   */\n              swap2\n              swap1\n              pop\n              jump\t// out\n                /* \"#utility.yul\":7145:7564   */\n            tag_77:\n                /* \"#utility.yul\":7311:7315   */\n              0x00\n                /* \"#utility.yul\":7349:7351   */\n              0x20\n                /* \"#utility.yul\":7338:7347   */\n              dup3\n                /* \"#utility.yul\":7334:7352   */\n              add\n                /* \"#utility.yul\":7326:7352   */\n              swap1\n              pop\n                /* \"#utility.yul\":7398:7407   */\n              dup2\n                /* \"#utility.yul\":7392:7396   */\n              dup2\n                /* \"#utility.yul\":7388:7408   */\n              sub\n                /* \"#utility.yul\":7384:7385   */\n              0x00\n                /* \"#utility.yul\":7373:7382   */\n              dup4\n                /* \"#utility.yul\":7369:7386   */\n              add\n                /* \"#utility.yul\":7362:7409   */\n              mstore\n                /* \"#utility.yul\":7426:7557   */\n              tag_238\n                /* \"#utility.yul\":7552:7556   */\n              dup2\n                /* \"#utility.yul\":7426:7557   */\n              tag_194\n              jump\t// in\n            tag_238:\n                /* \"#utility.yul\":7418:7557   */\n              swap1\n              pop\n                /* \"#utility.yul\":7145:7564   */\n              swap2\n              swap1\n              pop\n              jump\t// out\n                /* \"#utility.yul\":7570:7989   */\n            tag_121:\n                /* \"#utility.yul\":7736:7740   */\n              0x00\n                /* \"#utility.yul\":7774:7776   */\n              0x20\n                /* \"#utility.yul\":7763:7772   */\n              dup3\n                /* \"#utility.yul\":7759:7777   */\n              add\n                /* \"#utility.yul\":7751:7777   */\n              swap1\n              pop\n                /* \"#utility.yul\":7823:7832   */\n              dup2\n                /* \"#utility.yul\":7817:7821   */\n              dup2\n                /* \"#utility.yul\":7813:7833   */\n              sub\n                /* \"#utility.yul\":7809:7810   */\n              0x00\n                /* \"#utility.yul\":7798:7807   */\n              dup4\n                /* \"#utility.yul\":7794:7811   */\n              add\n                /* \"#utility.yul\":7787:7834   */\n              mstore\n                /* \"#utility.yul\":7851:7982   */\n              tag_240\n                /* \"#utility.yul\":7977:7981   */\n              dup2\n                /* \"#utility.yul\":7851:7982   */\n              tag_199\n              jump\t// in\n            tag_240:\n                /* \"#utility.yul\":7843:7982   */\n              swap1\n              pop\n                /* \"#utility.yul\":7570:7989   */\n              swap2\n              swap1\n              pop\n              jump\t// out\n                /* \"#utility.yul\":7995:8414   */\n            tag_93:\n                /* \"#utility.yul\":8161:8165   */\n              0x00\n                /* \"#utility.yul\":8199:8201   */\n              0x20\n                /* \"#utility.yul\":8188:8197   */\n              dup3\n                /* \"#utility.yul\":8184:8202   */\n              add\n                /* \"#utility.yul\":8176:8202   */\n              swap1\n              pop\n                /* \"#utility.yul\":8248:8257   */\n              dup2\n                /* \"#utility.yul\":8242:8246   */\n              dup2\n                /* \"#utility.yul\":8238:8258   */\n              sub\n                /* \"#utility.yul\":8234:8235   */\n              0x00\n                /* \"#utility.yul\":8223:8232   */\n              dup4\n                /* \"#utility.yul\":8219:8236   */\n              add\n                /* \"#utility.yul\":8212:8259   */\n              mstore\n                /* \"#utility.yul\":8276:8407   */\n              tag_242\n                /* \"#utility.yul\":8402:8406   */\n              dup2\n                /* \"#utility.yul\":8276:8407   */\n              tag_204\n              jump\t// in\n            tag_242:\n                /* \"#utility.yul\":8268:8407   */\n              swap1\n              pop\n                /* \"#utility.yul\":7995:8414   */\n              swap2\n              swap1\n              pop\n              jump\t// out\n                /* \"#utility.yul\":8420:8839   */\n            tag_96:\n                /* \"#utility.yul\":8586:8590   */\n              0x00\n                /* \"#utility.yul\":8624:8626   */\n              0x20\n                /* \"#utility.yul\":8613:8622   */\n              dup3\n                /* \"#utility.yul\":8609:8627   */\n              add\n                /* \"#utility.yul\":8601:8627   */\n              swap1\n              pop\n                /* \"#utility.yul\":8673:8682   */\n              dup2\n                /* \"#utility.yul\":8667:8671   */\n              dup2\n                /* \"#utility.yul\":8663:8683   */\n              sub\n                /* \"#utility.yul\":8659:8660   */\n              0x00\n                /* \"#utility.yul\":8648:8657   */\n              dup4\n                /* \"#utility.yul\":8644:8661   */\n              add\n                /* \"#utility.yul\":8637:8684   */\n              mstore\n                /* \"#utility.yul\":8701:8832   */\n              tag_244\n                /* \"#utility.yul\":8827:8831   */\n              dup2\n                /* \"#utility.yul\":8701:8832   */\n              tag_209\n              jump\t// in\n            tag_244:\n                /* \"#utility.yul\":8693:8832   */\n              swap1\n              pop\n                /* \"#utility.yul\":8420:8839   */\n              swap2\n              swap1\n              pop\n              jump\t// out\n                /* \"#utility.yul\":8845:9264   */\n            tag_117:\n                /* \"#utility.yul\":9011:9015   */\n              0x00\n                /* \"#utility.yul\":9049:9051   */\n              0x20\n                /* \"#utility.yul\":9038:9047   */\n              dup3\n                /* \"#utility.yul\":9034:9052   */\n              add\n                /* \"#utility.yul\":9026:9052   */\n              swap1\n              pop\n                /* \"#utility.yul\":9098:9107   */\n              dup2\n                /* \"#utility.yul\":9092:9096   */\n              dup2\n                /* \"#utility.yul\":9088:9108   */\n              sub\n                /* \"#utility.yul\":9084:9085   */\n              0x00\n                /* \"#utility.yul\":9073:9082   */\n              dup4\n                /* \"#utility.yul\":9069:9086   */\n              add\n                /* \"#utility.yul\":9062:9109   */\n              mstore\n                /* \"#utility.yul\":9126:9257   */\n              tag_246\n                /* \"#utility.yul\":9252:9256   */\n              dup2\n                /* \"#utility.yul\":9126:9257   */\n              tag_214\n              jump\t// in\n            tag_246:\n                /* \"#utility.yul\":9118:9257   */\n              swap1\n              pop\n                /* \"#utility.yul\":8845:9264   */\n              swap2\n              swap1\n              pop\n              jump\t// out\n                /* \"#utility.yul\":9270:9492   */\n            tag_18:\n                /* \"#utility.yul\":9363:9367   */\n              0x00\n                /* \"#utility.yul\":9401:9403   */\n              0x20\n                /* \"#utility.yul\":9390:9399   */\n              dup3\n                /* \"#utility.yul\":9386:9404   */\n              add\n                /* \"#utility.yul\":9378:9404   */\n              swap1\n              pop\n                /* \"#utility.yul\":9414:9485   */\n              tag_248\n                /* \"#utility.yul\":9482:9483   */\n              0x00\n                /* \"#utility.yul\":9471:9480   */\n              dup4\n                /* \"#utility.yul\":9467:9484   */\n              add\n                /* \"#utility.yul\":9458:9464   */\n              dup5\n                /* \"#utility.yul\":9414:9485   */\n              tag_219\n              jump\t// in\n            tag_248:\n                /* \"#utility.yul\":9270:9492   */\n              swap3\n              swap2\n              pop\n              pop\n              jump\t// out\n                /* \"#utility.yul\":9579:9678   */\n            tag_167:\n                /* \"#utility.yul\":9631:9637   */\n              0x00\n                /* \"#utility.yul\":9665:9670   */\n              dup2\n                /* \"#utility.yul\":9659:9671   */\n              mload\n                /* \"#utility.yul\":9649:9671   */\n              swap1\n              pop\n                /* \"#utility.yul\":9579:9678   */\n              swap2\n              swap1\n              pop\n              jump\t// out\n                /* \"#utility.yul\":9684:9853   */\n            tag_169:\n                /* \"#utility.yul\":9768:9779   */\n              0x00\n                /* \"#utility.yul\":9802:9808   */\n              dup3\n                /* \"#utility.yul\":9797:9800   */\n              dup3\n                /* \"#utility.yul\":9790:9809   */\n              mstore\n                /* \"#utility.yul\":9842:9846   */\n              0x20\n                /* \"#utility.yul\":9837:9840   */\n              dup3\n                /* \"#utility.yul\":9833:9847   */\n              add\n                /* \"#utility.yul\":9818:9847   */\n              swap1\n              pop\n                /* \"#utility.yul\":9684:9853   */\n              swap3\n              swap2\n              pop\n              pop\n              jump\t// out\n                /* \"#utility.yul\":9859:10164   */\n            tag_98:\n                /* \"#utility.yul\":9899:9902   */\n              0x00\n                /* \"#utility.yul\":9918:9938   */\n              tag_254\n                /* \"#utility.yul\":9936:9937   */\n              dup3\n                /* \"#utility.yul\":9918:9938   */\n              tag_222\n              jump\t// in\n            tag_254:\n                /* \"#utility.yul\":9913:9938   */\n              swap2\n              pop\n                /* \"#utility.yul\":9952:9972   */\n              tag_255\n                /* \"#utility.yul\":9970:9971   */\n              dup4\n                /* \"#utility.yul\":9952:9972   */\n              tag_222\n              jump\t// in\n            tag_255:\n                /* \"#utility.yul\":9947:9972   */\n              swap3\n              pop\n                /* \"#utility.yul\":10106:10107   */\n              dup3\n                /* \"#utility.yul\":10038:10104   */\n              0xffffffffffffffffffffffffffffffffffffffffffffffffffffffffffffffff\n                /* \"#utility.yul\":10034:10108   */\n              sub\n                /* \"#utility.yul\":10031:10032   */\n              dup3\n                /* \"#utility.yul\":10028:10109   */\n              gt\n                /* \"#utility.yul\":10025:10132   */\n              iszero\n              tag_256\n              jumpi\n                /* \"#utility.yul\":10112:10130   */\n              tag_257\n              tag_258\n              jump\t// in\n            tag_257:\n                /* \"#utility.yul\":10025:10132   */\n            tag_256:\n                /* \"#utility.yul\":10156:10157   */\n              dup3\n                /* \"#utility.yul\":10153:10154   */\n              dup3\n                /* \"#utility.yul\":10149:10158   */\n              add\n                /* \"#utility.yul\":10142:10158   */\n              swap1\n              pop\n                /* \"#utility.yul\":9859:10164   */\n              swap3\n              swap2\n              pop\n              pop\n              jump\t// out\n                /* \"#utility.yul\":10170:10361   */\n            tag_139:\n                /* \"#utility.yul\":10210:10214   */\n              0x00\n                /* \"#utility.yul\":10230:10250   */\n              tag_260\n                /* \"#utility.yul\":10248:10249   */\n              dup3\n                /* \"#utility.yul\":10230:10250   */\n              tag_222\n              jump\t// in\n            tag_260:\n                /* \"#utility.yul\":10225:10250   */\n              swap2\n              pop\n                /* \"#utility.yul\":10264:10284   */\n              tag_261\n                /* \"#utility.yul\":10282:10283   */\n              dup4\n                /* \"#utility.yul\":10264:10284   */\n              tag_222\n              jump\t// in\n            tag_261:\n                /* \"#utility.yul\":10259:10284   */\n              swap3\n              pop\n                /* \"#utility.yul\":10303:10304   */\n              dup3\n                /* \"#utility.yul\":10300:10301   */\n              dup3\n                /* \"#utility.yul\":10297:10305   */\n              lt\n                /* \"#utility.yul\":10294:10328   */\n              iszero\n              tag_262\n              jumpi\n                /* \"#utility.yul\":10308:10326   */\n              tag_263\n              tag_258\n              jump\t// in\n            tag_263:\n                /* \"#utility.yul\":10294:10328   */\n            tag_262:\n                /* \"#utility.yul\":10353:10354   */\n              dup3\n                /* \"#utility.yul\":10350:10351   */\n              dup3\n                /* \"#utility.yul\":10346:10355   */\n              sub\n                /* \"#utility.yul\":10338:10355   */\n              swap1\n              pop\n                /* \"#utility.yul\":10170:10361   */\n              swap3\n              swap2\n              pop\n              pop\n              jump\t// out\n                /* \"#utility.yul\":10367:10463   */\n            tag_264:\n                /* \"#utility.yul\":10404:10411   */\n              0x00\n                /* \"#utility.yul\":10433:10457   */\n              tag_266\n                /* \"#utility.yul\":10451:10456   */\n              dup3\n                /* \"#utility.yul\":10433:10457   */\n              tag_267\n              jump\t// in\n            tag_266:\n                /* \"#utility.yul\":10422:10457   */\n              swap1\n              pop\n                /* \"#utility.yul\":10367:10463   */\n              swap2\n              swap1\n              pop\n              jump\t// out\n                /* \"#utility.yul\":10469:10573   */\n            tag_159:\n                /* \"#utility.yul\":10514:10521   */\n              0x00\n                /* \"#utility.yul\":10543:10567   */\n              tag_269\n                /* \"#utility.yul\":10561:10566   */\n              dup3\n                /* \"#utility.yul\":10543:10567   */\n              tag_267\n              jump\t// in\n            tag_269:\n                /* \"#utility.yul\":10532:10567   */\n              swap1\n              pop\n                /* \"#utility.yul\":10469:10573   */\n              swap2\n              swap1\n              pop\n              jump\t// out\n                /* \"#utility.yul\":10579:10706   */\n            tag_270:\n                /* \"#utility.yul\":10624:10631   */\n              0x00\n                /* \"#utility.yul\":10653:10658   */\n              dup2\n                /* \"#utility.yul\":10642:10658   */\n              swap1\n              pop\n                /* \"#utility.yul\":10659:10700   */\n              tag_272\n                /* \"#utility.yul\":10694:10699   */\n              dup3\n                /* \"#utility.yul\":10659:10700   */\n              tag_273\n              jump\t// in\n            tag_272:\n                /* \"#utility.yul\":10579:10706   */\n              swap2\n              swap1\n              pop\n              jump\t// out\n                /* \"#utility.yul\":10712:10838   */\n            tag_267:\n                /* \"#utility.yul\":10749:10756   */\n              0x00\n                /* \"#utility.yul\":10789:10831   */\n              0xffffffffffffffffffffffffffffffffffffffff\n                /* \"#utility.yul\":10782:10787   */\n              dup3\n                /* \"#utility.yul\":10778:10832   */\n              and\n                /* \"#utility.yul\":10767:10832   */\n              swap1\n              pop\n                /* \"#utility.yul\":10712:10838   */\n              swap2\n              swap1\n              pop\n              jump\t// out\n                /* \"#utility.yul\":10844:10921   */\n            tag_222:\n                /* \"#utility.yul\":10881:10888   */\n              0x00\n                /* \"#utility.yul\":10910:10915   */\n              dup2\n                /* \"#utility.yul\":10899:10915   */\n              swap1\n              pop\n                /* \"#utility.yul\":10844:10921   */\n              swap2\n              swap1\n              pop\n              jump\t// out\n                /* \"#utility.yul\":10927:11054   */\n            tag_163:\n                /* \"#utility.yul\":10983:10992   */\n              0x00\n                /* \"#utility.yul\":11016:11048   */\n              tag_277\n                /* \"#utility.yul\":11042:11047   */\n              dup3\n                /* \"#utility.yul\":11016:11048   */\n              tag_270\n              jump\t// in\n            tag_277:\n                /* \"#utility.yul\":11003:11048   */\n              swap1\n              pop\n                /* \"#utility.yul\":10927:11054   */\n              swap2\n              swap1\n              pop\n              jump\t// out\n                /* \"#utility.yul\":11060:11367   */\n            tag_171:\n                /* \"#utility.yul\":11128:11129   */\n              0x00\n                /* \"#utility.yul\":11138:11251   */\n            tag_279:\n                /* \"#utility.yul\":11152:11158   */\n              dup4\n                /* \"#utility.yul\":11149:11150   */\n              dup2\n                /* \"#utility.yul\":11146:11159   */\n              lt\n                /* \"#utility.yul\":11138:11251   */\n              iszero\n              tag_281\n              jumpi\n                /* \"#utility.yul\":11237:11238   */\n              dup1\n                /* \"#utility.yul\":11232:11235   */\n              dup3\n                /* \"#utility.yul\":11228:11239   */\n              add\n                /* \"#utility.yul\":11222:11240   */\n              mload\n                /* \"#utility.yul\":11218:11219   */\n              dup2\n                /* \"#utility.yul\":11213:11216   */\n              dup5\n                /* \"#utility.yul\":11209:11220   */\n              add\n                /* \"#utility.yul\":11202:11241   */\n              mstore\n                /* \"#utility.yul\":11174:11176   */\n              0x20\n                /* \"#utility.yul\":11171:11172   */\n              dup2\n                /* \"#utility.yul\":11167:11177   */\n              add\n                /* \"#utility.yul\":11162:11177   */\n              swap1\n              pop\n                /* \"#utility.yul\":11138:11251   */\n              jump(tag_279)\n            tag_281:\n                /* \"#utility.yul\":11269:11275   */\n              dup4\n                /* \"#utility.yul\":11266:11267   */\n              dup2\n                /* \"#utility.yul\":11263:11276   */\n              gt\n                /* \"#utility.yul\":11260:11361   */\n              iszero\n              tag_282\n              jumpi\n                /* \"#utility.yul\":11349:11350   */\n              0x00\n                /* \"#utility.yul\":11340:11346   */\n              dup5\n                /* \"#utility.yul\":11335:11338   */\n              dup5\n                /* \"#utility.yul\":11331:11347   */\n              add\n                /* \"#utility.yul\":11324:11351   */\n              mstore\n                /* \"#utility.yul\":11260:11361   */\n            tag_282:\n                /* \"#utility.yul\":11109:11367   */\n              pop\n                /* \"#utility.yul\":11060:11367   */\n              pop\n              pop\n              pop\n              jump\t// out\n                /* \"#utility.yul\":11373:11693   */\n            tag_69:\n                /* \"#utility.yul\":11417:11423   */\n              0x00\n                /* \"#utility.yul\":11454:11455   */\n              0x02\n                /* \"#utility.yul\":11448:11452   */\n              dup3\n                /* \"#utility.yul\":11444:11456   */\n              div\n                /* \"#utility.yul\":11434:11456   */\n              swap1\n              pop\n                /* \"#utility.yul\":11501:11502   */\n              0x01\n                /* \"#utility.yul\":11495:11499   */\n              dup3\n                /* \"#utility.yul\":11491:11503   */\n              and\n                /* \"#utility.yul\":11522:11540   */\n              dup1\n                /* \"#utility.yul\":11512:11593   */\n              tag_284\n              jumpi\n                /* \"#utility.yul\":11578:11582   */\n              0x7f\n                /* \"#utility.yul\":11570:11576   */\n              dup3\n                /* \"#utility.yul\":11566:11583   */\n              and\n                /* \"#utility.yul\":11556:11583   */\n              swap2\n              pop\n                /* \"#utility.yul\":11512:11593   */\n            tag_284:\n                /* \"#utility.yul\":11640:11642   */\n              0x20\n                /* \"#utility.yul\":11632:11638   */\n              dup3\n                /* \"#utility.yul\":11629:11643   */\n              lt\n                /* \"#utility.yul\":11609:11627   */\n              dup2\n                /* \"#utility.yul\":11606:11644   */\n              eq\n                /* \"#utility.yul\":11603:11687   */\n              iszero\n              tag_285\n              jumpi\n                /* \"#utility.yul\":11659:11677   */\n              tag_286\n              tag_287\n              jump\t// in\n            tag_286:\n                /* \"#utility.yul\":11603:11687   */\n            tag_285:\n                /* \"#utility.yul\":11424:11693   */\n              pop\n                /* \"#utility.yul\":11373:11693   */\n              swap2\n              swap1\n              pop\n              jump\t// out\n                /* \"#utility.yul\":11699:11879   */\n            tag_258:\n                /* \"#utility.yul\":11747:11824   */\n              0x4e487b7100000000000000000000000000000000000000000000000000000000\n                /* \"#utility.yul\":11744:11745   */\n              0x00\n                /* \"#utility.yul\":11737:11825   */\n              mstore\n                /* \"#utility.yul\":11844:11848   */\n              0x11\n                /* \"#utility.yul\":11841:11842   */\n              0x04\n                /* \"#utility.yul\":11834:11849   */\n              mstore\n                /* \"#utility.yul\":11868:11872   */\n              0x24\n                /* \"#utility.yul\":11865:11866   */\n              0x00\n                /* \"#utility.yul\":11858:11873   */\n              revert\n                /* \"#utility.yul\":11885:12065   */\n            tag_67:\n                /* \"#utility.yul\":11933:12010   */\n              0x4e487b7100000000000000000000000000000000000000000000000000000000\n                /* \"#utility.yul\":11930:11931   */\n              0x00\n                /* \"#utility.yul\":11923:12011   */\n              mstore\n                /* \"#utility.yul\":12030:12034   */\n              0x21\n                /* \"#utility.yul\":12027:12028   */\n              0x04\n                /* \"#utility.yul\":12020:12035   */\n              mstore\n                /* \"#utility.yul\":12054:12058   */\n              0x24\n                /* \"#utility.yul\":12051:12052   */\n              0x00\n                /* \"#utility.yul\":12044:12059   */\n              revert\n                /* \"#utility.yul\":12071:12251   */\n            tag_287:\n                /* \"#utility.yul\":12119:12196   */\n              0x4e487b7100000000000000000000000000000000000000000000000000000000\n                /* \"#utility.yul\":12116:12117   */\n              0x00\n                /* \"#utility.yul\":12109:12197   */\n              mstore\n                /* \"#utility.yul\":12216:12220   */\n              0x22\n                /* \"#utility.yul\":12213:12214   */\n              0x04\n                /* \"#utility.yul\":12206:12221   */\n              mstore\n                /* \"#utility.yul\":12240:12244   */\n              0x24\n                /* \"#utility.yul\":12237:12238   */\n              0x00\n                /* \"#utility.yul\":12230:12245   */\n              revert\n                /* \"#utility.yul\":12380:12497   */\n            tag_154:\n                /* \"#utility.yul\":12489:12490   */\n              0x00\n                /* \"#utility.yul\":12486:12487   */\n              dup1\n                /* \"#utility.yul\":12479:12491   */\n              revert\n                /* \"#utility.yul\":12503:12605   */\n            tag_173:\n                /* \"#utility.yul\":12544:12550   */\n              0x00\n                /* \"#utility.yul\":12595:12597   */\n              0x1f\n                /* \"#utility.yul\":12591:12598   */\n              not\n                /* \"#utility.yul\":12586:12588   */\n              0x1f\n                /* \"#utility.yul\":12579:12584   */\n              dup4\n                /* \"#utility.yul\":12575:12589   */\n              add\n                /* \"#utility.yul\":12571:12599   */\n              and\n                /* \"#utility.yul\":12561:12599   */\n              swap1\n              pop\n                /* \"#utility.yul\":12503:12605   */\n              swap2\n              swap1\n              pop\n              jump\t// out\n                /* \"#utility.yul\":12611:12782   */\n            tag_178:\n                /* \"#utility.yul\":12751:12774   */\n              0x426c6f636b206e756d6265722069732077726f6e670000000000000000000000\n                /* \"#utility.yul\":12747:12748   */\n              0x00\n                /* \"#utility.yul\":12739:12745   */\n              dup3\n                /* \"#utility.yul\":12735:12749   */\n              add\n                /* \"#utility.yul\":12728:12775   */\n              mstore\n                /* \"#utility.yul\":12611:12782   */\n              pop\n              jump\t// out\n                /* \"#utility.yul\":12788:12960   */\n            tag_183:\n                /* \"#utility.yul\":12928:12952   */\n              0x596f7520617265206e6f7420746865206f776e65722100000000000000000000\n                /* \"#utility.yul\":12924:12925   */\n              0x00\n                /* \"#utility.yul\":12916:12922   */\n              dup3\n                /* \"#utility.yul\":12912:12926   */\n              add\n                /* \"#utility.yul\":12905:12953   */\n              mstore\n                /* \"#utility.yul\":12788:12960   */\n              pop\n              jump\t// out\n                /* \"#utility.yul\":12966:13190   */\n            tag_188:\n                /* \"#utility.yul\":13106:13140   */\n              0x497420616c726561647920697320612062696767657220626964207468616e20\n                /* \"#utility.yul\":13102:13103   */\n              0x00\n                /* \"#utility.yul\":13094:13100   */\n              dup3\n                /* \"#utility.yul\":13090:13104   */\n              add\n                /* \"#utility.yul\":13083:13141   */\n              mstore\n                /* \"#utility.yul\":13175:13182   */\n              0x796f757273000000000000000000000000000000000000000000000000000000\n                /* \"#utility.yul\":13170:13172   */\n              0x20\n                /* \"#utility.yul\":13162:13168   */\n              dup3\n                /* \"#utility.yul\":13158:13173   */\n              add\n                /* \"#utility.yul\":13151:13183   */\n              mstore\n                /* \"#utility.yul\":12966:13190   */\n              pop\n              jump\t// out\n                /* \"#utility.yul\":13196:13368   */\n            tag_193:\n                /* \"#utility.yul\":13336:13360   */\n              0x5468652061756374696f6e2068617320656e6465642100000000000000000000\n                /* \"#utility.yul\":13332:13333   */\n              0x00\n                /* \"#utility.yul\":13324:13330   */\n              dup3\n                /* \"#utility.yul\":13320:13334   */\n              add\n                /* \"#utility.yul\":13313:13361   */\n              mstore\n                /* \"#utility.yul\":13196:13368   */\n              pop\n              jump\t// out\n                /* \"#utility.yul\":13374:13603   */\n            tag_198:\n                /* \"#utility.yul\":13514:13548   */\n              0x596f752061726520746865206f776e65722c20796f752063616e742070617274\n                /* \"#utility.yul\":13510:13511   */\n              0x00\n                /* \"#utility.yul\":13502:13508   */\n              dup3\n                /* \"#utility.yul\":13498:13512   */\n              add\n                /* \"#utility.yul\":13491:13549   */\n              mstore\n                /* \"#utility.yul\":13583:13595   */\n              0x696369706174652e2e2e00000000000000000000000000000000000000000000\n                /* \"#utility.yul\":13578:13580   */\n              0x20\n                /* \"#utility.yul\":13570:13576   */\n              dup3\n                /* \"#utility.yul\":13566:13581   */\n              add\n                /* \"#utility.yul\":13559:13596   */\n              mstore\n                /* \"#utility.yul\":13374:13603   */\n              pop\n              jump\t// out\n                /* \"#utility.yul\":13609:13860   */\n            tag_203:\n                /* \"#utility.yul\":13749:13783   */\n              0x596f75206469646e7420706172746963697061746520746f2074686520617563\n                /* \"#utility.yul\":13745:13746   */\n              0x00\n                /* \"#utility.yul\":13737:13743   */\n              dup3\n                /* \"#utility.yul\":13733:13747   */\n              add\n                /* \"#utility.yul\":13726:13784   */\n              mstore\n                /* \"#utility.yul\":13818:13852   */\n              0x74696f6e206f7220796f7520616c726561647920207769746864726177656420\n                /* \"#utility.yul\":13813:13815   */\n              0x20\n                /* \"#utility.yul\":13805:13811   */\n              dup3\n                /* \"#utility.yul\":13801:13816   */\n              add\n                /* \"#utility.yul\":13794:13853   */\n              mstore\n                /* \"#utility.yul\":13609:13860   */\n              pop\n              jump\t// out\n                /* \"#utility.yul\":13866:14087   */\n            tag_208:\n                /* \"#utility.yul\":14006:14040   */\n              0x5468652061756374696f6e206973206e6f742072756e6e696e6720616e796d6f\n                /* \"#utility.yul\":14002:14003   */\n              0x00\n                /* \"#utility.yul\":13994:14000   */\n              dup3\n                /* \"#utility.yul\":13990:14004   */\n              add\n                /* \"#utility.yul\":13983:14041   */\n              mstore\n                /* \"#utility.yul\":14075:14079   */\n              0x7265000000000000000000000000000000000000000000000000000000000000\n                /* \"#utility.yul\":14070:14072   */\n              0x20\n                /* \"#utility.yul\":14062:14068   */\n              dup3\n                /* \"#utility.yul\":14058:14073   */\n              add\n                /* \"#utility.yul\":14051:14080   */\n              mstore\n                /* \"#utility.yul\":13866:14087   */\n              pop\n              jump\t// out\n                /* \"#utility.yul\":14093:14320   */\n            tag_213:\n                /* \"#utility.yul\":14233:14267   */\n              0x54686520736d616c6c65737420616d6f756e7420746f2062696420697320302e\n                /* \"#utility.yul\":14229:14230   */\n              0x00\n                /* \"#utility.yul\":14221:14227   */\n              dup3\n                /* \"#utility.yul\":14217:14231   */\n              add\n                /* \"#utility.yul\":14210:14268   */\n              mstore\n                /* \"#utility.yul\":14302:14312   */\n              0x3030303120657468000000000000000000000000000000000000000000000000\n                /* \"#utility.yul\":14297:14299   */\n              0x20\n                /* \"#utility.yul\":14289:14295   */\n              dup3\n                /* \"#utility.yul\":14285:14300   */\n              add\n                /* \"#utility.yul\":14278:14313   */\n              mstore\n                /* \"#utility.yul\":14093:14320   */\n              pop\n              jump\t// out\n                /* \"#utility.yul\":14326:14558   */\n            tag_218:\n                /* \"#utility.yul\":14466:14500   */\n              0x5468652061756374696f6e2068617320746f2062652063616e63656c6564206f\n                /* \"#utility.yul\":14462:14463   */\n              0x00\n                /* \"#utility.yul\":14454:14460   */\n              dup3\n                /* \"#utility.yul\":14450:14464   */\n              add\n                /* \"#utility.yul\":14443:14501   */\n              mstore\n                /* \"#utility.yul\":14535:14550   */\n              0x7220746f20626520656e64656400000000000000000000000000000000000000\n                /* \"#utility.yul\":14530:14532   */\n              0x20\n                /* \"#utility.yul\":14522:14528   */\n              dup3\n                /* \"#utility.yul\":14518:14533   */\n              add\n                /* \"#utility.yul\":14511:14551   */\n              mstore\n                /* \"#utility.yul\":14326:14558   */\n              pop\n              jump\t// out\n                /* \"#utility.yul\":14564:14677   */\n            tag_273:\n                /* \"#utility.yul\":14645:14646   */\n              0x04\n                /* \"#utility.yul\":14638:14643   */\n              dup2\n                /* \"#utility.yul\":14635:14647   */\n              lt\n                /* \"#utility.yul\":14625:14671   */\n              tag_305\n              jumpi\n                /* \"#utility.yul\":14651:14669   */\n              tag_306\n              tag_67\n              jump\t// in\n            tag_306:\n                /* \"#utility.yul\":14625:14671   */\n            tag_305:\n                /* \"#utility.yul\":14564:14677   */\n              pop\n              jump\t// out\n                /* \"#utility.yul\":14683:14805   */\n            tag_150:\n                /* \"#utility.yul\":14756:14780   */\n              tag_308\n                /* \"#utility.yul\":14774:14779   */\n              dup2\n                /* \"#utility.yul\":14756:14780   */\n              tag_264\n              jump\t// in\n            tag_308:\n                /* \"#utility.yul\":14749:14754   */\n              dup2\n                /* \"#utility.yul\":14746:14781   */\n              eq\n                /* \"#utility.yul\":14736:14799   */\n              tag_309\n              jumpi\n                /* \"#utility.yul\":14795:14796   */\n              0x00\n                /* \"#utility.yul\":14792:14793   */\n              dup1\n                /* \"#utility.yul\":14785:14797   */\n              revert\n                /* \"#utility.yul\":14736:14799   */\n            tag_309:\n                /* \"#utility.yul\":14683:14805   */\n              pop\n              jump\t// out\n\n            auxdata: 0xa2646970667358221220f90d37dd26f0c10599ff01b92bb2d57462ab66317c20789d8a74f7e020daa18864736f6c63430008070033\n        }\n    }\n\n    auxdata: 0xa264697066735822122044df7b0a636e99e5ae44181b37b6e38842e4e7a3bb688097d1a552a38c3584af64736f6c63430008070033\n}\n",
				"bytecode": {
					"linkReferences": {},
					"object": "608060405234801561001057600080fd5b50611bae806100206000396000f3fe608060405234801561001057600080fd5b50600436106100365760003560e01c8063571a26a01461003b578063f58114471461006b575b600080fd5b61005560048036038101906100509190610174565b610075565b60405161006291906101da565b60405180910390f35b6100736100b4565b005b6000818154811061008557600080fd5b906000526020600020016000915054906101000a900473ffffffffffffffffffffffffffffffffffffffff1681565b6000336040516100c390610152565b6100cd91906101bf565b604051809103906000f0801580156100e9573d6000803e3d6000fd5b5090506000819080600181540180825580915050600190039060005260206000200160009091909190916101000a81548173ffffffffffffffffffffffffffffffffffffffff021916908373ffffffffffffffffffffffffffffffffffffffff16021790555050565b6118f58061028483390190565b60008135905061016e8161026c565b92915050565b60006020828403121561018a57610189610267565b5b60006101988482850161015f565b91505092915050565b6101aa816101f5565b82525050565b6101b981610231565b82525050565b60006020820190506101d460008301846101a1565b92915050565b60006020820190506101ef60008301846101b0565b92915050565b600061020082610207565b9050919050565b600073ffffffffffffffffffffffffffffffffffffffff82169050919050565b6000819050919050565b600061023c82610243565b9050919050565b600061024e82610255565b9050919050565b600061026082610207565b9050919050565b600080fd5b61027581610227565b811461028057600080fd5b5056fe60806040523480156200001157600080fd5b50604051620018f5380380620018f58339818101604052810190620000379190620001c8565b806000806101000a81548173ffffffffffffffffffffffffffffffffffffffff021916908373ffffffffffffffffffffffffffffffffffffffff1602179055506001600460006101000a81548160ff02191690836003811115620000a0576200009f620002fa565b5b021790555043600181905550619d80600154620000be9190620001fa565b6002819055506040518060200160405280600081525060039080519060200190620000eb92919062000101565b5066038d7ea4c680006008819055505062000377565b8280546200010f9062000295565b90600052602060002090601f0160209004810192826200013357600085556200017f565b82601f106200014e57805160ff19168380011785556200017f565b828001600101855582156200017f579182015b828111156200017e57825182559160200191906001019062000161565b5b5090506200018e919062000192565b5090565b5b80821115620001ad57600081600090555060010162000193565b5090565b600081519050620001c2816200035d565b92915050565b600060208284031215620001e157620001e062000358565b5b6000620001f184828501620001b1565b91505092915050565b600062000207826200028b565b915062000214836200028b565b9250827fffffffffffffffffffffffffffffffffffffffffffffffffffffffffffffffff038211156200024c576200024b620002cb565b5b828201905092915050565b600062000264826200026b565b9050919050565b600073ffffffffffffffffffffffffffffffffffffffff82169050919050565b6000819050919050565b60006002820490506001821680620002ae57607f821691505b60208210811415620002c557620002c462000329565b5b50919050565b7f4e487b7100000000000000000000000000000000000000000000000000000000600052601160045260246000fd5b7f4e487b7100000000000000000000000000000000000000000000000000000000600052602160045260246000fd5b7f4e487b7100000000000000000000000000000000000000000000000000000000600052602260045260246000fd5b600080fd5b620003688162000257565b81146200037457600080fd5b50565b61156e80620003876000396000f3fe60806040526004361061009c5760003560e01c80638fa8b790116100645780638fa8b7901461018a57806391f90157146101a1578063c623674f146101cc578063ecfc7ecc146101f7578063f5b56c5614610201578063f77282ab1461022c5761009c565b8063083c6323146100a157806348cd4cb1146100cc57806362ea82db146100f75780637fb45099146101345780638da5cb5b1461015f575b600080fd5b3480156100ad57600080fd5b506100b6610243565b6040516100c3919061107c565b60405180910390f35b3480156100d857600080fd5b506100e1610249565b6040516100ee919061107c565b60405180910390f35b34801561010357600080fd5b5061011e60048036038101906101199190610d36565b61024f565b60405161012b919061107c565b60405180910390f35b34801561014057600080fd5b50610149610267565b6040516101569190610f1f565b60405180910390f35b34801561016b57600080fd5b5061017461027a565b6040516101819190610f04565b60405180910390f35b34801561019657600080fd5b5061019f61029e565b005b3480156101ad57600080fd5b506101b6610359565b6040516101c39190610f04565b60405180910390f35b3480156101d857600080fd5b506101e161037f565b6040516101ee9190610f3a565b60405180910390f35b6101ff61040d565b005b34801561020d57600080fd5b5061021661086a565b604051610223919061107c565b60405180910390f35b34801561023857600080fd5b50610241610870565b005b60025481565b60015481565b60076020528060005260406000206000915090505481565b600460009054906101000a900460ff1681565b60008054906101000a900473ffffffffffffffffffffffffffffffffffffffff1681565b60008054906101000a900473ffffffffffffffffffffffffffffffffffffffff1673ffffffffffffffffffffffffffffffffffffffff163373ffffffffffffffffffffffffffffffffffffffff161461032c576040517f08c379a000000000000000000000000000000000000000000000000000000000815260040161032390610f7c565b60405180910390fd5b6003600460006101000a81548160ff0219169083600381111561035257610351611244565b5b0217905550565b600660009054906101000a900473ffffffffffffffffffffffffffffffffffffffff1681565b6003805461038c906111e3565b80601f01602080910402602001604051908101604052809291908181526020018280546103b8906111e3565b80156104055780601f106103da57610100808354040283529160200191610405565b820191906000526020600020905b8154815290600101906020018083116103e857829003601f168201915b505050505081565b60008054906101000a900473ffffffffffffffffffffffffffffffffffffffff1673ffffffffffffffffffffffffffffffffffffffff163373ffffffffffffffffffffffffffffffffffffffff16141561049c576040517f08c379a000000000000000000000000000000000000000000000000000000000815260040161049390610fdc565b60405180910390fd5b6001544310156104e1576040517f08c379a00000000000000000000000000000000000000000000000000000000081526004016104d890610f5c565b60405180910390fd5b600254431115610526576040517f08c379a000000000000000000000000000000000000000000000000000000000815260040161051d90610fbc565b60405180910390fd5b6001600381111561053a57610539611244565b5b600460009054906101000a900460ff16600381111561055c5761055b611244565b5b1461059c576040517f08c379a00000000000000000000000000000000000000000000000000000000081526004016105939061101c565b60405180910390fd5b655af3107a40003410156105e5576040517f08c379a00000000000000000000000000000000000000000000000000000000081526004016105dc9061103c565b60405180910390fd5b600034600760003373ffffffffffffffffffffffffffffffffffffffff1673ffffffffffffffffffffffffffffffffffffffff1681526020019081526020016000205461063291906110b3565b90506005548111610678576040517f08c379a000000000000000000000000000000000000000000000000000000000815260040161066f90610f9c565b60405180910390fd5b80600760003373ffffffffffffffffffffffffffffffffffffffff1673ffffffffffffffffffffffffffffffffffffffff1681526020019081526020016000208190555060076000600660009054906101000a900473ffffffffffffffffffffffffffffffffffffffff1673ffffffffffffffffffffffffffffffffffffffff1673ffffffffffffffffffffffffffffffffffffffff1681526020019081526020016000205481116107a75761079c6008548261073591906110b3565b60076000600660009054906101000a900473ffffffffffffffffffffffffffffffffffffffff1673ffffffffffffffffffffffffffffffffffffffff1673ffffffffffffffffffffffffffffffffffffffff16815260200190815260200160002054610d06565b600581905550610867565b61081f8160085460076000600660009054906101000a900473ffffffffffffffffffffffffffffffffffffffff1673ffffffffffffffffffffffffffffffffffffffff1673ffffffffffffffffffffffffffffffffffffffff1681526020019081526020016000205461081a91906110b3565b610d06565b60058190555033600660006101000a81548173ffffffffffffffffffffffffffffffffffffffff021916908373ffffffffffffffffffffffffffffffffffffffff1602179055505b50565b60055481565b60038081111561088357610882611244565b5b600460009054906101000a900460ff1660038111156108a5576108a4611244565b5b14806108b2575060025443115b6108f1576040517f08c379a00000000000000000000000000000000000000000000000000000000081526004016108e89061105c565b60405180910390fd5b60008054906101000a900473ffffffffffffffffffffffffffffffffffffffff1673ffffffffffffffffffffffffffffffffffffffff163373ffffffffffffffffffffffffffffffffffffffff16148061098a57506000600760003373ffffffffffffffffffffffffffffffffffffffff1673ffffffffffffffffffffffffffffffffffffffff16815260200190815260200160002054115b6109c9576040517f08c379a00000000000000000000000000000000000000000000000000000000081526004016109c090610ffc565b60405180910390fd5b6000806003808111156109df576109de611244565b5b600460009054906101000a900460ff166003811115610a0157610a00611244565b5b1415610a5157339150600760003373ffffffffffffffffffffffffffffffffffffffff1673ffffffffffffffffffffffffffffffffffffffff168152602001908152602001600020549050610c76565b60008054906101000a900473ffffffffffffffffffffffffffffffffffffffff1673ffffffffffffffffffffffffffffffffffffffff163373ffffffffffffffffffffffffffffffffffffffff16148015610ae0575060026003811115610abb57610aba611244565b5b600460009054906101000a900460ff166003811115610add57610adc611244565b5b14155b15610b3d5760008054906101000a900473ffffffffffffffffffffffffffffffffffffffff16915060055490506002600460006101000a81548160ff02191690836003811115610b3357610b32611244565b5b0217905550610c75565b600660009054906101000a900473ffffffffffffffffffffffffffffffffffffffff1673ffffffffffffffffffffffffffffffffffffffff163373ffffffffffffffffffffffffffffffffffffffff161415610c2e57600660009054906101000a900473ffffffffffffffffffffffffffffffffffffffff16915060055460076000600660009054906101000a900473ffffffffffffffffffffffffffffffffffffffff1673ffffffffffffffffffffffffffffffffffffffff1673ffffffffffffffffffffffffffffffffffffffff16815260200190815260200160002054610c279190611109565b9050610c74565b339150600760003373ffffffffffffffffffffffffffffffffffffffff1673ffffffffffffffffffffffffffffffffffffffff1681526020019081526020016000205490505b5b5b6000600760008473ffffffffffffffffffffffffffffffffffffffff1673ffffffffffffffffffffffffffffffffffffffff168152602001908152602001600020819055508173ffffffffffffffffffffffffffffffffffffffff166108fc829081150290604051600060405180830381858888f19350505050158015610d01573d6000803e3d6000fd5b505050565b6000818311610d1757829050610d1b565b8190505b92915050565b600081359050610d3081611521565b92915050565b600060208284031215610d4c57610d4b6112a2565b5b6000610d5a84828501610d21565b91505092915050565b610d6c8161114f565b82525050565b610d7b8161119e565b82525050565b6000610d8c82611097565b610d9681856110a2565b9350610da68185602086016111b0565b610daf816112a7565b840191505092915050565b6000610dc76015836110a2565b9150610dd2826112b8565b602082019050919050565b6000610dea6016836110a2565b9150610df5826112e1565b602082019050919050565b6000610e0d6025836110a2565b9150610e188261130a565b604082019050919050565b6000610e306016836110a2565b9150610e3b82611359565b602082019050919050565b6000610e53602a836110a2565b9150610e5e82611382565b604082019050919050565b6000610e766040836110a2565b9150610e81826113d1565b604082019050919050565b6000610e996022836110a2565b9150610ea482611420565b604082019050919050565b6000610ebc6028836110a2565b9150610ec78261146f565b604082019050919050565b6000610edf602d836110a2565b9150610eea826114be565b604082019050919050565b610efe81611194565b82525050565b6000602082019050610f196000830184610d63565b92915050565b6000602082019050610f346000830184610d72565b92915050565b60006020820190508181036000830152610f548184610d81565b905092915050565b60006020820190508181036000830152610f7581610dba565b9050919050565b60006020820190508181036000830152610f9581610ddd565b9050919050565b60006020820190508181036000830152610fb581610e00565b9050919050565b60006020820190508181036000830152610fd581610e23565b9050919050565b60006020820190508181036000830152610ff581610e46565b9050919050565b6000602082019050818103600083015261101581610e69565b9050919050565b6000602082019050818103600083015261103581610e8c565b9050919050565b6000602082019050818103600083015261105581610eaf565b9050919050565b6000602082019050818103600083015261107581610ed2565b9050919050565b60006020820190506110916000830184610ef5565b92915050565b600081519050919050565b600082825260208201905092915050565b60006110be82611194565b91506110c983611194565b9250827fffffffffffffffffffffffffffffffffffffffffffffffffffffffffffffffff038211156110fe576110fd611215565b5b828201905092915050565b600061111482611194565b915061111f83611194565b92508282101561113257611131611215565b5b828203905092915050565b600061114882611174565b9050919050565b600061115a82611174565b9050919050565b600081905061116f8261150d565b919050565b600073ffffffffffffffffffffffffffffffffffffffff82169050919050565b6000819050919050565b60006111a982611161565b9050919050565b60005b838110156111ce5780820151818401526020810190506111b3565b838111156111dd576000848401525b50505050565b600060028204905060018216806111fb57607f821691505b6020821081141561120f5761120e611273565b5b50919050565b7f4e487b7100000000000000000000000000000000000000000000000000000000600052601160045260246000fd5b7f4e487b7100000000000000000000000000000000000000000000000000000000600052602160045260246000fd5b7f4e487b7100000000000000000000000000000000000000000000000000000000600052602260045260246000fd5b600080fd5b6000601f19601f8301169050919050565b7f426c6f636b206e756d6265722069732077726f6e670000000000000000000000600082015250565b7f596f7520617265206e6f7420746865206f776e65722100000000000000000000600082015250565b7f497420616c726561647920697320612062696767657220626964207468616e2060008201527f796f757273000000000000000000000000000000000000000000000000000000602082015250565b7f5468652061756374696f6e2068617320656e6465642100000000000000000000600082015250565b7f596f752061726520746865206f776e65722c20796f752063616e74207061727460008201527f696369706174652e2e2e00000000000000000000000000000000000000000000602082015250565b7f596f75206469646e7420706172746963697061746520746f207468652061756360008201527f74696f6e206f7220796f7520616c726561647920207769746864726177656420602082015250565b7f5468652061756374696f6e206973206e6f742072756e6e696e6720616e796d6f60008201527f7265000000000000000000000000000000000000000000000000000000000000602082015250565b7f54686520736d616c6c65737420616d6f756e7420746f2062696420697320302e60008201527f3030303120657468000000000000000000000000000000000000000000000000602082015250565b7f5468652061756374696f6e2068617320746f2062652063616e63656c6564206f60008201527f7220746f20626520656e64656400000000000000000000000000000000000000602082015250565b6004811061151e5761151d611244565b5b50565b61152a8161113d565b811461153557600080fd5b5056fea2646970667358221220f90d37dd26f0c10599ff01b92bb2d57462ab66317c20789d8a74f7e020daa18864736f6c63430008070033a264697066735822122044df7b0a636e99e5ae44181b37b6e38842e4e7a3bb688097d1a552a38c3584af64736f6c63430008070033",
					"opcodes": "PUSH1 0x80 PUSH1 0x40 MSTORE CALLVALUE DUP1 ISZERO PUSH2 0x10 JUMPI PUSH1 0x0 DUP1 REVERT JUMPDEST POP PUSH2 0x1BAE DUP1 PUSH2 0x20 PUSH1 0x0 CODECOPY PUSH1 0x0 RETURN INVALID PUSH1 0x80 PUSH1 0x40 MSTORE CALLVALUE DUP1 ISZERO PUSH2 0x10 JUMPI PUSH1 0x0 DUP1 REVERT JUMPDEST POP PUSH1 0x4 CALLDATASIZE LT PUSH2 0x36 JUMPI PUSH1 0x0 CALLDATALOAD PUSH1 0xE0 SHR DUP1 PUSH4 0x571A26A0 EQ PUSH2 0x3B JUMPI DUP1 PUSH4 0xF5811447 EQ PUSH2 0x6B JUMPI JUMPDEST PUSH1 0x0 DUP1 REVERT JUMPDEST PUSH2 0x55 PUSH1 0x4 DUP1 CALLDATASIZE SUB DUP2 ADD SWAP1 PUSH2 0x50 SWAP2 SWAP1 PUSH2 0x174 JUMP JUMPDEST PUSH2 0x75 JUMP JUMPDEST PUSH1 0x40 MLOAD PUSH2 0x62 SWAP2 SWAP1 PUSH2 0x1DA JUMP JUMPDEST PUSH1 0x40 MLOAD DUP1 SWAP2 SUB SWAP1 RETURN JUMPDEST PUSH2 0x73 PUSH2 0xB4 JUMP JUMPDEST STOP JUMPDEST PUSH1 0x0 DUP2 DUP2 SLOAD DUP2 LT PUSH2 0x85 JUMPI PUSH1 0x0 DUP1 REVERT JUMPDEST SWAP1 PUSH1 0x0 MSTORE PUSH1 0x20 PUSH1 0x0 KECCAK256 ADD PUSH1 0x0 SWAP2 POP SLOAD SWAP1 PUSH2 0x100 EXP SWAP1 DIV PUSH20 0xFFFFFFFFFFFFFFFFFFFFFFFFFFFFFFFFFFFFFFFF AND DUP2 JUMP JUMPDEST PUSH1 0x0 CALLER PUSH1 0x40 MLOAD PUSH2 0xC3 SWAP1 PUSH2 0x152 JUMP JUMPDEST PUSH2 0xCD SWAP2 SWAP1 PUSH2 0x1BF JUMP JUMPDEST PUSH1 0x40 MLOAD DUP1 SWAP2 SUB SWAP1 PUSH1 0x0 CREATE DUP1 ISZERO DUP1 ISZERO PUSH2 0xE9 JUMPI RETURNDATASIZE PUSH1 0x0 DUP1 RETURNDATACOPY RETURNDATASIZE PUSH1 0x0 REVERT JUMPDEST POP SWAP1 POP PUSH1 0x0 DUP2 SWAP1 DUP1 PUSH1 0x1 DUP2 SLOAD ADD DUP1 DUP3 SSTORE DUP1 SWAP2 POP POP PUSH1 0x1 SWAP1 SUB SWAP1 PUSH1 0x0 MSTORE PUSH1 0x20 PUSH1 0x0 KECCAK256 ADD PUSH1 0x0 SWAP1 SWAP2 SWAP1 SWAP2 SWAP1 SWAP2 PUSH2 0x100 EXP DUP2 SLOAD DUP2 PUSH20 0xFFFFFFFFFFFFFFFFFFFFFFFFFFFFFFFFFFFFFFFF MUL NOT AND SWAP1 DUP4 PUSH20 0xFFFFFFFFFFFFFFFFFFFFFFFFFFFFFFFFFFFFFFFF AND MUL OR SWAP1 SSTORE POP POP JUMP JUMPDEST PUSH2 0x18F5 DUP1 PUSH2 0x284 DUP4 CODECOPY ADD SWAP1 JUMP JUMPDEST PUSH1 0x0 DUP2 CALLDATALOAD SWAP1 POP PUSH2 0x16E DUP2 PUSH2 0x26C JUMP JUMPDEST SWAP3 SWAP2 POP POP JUMP JUMPDEST PUSH1 0x0 PUSH1 0x20 DUP3 DUP5 SUB SLT ISZERO PUSH2 0x18A JUMPI PUSH2 0x189 PUSH2 0x267 JUMP JUMPDEST JUMPDEST PUSH1 0x0 PUSH2 0x198 DUP5 DUP3 DUP6 ADD PUSH2 0x15F JUMP JUMPDEST SWAP2 POP POP SWAP3 SWAP2 POP POP JUMP JUMPDEST PUSH2 0x1AA DUP2 PUSH2 0x1F5 JUMP JUMPDEST DUP3 MSTORE POP POP JUMP JUMPDEST PUSH2 0x1B9 DUP2 PUSH2 0x231 JUMP JUMPDEST DUP3 MSTORE POP POP JUMP JUMPDEST PUSH1 0x0 PUSH1 0x20 DUP3 ADD SWAP1 POP PUSH2 0x1D4 PUSH1 0x0 DUP4 ADD DUP5 PUSH2 0x1A1 JUMP JUMPDEST SWAP3 SWAP2 POP POP JUMP JUMPDEST PUSH1 0x0 PUSH1 0x20 DUP3 ADD SWAP1 POP PUSH2 0x1EF PUSH1 0x0 DUP4 ADD DUP5 PUSH2 0x1B0 JUMP JUMPDEST SWAP3 SWAP2 POP POP JUMP JUMPDEST PUSH1 0x0 PUSH2 0x200 DUP3 PUSH2 0x207 JUMP JUMPDEST SWAP1 POP SWAP2 SWAP1 POP JUMP JUMPDEST PUSH1 0x0 PUSH20 0xFFFFFFFFFFFFFFFFFFFFFFFFFFFFFFFFFFFFFFFF DUP3 AND SWAP1 POP SWAP2 SWAP1 POP JUMP JUMPDEST PUSH1 0x0 DUP2 SWAP1 POP SWAP2 SWAP1 POP JUMP JUMPDEST PUSH1 0x0 PUSH2 0x23C DUP3 PUSH2 0x243 JUMP JUMPDEST SWAP1 POP SWAP2 SWAP1 POP JUMP JUMPDEST PUSH1 0x0 PUSH2 0x24E DUP3 PUSH2 0x255 JUMP JUMPDEST SWAP1 POP SWAP2 SWAP1 POP JUMP JUMPDEST PUSH1 0x0 PUSH2 0x260 DUP3 PUSH2 0x207 JUMP JUMPDEST SWAP1 POP SWAP2 SWAP1 POP JUMP JUMPDEST PUSH1 0x0 DUP1 REVERT JUMPDEST PUSH2 0x275 DUP2 PUSH2 0x227 JUMP JUMPDEST DUP2 EQ PUSH2 0x280 JUMPI PUSH1 0x0 DUP1 REVERT JUMPDEST POP JUMP INVALID PUSH1 0x80 PUSH1 0x40 MSTORE CALLVALUE DUP1 ISZERO PUSH3 0x11 JUMPI PUSH1 0x0 DUP1 REVERT JUMPDEST POP PUSH1 0x40 MLOAD PUSH3 0x18F5 CODESIZE SUB DUP1 PUSH3 0x18F5 DUP4 CODECOPY DUP2 DUP2 ADD PUSH1 0x40 MSTORE DUP2 ADD SWAP1 PUSH3 0x37 SWAP2 SWAP1 PUSH3 0x1C8 JUMP JUMPDEST DUP1 PUSH1 0x0 DUP1 PUSH2 0x100 EXP DUP2 SLOAD DUP2 PUSH20 0xFFFFFFFFFFFFFFFFFFFFFFFFFFFFFFFFFFFFFFFF MUL NOT AND SWAP1 DUP4 PUSH20 0xFFFFFFFFFFFFFFFFFFFFFFFFFFFFFFFFFFFFFFFF AND MUL OR SWAP1 SSTORE POP PUSH1 0x1 PUSH1 0x4 PUSH1 0x0 PUSH2 0x100 EXP DUP2 SLOAD DUP2 PUSH1 0xFF MUL NOT AND SWAP1 DUP4 PUSH1 0x3 DUP2 GT ISZERO PUSH3 0xA0 JUMPI PUSH3 0x9F PUSH3 0x2FA JUMP JUMPDEST JUMPDEST MUL OR SWAP1 SSTORE POP NUMBER PUSH1 0x1 DUP2 SWAP1 SSTORE POP PUSH2 0x9D80 PUSH1 0x1 SLOAD PUSH3 0xBE SWAP2 SWAP1 PUSH3 0x1FA JUMP JUMPDEST PUSH1 0x2 DUP2 SWAP1 SSTORE POP PUSH1 0x40 MLOAD DUP1 PUSH1 0x20 ADD PUSH1 0x40 MSTORE DUP1 PUSH1 0x0 DUP2 MSTORE POP PUSH1 0x3 SWAP1 DUP1 MLOAD SWAP1 PUSH1 0x20 ADD SWAP1 PUSH3 0xEB SWAP3 SWAP2 SWAP1 PUSH3 0x101 JUMP JUMPDEST POP PUSH7 0x38D7EA4C68000 PUSH1 0x8 DUP2 SWAP1 SSTORE POP POP PUSH3 0x377 JUMP JUMPDEST DUP3 DUP1 SLOAD PUSH3 0x10F SWAP1 PUSH3 0x295 JUMP JUMPDEST SWAP1 PUSH1 0x0 MSTORE PUSH1 0x20 PUSH1 0x0 KECCAK256 SWAP1 PUSH1 0x1F ADD PUSH1 0x20 SWAP1 DIV DUP2 ADD SWAP3 DUP3 PUSH3 0x133 JUMPI PUSH1 0x0 DUP6 SSTORE PUSH3 0x17F JUMP JUMPDEST DUP3 PUSH1 0x1F LT PUSH3 0x14E JUMPI DUP1 MLOAD PUSH1 0xFF NOT AND DUP4 DUP1 ADD OR DUP6 SSTORE PUSH3 0x17F JUMP JUMPDEST DUP3 DUP1 ADD PUSH1 0x1 ADD DUP6 SSTORE DUP3 ISZERO PUSH3 0x17F JUMPI SWAP2 DUP3 ADD JUMPDEST DUP3 DUP2 GT ISZERO PUSH3 0x17E JUMPI DUP3 MLOAD DUP3 SSTORE SWAP2 PUSH1 0x20 ADD SWAP2 SWAP1 PUSH1 0x1 ADD SWAP1 PUSH3 0x161 JUMP JUMPDEST JUMPDEST POP SWAP1 POP PUSH3 0x18E SWAP2 SWAP1 PUSH3 0x192 JUMP JUMPDEST POP SWAP1 JUMP JUMPDEST JUMPDEST DUP1 DUP3 GT ISZERO PUSH3 0x1AD JUMPI PUSH1 0x0 DUP2 PUSH1 0x0 SWAP1 SSTORE POP PUSH1 0x1 ADD PUSH3 0x193 JUMP JUMPDEST POP SWAP1 JUMP JUMPDEST PUSH1 0x0 DUP2 MLOAD SWAP1 POP PUSH3 0x1C2 DUP2 PUSH3 0x35D JUMP JUMPDEST SWAP3 SWAP2 POP POP JUMP JUMPDEST PUSH1 0x0 PUSH1 0x20 DUP3 DUP5 SUB SLT ISZERO PUSH3 0x1E1 JUMPI PUSH3 0x1E0 PUSH3 0x358 JUMP JUMPDEST JUMPDEST PUSH1 0x0 PUSH3 0x1F1 DUP5 DUP3 DUP6 ADD PUSH3 0x1B1 JUMP JUMPDEST SWAP2 POP POP SWAP3 SWAP2 POP POP JUMP JUMPDEST PUSH1 0x0 PUSH3 0x207 DUP3 PUSH3 0x28B JUMP JUMPDEST SWAP2 POP PUSH3 0x214 DUP4 PUSH3 0x28B JUMP JUMPDEST SWAP3 POP DUP3 PUSH32 0xFFFFFFFFFFFFFFFFFFFFFFFFFFFFFFFFFFFFFFFFFFFFFFFFFFFFFFFFFFFFFFFF SUB DUP3 GT ISZERO PUSH3 0x24C JUMPI PUSH3 0x24B PUSH3 0x2CB JUMP JUMPDEST JUMPDEST DUP3 DUP3 ADD SWAP1 POP SWAP3 SWAP2 POP POP JUMP JUMPDEST PUSH1 0x0 PUSH3 0x264 DUP3 PUSH3 0x26B JUMP JUMPDEST SWAP1 POP SWAP2 SWAP1 POP JUMP JUMPDEST PUSH1 0x0 PUSH20 0xFFFFFFFFFFFFFFFFFFFFFFFFFFFFFFFFFFFFFFFF DUP3 AND SWAP1 POP SWAP2 SWAP1 POP JUMP JUMPDEST PUSH1 0x0 DUP2 SWAP1 POP SWAP2 SWAP1 POP JUMP JUMPDEST PUSH1 0x0 PUSH1 0x2 DUP3 DIV SWAP1 POP PUSH1 0x1 DUP3 AND DUP1 PUSH3 0x2AE JUMPI PUSH1 0x7F DUP3 AND SWAP2 POP JUMPDEST PUSH1 0x20 DUP3 LT DUP2 EQ ISZERO PUSH3 0x2C5 JUMPI PUSH3 0x2C4 PUSH3 0x329 JUMP JUMPDEST JUMPDEST POP SWAP2 SWAP1 POP JUMP JUMPDEST PUSH32 0x4E487B7100000000000000000000000000000000000000000000000000000000 PUSH1 0x0 MSTORE PUSH1 0x11 PUSH1 0x4 MSTORE PUSH1 0x24 PUSH1 0x0 REVERT JUMPDEST PUSH32 0x4E487B7100000000000000000000000000000000000000000000000000000000 PUSH1 0x0 MSTORE PUSH1 0x21 PUSH1 0x4 MSTORE PUSH1 0x24 PUSH1 0x0 REVERT JUMPDEST PUSH32 0x4E487B7100000000000000000000000000000000000000000000000000000000 PUSH1 0x0 MSTORE PUSH1 0x22 PUSH1 0x4 MSTORE PUSH1 0x24 PUSH1 0x0 REVERT JUMPDEST PUSH1 0x0 DUP1 REVERT JUMPDEST PUSH3 0x368 DUP2 PUSH3 0x257 JUMP JUMPDEST DUP2 EQ PUSH3 0x374 JUMPI PUSH1 0x0 DUP1 REVERT JUMPDEST POP JUMP JUMPDEST PUSH2 0x156E DUP1 PUSH3 0x387 PUSH1 0x0 CODECOPY PUSH1 0x0 RETURN INVALID PUSH1 0x80 PUSH1 0x40 MSTORE PUSH1 0x4 CALLDATASIZE LT PUSH2 0x9C JUMPI PUSH1 0x0 CALLDATALOAD PUSH1 0xE0 SHR DUP1 PUSH4 0x8FA8B790 GT PUSH2 0x64 JUMPI DUP1 PUSH4 0x8FA8B790 EQ PUSH2 0x18A JUMPI DUP1 PUSH4 0x91F90157 EQ PUSH2 0x1A1 JUMPI DUP1 PUSH4 0xC623674F EQ PUSH2 0x1CC JUMPI DUP1 PUSH4 0xECFC7ECC EQ PUSH2 0x1F7 JUMPI DUP1 PUSH4 0xF5B56C56 EQ PUSH2 0x201 JUMPI DUP1 PUSH4 0xF77282AB EQ PUSH2 0x22C JUMPI PUSH2 0x9C JUMP JUMPDEST DUP1 PUSH4 0x83C6323 EQ PUSH2 0xA1 JUMPI DUP1 PUSH4 0x48CD4CB1 EQ PUSH2 0xCC JUMPI DUP1 PUSH4 0x62EA82DB EQ PUSH2 0xF7 JUMPI DUP1 PUSH4 0x7FB45099 EQ PUSH2 0x134 JUMPI DUP1 PUSH4 0x8DA5CB5B EQ PUSH2 0x15F JUMPI JUMPDEST PUSH1 0x0 DUP1 REVERT JUMPDEST CALLVALUE DUP1 ISZERO PUSH2 0xAD JUMPI PUSH1 0x0 DUP1 REVERT JUMPDEST POP PUSH2 0xB6 PUSH2 0x243 JUMP JUMPDEST PUSH1 0x40 MLOAD PUSH2 0xC3 SWAP2 SWAP1 PUSH2 0x107C JUMP JUMPDEST PUSH1 0x40 MLOAD DUP1 SWAP2 SUB SWAP1 RETURN JUMPDEST CALLVALUE DUP1 ISZERO PUSH2 0xD8 JUMPI PUSH1 0x0 DUP1 REVERT JUMPDEST POP PUSH2 0xE1 PUSH2 0x249 JUMP JUMPDEST PUSH1 0x40 MLOAD PUSH2 0xEE SWAP2 SWAP1 PUSH2 0x107C JUMP JUMPDEST PUSH1 0x40 MLOAD DUP1 SWAP2 SUB SWAP1 RETURN JUMPDEST CALLVALUE DUP1 ISZERO PUSH2 0x103 JUMPI PUSH1 0x0 DUP1 REVERT JUMPDEST POP PUSH2 0x11E PUSH1 0x4 DUP1 CALLDATASIZE SUB DUP2 ADD SWAP1 PUSH2 0x119 SWAP2 SWAP1 PUSH2 0xD36 JUMP JUMPDEST PUSH2 0x24F JUMP JUMPDEST PUSH1 0x40 MLOAD PUSH2 0x12B SWAP2 SWAP1 PUSH2 0x107C JUMP JUMPDEST PUSH1 0x40 MLOAD DUP1 SWAP2 SUB SWAP1 RETURN JUMPDEST CALLVALUE DUP1 ISZERO PUSH2 0x140 JUMPI PUSH1 0x0 DUP1 REVERT JUMPDEST POP PUSH2 0x149 PUSH2 0x267 JUMP JUMPDEST PUSH1 0x40 MLOAD PUSH2 0x156 SWAP2 SWAP1 PUSH2 0xF1F JUMP JUMPDEST PUSH1 0x40 MLOAD DUP1 SWAP2 SUB SWAP1 RETURN JUMPDEST CALLVALUE DUP1 ISZERO PUSH2 0x16B JUMPI PUSH1 0x0 DUP1 REVERT JUMPDEST POP PUSH2 0x174 PUSH2 0x27A JUMP JUMPDEST PUSH1 0x40 MLOAD PUSH2 0x181 SWAP2 SWAP1 PUSH2 0xF04 JUMP JUMPDEST PUSH1 0x40 MLOAD DUP1 SWAP2 SUB SWAP1 RETURN JUMPDEST CALLVALUE DUP1 ISZERO PUSH2 0x196 JUMPI PUSH1 0x0 DUP1 REVERT JUMPDEST POP PUSH2 0x19F PUSH2 0x29E JUMP JUMPDEST STOP JUMPDEST CALLVALUE DUP1 ISZERO PUSH2 0x1AD JUMPI PUSH1 0x0 DUP1 REVERT JUMPDEST POP PUSH2 0x1B6 PUSH2 0x359 JUMP JUMPDEST PUSH1 0x40 MLOAD PUSH2 0x1C3 SWAP2 SWAP1 PUSH2 0xF04 JUMP JUMPDEST PUSH1 0x40 MLOAD DUP1 SWAP2 SUB SWAP1 RETURN JUMPDEST CALLVALUE DUP1 ISZERO PUSH2 0x1D8 JUMPI PUSH1 0x0 DUP1 REVERT JUMPDEST POP PUSH2 0x1E1 PUSH2 0x37F JUMP JUMPDEST PUSH1 0x40 MLOAD PUSH2 0x1EE SWAP2 SWAP1 PUSH2 0xF3A JUMP JUMPDEST PUSH1 0x40 MLOAD DUP1 SWAP2 SUB SWAP1 RETURN JUMPDEST PUSH2 0x1FF PUSH2 0x40D JUMP JUMPDEST STOP JUMPDEST CALLVALUE DUP1 ISZERO PUSH2 0x20D JUMPI PUSH1 0x0 DUP1 REVERT JUMPDEST POP PUSH2 0x216 PUSH2 0x86A JUMP JUMPDEST PUSH1 0x40 MLOAD PUSH2 0x223 SWAP2 SWAP1 PUSH2 0x107C JUMP JUMPDEST PUSH1 0x40 MLOAD DUP1 SWAP2 SUB SWAP1 RETURN JUMPDEST CALLVALUE DUP1 ISZERO PUSH2 0x238 JUMPI PUSH1 0x0 DUP1 REVERT JUMPDEST POP PUSH2 0x241 PUSH2 0x870 JUMP JUMPDEST STOP JUMPDEST PUSH1 0x2 SLOAD DUP2 JUMP JUMPDEST PUSH1 0x1 SLOAD DUP2 JUMP JUMPDEST PUSH1 0x7 PUSH1 0x20 MSTORE DUP1 PUSH1 0x0 MSTORE PUSH1 0x40 PUSH1 0x0 KECCAK256 PUSH1 0x0 SWAP2 POP SWAP1 POP SLOAD DUP2 JUMP JUMPDEST PUSH1 0x4 PUSH1 0x0 SWAP1 SLOAD SWAP1 PUSH2 0x100 EXP SWAP1 DIV PUSH1 0xFF AND DUP2 JUMP JUMPDEST PUSH1 0x0 DUP1 SLOAD SWAP1 PUSH2 0x100 EXP SWAP1 DIV PUSH20 0xFFFFFFFFFFFFFFFFFFFFFFFFFFFFFFFFFFFFFFFF AND DUP2 JUMP JUMPDEST PUSH1 0x0 DUP1 SLOAD SWAP1 PUSH2 0x100 EXP SWAP1 DIV PUSH20 0xFFFFFFFFFFFFFFFFFFFFFFFFFFFFFFFFFFFFFFFF AND PUSH20 0xFFFFFFFFFFFFFFFFFFFFFFFFFFFFFFFFFFFFFFFF AND CALLER PUSH20 0xFFFFFFFFFFFFFFFFFFFFFFFFFFFFFFFFFFFFFFFF AND EQ PUSH2 0x32C JUMPI PUSH1 0x40 MLOAD PUSH32 0x8C379A000000000000000000000000000000000000000000000000000000000 DUP2 MSTORE PUSH1 0x4 ADD PUSH2 0x323 SWAP1 PUSH2 0xF7C JUMP JUMPDEST PUSH1 0x40 MLOAD DUP1 SWAP2 SUB SWAP1 REVERT JUMPDEST PUSH1 0x3 PUSH1 0x4 PUSH1 0x0 PUSH2 0x100 EXP DUP2 SLOAD DUP2 PUSH1 0xFF MUL NOT AND SWAP1 DUP4 PUSH1 0x3 DUP2 GT ISZERO PUSH2 0x352 JUMPI PUSH2 0x351 PUSH2 0x1244 JUMP JUMPDEST JUMPDEST MUL OR SWAP1 SSTORE POP JUMP JUMPDEST PUSH1 0x6 PUSH1 0x0 SWAP1 SLOAD SWAP1 PUSH2 0x100 EXP SWAP1 DIV PUSH20 0xFFFFFFFFFFFFFFFFFFFFFFFFFFFFFFFFFFFFFFFF AND DUP2 JUMP JUMPDEST PUSH1 0x3 DUP1 SLOAD PUSH2 0x38C SWAP1 PUSH2 0x11E3 JUMP JUMPDEST DUP1 PUSH1 0x1F ADD PUSH1 0x20 DUP1 SWAP2 DIV MUL PUSH1 0x20 ADD PUSH1 0x40 MLOAD SWAP1 DUP2 ADD PUSH1 0x40 MSTORE DUP1 SWAP3 SWAP2 SWAP1 DUP2 DUP2 MSTORE PUSH1 0x20 ADD DUP3 DUP1 SLOAD PUSH2 0x3B8 SWAP1 PUSH2 0x11E3 JUMP JUMPDEST DUP1 ISZERO PUSH2 0x405 JUMPI DUP1 PUSH1 0x1F LT PUSH2 0x3DA JUMPI PUSH2 0x100 DUP1 DUP4 SLOAD DIV MUL DUP4 MSTORE SWAP2 PUSH1 0x20 ADD SWAP2 PUSH2 0x405 JUMP JUMPDEST DUP3 ADD SWAP2 SWAP1 PUSH1 0x0 MSTORE PUSH1 0x20 PUSH1 0x0 KECCAK256 SWAP1 JUMPDEST DUP2 SLOAD DUP2 MSTORE SWAP1 PUSH1 0x1 ADD SWAP1 PUSH1 0x20 ADD DUP1 DUP4 GT PUSH2 0x3E8 JUMPI DUP3 SWAP1 SUB PUSH1 0x1F AND DUP3 ADD SWAP2 JUMPDEST POP POP POP POP POP DUP2 JUMP JUMPDEST PUSH1 0x0 DUP1 SLOAD SWAP1 PUSH2 0x100 EXP SWAP1 DIV PUSH20 0xFFFFFFFFFFFFFFFFFFFFFFFFFFFFFFFFFFFFFFFF AND PUSH20 0xFFFFFFFFFFFFFFFFFFFFFFFFFFFFFFFFFFFFFFFF AND CALLER PUSH20 0xFFFFFFFFFFFFFFFFFFFFFFFFFFFFFFFFFFFFFFFF AND EQ ISZERO PUSH2 0x49C JUMPI PUSH1 0x40 MLOAD PUSH32 0x8C379A000000000000000000000000000000000000000000000000000000000 DUP2 MSTORE PUSH1 0x4 ADD PUSH2 0x493 SWAP1 PUSH2 0xFDC JUMP JUMPDEST PUSH1 0x40 MLOAD DUP1 SWAP2 SUB SWAP1 REVERT JUMPDEST PUSH1 0x1 SLOAD NUMBER LT ISZERO PUSH2 0x4E1 JUMPI PUSH1 0x40 MLOAD PUSH32 0x8C379A000000000000000000000000000000000000000000000000000000000 DUP2 MSTORE PUSH1 0x4 ADD PUSH2 0x4D8 SWAP1 PUSH2 0xF5C JUMP JUMPDEST PUSH1 0x40 MLOAD DUP1 SWAP2 SUB SWAP1 REVERT JUMPDEST PUSH1 0x2 SLOAD NUMBER GT ISZERO PUSH2 0x526 JUMPI PUSH1 0x40 MLOAD PUSH32 0x8C379A000000000000000000000000000000000000000000000000000000000 DUP2 MSTORE PUSH1 0x4 ADD PUSH2 0x51D SWAP1 PUSH2 0xFBC JUMP JUMPDEST PUSH1 0x40 MLOAD DUP1 SWAP2 SUB SWAP1 REVERT JUMPDEST PUSH1 0x1 PUSH1 0x3 DUP2 GT ISZERO PUSH2 0x53A JUMPI PUSH2 0x539 PUSH2 0x1244 JUMP JUMPDEST JUMPDEST PUSH1 0x4 PUSH1 0x0 SWAP1 SLOAD SWAP1 PUSH2 0x100 EXP SWAP1 DIV PUSH1 0xFF AND PUSH1 0x3 DUP2 GT ISZERO PUSH2 0x55C JUMPI PUSH2 0x55B PUSH2 0x1244 JUMP JUMPDEST JUMPDEST EQ PUSH2 0x59C JUMPI PUSH1 0x40 MLOAD PUSH32 0x8C379A000000000000000000000000000000000000000000000000000000000 DUP2 MSTORE PUSH1 0x4 ADD PUSH2 0x593 SWAP1 PUSH2 0x101C JUMP JUMPDEST PUSH1 0x40 MLOAD DUP1 SWAP2 SUB SWAP1 REVERT JUMPDEST PUSH6 0x5AF3107A4000 CALLVALUE LT ISZERO PUSH2 0x5E5 JUMPI PUSH1 0x40 MLOAD PUSH32 0x8C379A000000000000000000000000000000000000000000000000000000000 DUP2 MSTORE PUSH1 0x4 ADD PUSH2 0x5DC SWAP1 PUSH2 0x103C JUMP JUMPDEST PUSH1 0x40 MLOAD DUP1 SWAP2 SUB SWAP1 REVERT JUMPDEST PUSH1 0x0 CALLVALUE PUSH1 0x7 PUSH1 0x0 CALLER PUSH20 0xFFFFFFFFFFFFFFFFFFFFFFFFFFFFFFFFFFFFFFFF AND PUSH20 0xFFFFFFFFFFFFFFFFFFFFFFFFFFFFFFFFFFFFFFFF AND DUP2 MSTORE PUSH1 0x20 ADD SWAP1 DUP2 MSTORE PUSH1 0x20 ADD PUSH1 0x0 KECCAK256 SLOAD PUSH2 0x632 SWAP2 SWAP1 PUSH2 0x10B3 JUMP JUMPDEST SWAP1 POP PUSH1 0x5 SLOAD DUP2 GT PUSH2 0x678 JUMPI PUSH1 0x40 MLOAD PUSH32 0x8C379A000000000000000000000000000000000000000000000000000000000 DUP2 MSTORE PUSH1 0x4 ADD PUSH2 0x66F SWAP1 PUSH2 0xF9C JUMP JUMPDEST PUSH1 0x40 MLOAD DUP1 SWAP2 SUB SWAP1 REVERT JUMPDEST DUP1 PUSH1 0x7 PUSH1 0x0 CALLER PUSH20 0xFFFFFFFFFFFFFFFFFFFFFFFFFFFFFFFFFFFFFFFF AND PUSH20 0xFFFFFFFFFFFFFFFFFFFFFFFFFFFFFFFFFFFFFFFF AND DUP2 MSTORE PUSH1 0x20 ADD SWAP1 DUP2 MSTORE PUSH1 0x20 ADD PUSH1 0x0 KECCAK256 DUP2 SWAP1 SSTORE POP PUSH1 0x7 PUSH1 0x0 PUSH1 0x6 PUSH1 0x0 SWAP1 SLOAD SWAP1 PUSH2 0x100 EXP SWAP1 DIV PUSH20 0xFFFFFFFFFFFFFFFFFFFFFFFFFFFFFFFFFFFFFFFF AND PUSH20 0xFFFFFFFFFFFFFFFFFFFFFFFFFFFFFFFFFFFFFFFF AND PUSH20 0xFFFFFFFFFFFFFFFFFFFFFFFFFFFFFFFFFFFFFFFF AND DUP2 MSTORE PUSH1 0x20 ADD SWAP1 DUP2 MSTORE PUSH1 0x20 ADD PUSH1 0x0 KECCAK256 SLOAD DUP2 GT PUSH2 0x7A7 JUMPI PUSH2 0x79C PUSH1 0x8 SLOAD DUP3 PUSH2 0x735 SWAP2 SWAP1 PUSH2 0x10B3 JUMP JUMPDEST PUSH1 0x7 PUSH1 0x0 PUSH1 0x6 PUSH1 0x0 SWAP1 SLOAD SWAP1 PUSH2 0x100 EXP SWAP1 DIV PUSH20 0xFFFFFFFFFFFFFFFFFFFFFFFFFFFFFFFFFFFFFFFF AND PUSH20 0xFFFFFFFFFFFFFFFFFFFFFFFFFFFFFFFFFFFFFFFF AND PUSH20 0xFFFFFFFFFFFFFFFFFFFFFFFFFFFFFFFFFFFFFFFF AND DUP2 MSTORE PUSH1 0x20 ADD SWAP1 DUP2 MSTORE PUSH1 0x20 ADD PUSH1 0x0 KECCAK256 SLOAD PUSH2 0xD06 JUMP JUMPDEST PUSH1 0x5 DUP2 SWAP1 SSTORE POP PUSH2 0x867 JUMP JUMPDEST PUSH2 0x81F DUP2 PUSH1 0x8 SLOAD PUSH1 0x7 PUSH1 0x0 PUSH1 0x6 PUSH1 0x0 SWAP1 SLOAD SWAP1 PUSH2 0x100 EXP SWAP1 DIV PUSH20 0xFFFFFFFFFFFFFFFFFFFFFFFFFFFFFFFFFFFFFFFF AND PUSH20 0xFFFFFFFFFFFFFFFFFFFFFFFFFFFFFFFFFFFFFFFF AND PUSH20 0xFFFFFFFFFFFFFFFFFFFFFFFFFFFFFFFFFFFFFFFF AND DUP2 MSTORE PUSH1 0x20 ADD SWAP1 DUP2 MSTORE PUSH1 0x20 ADD PUSH1 0x0 KECCAK256 SLOAD PUSH2 0x81A SWAP2 SWAP1 PUSH2 0x10B3 JUMP JUMPDEST PUSH2 0xD06 JUMP JUMPDEST PUSH1 0x5 DUP2 SWAP1 SSTORE POP CALLER PUSH1 0x6 PUSH1 0x0 PUSH2 0x100 EXP DUP2 SLOAD DUP2 PUSH20 0xFFFFFFFFFFFFFFFFFFFFFFFFFFFFFFFFFFFFFFFF MUL NOT AND SWAP1 DUP4 PUSH20 0xFFFFFFFFFFFFFFFFFFFFFFFFFFFFFFFFFFFFFFFF AND MUL OR SWAP1 SSTORE POP JUMPDEST POP JUMP JUMPDEST PUSH1 0x5 SLOAD DUP2 JUMP JUMPDEST PUSH1 0x3 DUP1 DUP2 GT ISZERO PUSH2 0x883 JUMPI PUSH2 0x882 PUSH2 0x1244 JUMP JUMPDEST JUMPDEST PUSH1 0x4 PUSH1 0x0 SWAP1 SLOAD SWAP1 PUSH2 0x100 EXP SWAP1 DIV PUSH1 0xFF AND PUSH1 0x3 DUP2 GT ISZERO PUSH2 0x8A5 JUMPI PUSH2 0x8A4 PUSH2 0x1244 JUMP JUMPDEST JUMPDEST EQ DUP1 PUSH2 0x8B2 JUMPI POP PUSH1 0x2 SLOAD NUMBER GT JUMPDEST PUSH2 0x8F1 JUMPI PUSH1 0x40 MLOAD PUSH32 0x8C379A000000000000000000000000000000000000000000000000000000000 DUP2 MSTORE PUSH1 0x4 ADD PUSH2 0x8E8 SWAP1 PUSH2 0x105C JUMP JUMPDEST PUSH1 0x40 MLOAD DUP1 SWAP2 SUB SWAP1 REVERT JUMPDEST PUSH1 0x0 DUP1 SLOAD SWAP1 PUSH2 0x100 EXP SWAP1 DIV PUSH20 0xFFFFFFFFFFFFFFFFFFFFFFFFFFFFFFFFFFFFFFFF AND PUSH20 0xFFFFFFFFFFFFFFFFFFFFFFFFFFFFFFFFFFFFFFFF AND CALLER PUSH20 0xFFFFFFFFFFFFFFFFFFFFFFFFFFFFFFFFFFFFFFFF AND EQ DUP1 PUSH2 0x98A JUMPI POP PUSH1 0x0 PUSH1 0x7 PUSH1 0x0 CALLER PUSH20 0xFFFFFFFFFFFFFFFFFFFFFFFFFFFFFFFFFFFFFFFF AND PUSH20 0xFFFFFFFFFFFFFFFFFFFFFFFFFFFFFFFFFFFFFFFF AND DUP2 MSTORE PUSH1 0x20 ADD SWAP1 DUP2 MSTORE PUSH1 0x20 ADD PUSH1 0x0 KECCAK256 SLOAD GT JUMPDEST PUSH2 0x9C9 JUMPI PUSH1 0x40 MLOAD PUSH32 0x8C379A000000000000000000000000000000000000000000000000000000000 DUP2 MSTORE PUSH1 0x4 ADD PUSH2 0x9C0 SWAP1 PUSH2 0xFFC JUMP JUMPDEST PUSH1 0x40 MLOAD DUP1 SWAP2 SUB SWAP1 REVERT JUMPDEST PUSH1 0x0 DUP1 PUSH1 0x3 DUP1 DUP2 GT ISZERO PUSH2 0x9DF JUMPI PUSH2 0x9DE PUSH2 0x1244 JUMP JUMPDEST JUMPDEST PUSH1 0x4 PUSH1 0x0 SWAP1 SLOAD SWAP1 PUSH2 0x100 EXP SWAP1 DIV PUSH1 0xFF AND PUSH1 0x3 DUP2 GT ISZERO PUSH2 0xA01 JUMPI PUSH2 0xA00 PUSH2 0x1244 JUMP JUMPDEST JUMPDEST EQ ISZERO PUSH2 0xA51 JUMPI CALLER SWAP2 POP PUSH1 0x7 PUSH1 0x0 CALLER PUSH20 0xFFFFFFFFFFFFFFFFFFFFFFFFFFFFFFFFFFFFFFFF AND PUSH20 0xFFFFFFFFFFFFFFFFFFFFFFFFFFFFFFFFFFFFFFFF AND DUP2 MSTORE PUSH1 0x20 ADD SWAP1 DUP2 MSTORE PUSH1 0x20 ADD PUSH1 0x0 KECCAK256 SLOAD SWAP1 POP PUSH2 0xC76 JUMP JUMPDEST PUSH1 0x0 DUP1 SLOAD SWAP1 PUSH2 0x100 EXP SWAP1 DIV PUSH20 0xFFFFFFFFFFFFFFFFFFFFFFFFFFFFFFFFFFFFFFFF AND PUSH20 0xFFFFFFFFFFFFFFFFFFFFFFFFFFFFFFFFFFFFFFFF AND CALLER PUSH20 0xFFFFFFFFFFFFFFFFFFFFFFFFFFFFFFFFFFFFFFFF AND EQ DUP1 ISZERO PUSH2 0xAE0 JUMPI POP PUSH1 0x2 PUSH1 0x3 DUP2 GT ISZERO PUSH2 0xABB JUMPI PUSH2 0xABA PUSH2 0x1244 JUMP JUMPDEST JUMPDEST PUSH1 0x4 PUSH1 0x0 SWAP1 SLOAD SWAP1 PUSH2 0x100 EXP SWAP1 DIV PUSH1 0xFF AND PUSH1 0x3 DUP2 GT ISZERO PUSH2 0xADD JUMPI PUSH2 0xADC PUSH2 0x1244 JUMP JUMPDEST JUMPDEST EQ ISZERO JUMPDEST ISZERO PUSH2 0xB3D JUMPI PUSH1 0x0 DUP1 SLOAD SWAP1 PUSH2 0x100 EXP SWAP1 DIV PUSH20 0xFFFFFFFFFFFFFFFFFFFFFFFFFFFFFFFFFFFFFFFF AND SWAP2 POP PUSH1 0x5 SLOAD SWAP1 POP PUSH1 0x2 PUSH1 0x4 PUSH1 0x0 PUSH2 0x100 EXP DUP2 SLOAD DUP2 PUSH1 0xFF MUL NOT AND SWAP1 DUP4 PUSH1 0x3 DUP2 GT ISZERO PUSH2 0xB33 JUMPI PUSH2 0xB32 PUSH2 0x1244 JUMP JUMPDEST JUMPDEST MUL OR SWAP1 SSTORE POP PUSH2 0xC75 JUMP JUMPDEST PUSH1 0x6 PUSH1 0x0 SWAP1 SLOAD SWAP1 PUSH2 0x100 EXP SWAP1 DIV PUSH20 0xFFFFFFFFFFFFFFFFFFFFFFFFFFFFFFFFFFFFFFFF AND PUSH20 0xFFFFFFFFFFFFFFFFFFFFFFFFFFFFFFFFFFFFFFFF AND CALLER PUSH20 0xFFFFFFFFFFFFFFFFFFFFFFFFFFFFFFFFFFFFFFFF AND EQ ISZERO PUSH2 0xC2E JUMPI PUSH1 0x6 PUSH1 0x0 SWAP1 SLOAD SWAP1 PUSH2 0x100 EXP SWAP1 DIV PUSH20 0xFFFFFFFFFFFFFFFFFFFFFFFFFFFFFFFFFFFFFFFF AND SWAP2 POP PUSH1 0x5 SLOAD PUSH1 0x7 PUSH1 0x0 PUSH1 0x6 PUSH1 0x0 SWAP1 SLOAD SWAP1 PUSH2 0x100 EXP SWAP1 DIV PUSH20 0xFFFFFFFFFFFFFFFFFFFFFFFFFFFFFFFFFFFFFFFF AND PUSH20 0xFFFFFFFFFFFFFFFFFFFFFFFFFFFFFFFFFFFFFFFF AND PUSH20 0xFFFFFFFFFFFFFFFFFFFFFFFFFFFFFFFFFFFFFFFF AND DUP2 MSTORE PUSH1 0x20 ADD SWAP1 DUP2 MSTORE PUSH1 0x20 ADD PUSH1 0x0 KECCAK256 SLOAD PUSH2 0xC27 SWAP2 SWAP1 PUSH2 0x1109 JUMP JUMPDEST SWAP1 POP PUSH2 0xC74 JUMP JUMPDEST CALLER SWAP2 POP PUSH1 0x7 PUSH1 0x0 CALLER PUSH20 0xFFFFFFFFFFFFFFFFFFFFFFFFFFFFFFFFFFFFFFFF AND PUSH20 0xFFFFFFFFFFFFFFFFFFFFFFFFFFFFFFFFFFFFFFFF AND DUP2 MSTORE PUSH1 0x20 ADD SWAP1 DUP2 MSTORE PUSH1 0x20 ADD PUSH1 0x0 KECCAK256 SLOAD SWAP1 POP JUMPDEST JUMPDEST JUMPDEST PUSH1 0x0 PUSH1 0x7 PUSH1 0x0 DUP5 PUSH20 0xFFFFFFFFFFFFFFFFFFFFFFFFFFFFFFFFFFFFFFFF AND PUSH20 0xFFFFFFFFFFFFFFFFFFFFFFFFFFFFFFFFFFFFFFFF AND DUP2 MSTORE PUSH1 0x20 ADD SWAP1 DUP2 MSTORE PUSH1 0x20 ADD PUSH1 0x0 KECCAK256 DUP2 SWAP1 SSTORE POP DUP2 PUSH20 0xFFFFFFFFFFFFFFFFFFFFFFFFFFFFFFFFFFFFFFFF AND PUSH2 0x8FC DUP3 SWAP1 DUP2 ISZERO MUL SWAP1 PUSH1 0x40 MLOAD PUSH1 0x0 PUSH1 0x40 MLOAD DUP1 DUP4 SUB DUP2 DUP6 DUP9 DUP9 CALL SWAP4 POP POP POP POP ISZERO DUP1 ISZERO PUSH2 0xD01 JUMPI RETURNDATASIZE PUSH1 0x0 DUP1 RETURNDATACOPY RETURNDATASIZE PUSH1 0x0 REVERT JUMPDEST POP POP POP JUMP JUMPDEST PUSH1 0x0 DUP2 DUP4 GT PUSH2 0xD17 JUMPI DUP3 SWAP1 POP PUSH2 0xD1B JUMP JUMPDEST DUP2 SWAP1 POP JUMPDEST SWAP3 SWAP2 POP POP JUMP JUMPDEST PUSH1 0x0 DUP2 CALLDATALOAD SWAP1 POP PUSH2 0xD30 DUP2 PUSH2 0x1521 JUMP JUMPDEST SWAP3 SWAP2 POP POP JUMP JUMPDEST PUSH1 0x0 PUSH1 0x20 DUP3 DUP5 SUB SLT ISZERO PUSH2 0xD4C JUMPI PUSH2 0xD4B PUSH2 0x12A2 JUMP JUMPDEST JUMPDEST PUSH1 0x0 PUSH2 0xD5A DUP5 DUP3 DUP6 ADD PUSH2 0xD21 JUMP JUMPDEST SWAP2 POP POP SWAP3 SWAP2 POP POP JUMP JUMPDEST PUSH2 0xD6C DUP2 PUSH2 0x114F JUMP JUMPDEST DUP3 MSTORE POP POP JUMP JUMPDEST PUSH2 0xD7B DUP2 PUSH2 0x119E JUMP JUMPDEST DUP3 MSTORE POP POP JUMP JUMPDEST PUSH1 0x0 PUSH2 0xD8C DUP3 PUSH2 0x1097 JUMP JUMPDEST PUSH2 0xD96 DUP2 DUP6 PUSH2 0x10A2 JUMP JUMPDEST SWAP4 POP PUSH2 0xDA6 DUP2 DUP6 PUSH1 0x20 DUP7 ADD PUSH2 0x11B0 JUMP JUMPDEST PUSH2 0xDAF DUP2 PUSH2 0x12A7 JUMP JUMPDEST DUP5 ADD SWAP2 POP POP SWAP3 SWAP2 POP POP JUMP JUMPDEST PUSH1 0x0 PUSH2 0xDC7 PUSH1 0x15 DUP4 PUSH2 0x10A2 JUMP JUMPDEST SWAP2 POP PUSH2 0xDD2 DUP3 PUSH2 0x12B8 JUMP JUMPDEST PUSH1 0x20 DUP3 ADD SWAP1 POP SWAP2 SWAP1 POP JUMP JUMPDEST PUSH1 0x0 PUSH2 0xDEA PUSH1 0x16 DUP4 PUSH2 0x10A2 JUMP JUMPDEST SWAP2 POP PUSH2 0xDF5 DUP3 PUSH2 0x12E1 JUMP JUMPDEST PUSH1 0x20 DUP3 ADD SWAP1 POP SWAP2 SWAP1 POP JUMP JUMPDEST PUSH1 0x0 PUSH2 0xE0D PUSH1 0x25 DUP4 PUSH2 0x10A2 JUMP JUMPDEST SWAP2 POP PUSH2 0xE18 DUP3 PUSH2 0x130A JUMP JUMPDEST PUSH1 0x40 DUP3 ADD SWAP1 POP SWAP2 SWAP1 POP JUMP JUMPDEST PUSH1 0x0 PUSH2 0xE30 PUSH1 0x16 DUP4 PUSH2 0x10A2 JUMP JUMPDEST SWAP2 POP PUSH2 0xE3B DUP3 PUSH2 0x1359 JUMP JUMPDEST PUSH1 0x20 DUP3 ADD SWAP1 POP SWAP2 SWAP1 POP JUMP JUMPDEST PUSH1 0x0 PUSH2 0xE53 PUSH1 0x2A DUP4 PUSH2 0x10A2 JUMP JUMPDEST SWAP2 POP PUSH2 0xE5E DUP3 PUSH2 0x1382 JUMP JUMPDEST PUSH1 0x40 DUP3 ADD SWAP1 POP SWAP2 SWAP1 POP JUMP JUMPDEST PUSH1 0x0 PUSH2 0xE76 PUSH1 0x40 DUP4 PUSH2 0x10A2 JUMP JUMPDEST SWAP2 POP PUSH2 0xE81 DUP3 PUSH2 0x13D1 JUMP JUMPDEST PUSH1 0x40 DUP3 ADD SWAP1 POP SWAP2 SWAP1 POP JUMP JUMPDEST PUSH1 0x0 PUSH2 0xE99 PUSH1 0x22 DUP4 PUSH2 0x10A2 JUMP JUMPDEST SWAP2 POP PUSH2 0xEA4 DUP3 PUSH2 0x1420 JUMP JUMPDEST PUSH1 0x40 DUP3 ADD SWAP1 POP SWAP2 SWAP1 POP JUMP JUMPDEST PUSH1 0x0 PUSH2 0xEBC PUSH1 0x28 DUP4 PUSH2 0x10A2 JUMP JUMPDEST SWAP2 POP PUSH2 0xEC7 DUP3 PUSH2 0x146F JUMP JUMPDEST PUSH1 0x40 DUP3 ADD SWAP1 POP SWAP2 SWAP1 POP JUMP JUMPDEST PUSH1 0x0 PUSH2 0xEDF PUSH1 0x2D DUP4 PUSH2 0x10A2 JUMP JUMPDEST SWAP2 POP PUSH2 0xEEA DUP3 PUSH2 0x14BE JUMP JUMPDEST PUSH1 0x40 DUP3 ADD SWAP1 POP SWAP2 SWAP1 POP JUMP JUMPDEST PUSH2 0xEFE DUP2 PUSH2 0x1194 JUMP JUMPDEST DUP3 MSTORE POP POP JUMP JUMPDEST PUSH1 0x0 PUSH1 0x20 DUP3 ADD SWAP1 POP PUSH2 0xF19 PUSH1 0x0 DUP4 ADD DUP5 PUSH2 0xD63 JUMP JUMPDEST SWAP3 SWAP2 POP POP JUMP JUMPDEST PUSH1 0x0 PUSH1 0x20 DUP3 ADD SWAP1 POP PUSH2 0xF34 PUSH1 0x0 DUP4 ADD DUP5 PUSH2 0xD72 JUMP JUMPDEST SWAP3 SWAP2 POP POP JUMP JUMPDEST PUSH1 0x0 PUSH1 0x20 DUP3 ADD SWAP1 POP DUP2 DUP2 SUB PUSH1 0x0 DUP4 ADD MSTORE PUSH2 0xF54 DUP2 DUP5 PUSH2 0xD81 JUMP JUMPDEST SWAP1 POP SWAP3 SWAP2 POP POP JUMP JUMPDEST PUSH1 0x0 PUSH1 0x20 DUP3 ADD SWAP1 POP DUP2 DUP2 SUB PUSH1 0x0 DUP4 ADD MSTORE PUSH2 0xF75 DUP2 PUSH2 0xDBA JUMP JUMPDEST SWAP1 POP SWAP2 SWAP1 POP JUMP JUMPDEST PUSH1 0x0 PUSH1 0x20 DUP3 ADD SWAP1 POP DUP2 DUP2 SUB PUSH1 0x0 DUP4 ADD MSTORE PUSH2 0xF95 DUP2 PUSH2 0xDDD JUMP JUMPDEST SWAP1 POP SWAP2 SWAP1 POP JUMP JUMPDEST PUSH1 0x0 PUSH1 0x20 DUP3 ADD SWAP1 POP DUP2 DUP2 SUB PUSH1 0x0 DUP4 ADD MSTORE PUSH2 0xFB5 DUP2 PUSH2 0xE00 JUMP JUMPDEST SWAP1 POP SWAP2 SWAP1 POP JUMP JUMPDEST PUSH1 0x0 PUSH1 0x20 DUP3 ADD SWAP1 POP DUP2 DUP2 SUB PUSH1 0x0 DUP4 ADD MSTORE PUSH2 0xFD5 DUP2 PUSH2 0xE23 JUMP JUMPDEST SWAP1 POP SWAP2 SWAP1 POP JUMP JUMPDEST PUSH1 0x0 PUSH1 0x20 DUP3 ADD SWAP1 POP DUP2 DUP2 SUB PUSH1 0x0 DUP4 ADD MSTORE PUSH2 0xFF5 DUP2 PUSH2 0xE46 JUMP JUMPDEST SWAP1 POP SWAP2 SWAP1 POP JUMP JUMPDEST PUSH1 0x0 PUSH1 0x20 DUP3 ADD SWAP1 POP DUP2 DUP2 SUB PUSH1 0x0 DUP4 ADD MSTORE PUSH2 0x1015 DUP2 PUSH2 0xE69 JUMP JUMPDEST SWAP1 POP SWAP2 SWAP1 POP JUMP JUMPDEST PUSH1 0x0 PUSH1 0x20 DUP3 ADD SWAP1 POP DUP2 DUP2 SUB PUSH1 0x0 DUP4 ADD MSTORE PUSH2 0x1035 DUP2 PUSH2 0xE8C JUMP JUMPDEST SWAP1 POP SWAP2 SWAP1 POP JUMP JUMPDEST PUSH1 0x0 PUSH1 0x20 DUP3 ADD SWAP1 POP DUP2 DUP2 SUB PUSH1 0x0 DUP4 ADD MSTORE PUSH2 0x1055 DUP2 PUSH2 0xEAF JUMP JUMPDEST SWAP1 POP SWAP2 SWAP1 POP JUMP JUMPDEST PUSH1 0x0 PUSH1 0x20 DUP3 ADD SWAP1 POP DUP2 DUP2 SUB PUSH1 0x0 DUP4 ADD MSTORE PUSH2 0x1075 DUP2 PUSH2 0xED2 JUMP JUMPDEST SWAP1 POP SWAP2 SWAP1 POP JUMP JUMPDEST PUSH1 0x0 PUSH1 0x20 DUP3 ADD SWAP1 POP PUSH2 0x1091 PUSH1 0x0 DUP4 ADD DUP5 PUSH2 0xEF5 JUMP JUMPDEST SWAP3 SWAP2 POP POP JUMP JUMPDEST PUSH1 0x0 DUP2 MLOAD SWAP1 POP SWAP2 SWAP1 POP JUMP JUMPDEST PUSH1 0x0 DUP3 DUP3 MSTORE PUSH1 0x20 DUP3 ADD SWAP1 POP SWAP3 SWAP2 POP POP JUMP JUMPDEST PUSH1 0x0 PUSH2 0x10BE DUP3 PUSH2 0x1194 JUMP JUMPDEST SWAP2 POP PUSH2 0x10C9 DUP4 PUSH2 0x1194 JUMP JUMPDEST SWAP3 POP DUP3 PUSH32 0xFFFFFFFFFFFFFFFFFFFFFFFFFFFFFFFFFFFFFFFFFFFFFFFFFFFFFFFFFFFFFFFF SUB DUP3 GT ISZERO PUSH2 0x10FE JUMPI PUSH2 0x10FD PUSH2 0x1215 JUMP JUMPDEST JUMPDEST DUP3 DUP3 ADD SWAP1 POP SWAP3 SWAP2 POP POP JUMP JUMPDEST PUSH1 0x0 PUSH2 0x1114 DUP3 PUSH2 0x1194 JUMP JUMPDEST SWAP2 POP PUSH2 0x111F DUP4 PUSH2 0x1194 JUMP JUMPDEST SWAP3 POP DUP3 DUP3 LT ISZERO PUSH2 0x1132 JUMPI PUSH2 0x1131 PUSH2 0x1215 JUMP JUMPDEST JUMPDEST DUP3 DUP3 SUB SWAP1 POP SWAP3 SWAP2 POP POP JUMP JUMPDEST PUSH1 0x0 PUSH2 0x1148 DUP3 PUSH2 0x1174 JUMP JUMPDEST SWAP1 POP SWAP2 SWAP1 POP JUMP JUMPDEST PUSH1 0x0 PUSH2 0x115A DUP3 PUSH2 0x1174 JUMP JUMPDEST SWAP1 POP SWAP2 SWAP1 POP JUMP JUMPDEST PUSH1 0x0 DUP2 SWAP1 POP PUSH2 0x116F DUP3 PUSH2 0x150D JUMP JUMPDEST SWAP2 SWAP1 POP JUMP JUMPDEST PUSH1 0x0 PUSH20 0xFFFFFFFFFFFFFFFFFFFFFFFFFFFFFFFFFFFFFFFF DUP3 AND SWAP1 POP SWAP2 SWAP1 POP JUMP JUMPDEST PUSH1 0x0 DUP2 SWAP1 POP SWAP2 SWAP1 POP JUMP JUMPDEST PUSH1 0x0 PUSH2 0x11A9 DUP3 PUSH2 0x1161 JUMP JUMPDEST SWAP1 POP SWAP2 SWAP1 POP JUMP JUMPDEST PUSH1 0x0 JUMPDEST DUP4 DUP2 LT ISZERO PUSH2 0x11CE JUMPI DUP1 DUP3 ADD MLOAD DUP2 DUP5 ADD MSTORE PUSH1 0x20 DUP2 ADD SWAP1 POP PUSH2 0x11B3 JUMP JUMPDEST DUP4 DUP2 GT ISZERO PUSH2 0x11DD JUMPI PUSH1 0x0 DUP5 DUP5 ADD MSTORE JUMPDEST POP POP POP POP JUMP JUMPDEST PUSH1 0x0 PUSH1 0x2 DUP3 DIV SWAP1 POP PUSH1 0x1 DUP3 AND DUP1 PUSH2 0x11FB JUMPI PUSH1 0x7F DUP3 AND SWAP2 POP JUMPDEST PUSH1 0x20 DUP3 LT DUP2 EQ ISZERO PUSH2 0x120F JUMPI PUSH2 0x120E PUSH2 0x1273 JUMP JUMPDEST JUMPDEST POP SWAP2 SWAP1 POP JUMP JUMPDEST PUSH32 0x4E487B7100000000000000000000000000000000000000000000000000000000 PUSH1 0x0 MSTORE PUSH1 0x11 PUSH1 0x4 MSTORE PUSH1 0x24 PUSH1 0x0 REVERT JUMPDEST PUSH32 0x4E487B7100000000000000000000000000000000000000000000000000000000 PUSH1 0x0 MSTORE PUSH1 0x21 PUSH1 0x4 MSTORE PUSH1 0x24 PUSH1 0x0 REVERT JUMPDEST PUSH32 0x4E487B7100000000000000000000000000000000000000000000000000000000 PUSH1 0x0 MSTORE PUSH1 0x22 PUSH1 0x4 MSTORE PUSH1 0x24 PUSH1 0x0 REVERT JUMPDEST PUSH1 0x0 DUP1 REVERT JUMPDEST PUSH1 0x0 PUSH1 0x1F NOT PUSH1 0x1F DUP4 ADD AND SWAP1 POP SWAP2 SWAP1 POP JUMP JUMPDEST PUSH32 0x426C6F636B206E756D6265722069732077726F6E670000000000000000000000 PUSH1 0x0 DUP3 ADD MSTORE POP JUMP JUMPDEST PUSH32 0x596F7520617265206E6F7420746865206F776E65722100000000000000000000 PUSH1 0x0 DUP3 ADD MSTORE POP JUMP JUMPDEST PUSH32 0x497420616C726561647920697320612062696767657220626964207468616E20 PUSH1 0x0 DUP3 ADD MSTORE PUSH32 0x796F757273000000000000000000000000000000000000000000000000000000 PUSH1 0x20 DUP3 ADD MSTORE POP JUMP JUMPDEST PUSH32 0x5468652061756374696F6E2068617320656E6465642100000000000000000000 PUSH1 0x0 DUP3 ADD MSTORE POP JUMP JUMPDEST PUSH32 0x596F752061726520746865206F776E65722C20796F752063616E742070617274 PUSH1 0x0 DUP3 ADD MSTORE PUSH32 0x696369706174652E2E2E00000000000000000000000000000000000000000000 PUSH1 0x20 DUP3 ADD MSTORE POP JUMP JUMPDEST PUSH32 0x596F75206469646E7420706172746963697061746520746F2074686520617563 PUSH1 0x0 DUP3 ADD MSTORE PUSH32 0x74696F6E206F7220796F7520616C726561647920207769746864726177656420 PUSH1 0x20 DUP3 ADD MSTORE POP JUMP JUMPDEST PUSH32 0x5468652061756374696F6E206973206E6F742072756E6E696E6720616E796D6F PUSH1 0x0 DUP3 ADD MSTORE PUSH32 0x7265000000000000000000000000000000000000000000000000000000000000 PUSH1 0x20 DUP3 ADD MSTORE POP JUMP JUMPDEST PUSH32 0x54686520736D616C6C65737420616D6F756E7420746F2062696420697320302E PUSH1 0x0 DUP3 ADD MSTORE PUSH32 0x3030303120657468000000000000000000000000000000000000000000000000 PUSH1 0x20 DUP3 ADD MSTORE POP JUMP JUMPDEST PUSH32 0x5468652061756374696F6E2068617320746F2062652063616E63656C6564206F PUSH1 0x0 DUP3 ADD MSTORE PUSH32 0x7220746F20626520656E64656400000000000000000000000000000000000000 PUSH1 0x20 DUP3 ADD MSTORE POP JUMP JUMPDEST PUSH1 0x4 DUP2 LT PUSH2 0x151E JUMPI PUSH2 0x151D PUSH2 0x1244 JUMP JUMPDEST JUMPDEST POP JUMP JUMPDEST PUSH2 0x152A DUP2 PUSH2 0x113D JUMP JUMPDEST DUP2 EQ PUSH2 0x1535 JUMPI PUSH1 0x0 DUP1 REVERT JUMPDEST POP JUMP INVALID LOG2 PUSH5 0x6970667358 0x22 SLT KECCAK256 0xF9 0xD CALLDATACOPY 0xDD 0x26 CREATE 0xC1 SDIV SWAP10 SELFDESTRUCT ADD 0xB9 0x2B 0xB2 0xD5 PUSH21 0x62AB66317C20789D8A74F7E020DAA18864736F6C63 NUMBER STOP ADDMOD SMOD STOP CALLER LOG2 PUSH5 0x6970667358 0x22 SLT KECCAK256 DIFFICULTY 0xDF PUSH28 0xA636E99E5AE44181B37B6E38842E4E7A3BB688097D1A552A38C3584 0xAF PUSH5 0x736F6C6343 STOP ADDMOD SMOD STOP CALLER "
				},
				"gasEstimates": {
					"creation": {
						"codeDepositCost": "1417200",
						"executionCost": "1479",
						"totalCost": "1418679"
					},
					"external": {
						"auctions(uint256)": "5020",
						"createAuction()": "infinite"
					}
				},
				"methodIdentifiers": {
					"auctions(uint256)": "571a26a0",
					"createAuction()": "f5811447"
				}
			},
			"storageLayout": {
				"storage": [
					{
						"astId": 5,
						"contract": "SmallProjects/Auction.sol:AuctionCreator",
						"label": "auctions",
						"offset": 0,
						"slot": "0",
						"type": "t_array(t_contract(Auction)389)dyn_storage"
					}
				],
				"types": {
					"t_array(t_contract(Auction)389)dyn_storage": {
						"base": "t_contract(Auction)389",
						"encoding": "dynamic_array",
						"label": "contract Auction[]",
						"numberOfBytes": "32"
					},
					"t_contract(Auction)389": {
						"encoding": "inplace",
						"label": "contract Auction",
						"numberOfBytes": "20"
					}
				}
			},
			"userdoc": {
				"kind": "user",
				"methods": {},
				"version": 1
			}
		}
	}
}