{
	"SmallProjects/CrowdFunding.sol": {
		"CrowdFunding": {
			"abi": [
				{
					"inputs": [
						{
							"internalType": "uint256",
							"name": "_goal",
							"type": "uint256"
						},
						{
							"internalType": "uint256",
							"name": "_deadline",
							"type": "uint256"
						}
					],
					"stateMutability": "nonpayable",
					"type": "constructor"
				},
				{
					"anonymous": false,
					"inputs": [
						{
							"indexed": false,
							"internalType": "address",
							"name": "_sender",
							"type": "address"
						},
						{
							"indexed": false,
							"internalType": "uint256",
							"name": "_value",
							"type": "uint256"
						}
					],
					"name": "ContributeEvent",
					"type": "event"
				},
				{
					"anonymous": false,
					"inputs": [
						{
							"indexed": false,
							"internalType": "string",
							"name": "_description",
							"type": "string"
						},
						{
							"indexed": false,
							"internalType": "address",
							"name": "_recipient",
							"type": "address"
						},
						{
							"indexed": false,
							"internalType": "uint256",
							"name": "_value",
							"type": "uint256"
						}
					],
					"name": "CreateRequestEvent",
					"type": "event"
				},
				{
					"anonymous": false,
					"inputs": [
						{
							"indexed": false,
							"internalType": "address",
							"name": "_recipient",
							"type": "address"
						},
						{
							"indexed": false,
							"internalType": "uint256",
							"name": "_value",
							"type": "uint256"
						}
					],
					"name": "MakePaymenEvent",
					"type": "event"
				},
				{
					"inputs": [],
					"name": "admin",
					"outputs": [
						{
							"internalType": "address",
							"name": "",
							"type": "address"
						}
					],
					"stateMutability": "view",
					"type": "function"
				},
				{
					"inputs": [],
					"name": "contribute",
					"outputs": [],
					"stateMutability": "payable",
					"type": "function"
				},
				{
					"inputs": [
						{
							"internalType": "address",
							"name": "",
							"type": "address"
						}
					],
					"name": "contributors",
					"outputs": [
						{
							"internalType": "uint256",
							"name": "",
							"type": "uint256"
						}
					],
					"stateMutability": "view",
					"type": "function"
				},
				{
					"inputs": [
						{
							"internalType": "string",
							"name": "_description",
							"type": "string"
						},
						{
							"internalType": "address payable",
							"name": "_recipient",
							"type": "address"
						},
						{
							"internalType": "uint256",
							"name": "_value",
							"type": "uint256"
						}
					],
					"name": "createRequest",
					"outputs": [],
					"stateMutability": "nonpayable",
					"type": "function"
				},
				{
					"inputs": [],
					"name": "deadline",
					"outputs": [
						{
							"internalType": "uint256",
							"name": "",
							"type": "uint256"
						}
					],
					"stateMutability": "view",
					"type": "function"
				},
				{
					"inputs": [],
					"name": "getBalance",
					"outputs": [
						{
							"internalType": "uint256",
							"name": "",
							"type": "uint256"
						}
					],
					"stateMutability": "view",
					"type": "function"
				},
				{
					"inputs": [],
					"name": "getRefund",
					"outputs": [],
					"stateMutability": "nonpayable",
					"type": "function"
				},
				{
					"inputs": [],
					"name": "goal",
					"outputs": [
						{
							"internalType": "uint256",
							"name": "",
							"type": "uint256"
						}
					],
					"stateMutability": "view",
					"type": "function"
				},
				{
					"inputs": [
						{
							"internalType": "uint256",
							"name": "_requestNo",
							"type": "uint256"
						}
					],
					"name": "makePayment",
					"outputs": [],
					"stateMutability": "nonpayable",
					"type": "function"
				},
				{
					"inputs": [],
					"name": "minimumContribution",
					"outputs": [
						{
							"internalType": "uint256",
							"name": "",
							"type": "uint256"
						}
					],
					"stateMutability": "view",
					"type": "function"
				},
				{
					"inputs": [],
					"name": "nrOfContributors",
					"outputs": [
						{
							"internalType": "uint256",
							"name": "",
							"type": "uint256"
						}
					],
					"stateMutability": "view",
					"type": "function"
				},
				{
					"inputs": [],
					"name": "numRequests",
					"outputs": [
						{
							"internalType": "uint256",
							"name": "",
							"type": "uint256"
						}
					],
					"stateMutability": "view",
					"type": "function"
				},
				{
					"inputs": [],
					"name": "raisedAmount",
					"outputs": [
						{
							"internalType": "uint256",
							"name": "",
							"type": "uint256"
						}
					],
					"stateMutability": "view",
					"type": "function"
				},
				{
					"inputs": [
						{
							"internalType": "uint256",
							"name": "",
							"type": "uint256"
						}
					],
					"name": "requests",
					"outputs": [
						{
							"internalType": "string",
							"name": "description",
							"type": "string"
						},
						{
							"internalType": "address payable",
							"name": "recipient",
							"type": "address"
						},
						{
							"internalType": "uint256",
							"name": "value",
							"type": "uint256"
						},
						{
							"internalType": "bool",
							"name": "completed",
							"type": "bool"
						},
						{
							"internalType": "uint256",
							"name": "nrOfVoters",
							"type": "uint256"
						}
					],
					"stateMutability": "view",
					"type": "function"
				},
				{
					"inputs": [
						{
							"internalType": "uint256",
							"name": "_requestNo",
							"type": "uint256"
						}
					],
					"name": "voteRequest",
					"outputs": [],
					"stateMutability": "nonpayable",
					"type": "function"
				},
				{
					"stateMutability": "payable",
					"type": "receive"
				}
			],
			"devdoc": {
				"kind": "dev",
				"methods": {},
				"version": 1
			},
			"evm": {
				"assembly": "    /* \"SmallProjects/CrowdFunding.sol\":75:3738  contract CrowdFunding{\r... */\n  mstore(0x40, 0x80)\n    /* \"SmallProjects/CrowdFunding.sol\":1004:1211  constructor(uint _goal, uint _deadline){\r... */\n  callvalue\n  dup1\n  iszero\n  tag_1\n  jumpi\n  0x00\n  dup1\n  revert\ntag_1:\n  pop\n  mload(0x40)\n  sub(codesize, bytecodeSize)\n  dup1\n  bytecodeSize\n  dup4\n  codecopy\n  dup2\n  dup2\n  add\n  0x40\n  mstore\n  dup2\n  add\n  swap1\n  tag_2\n  swap2\n  swap1\n  tag_3\n  jump\t// in\ntag_2:\n    /* \"SmallProjects/CrowdFunding.sol\":1061:1066  _goal */\n  dup2\n    /* \"SmallProjects/CrowdFunding.sol\":1054:1058  goal */\n  0x05\n    /* \"SmallProjects/CrowdFunding.sol\":1054:1066  goal = _goal */\n  dup2\n  swap1\n  sstore\n  pop\n    /* \"SmallProjects/CrowdFunding.sol\":1106:1115  _deadline */\n  dup1\n    /* \"SmallProjects/CrowdFunding.sol\":1088:1103  block.timestamp */\n  timestamp\n    /* \"SmallProjects/CrowdFunding.sol\":1088:1115  block.timestamp + _deadline */\n  tag_6\n  swap2\n  swap1\n  tag_7\n  jump\t// in\ntag_6:\n    /* \"SmallProjects/CrowdFunding.sol\":1077:1085  deadline */\n  0x04\n    /* \"SmallProjects/CrowdFunding.sol\":1077:1115  deadline = block.timestamp + _deadline */\n  dup2\n  swap1\n  sstore\n  pop\n    /* \"SmallProjects/CrowdFunding.sol\":1148:1160  1000000 gwei */\n  0x038d7ea4c68000\n    /* \"SmallProjects/CrowdFunding.sol\":1126:1145  minimumContribution */\n  0x03\n    /* \"SmallProjects/CrowdFunding.sol\":1126:1160  minimumContribution = 1000000 gwei */\n  dup2\n  swap1\n  sstore\n  pop\n    /* \"SmallProjects/CrowdFunding.sol\":1193:1203  msg.sender */\n  caller\n    /* \"SmallProjects/CrowdFunding.sol\":1185:1190  admin */\n  0x01\n  0x00\n    /* \"SmallProjects/CrowdFunding.sol\":1185:1203  admin = msg.sender */\n  0x0100\n  exp\n  dup2\n  sload\n  dup2\n  0xffffffffffffffffffffffffffffffffffffffff\n  mul\n  not\n  and\n  swap1\n  dup4\n  0xffffffffffffffffffffffffffffffffffffffff\n  and\n  mul\n  or\n  swap1\n  sstore\n  pop\n    /* \"SmallProjects/CrowdFunding.sol\":1004:1211  constructor(uint _goal, uint _deadline){\r... */\n  pop\n  pop\n    /* \"SmallProjects/CrowdFunding.sol\":75:3738  contract CrowdFunding{\r... */\n  jump(tag_8)\n    /* \"#utility.yul\":7:150   */\ntag_10:\n    /* \"#utility.yul\":64:69   */\n  0x00\n    /* \"#utility.yul\":95:101   */\n  dup2\n    /* \"#utility.yul\":89:102   */\n  mload\n    /* \"#utility.yul\":80:102   */\n  swap1\n  pop\n    /* \"#utility.yul\":111:144   */\n  tag_12\n    /* \"#utility.yul\":138:143   */\n  dup2\n    /* \"#utility.yul\":111:144   */\n  tag_13\n  jump\t// in\ntag_12:\n    /* \"#utility.yul\":7:150   */\n  swap3\n  swap2\n  pop\n  pop\n  jump\t// out\n    /* \"#utility.yul\":156:663   */\ntag_3:\n    /* \"#utility.yul\":235:241   */\n  0x00\n    /* \"#utility.yul\":243:249   */\n  dup1\n    /* \"#utility.yul\":292:294   */\n  0x40\n    /* \"#utility.yul\":280:289   */\n  dup4\n    /* \"#utility.yul\":271:278   */\n  dup6\n    /* \"#utility.yul\":267:290   */\n  sub\n    /* \"#utility.yul\":263:295   */\n  slt\n    /* \"#utility.yul\":260:379   */\n  iszero\n  tag_15\n  jumpi\n    /* \"#utility.yul\":298:377   */\n  tag_16\n  tag_17\n  jump\t// in\ntag_16:\n    /* \"#utility.yul\":260:379   */\ntag_15:\n    /* \"#utility.yul\":418:419   */\n  0x00\n    /* \"#utility.yul\":443:507   */\n  tag_18\n    /* \"#utility.yul\":499:506   */\n  dup6\n    /* \"#utility.yul\":490:496   */\n  dup3\n    /* \"#utility.yul\":479:488   */\n  dup7\n    /* \"#utility.yul\":475:497   */\n  add\n    /* \"#utility.yul\":443:507   */\n  tag_10\n  jump\t// in\ntag_18:\n    /* \"#utility.yul\":433:507   */\n  swap3\n  pop\n    /* \"#utility.yul\":389:517   */\n  pop\n    /* \"#utility.yul\":556:558   */\n  0x20\n    /* \"#utility.yul\":582:646   */\n  tag_19\n    /* \"#utility.yul\":638:645   */\n  dup6\n    /* \"#utility.yul\":629:635   */\n  dup3\n    /* \"#utility.yul\":618:627   */\n  dup7\n    /* \"#utility.yul\":614:636   */\n  add\n    /* \"#utility.yul\":582:646   */\n  tag_10\n  jump\t// in\ntag_19:\n    /* \"#utility.yul\":572:646   */\n  swap2\n  pop\n    /* \"#utility.yul\":527:656   */\n  pop\n    /* \"#utility.yul\":156:663   */\n  swap3\n  pop\n  swap3\n  swap1\n  pop\n  jump\t// out\n    /* \"#utility.yul\":750:1055   */\ntag_7:\n    /* \"#utility.yul\":790:793   */\n  0x00\n    /* \"#utility.yul\":809:829   */\n  tag_23\n    /* \"#utility.yul\":827:828   */\n  dup3\n    /* \"#utility.yul\":809:829   */\n  tag_24\n  jump\t// in\ntag_23:\n    /* \"#utility.yul\":804:829   */\n  swap2\n  pop\n    /* \"#utility.yul\":843:863   */\n  tag_25\n    /* \"#utility.yul\":861:862   */\n  dup4\n    /* \"#utility.yul\":843:863   */\n  tag_24\n  jump\t// in\ntag_25:\n    /* \"#utility.yul\":838:863   */\n  swap3\n  pop\n    /* \"#utility.yul\":997:998   */\n  dup3\n    /* \"#utility.yul\":929:995   */\n  0xffffffffffffffffffffffffffffffffffffffffffffffffffffffffffffffff\n    /* \"#utility.yul\":925:999   */\n  sub\n    /* \"#utility.yul\":922:923   */\n  dup3\n    /* \"#utility.yul\":919:1000   */\n  gt\n    /* \"#utility.yul\":916:1023   */\n  iszero\n  tag_26\n  jumpi\n    /* \"#utility.yul\":1003:1021   */\n  tag_27\n  tag_28\n  jump\t// in\ntag_27:\n    /* \"#utility.yul\":916:1023   */\ntag_26:\n    /* \"#utility.yul\":1047:1048   */\n  dup3\n    /* \"#utility.yul\":1044:1045   */\n  dup3\n    /* \"#utility.yul\":1040:1049   */\n  add\n    /* \"#utility.yul\":1033:1049   */\n  swap1\n  pop\n    /* \"#utility.yul\":750:1055   */\n  swap3\n  swap2\n  pop\n  pop\n  jump\t// out\n    /* \"#utility.yul\":1061:1138   */\ntag_24:\n    /* \"#utility.yul\":1098:1105   */\n  0x00\n    /* \"#utility.yul\":1127:1132   */\n  dup2\n    /* \"#utility.yul\":1116:1132   */\n  swap1\n  pop\n    /* \"#utility.yul\":1061:1138   */\n  swap2\n  swap1\n  pop\n  jump\t// out\n    /* \"#utility.yul\":1144:1324   */\ntag_28:\n    /* \"#utility.yul\":1192:1269   */\n  0x4e487b7100000000000000000000000000000000000000000000000000000000\n    /* \"#utility.yul\":1189:1190   */\n  0x00\n    /* \"#utility.yul\":1182:1270   */\n  mstore\n    /* \"#utility.yul\":1289:1293   */\n  0x11\n    /* \"#utility.yul\":1286:1287   */\n  0x04\n    /* \"#utility.yul\":1279:1294   */\n  mstore\n    /* \"#utility.yul\":1313:1317   */\n  0x24\n    /* \"#utility.yul\":1310:1311   */\n  0x00\n    /* \"#utility.yul\":1303:1318   */\n  revert\n    /* \"#utility.yul\":1453:1570   */\ntag_17:\n    /* \"#utility.yul\":1562:1563   */\n  0x00\n    /* \"#utility.yul\":1559:1560   */\n  dup1\n    /* \"#utility.yul\":1552:1564   */\n  revert\n    /* \"#utility.yul\":1576:1698   */\ntag_13:\n    /* \"#utility.yul\":1649:1673   */\n  tag_35\n    /* \"#utility.yul\":1667:1672   */\n  dup2\n    /* \"#utility.yul\":1649:1673   */\n  tag_24\n  jump\t// in\ntag_35:\n    /* \"#utility.yul\":1642:1647   */\n  dup2\n    /* \"#utility.yul\":1639:1674   */\n  eq\n    /* \"#utility.yul\":1629:1692   */\n  tag_36\n  jumpi\n    /* \"#utility.yul\":1688:1689   */\n  0x00\n    /* \"#utility.yul\":1685:1686   */\n  dup1\n    /* \"#utility.yul\":1678:1690   */\n  revert\n    /* \"#utility.yul\":1629:1692   */\ntag_36:\n    /* \"#utility.yul\":1576:1698   */\n  pop\n  jump\t// out\n    /* \"SmallProjects/CrowdFunding.sol\":75:3738  contract CrowdFunding{\r... */\ntag_8:\n  dataSize(sub_0)\n  dup1\n  dataOffset(sub_0)\n  0x00\n  codecopy\n  0x00\n  return\nstop\n\nsub_0: assembly {\n        /* \"SmallProjects/CrowdFunding.sol\":75:3738  contract CrowdFunding{\r... */\n      mstore(0x40, 0x80)\n      jumpi(tag_1, lt(calldatasize, 0x04))\n      shr(0xe0, calldataload(0x00))\n      dup1\n      0x81d12c58\n      gt\n      tag_18\n      jumpi\n      dup1\n      0xc59ee1dc\n      gt\n      tag_19\n      jumpi\n      dup1\n      0xc59ee1dc\n      eq\n      tag_14\n      jumpi\n      dup1\n      0xd7bb99ba\n      eq\n      tag_15\n      jumpi\n      dup1\n      0xdb01cf9c\n      eq\n      tag_16\n      jumpi\n      dup1\n      0xf851a440\n      eq\n      tag_17\n      jumpi\n      jump(tag_2)\n    tag_19:\n      dup1\n      0x81d12c58\n      eq\n      tag_10\n      jumpi\n      dup1\n      0x937e09b1\n      eq\n      tag_11\n      jumpi\n      dup1\n      0x9fb42b1f\n      eq\n      tag_12\n      jumpi\n      dup1\n      0xb2d5ae44\n      eq\n      tag_13\n      jumpi\n      jump(tag_2)\n    tag_18:\n      dup1\n      0x29dcb0cf\n      gt\n      tag_20\n      jumpi\n      dup1\n      0x29dcb0cf\n      eq\n      tag_6\n      jumpi\n      dup1\n      0x40193883\n      eq\n      tag_7\n      jumpi\n      dup1\n      0x4cb6f4a5\n      eq\n      tag_8\n      jumpi\n      dup1\n      0x5114cb52\n      eq\n      tag_9\n      jumpi\n      jump(tag_2)\n    tag_20:\n      dup1\n      0x12065fe0\n      eq\n      tag_3\n      jumpi\n      dup1\n      0x1b16bb5c\n      eq\n      tag_4\n      jumpi\n      dup1\n      0x1f6d4942\n      eq\n      tag_5\n      jumpi\n      jump(tag_2)\n    tag_1:\n      jumpi(tag_2, calldatasize)\n        /* \"SmallProjects/CrowdFunding.sol\":1256:1268  contribute() */\n      tag_23\n        /* \"SmallProjects/CrowdFunding.sol\":1256:1266  contribute */\n      tag_24\n        /* \"SmallProjects/CrowdFunding.sol\":1256:1268  contribute() */\n      jump\t// in\n    tag_23:\n        /* \"SmallProjects/CrowdFunding.sol\":75:3738  contract CrowdFunding{\r... */\n      stop\n    tag_2:\n      0x00\n      dup1\n      revert\n        /* \"SmallProjects/CrowdFunding.sol\":1776:1870  function getBalance() public view returns(uint){\r... */\n    tag_3:\n      callvalue\n      dup1\n      iszero\n      tag_25\n      jumpi\n      0x00\n      dup1\n      revert\n    tag_25:\n      pop\n      tag_26\n      tag_27\n      jump\t// in\n    tag_26:\n      mload(0x40)\n      tag_28\n      swap2\n      swap1\n      tag_29\n      jump\t// in\n    tag_28:\n      mload(0x40)\n      dup1\n      swap2\n      sub\n      swap1\n      return\n        /* \"SmallProjects/CrowdFunding.sol\":2344:2819  function createRequest(string memory _description, address payable _recipient, uint _value) public onlyAdmin{\r... */\n    tag_4:\n      callvalue\n      dup1\n      iszero\n      tag_30\n      jumpi\n      0x00\n      dup1\n      revert\n    tag_30:\n      pop\n      tag_31\n      0x04\n      dup1\n      calldatasize\n      sub\n      dup2\n      add\n      swap1\n      tag_32\n      swap2\n      swap1\n      tag_33\n      jump\t// in\n    tag_32:\n      tag_34\n      jump\t// in\n    tag_31:\n      stop\n        /* \"SmallProjects/CrowdFunding.sol\":103:147  mapping(address => uint) public contributors */\n    tag_5:\n      callvalue\n      dup1\n      iszero\n      tag_35\n      jumpi\n      0x00\n      dup1\n      revert\n    tag_35:\n      pop\n      tag_36\n      0x04\n      dup1\n      calldatasize\n      sub\n      dup2\n      add\n      swap1\n      tag_37\n      swap2\n      swap1\n      tag_38\n      jump\t// in\n    tag_37:\n      tag_39\n      jump\t// in\n    tag_36:\n      mload(0x40)\n      tag_40\n      swap2\n      swap1\n      tag_29\n      jump\t// in\n    tag_40:\n      mload(0x40)\n      dup1\n      swap2\n      sub\n      swap1\n      return\n        /* \"SmallProjects/CrowdFunding.sol\":254:274  uint public deadline */\n    tag_6:\n      callvalue\n      dup1\n      iszero\n      tag_41\n      jumpi\n      0x00\n      dup1\n      revert\n    tag_41:\n      pop\n      tag_42\n      tag_43\n      jump\t// in\n    tag_42:\n      mload(0x40)\n      tag_44\n      swap2\n      swap1\n      tag_29\n      jump\t// in\n    tag_44:\n      mload(0x40)\n      dup1\n      swap2\n      sub\n      swap1\n      return\n        /* \"SmallProjects/CrowdFunding.sol\":295:311  uint public goal */\n    tag_7:\n      callvalue\n      dup1\n      iszero\n      tag_45\n      jumpi\n      0x00\n      dup1\n      revert\n    tag_45:\n      pop\n      tag_46\n      tag_47\n      jump\t// in\n    tag_46:\n      mload(0x40)\n      tag_48\n      swap2\n      swap1\n      tag_29\n      jump\t// in\n    tag_48:\n      mload(0x40)\n      dup1\n      swap2\n      sub\n      swap1\n      return\n        /* \"SmallProjects/CrowdFunding.sol\":2827:3195  function voteRequest(uint _requestNo) public {\r... */\n    tag_8:\n      callvalue\n      dup1\n      iszero\n      tag_49\n      jumpi\n      0x00\n      dup1\n      revert\n    tag_49:\n      pop\n      tag_50\n      0x04\n      dup1\n      calldatasize\n      sub\n      dup2\n      add\n      swap1\n      tag_51\n      swap2\n      swap1\n      tag_52\n      jump\t// in\n    tag_51:\n      tag_53\n      jump\t// in\n    tag_50:\n      stop\n        /* \"SmallProjects/CrowdFunding.sol\":3203:3735  function makePayment(uint _requestNo) public onlyAdmin{\r... */\n    tag_9:\n      callvalue\n      dup1\n      iszero\n      tag_54\n      jumpi\n      0x00\n      dup1\n      revert\n    tag_54:\n      pop\n      tag_55\n      0x04\n      dup1\n      calldatasize\n      sub\n      dup2\n      add\n      swap1\n      tag_56\n      swap2\n      swap1\n      tag_52\n      jump\t// in\n    tag_56:\n      tag_57\n      jump\t// in\n    tag_55:\n      stop\n        /* \"SmallProjects/CrowdFunding.sol\":560:600  mapping(uint => Request) public requests */\n    tag_10:\n      callvalue\n      dup1\n      iszero\n      tag_58\n      jumpi\n      0x00\n      dup1\n      revert\n    tag_58:\n      pop\n      tag_59\n      0x04\n      dup1\n      calldatasize\n      sub\n      dup2\n      add\n      swap1\n      tag_60\n      swap2\n      swap1\n      tag_52\n      jump\t// in\n    tag_60:\n      tag_61\n      jump\t// in\n    tag_59:\n      mload(0x40)\n      tag_62\n      swap6\n      swap5\n      swap4\n      swap3\n      swap2\n      swap1\n      tag_63\n      jump\t// in\n    tag_62:\n      mload(0x40)\n      dup1\n      swap2\n      sub\n      swap1\n      return\n        /* \"SmallProjects/CrowdFunding.sol\":216:247  uint public minimumContribution */\n    tag_11:\n      callvalue\n      dup1\n      iszero\n      tag_64\n      jumpi\n      0x00\n      dup1\n      revert\n    tag_64:\n      pop\n      tag_65\n      tag_66\n      jump\t// in\n    tag_65:\n      mload(0x40)\n      tag_67\n      swap2\n      swap1\n      tag_29\n      jump\t// in\n    tag_67:\n      mload(0x40)\n      dup1\n      swap2\n      sub\n      swap1\n      return\n        /* \"SmallProjects/CrowdFunding.sol\":645:668  uint public numRequests */\n    tag_12:\n      callvalue\n      dup1\n      iszero\n      tag_68\n      jumpi\n      0x00\n      dup1\n      revert\n    tag_68:\n      pop\n      tag_69\n      tag_70\n      jump\t// in\n    tag_69:\n      mload(0x40)\n      tag_71\n      swap2\n      swap1\n      tag_29\n      jump\t// in\n    tag_71:\n      mload(0x40)\n      dup1\n      swap2\n      sub\n      swap1\n      return\n        /* \"SmallProjects/CrowdFunding.sol\":1878:2336  function getRefund() public {\r... */\n    tag_13:\n      callvalue\n      dup1\n      iszero\n      tag_72\n      jumpi\n      0x00\n      dup1\n      revert\n    tag_72:\n      pop\n      tag_73\n      tag_74\n      jump\t// in\n    tag_73:\n      stop\n        /* \"SmallProjects/CrowdFunding.sol\":318:342  uint public raisedAmount */\n    tag_14:\n      callvalue\n      dup1\n      iszero\n      tag_75\n      jumpi\n      0x00\n      dup1\n      revert\n    tag_75:\n      pop\n      tag_76\n      tag_77\n      jump\t// in\n    tag_76:\n      mload(0x40)\n      tag_78\n      swap2\n      swap1\n      tag_29\n      jump\t// in\n    tag_78:\n      mload(0x40)\n      dup1\n      swap2\n      sub\n      swap1\n      return\n        /* \"SmallProjects/CrowdFunding.sol\":1284:1770  function contribute() public payable{\r... */\n    tag_15:\n      tag_79\n      tag_24\n      jump\t// in\n    tag_79:\n      stop\n        /* \"SmallProjects/CrowdFunding.sol\":181:209  uint public nrOfContributors */\n    tag_16:\n      callvalue\n      dup1\n      iszero\n      tag_80\n      jumpi\n      0x00\n      dup1\n      revert\n    tag_80:\n      pop\n      tag_81\n      tag_82\n      jump\t// in\n    tag_81:\n      mload(0x40)\n      tag_83\n      swap2\n      swap1\n      tag_29\n      jump\t// in\n    tag_83:\n      mload(0x40)\n      dup1\n      swap2\n      sub\n      swap1\n      return\n        /* \"SmallProjects/CrowdFunding.sol\":154:174  address public admin */\n    tag_17:\n      callvalue\n      dup1\n      iszero\n      tag_84\n      jumpi\n      0x00\n      dup1\n      revert\n    tag_84:\n      pop\n      tag_85\n      tag_86\n      jump\t// in\n    tag_85:\n      mload(0x40)\n      tag_87\n      swap2\n      swap1\n      tag_88\n      jump\t// in\n    tag_87:\n      mload(0x40)\n      dup1\n      swap2\n      sub\n      swap1\n      return\n        /* \"SmallProjects/CrowdFunding.sol\":1284:1770  function contribute() public payable{\r... */\n    tag_24:\n        /* \"SmallProjects/CrowdFunding.sol\":1357:1365  deadline */\n      sload(0x04)\n        /* \"SmallProjects/CrowdFunding.sol\":1339:1354  block.timestamp */\n      timestamp\n        /* \"SmallProjects/CrowdFunding.sol\":1339:1365  block.timestamp < deadline */\n      lt\n        /* \"SmallProjects/CrowdFunding.sol\":1331:1390  require(block.timestamp < deadline, \"Deadline has passed!\") */\n      tag_90\n      jumpi\n      mload(0x40)\n      0x08c379a000000000000000000000000000000000000000000000000000000000\n      dup2\n      mstore\n      0x04\n      add\n      tag_91\n      swap1\n      tag_92\n      jump\t// in\n    tag_91:\n      mload(0x40)\n      dup1\n      swap2\n      sub\n      swap1\n      revert\n    tag_90:\n        /* \"SmallProjects/CrowdFunding.sol\":1422:1441  minimumContribution */\n      sload(0x03)\n        /* \"SmallProjects/CrowdFunding.sol\":1409:1418  msg.value */\n      callvalue\n        /* \"SmallProjects/CrowdFunding.sol\":1409:1441  msg.value >= minimumContribution */\n      lt\n      iszero\n        /* \"SmallProjects/CrowdFunding.sol\":1401:1475  require(msg.value >= minimumContribution, \"Minimum Contribution not met!\") */\n      tag_93\n      jumpi\n      mload(0x40)\n      0x08c379a000000000000000000000000000000000000000000000000000000000\n      dup2\n      mstore\n      0x04\n      add\n      tag_94\n      swap1\n      tag_95\n      jump\t// in\n    tag_94:\n      mload(0x40)\n      dup1\n      swap2\n      sub\n      swap1\n      revert\n    tag_93:\n        /* \"SmallProjects/CrowdFunding.sol\":1527:1528  0 */\n      0x00\n        /* \"SmallProjects/CrowdFunding.sol\":1499:1511  contributors */\n      dup1\n        /* \"SmallProjects/CrowdFunding.sol\":1499:1523  contributors[msg.sender] */\n      0x00\n        /* \"SmallProjects/CrowdFunding.sol\":1512:1522  msg.sender */\n      caller\n        /* \"SmallProjects/CrowdFunding.sol\":1499:1523  contributors[msg.sender] */\n      0xffffffffffffffffffffffffffffffffffffffff\n      and\n      0xffffffffffffffffffffffffffffffffffffffff\n      and\n      dup2\n      mstore\n      0x20\n      add\n      swap1\n      dup2\n      mstore\n      0x20\n      add\n      0x00\n      keccak256\n      sload\n        /* \"SmallProjects/CrowdFunding.sol\":1499:1528  contributors[msg.sender] == 0 */\n      eq\n        /* \"SmallProjects/CrowdFunding.sol\":1496:1625  if(contributors[msg.sender] == 0){ // we only want the different address contributors\r... */\n      iszero\n      tag_96\n      jumpi\n        /* \"SmallProjects/CrowdFunding.sol\":1595:1611  nrOfContributors */\n      0x02\n      0x00\n        /* \"SmallProjects/CrowdFunding.sol\":1595:1613  nrOfContributors++ */\n      dup2\n      sload\n      dup1\n      swap3\n      swap2\n      swap1\n      tag_97\n      swap1\n      tag_98\n      jump\t// in\n    tag_97:\n      swap2\n      swap1\n      pop\n      sstore\n      pop\n        /* \"SmallProjects/CrowdFunding.sol\":1496:1625  if(contributors[msg.sender] == 0){ // we only want the different address contributors\r... */\n    tag_96:\n        /* \"SmallProjects/CrowdFunding.sol\":1663:1672  msg.value */\n      callvalue\n        /* \"SmallProjects/CrowdFunding.sol\":1635:1647  contributors */\n      0x00\n        /* \"SmallProjects/CrowdFunding.sol\":1635:1659  contributors[msg.sender] */\n      dup1\n        /* \"SmallProjects/CrowdFunding.sol\":1648:1658  msg.sender */\n      caller\n        /* \"SmallProjects/CrowdFunding.sol\":1635:1659  contributors[msg.sender] */\n      0xffffffffffffffffffffffffffffffffffffffff\n      and\n      0xffffffffffffffffffffffffffffffffffffffff\n      and\n      dup2\n      mstore\n      0x20\n      add\n      swap1\n      dup2\n      mstore\n      0x20\n      add\n      0x00\n      keccak256\n      0x00\n        /* \"SmallProjects/CrowdFunding.sol\":1635:1672  contributors[msg.sender] += msg.value */\n      dup3\n      dup3\n      sload\n      tag_99\n      swap2\n      swap1\n      tag_100\n      jump\t// in\n    tag_99:\n      swap3\n      pop\n      pop\n      dup2\n      swap1\n      sstore\n      pop\n        /* \"SmallProjects/CrowdFunding.sol\":1699:1708  msg.value */\n      callvalue\n        /* \"SmallProjects/CrowdFunding.sol\":1683:1695  raisedAmount */\n      0x06\n      0x00\n        /* \"SmallProjects/CrowdFunding.sol\":1683:1708  raisedAmount += msg.value */\n      dup3\n      dup3\n      sload\n      tag_101\n      swap2\n      swap1\n      tag_100\n      jump\t// in\n    tag_101:\n      swap3\n      pop\n      pop\n      dup2\n      swap1\n      sstore\n      pop\n        /* \"SmallProjects/CrowdFunding.sol\":1724:1762  ContributeEvent(msg.sender, msg.value) */\n      0x2daf61dec57a2c194e9e87958b1a40a5c236b5e8c6041655d664ddbd16c29320\n        /* \"SmallProjects/CrowdFunding.sol\":1740:1750  msg.sender */\n      caller\n        /* \"SmallProjects/CrowdFunding.sol\":1752:1761  msg.value */\n      callvalue\n        /* \"SmallProjects/CrowdFunding.sol\":1724:1762  ContributeEvent(msg.sender, msg.value) */\n      mload(0x40)\n      tag_102\n      swap3\n      swap2\n      swap1\n      tag_103\n      jump\t// in\n    tag_102:\n      mload(0x40)\n      dup1\n      swap2\n      sub\n      swap1\n      log1\n        /* \"SmallProjects/CrowdFunding.sol\":1284:1770  function contribute() public payable{\r... */\n      jump\t// out\n        /* \"SmallProjects/CrowdFunding.sol\":1776:1870  function getBalance() public view returns(uint){\r... */\n    tag_27:\n        /* \"SmallProjects/CrowdFunding.sol\":1818:1822  uint */\n      0x00\n        /* \"SmallProjects/CrowdFunding.sol\":1841:1862  address(this).balance */\n      selfbalance\n        /* \"SmallProjects/CrowdFunding.sol\":1834:1862  return address(this).balance */\n      swap1\n      pop\n        /* \"SmallProjects/CrowdFunding.sol\":1776:1870  function getBalance() public view returns(uint){\r... */\n      swap1\n      jump\t// out\n        /* \"SmallProjects/CrowdFunding.sol\":2344:2819  function createRequest(string memory _description, address payable _recipient, uint _value) public onlyAdmin{\r... */\n    tag_34:\n        /* \"SmallProjects/CrowdFunding.sol\":731:736  admin */\n      0x01\n      0x00\n      swap1\n      sload\n      swap1\n      0x0100\n      exp\n      swap1\n      div\n      0xffffffffffffffffffffffffffffffffffffffff\n      and\n        /* \"SmallProjects/CrowdFunding.sol\":717:736  msg.sender == admin */\n      0xffffffffffffffffffffffffffffffffffffffff\n      and\n        /* \"SmallProjects/CrowdFunding.sol\":717:727  msg.sender */\n      caller\n        /* \"SmallProjects/CrowdFunding.sol\":717:736  msg.sender == admin */\n      0xffffffffffffffffffffffffffffffffffffffff\n      and\n      eq\n        /* \"SmallProjects/CrowdFunding.sol\":709:770  require(msg.sender == admin,\"Only admin is allowed do this!\") */\n      tag_106\n      jumpi\n      mload(0x40)\n      0x08c379a000000000000000000000000000000000000000000000000000000000\n      dup2\n      mstore\n      0x04\n      add\n      tag_107\n      swap1\n      tag_108\n      jump\t// in\n    tag_107:\n      mload(0x40)\n      dup1\n      swap2\n      sub\n      swap1\n      revert\n    tag_106:\n        /* \"SmallProjects/CrowdFunding.sol\":2463:2489  Request storage newRequest */\n      0x00\n        /* \"SmallProjects/CrowdFunding.sol\":2492:2500  requests */\n      0x07\n        /* \"SmallProjects/CrowdFunding.sol\":2492:2513  requests[numRequests] */\n      0x00\n        /* \"SmallProjects/CrowdFunding.sol\":2501:2512  numRequests */\n      sload(0x08)\n        /* \"SmallProjects/CrowdFunding.sol\":2492:2513  requests[numRequests] */\n      dup2\n      mstore\n      0x20\n      add\n      swap1\n      dup2\n      mstore\n      0x20\n      add\n      0x00\n      keccak256\n        /* \"SmallProjects/CrowdFunding.sol\":2463:2513  Request storage newRequest = requests[numRequests] */\n      swap1\n      pop\n        /* \"SmallProjects/CrowdFunding.sol\":2524:2535  numRequests */\n      0x08\n      0x00\n        /* \"SmallProjects/CrowdFunding.sol\":2524:2537  numRequests++ */\n      dup2\n      sload\n      dup1\n      swap3\n      swap2\n      swap1\n      tag_110\n      swap1\n      tag_98\n      jump\t// in\n    tag_110:\n      swap2\n      swap1\n      pop\n      sstore\n      pop\n        /* \"SmallProjects/CrowdFunding.sol\":2575:2587  _description */\n      dup4\n        /* \"SmallProjects/CrowdFunding.sol\":2550:2560  newRequest */\n      dup2\n        /* \"SmallProjects/CrowdFunding.sol\":2550:2572  newRequest.description */\n      0x00\n      add\n        /* \"SmallProjects/CrowdFunding.sol\":2550:2587  newRequest.description = _description */\n      swap1\n      dup1\n      mload\n      swap1\n      0x20\n      add\n      swap1\n      tag_111\n      swap3\n      swap2\n      swap1\n      tag_112\n      jump\t// in\n    tag_111:\n      pop\n        /* \"SmallProjects/CrowdFunding.sol\":2621:2631  _recipient */\n      dup3\n        /* \"SmallProjects/CrowdFunding.sol\":2598:2608  newRequest */\n      dup2\n        /* \"SmallProjects/CrowdFunding.sol\":2598:2618  newRequest.recipient */\n      0x01\n      add\n      0x00\n        /* \"SmallProjects/CrowdFunding.sol\":2598:2631  newRequest.recipient = _recipient */\n      0x0100\n      exp\n      dup2\n      sload\n      dup2\n      0xffffffffffffffffffffffffffffffffffffffff\n      mul\n      not\n      and\n      swap1\n      dup4\n      0xffffffffffffffffffffffffffffffffffffffff\n      and\n      mul\n      or\n      swap1\n      sstore\n      pop\n        /* \"SmallProjects/CrowdFunding.sol\":2661:2667  _value */\n      dup2\n        /* \"SmallProjects/CrowdFunding.sol\":2642:2652  newRequest */\n      dup2\n        /* \"SmallProjects/CrowdFunding.sol\":2642:2658  newRequest.value */\n      0x02\n      add\n        /* \"SmallProjects/CrowdFunding.sol\":2642:2667  newRequest.value = _value */\n      dup2\n      swap1\n      sstore\n      pop\n        /* \"SmallProjects/CrowdFunding.sol\":2701:2706  false */\n      0x00\n        /* \"SmallProjects/CrowdFunding.sol\":2678:2688  newRequest */\n      dup2\n        /* \"SmallProjects/CrowdFunding.sol\":2678:2698  newRequest.completed */\n      0x03\n      add\n      0x00\n        /* \"SmallProjects/CrowdFunding.sol\":2678:2706  newRequest.completed = false */\n      0x0100\n      exp\n      dup2\n      sload\n      dup2\n      0xff\n      mul\n      not\n      and\n      swap1\n      dup4\n      iszero\n      iszero\n      mul\n      or\n      swap1\n      sstore\n      pop\n        /* \"SmallProjects/CrowdFunding.sol\":2741:2742  0 */\n      0x00\n        /* \"SmallProjects/CrowdFunding.sol\":2717:2727  newRequest */\n      dup2\n        /* \"SmallProjects/CrowdFunding.sol\":2717:2738  newRequest.nrOfVoters */\n      0x04\n      add\n        /* \"SmallProjects/CrowdFunding.sol\":2717:2742  newRequest.nrOfVoters = 0 */\n      dup2\n      swap1\n      sstore\n      pop\n        /* \"SmallProjects/CrowdFunding.sol\":2760:2811  CreateRequestEvent(_description, _recipient,_value) */\n      0x5392bd80651676ccaaedec1afbe841d47e369223df0ba1586110b6426ee87a3a\n        /* \"SmallProjects/CrowdFunding.sol\":2779:2791  _description */\n      dup5\n        /* \"SmallProjects/CrowdFunding.sol\":2793:2803  _recipient */\n      dup5\n        /* \"SmallProjects/CrowdFunding.sol\":2804:2810  _value */\n      dup5\n        /* \"SmallProjects/CrowdFunding.sol\":2760:2811  CreateRequestEvent(_description, _recipient,_value) */\n      mload(0x40)\n      tag_113\n      swap4\n      swap3\n      swap2\n      swap1\n      tag_114\n      jump\t// in\n    tag_113:\n      mload(0x40)\n      dup1\n      swap2\n      sub\n      swap1\n      log1\n        /* \"SmallProjects/CrowdFunding.sol\":2452:2819  {\r... */\n      pop\n        /* \"SmallProjects/CrowdFunding.sol\":2344:2819  function createRequest(string memory _description, address payable _recipient, uint _value) public onlyAdmin{\r... */\n      pop\n      pop\n      pop\n      jump\t// out\n        /* \"SmallProjects/CrowdFunding.sol\":103:147  mapping(address => uint) public contributors */\n    tag_39:\n      mstore(0x20, 0x00)\n      dup1\n      0x00\n      mstore\n      keccak256(0x00, 0x40)\n      0x00\n      swap2\n      pop\n      swap1\n      pop\n      sload\n      dup2\n      jump\t// out\n        /* \"SmallProjects/CrowdFunding.sol\":254:274  uint public deadline */\n    tag_43:\n      sload(0x04)\n      dup2\n      jump\t// out\n        /* \"SmallProjects/CrowdFunding.sol\":295:311  uint public goal */\n    tag_47:\n      sload(0x05)\n      dup2\n      jump\t// out\n        /* \"SmallProjects/CrowdFunding.sol\":2827:3195  function voteRequest(uint _requestNo) public {\r... */\n    tag_53:\n        /* \"SmallProjects/CrowdFunding.sol\":2918:2919  0 */\n      0x00\n        /* \"SmallProjects/CrowdFunding.sol\":2891:2903  contributors */\n      dup1\n        /* \"SmallProjects/CrowdFunding.sol\":2891:2915  contributors[msg.sender] */\n      0x00\n        /* \"SmallProjects/CrowdFunding.sol\":2904:2914  msg.sender */\n      caller\n        /* \"SmallProjects/CrowdFunding.sol\":2891:2915  contributors[msg.sender] */\n      0xffffffffffffffffffffffffffffffffffffffff\n      and\n      0xffffffffffffffffffffffffffffffffffffffff\n      and\n      dup2\n      mstore\n      0x20\n      add\n      swap1\n      dup2\n      mstore\n      0x20\n      add\n      0x00\n      keccak256\n      sload\n        /* \"SmallProjects/CrowdFunding.sol\":2891:2919  contributors[msg.sender] > 0 */\n      gt\n        /* \"SmallProjects/CrowdFunding.sol\":2883:2957  require(contributors[msg.sender] > 0,\"You must be a contributor to vote!\") */\n      tag_116\n      jumpi\n      mload(0x40)\n      0x08c379a000000000000000000000000000000000000000000000000000000000\n      dup2\n      mstore\n      0x04\n      add\n      tag_117\n      swap1\n      tag_118\n      jump\t// in\n    tag_117:\n      mload(0x40)\n      dup1\n      swap2\n      sub\n      swap1\n      revert\n    tag_116:\n        /* \"SmallProjects/CrowdFunding.sol\":2968:2995  Request storage thisRequest */\n      0x00\n        /* \"SmallProjects/CrowdFunding.sol\":2998:3006  requests */\n      0x07\n        /* \"SmallProjects/CrowdFunding.sol\":2998:3018  requests[_requestNo] */\n      0x00\n        /* \"SmallProjects/CrowdFunding.sol\":3007:3017  _requestNo */\n      dup4\n        /* \"SmallProjects/CrowdFunding.sol\":2998:3018  requests[_requestNo] */\n      dup2\n      mstore\n      0x20\n      add\n      swap1\n      dup2\n      mstore\n      0x20\n      add\n      0x00\n      keccak256\n        /* \"SmallProjects/CrowdFunding.sol\":2968:3018  Request storage thisRequest = requests[_requestNo] */\n      swap1\n      pop\n        /* \"SmallProjects/CrowdFunding.sol\":3072:3077  false */\n      0x00\n        /* \"SmallProjects/CrowdFunding.sol\":3038:3077  thisRequest.voters[msg.sender] == false */\n      iszero\n      iszero\n        /* \"SmallProjects/CrowdFunding.sol\":3038:3049  thisRequest */\n      dup2\n        /* \"SmallProjects/CrowdFunding.sol\":3038:3056  thisRequest.voters */\n      0x05\n      add\n        /* \"SmallProjects/CrowdFunding.sol\":3038:3068  thisRequest.voters[msg.sender] */\n      0x00\n        /* \"SmallProjects/CrowdFunding.sol\":3057:3067  msg.sender */\n      caller\n        /* \"SmallProjects/CrowdFunding.sol\":3038:3068  thisRequest.voters[msg.sender] */\n      0xffffffffffffffffffffffffffffffffffffffff\n      and\n      0xffffffffffffffffffffffffffffffffffffffff\n      and\n      dup2\n      mstore\n      0x20\n      add\n      swap1\n      dup2\n      mstore\n      0x20\n      add\n      0x00\n      keccak256\n      0x00\n      swap1\n      sload\n      swap1\n      0x0100\n      exp\n      swap1\n      div\n      0xff\n      and\n        /* \"SmallProjects/CrowdFunding.sol\":3038:3077  thisRequest.voters[msg.sender] == false */\n      iszero\n      iszero\n      eq\n        /* \"SmallProjects/CrowdFunding.sol\":3029:3104  require (thisRequest.voters[msg.sender] == false,\"You have already voted!\") */\n      tag_119\n      jumpi\n      mload(0x40)\n      0x08c379a000000000000000000000000000000000000000000000000000000000\n      dup2\n      mstore\n      0x04\n      add\n      tag_120\n      swap1\n      tag_121\n      jump\t// in\n    tag_120:\n      mload(0x40)\n      dup1\n      swap2\n      sub\n      swap1\n      revert\n    tag_119:\n        /* \"SmallProjects/CrowdFunding.sol\":3148:3152  true */\n      0x01\n        /* \"SmallProjects/CrowdFunding.sol\":3115:3126  thisRequest */\n      dup2\n        /* \"SmallProjects/CrowdFunding.sol\":3115:3133  thisRequest.voters */\n      0x05\n      add\n        /* \"SmallProjects/CrowdFunding.sol\":3115:3145  thisRequest.voters[msg.sender] */\n      0x00\n        /* \"SmallProjects/CrowdFunding.sol\":3134:3144  msg.sender */\n      caller\n        /* \"SmallProjects/CrowdFunding.sol\":3115:3145  thisRequest.voters[msg.sender] */\n      0xffffffffffffffffffffffffffffffffffffffff\n      and\n      0xffffffffffffffffffffffffffffffffffffffff\n      and\n      dup2\n      mstore\n      0x20\n      add\n      swap1\n      dup2\n      mstore\n      0x20\n      add\n      0x00\n      keccak256\n      0x00\n        /* \"SmallProjects/CrowdFunding.sol\":3115:3152  thisRequest.voters[msg.sender] = true */\n      0x0100\n      exp\n      dup2\n      sload\n      dup2\n      0xff\n      mul\n      not\n      and\n      swap1\n      dup4\n      iszero\n      iszero\n      mul\n      or\n      swap1\n      sstore\n      pop\n        /* \"SmallProjects/CrowdFunding.sol\":3163:3174  thisRequest */\n      dup1\n        /* \"SmallProjects/CrowdFunding.sol\":3163:3185  thisRequest.nrOfVoters */\n      0x04\n      add\n      0x00\n        /* \"SmallProjects/CrowdFunding.sol\":3163:3187  thisRequest.nrOfVoters++ */\n      dup2\n      sload\n      dup1\n      swap3\n      swap2\n      swap1\n      tag_122\n      swap1\n      tag_98\n      jump\t// in\n    tag_122:\n      swap2\n      swap1\n      pop\n      sstore\n      pop\n        /* \"SmallProjects/CrowdFunding.sol\":2872:3195  {\r... */\n      pop\n        /* \"SmallProjects/CrowdFunding.sol\":2827:3195  function voteRequest(uint _requestNo) public {\r... */\n      pop\n      jump\t// out\n        /* \"SmallProjects/CrowdFunding.sol\":3203:3735  function makePayment(uint _requestNo) public onlyAdmin{\r... */\n    tag_57:\n        /* \"SmallProjects/CrowdFunding.sol\":731:736  admin */\n      0x01\n      0x00\n      swap1\n      sload\n      swap1\n      0x0100\n      exp\n      swap1\n      div\n      0xffffffffffffffffffffffffffffffffffffffff\n      and\n        /* \"SmallProjects/CrowdFunding.sol\":717:736  msg.sender == admin */\n      0xffffffffffffffffffffffffffffffffffffffff\n      and\n        /* \"SmallProjects/CrowdFunding.sol\":717:727  msg.sender */\n      caller\n        /* \"SmallProjects/CrowdFunding.sol\":717:736  msg.sender == admin */\n      0xffffffffffffffffffffffffffffffffffffffff\n      and\n      eq\n        /* \"SmallProjects/CrowdFunding.sol\":709:770  require(msg.sender == admin,\"Only admin is allowed do this!\") */\n      tag_124\n      jumpi\n      mload(0x40)\n      0x08c379a000000000000000000000000000000000000000000000000000000000\n      dup2\n      mstore\n      0x04\n      add\n      tag_125\n      swap1\n      tag_108\n      jump\t// in\n    tag_125:\n      mload(0x40)\n      dup1\n      swap2\n      sub\n      swap1\n      revert\n    tag_124:\n        /* \"SmallProjects/CrowdFunding.sol\":3292:3296  goal */\n      sload(0x05)\n        /* \"SmallProjects/CrowdFunding.sol\":3276:3288  raisedAmount */\n      sload(0x06)\n        /* \"SmallProjects/CrowdFunding.sol\":3276:3296  raisedAmount >= goal */\n      lt\n      iszero\n        /* \"SmallProjects/CrowdFunding.sol\":3268:3317  require(raisedAmount >= goal,\"Goal not met yet!\") */\n      tag_127\n      jumpi\n      mload(0x40)\n      0x08c379a000000000000000000000000000000000000000000000000000000000\n      dup2\n      mstore\n      0x04\n      add\n      tag_128\n      swap1\n      tag_129\n      jump\t// in\n    tag_128:\n      mload(0x40)\n      dup1\n      swap2\n      sub\n      swap1\n      revert\n    tag_127:\n        /* \"SmallProjects/CrowdFunding.sol\":3328:3355  Request storage thisRequest */\n      0x00\n        /* \"SmallProjects/CrowdFunding.sol\":3358:3366  requests */\n      0x07\n        /* \"SmallProjects/CrowdFunding.sol\":3358:3378  requests[_requestNo] */\n      0x00\n        /* \"SmallProjects/CrowdFunding.sol\":3367:3377  _requestNo */\n      dup4\n        /* \"SmallProjects/CrowdFunding.sol\":3358:3378  requests[_requestNo] */\n      dup2\n      mstore\n      0x20\n      add\n      swap1\n      dup2\n      mstore\n      0x20\n      add\n      0x00\n      keccak256\n        /* \"SmallProjects/CrowdFunding.sol\":3328:3378  Request storage thisRequest = requests[_requestNo] */\n      swap1\n      pop\n        /* \"SmallProjects/CrowdFunding.sol\":3422:3427  false */\n      0x00\n        /* \"SmallProjects/CrowdFunding.sol\":3397:3427  thisRequest.completed == false */\n      iszero\n      iszero\n        /* \"SmallProjects/CrowdFunding.sol\":3397:3408  thisRequest */\n      dup2\n        /* \"SmallProjects/CrowdFunding.sol\":3397:3418  thisRequest.completed */\n      0x03\n      add\n      0x00\n      swap1\n      sload\n      swap1\n      0x0100\n      exp\n      swap1\n      div\n      0xff\n      and\n        /* \"SmallProjects/CrowdFunding.sol\":3397:3427  thisRequest.completed == false */\n      iszero\n      iszero\n      eq\n        /* \"SmallProjects/CrowdFunding.sol\":3389:3462  require(thisRequest.completed == false,\"The request has been completed!\") */\n      tag_130\n      jumpi\n      mload(0x40)\n      0x08c379a000000000000000000000000000000000000000000000000000000000\n      dup2\n      mstore\n      0x04\n      add\n      tag_131\n      swap1\n      tag_132\n      jump\t// in\n    tag_131:\n      mload(0x40)\n      dup1\n      swap2\n      sub\n      swap1\n      revert\n    tag_130:\n        /* \"SmallProjects/CrowdFunding.sol\":3525:3526  2 */\n      0x02\n        /* \"SmallProjects/CrowdFunding.sol\":3506:3522  nrOfContributors */\n      dup1\n      sload\n        /* \"SmallProjects/CrowdFunding.sol\":3506:3526  nrOfContributors / 2 */\n      tag_133\n      swap2\n      swap1\n      tag_134\n      jump\t// in\n    tag_133:\n        /* \"SmallProjects/CrowdFunding.sol\":3481:3492  thisRequest */\n      dup2\n        /* \"SmallProjects/CrowdFunding.sol\":3481:3503  thisRequest.nrOfVoters */\n      0x04\n      add\n      sload\n        /* \"SmallProjects/CrowdFunding.sol\":3481:3526  thisRequest.nrOfVoters > nrOfContributors / 2 */\n      gt\n        /* \"SmallProjects/CrowdFunding.sol\":3473:3527  require(thisRequest.nrOfVoters > nrOfContributors / 2) */\n      tag_135\n      jumpi\n      0x00\n      dup1\n      revert\n    tag_135:\n        /* \"SmallProjects/CrowdFunding.sol\":3565:3576  thisRequest */\n      dup1\n        /* \"SmallProjects/CrowdFunding.sol\":3565:3586  thisRequest.recipient */\n      0x01\n      add\n      0x00\n      swap1\n      sload\n      swap1\n      0x0100\n      exp\n      swap1\n      div\n      0xffffffffffffffffffffffffffffffffffffffff\n      and\n        /* \"SmallProjects/CrowdFunding.sol\":3565:3595  thisRequest.recipient.transfer */\n      0xffffffffffffffffffffffffffffffffffffffff\n      and\n        /* \"SmallProjects/CrowdFunding.sol\":3565:3614  thisRequest.recipient.transfer(thisRequest.value) */\n      0x08fc\n        /* \"SmallProjects/CrowdFunding.sol\":3596:3607  thisRequest */\n      dup3\n        /* \"SmallProjects/CrowdFunding.sol\":3596:3613  thisRequest.value */\n      0x02\n      add\n      sload\n        /* \"SmallProjects/CrowdFunding.sol\":3565:3614  thisRequest.recipient.transfer(thisRequest.value) */\n      swap1\n      dup2\n      iszero\n      mul\n      swap1\n      mload(0x40)\n      0x00\n      mload(0x40)\n      dup1\n      dup4\n      sub\n      dup2\n      dup6\n      dup9\n      dup9\n      call\n      swap4\n      pop\n      pop\n      pop\n      pop\n      iszero\n      dup1\n      iszero\n      tag_137\n      jumpi\n      returndatasize\n      0x00\n      dup1\n      returndatacopy\n      revert(0x00, returndatasize)\n    tag_137:\n      pop\n        /* \"SmallProjects/CrowdFunding.sol\":3649:3653  true */\n      0x01\n        /* \"SmallProjects/CrowdFunding.sol\":3625:3636  thisRequest */\n      dup2\n        /* \"SmallProjects/CrowdFunding.sol\":3625:3646  thisRequest.completed */\n      0x03\n      add\n      0x00\n        /* \"SmallProjects/CrowdFunding.sol\":3625:3653  thisRequest.completed = true */\n      0x0100\n      exp\n      dup2\n      sload\n      dup2\n      0xff\n      mul\n      not\n      and\n      swap1\n      dup4\n      iszero\n      iszero\n      mul\n      or\n      swap1\n      sstore\n      pop\n        /* \"SmallProjects/CrowdFunding.sol\":3671:3727  MakePaymenEvent(thisRequest.recipient,thisRequest.value) */\n      0x0715c08af8333ee58cabb5b2e4ade14c57d76d11e3f1a67167d03f1d1c90c132\n        /* \"SmallProjects/CrowdFunding.sol\":3687:3698  thisRequest */\n      dup2\n        /* \"SmallProjects/CrowdFunding.sol\":3687:3708  thisRequest.recipient */\n      0x01\n      add\n      0x00\n      swap1\n      sload\n      swap1\n      0x0100\n      exp\n      swap1\n      div\n      0xffffffffffffffffffffffffffffffffffffffff\n      and\n        /* \"SmallProjects/CrowdFunding.sol\":3709:3720  thisRequest */\n      dup3\n        /* \"SmallProjects/CrowdFunding.sol\":3709:3726  thisRequest.value */\n      0x02\n      add\n      sload\n        /* \"SmallProjects/CrowdFunding.sol\":3671:3727  MakePaymenEvent(thisRequest.recipient,thisRequest.value) */\n      mload(0x40)\n      tag_138\n      swap3\n      swap2\n      swap1\n      tag_139\n      jump\t// in\n    tag_138:\n      mload(0x40)\n      dup1\n      swap2\n      sub\n      swap1\n      log1\n        /* \"SmallProjects/CrowdFunding.sol\":3257:3735  {\r... */\n      pop\n        /* \"SmallProjects/CrowdFunding.sol\":3203:3735  function makePayment(uint _requestNo) public onlyAdmin{\r... */\n      pop\n      jump\t// out\n        /* \"SmallProjects/CrowdFunding.sol\":560:600  mapping(uint => Request) public requests */\n    tag_61:\n      mstore(0x20, 0x07)\n      dup1\n      0x00\n      mstore\n      keccak256(0x00, 0x40)\n      0x00\n      swap2\n      pop\n      swap1\n      pop\n      dup1\n      0x00\n      add\n      dup1\n      sload\n      tag_140\n      swap1\n      tag_141\n      jump\t// in\n    tag_140:\n      dup1\n      0x1f\n      add\n      0x20\n      dup1\n      swap2\n      div\n      mul\n      0x20\n      add\n      mload(0x40)\n      swap1\n      dup2\n      add\n      0x40\n      mstore\n      dup1\n      swap3\n      swap2\n      swap1\n      dup2\n      dup2\n      mstore\n      0x20\n      add\n      dup3\n      dup1\n      sload\n      tag_142\n      swap1\n      tag_141\n      jump\t// in\n    tag_142:\n      dup1\n      iszero\n      tag_143\n      jumpi\n      dup1\n      0x1f\n      lt\n      tag_144\n      jumpi\n      0x0100\n      dup1\n      dup4\n      sload\n      div\n      mul\n      dup4\n      mstore\n      swap2\n      0x20\n      add\n      swap2\n      jump(tag_143)\n    tag_144:\n      dup3\n      add\n      swap2\n      swap1\n      0x00\n      mstore\n      keccak256(0x00, 0x20)\n      swap1\n    tag_145:\n      dup2\n      sload\n      dup2\n      mstore\n      swap1\n      0x01\n      add\n      swap1\n      0x20\n      add\n      dup1\n      dup4\n      gt\n      tag_145\n      jumpi\n      dup3\n      swap1\n      sub\n      0x1f\n      and\n      dup3\n      add\n      swap2\n    tag_143:\n      pop\n      pop\n      pop\n      pop\n      pop\n      swap1\n      dup1\n      0x01\n      add\n      0x00\n      swap1\n      sload\n      swap1\n      0x0100\n      exp\n      swap1\n      div\n      0xffffffffffffffffffffffffffffffffffffffff\n      and\n      swap1\n      dup1\n      0x02\n      add\n      sload\n      swap1\n      dup1\n      0x03\n      add\n      0x00\n      swap1\n      sload\n      swap1\n      0x0100\n      exp\n      swap1\n      div\n      0xff\n      and\n      swap1\n      dup1\n      0x04\n      add\n      sload\n      swap1\n      pop\n      dup6\n      jump\t// out\n        /* \"SmallProjects/CrowdFunding.sol\":216:247  uint public minimumContribution */\n    tag_66:\n      sload(0x03)\n      dup2\n      jump\t// out\n        /* \"SmallProjects/CrowdFunding.sol\":645:668  uint public numRequests */\n    tag_70:\n      sload(0x08)\n      dup2\n      jump\t// out\n        /* \"SmallProjects/CrowdFunding.sol\":1878:2336  function getRefund() public {\r... */\n    tag_74:\n        /* \"SmallProjects/CrowdFunding.sol\":1943:1951  deadline */\n      sload(0x04)\n        /* \"SmallProjects/CrowdFunding.sol\":1925:1940  block.timestamp */\n      timestamp\n        /* \"SmallProjects/CrowdFunding.sol\":1925:1951  block.timestamp > deadline */\n      gt\n        /* \"SmallProjects/CrowdFunding.sol\":1917:2007  require(block.timestamp > deadline,\"You cant get a refund until the deadline has passed!\") */\n      tag_147\n      jumpi\n      mload(0x40)\n      0x08c379a000000000000000000000000000000000000000000000000000000000\n      dup2\n      mstore\n      0x04\n      add\n      tag_148\n      swap1\n      tag_149\n      jump\t// in\n    tag_148:\n      mload(0x40)\n      dup1\n      swap2\n      sub\n      swap1\n      revert\n    tag_147:\n        /* \"SmallProjects/CrowdFunding.sol\":2041:2045  goal */\n      sload(0x05)\n        /* \"SmallProjects/CrowdFunding.sol\":2026:2038  raisedAmount */\n      sload(0x06)\n        /* \"SmallProjects/CrowdFunding.sol\":2026:2045  raisedAmount < goal */\n      lt\n        /* \"SmallProjects/CrowdFunding.sol\":2018:2114  require(raisedAmount < goal ,\"Fotunatelly the goal has been reached. Thank you for doing good!\") */\n      tag_150\n      jumpi\n      mload(0x40)\n      0x08c379a000000000000000000000000000000000000000000000000000000000\n      dup2\n      mstore\n      0x04\n      add\n      tag_151\n      swap1\n      tag_152\n      jump\t// in\n    tag_151:\n      mload(0x40)\n      dup1\n      swap2\n      sub\n      swap1\n      revert\n    tag_150:\n        /* \"SmallProjects/CrowdFunding.sol\":2125:2135  uint value */\n      0x00\n        /* \"SmallProjects/CrowdFunding.sol\":2138:2150  contributors */\n      dup1\n        /* \"SmallProjects/CrowdFunding.sol\":2138:2162  contributors[msg.sender] */\n      0x00\n        /* \"SmallProjects/CrowdFunding.sol\":2151:2161  msg.sender */\n      caller\n        /* \"SmallProjects/CrowdFunding.sol\":2138:2162  contributors[msg.sender] */\n      0xffffffffffffffffffffffffffffffffffffffff\n      and\n      0xffffffffffffffffffffffffffffffffffffffff\n      and\n      dup2\n      mstore\n      0x20\n      add\n      swap1\n      dup2\n      mstore\n      0x20\n      add\n      0x00\n      keccak256\n      sload\n        /* \"SmallProjects/CrowdFunding.sol\":2125:2162  uint value = contributors[msg.sender] */\n      swap1\n      pop\n        /* \"SmallProjects/CrowdFunding.sol\":2199:2200  0 */\n      0x00\n        /* \"SmallProjects/CrowdFunding.sol\":2191:2196  value */\n      dup2\n        /* \"SmallProjects/CrowdFunding.sol\":2191:2200  value > 0 */\n      gt\n        /* \"SmallProjects/CrowdFunding.sol\":2183:2239  require(value > 0,\"You dont have anything to withdraw!\") */\n      tag_153\n      jumpi\n      mload(0x40)\n      0x08c379a000000000000000000000000000000000000000000000000000000000\n      dup2\n      mstore\n      0x04\n      add\n      tag_154\n      swap1\n      tag_155\n      jump\t// in\n    tag_154:\n      mload(0x40)\n      dup1\n      swap2\n      sub\n      swap1\n      revert\n    tag_153:\n        /* \"SmallProjects/CrowdFunding.sol\":2260:2270  msg.sender */\n      caller\n        /* \"SmallProjects/CrowdFunding.sol\":2252:2280  payable(msg.sender).transfer */\n      0xffffffffffffffffffffffffffffffffffffffff\n      and\n        /* \"SmallProjects/CrowdFunding.sol\":2252:2287  payable(msg.sender).transfer(value) */\n      0x08fc\n        /* \"SmallProjects/CrowdFunding.sol\":2281:2286  value */\n      dup3\n        /* \"SmallProjects/CrowdFunding.sol\":2252:2287  payable(msg.sender).transfer(value) */\n      swap1\n      dup2\n      iszero\n      mul\n      swap1\n      mload(0x40)\n      0x00\n      mload(0x40)\n      dup1\n      dup4\n      sub\n      dup2\n      dup6\n      dup9\n      dup9\n      call\n      swap4\n      pop\n      pop\n      pop\n      pop\n      iszero\n      dup1\n      iszero\n      tag_157\n      jumpi\n      returndatasize\n      0x00\n      dup1\n      returndatacopy\n      revert(0x00, returndatasize)\n    tag_157:\n      pop\n        /* \"SmallProjects/CrowdFunding.sol\":2325:2326  0 */\n      0x00\n        /* \"SmallProjects/CrowdFunding.sol\":2298:2310  contributors */\n      dup1\n        /* \"SmallProjects/CrowdFunding.sol\":2298:2322  contributors[msg.sender] */\n      0x00\n        /* \"SmallProjects/CrowdFunding.sol\":2311:2321  msg.sender */\n      caller\n        /* \"SmallProjects/CrowdFunding.sol\":2298:2322  contributors[msg.sender] */\n      0xffffffffffffffffffffffffffffffffffffffff\n      and\n      0xffffffffffffffffffffffffffffffffffffffff\n      and\n      dup2\n      mstore\n      0x20\n      add\n      swap1\n      dup2\n      mstore\n      0x20\n      add\n      0x00\n      keccak256\n        /* \"SmallProjects/CrowdFunding.sol\":2298:2326  contributors[msg.sender] = 0 */\n      dup2\n      swap1\n      sstore\n      pop\n        /* \"SmallProjects/CrowdFunding.sol\":1906:2336  {\r... */\n      pop\n        /* \"SmallProjects/CrowdFunding.sol\":1878:2336  function getRefund() public {\r... */\n      jump\t// out\n        /* \"SmallProjects/CrowdFunding.sol\":318:342  uint public raisedAmount */\n    tag_77:\n      sload(0x06)\n      dup2\n      jump\t// out\n        /* \"SmallProjects/CrowdFunding.sol\":181:209  uint public nrOfContributors */\n    tag_82:\n      sload(0x02)\n      dup2\n      jump\t// out\n        /* \"SmallProjects/CrowdFunding.sol\":154:174  address public admin */\n    tag_86:\n      0x01\n      0x00\n      swap1\n      sload\n      swap1\n      0x0100\n      exp\n      swap1\n      div\n      0xffffffffffffffffffffffffffffffffffffffff\n      and\n      dup2\n      jump\t// out\n    tag_112:\n      dup3\n      dup1\n      sload\n      tag_158\n      swap1\n      tag_141\n      jump\t// in\n    tag_158:\n      swap1\n      0x00\n      mstore\n      keccak256(0x00, 0x20)\n      swap1\n      0x1f\n      add\n      0x20\n      swap1\n      div\n      dup2\n      add\n      swap3\n      dup3\n      tag_160\n      jumpi\n      0x00\n      dup6\n      sstore\n      jump(tag_159)\n    tag_160:\n      dup3\n      0x1f\n      lt\n      tag_161\n      jumpi\n      dup1\n      mload\n      not(0xff)\n      and\n      dup4\n      dup1\n      add\n      or\n      dup6\n      sstore\n      jump(tag_159)\n    tag_161:\n      dup3\n      dup1\n      add\n      0x01\n      add\n      dup6\n      sstore\n      dup3\n      iszero\n      tag_159\n      jumpi\n      swap2\n      dup3\n      add\n    tag_162:\n      dup3\n      dup2\n      gt\n      iszero\n      tag_163\n      jumpi\n      dup3\n      mload\n      dup3\n      sstore\n      swap2\n      0x20\n      add\n      swap2\n      swap1\n      0x01\n      add\n      swap1\n      jump(tag_162)\n    tag_163:\n    tag_159:\n      pop\n      swap1\n      pop\n      tag_164\n      swap2\n      swap1\n      tag_165\n      jump\t// in\n    tag_164:\n      pop\n      swap1\n      jump\t// out\n    tag_165:\n    tag_166:\n      dup1\n      dup3\n      gt\n      iszero\n      tag_167\n      jumpi\n      0x00\n      dup2\n      0x00\n      swap1\n      sstore\n      pop\n      0x01\n      add\n      jump(tag_166)\n    tag_167:\n      pop\n      swap1\n      jump\t// out\n        /* \"#utility.yul\":7:419   */\n    tag_169:\n        /* \"#utility.yul\":85:90   */\n      0x00\n        /* \"#utility.yul\":110:176   */\n      tag_171\n        /* \"#utility.yul\":126:175   */\n      tag_172\n        /* \"#utility.yul\":168:174   */\n      dup5\n        /* \"#utility.yul\":126:175   */\n      tag_173\n      jump\t// in\n    tag_172:\n        /* \"#utility.yul\":110:176   */\n      tag_174\n      jump\t// in\n    tag_171:\n        /* \"#utility.yul\":101:176   */\n      swap1\n      pop\n        /* \"#utility.yul\":199:205   */\n      dup3\n        /* \"#utility.yul\":192:197   */\n      dup2\n        /* \"#utility.yul\":185:206   */\n      mstore\n        /* \"#utility.yul\":237:241   */\n      0x20\n        /* \"#utility.yul\":230:235   */\n      dup2\n        /* \"#utility.yul\":226:242   */\n      add\n        /* \"#utility.yul\":275:278   */\n      dup5\n        /* \"#utility.yul\":266:272   */\n      dup5\n        /* \"#utility.yul\":261:264   */\n      dup5\n        /* \"#utility.yul\":257:273   */\n      add\n        /* \"#utility.yul\":254:279   */\n      gt\n        /* \"#utility.yul\":251:363   */\n      iszero\n      tag_175\n      jumpi\n        /* \"#utility.yul\":282:361   */\n      tag_176\n      tag_177\n      jump\t// in\n    tag_176:\n        /* \"#utility.yul\":251:363   */\n    tag_175:\n        /* \"#utility.yul\":372:413   */\n      tag_178\n        /* \"#utility.yul\":406:412   */\n      dup5\n        /* \"#utility.yul\":401:404   */\n      dup3\n        /* \"#utility.yul\":396:399   */\n      dup6\n        /* \"#utility.yul\":372:413   */\n      tag_179\n      jump\t// in\n    tag_178:\n        /* \"#utility.yul\":91:419   */\n      pop\n        /* \"#utility.yul\":7:419   */\n      swap4\n      swap3\n      pop\n      pop\n      pop\n      jump\t// out\n        /* \"#utility.yul\":425:564   */\n    tag_180:\n        /* \"#utility.yul\":471:476   */\n      0x00\n        /* \"#utility.yul\":509:515   */\n      dup2\n        /* \"#utility.yul\":496:516   */\n      calldataload\n        /* \"#utility.yul\":487:516   */\n      swap1\n      pop\n        /* \"#utility.yul\":525:558   */\n      tag_182\n        /* \"#utility.yul\":552:557   */\n      dup2\n        /* \"#utility.yul\":525:558   */\n      tag_183\n      jump\t// in\n    tag_182:\n        /* \"#utility.yul\":425:564   */\n      swap3\n      swap2\n      pop\n      pop\n      jump\t// out\n        /* \"#utility.yul\":570:725   */\n    tag_184:\n        /* \"#utility.yul\":624:629   */\n      0x00\n        /* \"#utility.yul\":662:668   */\n      dup2\n        /* \"#utility.yul\":649:669   */\n      calldataload\n        /* \"#utility.yul\":640:669   */\n      swap1\n      pop\n        /* \"#utility.yul\":678:719   */\n      tag_186\n        /* \"#utility.yul\":713:718   */\n      dup2\n        /* \"#utility.yul\":678:719   */\n      tag_187\n      jump\t// in\n    tag_186:\n        /* \"#utility.yul\":570:725   */\n      swap3\n      swap2\n      pop\n      pop\n      jump\t// out\n        /* \"#utility.yul\":745:1085   */\n    tag_188:\n        /* \"#utility.yul\":801:806   */\n      0x00\n        /* \"#utility.yul\":850:853   */\n      dup3\n        /* \"#utility.yul\":843:847   */\n      0x1f\n        /* \"#utility.yul\":835:841   */\n      dup4\n        /* \"#utility.yul\":831:848   */\n      add\n        /* \"#utility.yul\":827:854   */\n      slt\n        /* \"#utility.yul\":817:939   */\n      tag_190\n      jumpi\n        /* \"#utility.yul\":858:937   */\n      tag_191\n      tag_192\n      jump\t// in\n    tag_191:\n        /* \"#utility.yul\":817:939   */\n    tag_190:\n        /* \"#utility.yul\":975:981   */\n      dup2\n        /* \"#utility.yul\":962:982   */\n      calldataload\n        /* \"#utility.yul\":1000:1079   */\n      tag_193\n        /* \"#utility.yul\":1075:1078   */\n      dup5\n        /* \"#utility.yul\":1067:1073   */\n      dup3\n        /* \"#utility.yul\":1060:1064   */\n      0x20\n        /* \"#utility.yul\":1052:1058   */\n      dup7\n        /* \"#utility.yul\":1048:1065   */\n      add\n        /* \"#utility.yul\":1000:1079   */\n      tag_169\n      jump\t// in\n    tag_193:\n        /* \"#utility.yul\":991:1079   */\n      swap2\n      pop\n        /* \"#utility.yul\":807:1085   */\n      pop\n        /* \"#utility.yul\":745:1085   */\n      swap3\n      swap2\n      pop\n      pop\n      jump\t// out\n        /* \"#utility.yul\":1091:1230   */\n    tag_194:\n        /* \"#utility.yul\":1137:1142   */\n      0x00\n        /* \"#utility.yul\":1175:1181   */\n      dup2\n        /* \"#utility.yul\":1162:1182   */\n      calldataload\n        /* \"#utility.yul\":1153:1182   */\n      swap1\n      pop\n        /* \"#utility.yul\":1191:1224   */\n      tag_196\n        /* \"#utility.yul\":1218:1223   */\n      dup2\n        /* \"#utility.yul\":1191:1224   */\n      tag_197\n      jump\t// in\n    tag_196:\n        /* \"#utility.yul\":1091:1230   */\n      swap3\n      swap2\n      pop\n      pop\n      jump\t// out\n        /* \"#utility.yul\":1236:1565   */\n    tag_38:\n        /* \"#utility.yul\":1295:1301   */\n      0x00\n        /* \"#utility.yul\":1344:1346   */\n      0x20\n        /* \"#utility.yul\":1332:1341   */\n      dup3\n        /* \"#utility.yul\":1323:1330   */\n      dup5\n        /* \"#utility.yul\":1319:1342   */\n      sub\n        /* \"#utility.yul\":1315:1347   */\n      slt\n        /* \"#utility.yul\":1312:1431   */\n      iszero\n      tag_199\n      jumpi\n        /* \"#utility.yul\":1350:1429   */\n      tag_200\n      tag_201\n      jump\t// in\n    tag_200:\n        /* \"#utility.yul\":1312:1431   */\n    tag_199:\n        /* \"#utility.yul\":1470:1471   */\n      0x00\n        /* \"#utility.yul\":1495:1548   */\n      tag_202\n        /* \"#utility.yul\":1540:1547   */\n      dup5\n        /* \"#utility.yul\":1531:1537   */\n      dup3\n        /* \"#utility.yul\":1520:1529   */\n      dup6\n        /* \"#utility.yul\":1516:1538   */\n      add\n        /* \"#utility.yul\":1495:1548   */\n      tag_180\n      jump\t// in\n    tag_202:\n        /* \"#utility.yul\":1485:1548   */\n      swap2\n      pop\n        /* \"#utility.yul\":1441:1558   */\n      pop\n        /* \"#utility.yul\":1236:1565   */\n      swap3\n      swap2\n      pop\n      pop\n      jump\t// out\n        /* \"#utility.yul\":1571:2386   */\n    tag_33:\n        /* \"#utility.yul\":1666:1672   */\n      0x00\n        /* \"#utility.yul\":1674:1680   */\n      dup1\n        /* \"#utility.yul\":1682:1688   */\n      0x00\n        /* \"#utility.yul\":1731:1733   */\n      0x60\n        /* \"#utility.yul\":1719:1728   */\n      dup5\n        /* \"#utility.yul\":1710:1717   */\n      dup7\n        /* \"#utility.yul\":1706:1729   */\n      sub\n        /* \"#utility.yul\":1702:1734   */\n      slt\n        /* \"#utility.yul\":1699:1818   */\n      iszero\n      tag_204\n      jumpi\n        /* \"#utility.yul\":1737:1816   */\n      tag_205\n      tag_201\n      jump\t// in\n    tag_205:\n        /* \"#utility.yul\":1699:1818   */\n    tag_204:\n        /* \"#utility.yul\":1885:1886   */\n      0x00\n        /* \"#utility.yul\":1874:1883   */\n      dup5\n        /* \"#utility.yul\":1870:1887   */\n      add\n        /* \"#utility.yul\":1857:1888   */\n      calldataload\n        /* \"#utility.yul\":1915:1933   */\n      0xffffffffffffffff\n        /* \"#utility.yul\":1907:1913   */\n      dup2\n        /* \"#utility.yul\":1904:1934   */\n      gt\n        /* \"#utility.yul\":1901:2018   */\n      iszero\n      tag_206\n      jumpi\n        /* \"#utility.yul\":1937:2016   */\n      tag_207\n      tag_208\n      jump\t// in\n    tag_207:\n        /* \"#utility.yul\":1901:2018   */\n    tag_206:\n        /* \"#utility.yul\":2042:2105   */\n      tag_209\n        /* \"#utility.yul\":2097:2104   */\n      dup7\n        /* \"#utility.yul\":2088:2094   */\n      dup3\n        /* \"#utility.yul\":2077:2086   */\n      dup8\n        /* \"#utility.yul\":2073:2095   */\n      add\n        /* \"#utility.yul\":2042:2105   */\n      tag_188\n      jump\t// in\n    tag_209:\n        /* \"#utility.yul\":2032:2105   */\n      swap4\n      pop\n        /* \"#utility.yul\":1828:2115   */\n      pop\n        /* \"#utility.yul\":2154:2156   */\n      0x20\n        /* \"#utility.yul\":2180:2241   */\n      tag_210\n        /* \"#utility.yul\":2233:2240   */\n      dup7\n        /* \"#utility.yul\":2224:2230   */\n      dup3\n        /* \"#utility.yul\":2213:2222   */\n      dup8\n        /* \"#utility.yul\":2209:2231   */\n      add\n        /* \"#utility.yul\":2180:2241   */\n      tag_184\n      jump\t// in\n    tag_210:\n        /* \"#utility.yul\":2170:2241   */\n      swap3\n      pop\n        /* \"#utility.yul\":2125:2251   */\n      pop\n        /* \"#utility.yul\":2290:2292   */\n      0x40\n        /* \"#utility.yul\":2316:2369   */\n      tag_211\n        /* \"#utility.yul\":2361:2368   */\n      dup7\n        /* \"#utility.yul\":2352:2358   */\n      dup3\n        /* \"#utility.yul\":2341:2350   */\n      dup8\n        /* \"#utility.yul\":2337:2359   */\n      add\n        /* \"#utility.yul\":2316:2369   */\n      tag_194\n      jump\t// in\n    tag_211:\n        /* \"#utility.yul\":2306:2369   */\n      swap2\n      pop\n        /* \"#utility.yul\":2261:2379   */\n      pop\n        /* \"#utility.yul\":1571:2386   */\n      swap3\n      pop\n      swap3\n      pop\n      swap3\n      jump\t// out\n        /* \"#utility.yul\":2392:2721   */\n    tag_52:\n        /* \"#utility.yul\":2451:2457   */\n      0x00\n        /* \"#utility.yul\":2500:2502   */\n      0x20\n        /* \"#utility.yul\":2488:2497   */\n      dup3\n        /* \"#utility.yul\":2479:2486   */\n      dup5\n        /* \"#utility.yul\":2475:2498   */\n      sub\n        /* \"#utility.yul\":2471:2503   */\n      slt\n        /* \"#utility.yul\":2468:2587   */\n      iszero\n      tag_213\n      jumpi\n        /* \"#utility.yul\":2506:2585   */\n      tag_214\n      tag_201\n      jump\t// in\n    tag_214:\n        /* \"#utility.yul\":2468:2587   */\n    tag_213:\n        /* \"#utility.yul\":2626:2627   */\n      0x00\n        /* \"#utility.yul\":2651:2704   */\n      tag_215\n        /* \"#utility.yul\":2696:2703   */\n      dup5\n        /* \"#utility.yul\":2687:2693   */\n      dup3\n        /* \"#utility.yul\":2676:2685   */\n      dup6\n        /* \"#utility.yul\":2672:2694   */\n      add\n        /* \"#utility.yul\":2651:2704   */\n      tag_194\n      jump\t// in\n    tag_215:\n        /* \"#utility.yul\":2641:2704   */\n      swap2\n      pop\n        /* \"#utility.yul\":2597:2714   */\n      pop\n        /* \"#utility.yul\":2392:2721   */\n      swap3\n      swap2\n      pop\n      pop\n      jump\t// out\n        /* \"#utility.yul\":2727:2874   */\n    tag_216:\n        /* \"#utility.yul\":2822:2867   */\n      tag_218\n        /* \"#utility.yul\":2861:2866   */\n      dup2\n        /* \"#utility.yul\":2822:2867   */\n      tag_219\n      jump\t// in\n    tag_218:\n        /* \"#utility.yul\":2817:2820   */\n      dup3\n        /* \"#utility.yul\":2810:2868   */\n      mstore\n        /* \"#utility.yul\":2727:2874   */\n      pop\n      pop\n      jump\t// out\n        /* \"#utility.yul\":2880:3022   */\n    tag_220:\n        /* \"#utility.yul\":2983:3015   */\n      tag_222\n        /* \"#utility.yul\":3009:3014   */\n      dup2\n        /* \"#utility.yul\":2983:3015   */\n      tag_223\n      jump\t// in\n    tag_222:\n        /* \"#utility.yul\":2978:2981   */\n      dup3\n        /* \"#utility.yul\":2971:3016   */\n      mstore\n        /* \"#utility.yul\":2880:3022   */\n      pop\n      pop\n      jump\t// out\n        /* \"#utility.yul\":3028:3146   */\n    tag_224:\n        /* \"#utility.yul\":3115:3139   */\n      tag_226\n        /* \"#utility.yul\":3133:3138   */\n      dup2\n        /* \"#utility.yul\":3115:3139   */\n      tag_227\n      jump\t// in\n    tag_226:\n        /* \"#utility.yul\":3110:3113   */\n      dup3\n        /* \"#utility.yul\":3103:3140   */\n      mstore\n        /* \"#utility.yul\":3028:3146   */\n      pop\n      pop\n      jump\t// out\n        /* \"#utility.yul\":3152:3261   */\n    tag_228:\n        /* \"#utility.yul\":3233:3254   */\n      tag_230\n        /* \"#utility.yul\":3248:3253   */\n      dup2\n        /* \"#utility.yul\":3233:3254   */\n      tag_231\n      jump\t// in\n    tag_230:\n        /* \"#utility.yul\":3228:3231   */\n      dup3\n        /* \"#utility.yul\":3221:3255   */\n      mstore\n        /* \"#utility.yul\":3152:3261   */\n      pop\n      pop\n      jump\t// out\n        /* \"#utility.yul\":3267:3631   */\n    tag_232:\n        /* \"#utility.yul\":3355:3358   */\n      0x00\n        /* \"#utility.yul\":3383:3422   */\n      tag_234\n        /* \"#utility.yul\":3416:3421   */\n      dup3\n        /* \"#utility.yul\":3383:3422   */\n      tag_235\n      jump\t// in\n    tag_234:\n        /* \"#utility.yul\":3438:3509   */\n      tag_236\n        /* \"#utility.yul\":3502:3508   */\n      dup2\n        /* \"#utility.yul\":3497:3500   */\n      dup6\n        /* \"#utility.yul\":3438:3509   */\n      tag_237\n      jump\t// in\n    tag_236:\n        /* \"#utility.yul\":3431:3509   */\n      swap4\n      pop\n        /* \"#utility.yul\":3518:3570   */\n      tag_238\n        /* \"#utility.yul\":3563:3569   */\n      dup2\n        /* \"#utility.yul\":3558:3561   */\n      dup6\n        /* \"#utility.yul\":3551:3555   */\n      0x20\n        /* \"#utility.yul\":3544:3549   */\n      dup7\n        /* \"#utility.yul\":3540:3556   */\n      add\n        /* \"#utility.yul\":3518:3570   */\n      tag_239\n      jump\t// in\n    tag_238:\n        /* \"#utility.yul\":3595:3624   */\n      tag_240\n        /* \"#utility.yul\":3617:3623   */\n      dup2\n        /* \"#utility.yul\":3595:3624   */\n      tag_241\n      jump\t// in\n    tag_240:\n        /* \"#utility.yul\":3590:3593   */\n      dup5\n        /* \"#utility.yul\":3586:3625   */\n      add\n        /* \"#utility.yul\":3579:3625   */\n      swap2\n      pop\n        /* \"#utility.yul\":3359:3631   */\n      pop\n        /* \"#utility.yul\":3267:3631   */\n      swap3\n      swap2\n      pop\n      pop\n      jump\t// out\n        /* \"#utility.yul\":3637:4003   */\n    tag_242:\n        /* \"#utility.yul\":3779:3782   */\n      0x00\n        /* \"#utility.yul\":3800:3867   */\n      tag_244\n        /* \"#utility.yul\":3864:3866   */\n      0x22\n        /* \"#utility.yul\":3859:3862   */\n      dup4\n        /* \"#utility.yul\":3800:3867   */\n      tag_237\n      jump\t// in\n    tag_244:\n        /* \"#utility.yul\":3793:3867   */\n      swap2\n      pop\n        /* \"#utility.yul\":3876:3969   */\n      tag_245\n        /* \"#utility.yul\":3965:3968   */\n      dup3\n        /* \"#utility.yul\":3876:3969   */\n      tag_246\n      jump\t// in\n    tag_245:\n        /* \"#utility.yul\":3994:3996   */\n      0x40\n        /* \"#utility.yul\":3989:3992   */\n      dup3\n        /* \"#utility.yul\":3985:3997   */\n      add\n        /* \"#utility.yul\":3978:3997   */\n      swap1\n      pop\n        /* \"#utility.yul\":3637:4003   */\n      swap2\n      swap1\n      pop\n      jump\t// out\n        /* \"#utility.yul\":4009:4375   */\n    tag_247:\n        /* \"#utility.yul\":4151:4154   */\n      0x00\n        /* \"#utility.yul\":4172:4239   */\n      tag_249\n        /* \"#utility.yul\":4236:4238   */\n      0x1e\n        /* \"#utility.yul\":4231:4234   */\n      dup4\n        /* \"#utility.yul\":4172:4239   */\n      tag_237\n      jump\t// in\n    tag_249:\n        /* \"#utility.yul\":4165:4239   */\n      swap2\n      pop\n        /* \"#utility.yul\":4248:4341   */\n      tag_250\n        /* \"#utility.yul\":4337:4340   */\n      dup3\n        /* \"#utility.yul\":4248:4341   */\n      tag_251\n      jump\t// in\n    tag_250:\n        /* \"#utility.yul\":4366:4368   */\n      0x20\n        /* \"#utility.yul\":4361:4364   */\n      dup3\n        /* \"#utility.yul\":4357:4369   */\n      add\n        /* \"#utility.yul\":4350:4369   */\n      swap1\n      pop\n        /* \"#utility.yul\":4009:4375   */\n      swap2\n      swap1\n      pop\n      jump\t// out\n        /* \"#utility.yul\":4381:4747   */\n    tag_252:\n        /* \"#utility.yul\":4523:4526   */\n      0x00\n        /* \"#utility.yul\":4544:4611   */\n      tag_254\n        /* \"#utility.yul\":4608:4610   */\n      0x1d\n        /* \"#utility.yul\":4603:4606   */\n      dup4\n        /* \"#utility.yul\":4544:4611   */\n      tag_237\n      jump\t// in\n    tag_254:\n        /* \"#utility.yul\":4537:4611   */\n      swap2\n      pop\n        /* \"#utility.yul\":4620:4713   */\n      tag_255\n        /* \"#utility.yul\":4709:4712   */\n      dup3\n        /* \"#utility.yul\":4620:4713   */\n      tag_256\n      jump\t// in\n    tag_255:\n        /* \"#utility.yul\":4738:4740   */\n      0x20\n        /* \"#utility.yul\":4733:4736   */\n      dup3\n        /* \"#utility.yul\":4729:4741   */\n      add\n        /* \"#utility.yul\":4722:4741   */\n      swap1\n      pop\n        /* \"#utility.yul\":4381:4747   */\n      swap2\n      swap1\n      pop\n      jump\t// out\n        /* \"#utility.yul\":4753:5119   */\n    tag_257:\n        /* \"#utility.yul\":4895:4898   */\n      0x00\n        /* \"#utility.yul\":4916:4983   */\n      tag_259\n        /* \"#utility.yul\":4980:4982   */\n      0x17\n        /* \"#utility.yul\":4975:4978   */\n      dup4\n        /* \"#utility.yul\":4916:4983   */\n      tag_237\n      jump\t// in\n    tag_259:\n        /* \"#utility.yul\":4909:4983   */\n      swap2\n      pop\n        /* \"#utility.yul\":4992:5085   */\n      tag_260\n        /* \"#utility.yul\":5081:5084   */\n      dup3\n        /* \"#utility.yul\":4992:5085   */\n      tag_261\n      jump\t// in\n    tag_260:\n        /* \"#utility.yul\":5110:5112   */\n      0x20\n        /* \"#utility.yul\":5105:5108   */\n      dup3\n        /* \"#utility.yul\":5101:5113   */\n      add\n        /* \"#utility.yul\":5094:5113   */\n      swap1\n      pop\n        /* \"#utility.yul\":4753:5119   */\n      swap2\n      swap1\n      pop\n      jump\t// out\n        /* \"#utility.yul\":5125:5491   */\n    tag_262:\n        /* \"#utility.yul\":5267:5270   */\n      0x00\n        /* \"#utility.yul\":5288:5355   */\n      tag_264\n        /* \"#utility.yul\":5352:5354   */\n      0x11\n        /* \"#utility.yul\":5347:5350   */\n      dup4\n        /* \"#utility.yul\":5288:5355   */\n      tag_237\n      jump\t// in\n    tag_264:\n        /* \"#utility.yul\":5281:5355   */\n      swap2\n      pop\n        /* \"#utility.yul\":5364:5457   */\n      tag_265\n        /* \"#utility.yul\":5453:5456   */\n      dup3\n        /* \"#utility.yul\":5364:5457   */\n      tag_266\n      jump\t// in\n    tag_265:\n        /* \"#utility.yul\":5482:5484   */\n      0x20\n        /* \"#utility.yul\":5477:5480   */\n      dup3\n        /* \"#utility.yul\":5473:5485   */\n      add\n        /* \"#utility.yul\":5466:5485   */\n      swap1\n      pop\n        /* \"#utility.yul\":5125:5491   */\n      swap2\n      swap1\n      pop\n      jump\t// out\n        /* \"#utility.yul\":5497:5863   */\n    tag_267:\n        /* \"#utility.yul\":5639:5642   */\n      0x00\n        /* \"#utility.yul\":5660:5727   */\n      tag_269\n        /* \"#utility.yul\":5724:5726   */\n      0x14\n        /* \"#utility.yul\":5719:5722   */\n      dup4\n        /* \"#utility.yul\":5660:5727   */\n      tag_237\n      jump\t// in\n    tag_269:\n        /* \"#utility.yul\":5653:5727   */\n      swap2\n      pop\n        /* \"#utility.yul\":5736:5829   */\n      tag_270\n        /* \"#utility.yul\":5825:5828   */\n      dup3\n        /* \"#utility.yul\":5736:5829   */\n      tag_271\n      jump\t// in\n    tag_270:\n        /* \"#utility.yul\":5854:5856   */\n      0x20\n        /* \"#utility.yul\":5849:5852   */\n      dup3\n        /* \"#utility.yul\":5845:5857   */\n      add\n        /* \"#utility.yul\":5838:5857   */\n      swap1\n      pop\n        /* \"#utility.yul\":5497:5863   */\n      swap2\n      swap1\n      pop\n      jump\t// out\n        /* \"#utility.yul\":5869:6235   */\n    tag_272:\n        /* \"#utility.yul\":6011:6014   */\n      0x00\n        /* \"#utility.yul\":6032:6099   */\n      tag_274\n        /* \"#utility.yul\":6096:6098   */\n      0x40\n        /* \"#utility.yul\":6091:6094   */\n      dup4\n        /* \"#utility.yul\":6032:6099   */\n      tag_237\n      jump\t// in\n    tag_274:\n        /* \"#utility.yul\":6025:6099   */\n      swap2\n      pop\n        /* \"#utility.yul\":6108:6201   */\n      tag_275\n        /* \"#utility.yul\":6197:6200   */\n      dup3\n        /* \"#utility.yul\":6108:6201   */\n      tag_276\n      jump\t// in\n    tag_275:\n        /* \"#utility.yul\":6226:6228   */\n      0x40\n        /* \"#utility.yul\":6221:6224   */\n      dup3\n        /* \"#utility.yul\":6217:6229   */\n      add\n        /* \"#utility.yul\":6210:6229   */\n      swap1\n      pop\n        /* \"#utility.yul\":5869:6235   */\n      swap2\n      swap1\n      pop\n      jump\t// out\n        /* \"#utility.yul\":6241:6607   */\n    tag_277:\n        /* \"#utility.yul\":6383:6386   */\n      0x00\n        /* \"#utility.yul\":6404:6471   */\n      tag_279\n        /* \"#utility.yul\":6468:6470   */\n      0x23\n        /* \"#utility.yul\":6463:6466   */\n      dup4\n        /* \"#utility.yul\":6404:6471   */\n      tag_237\n      jump\t// in\n    tag_279:\n        /* \"#utility.yul\":6397:6471   */\n      swap2\n      pop\n        /* \"#utility.yul\":6480:6573   */\n      tag_280\n        /* \"#utility.yul\":6569:6572   */\n      dup3\n        /* \"#utility.yul\":6480:6573   */\n      tag_281\n      jump\t// in\n    tag_280:\n        /* \"#utility.yul\":6598:6600   */\n      0x40\n        /* \"#utility.yul\":6593:6596   */\n      dup3\n        /* \"#utility.yul\":6589:6601   */\n      add\n        /* \"#utility.yul\":6582:6601   */\n      swap1\n      pop\n        /* \"#utility.yul\":6241:6607   */\n      swap2\n      swap1\n      pop\n      jump\t// out\n        /* \"#utility.yul\":6613:6979   */\n    tag_282:\n        /* \"#utility.yul\":6755:6758   */\n      0x00\n        /* \"#utility.yul\":6776:6843   */\n      tag_284\n        /* \"#utility.yul\":6840:6842   */\n      0x1f\n        /* \"#utility.yul\":6835:6838   */\n      dup4\n        /* \"#utility.yul\":6776:6843   */\n      tag_237\n      jump\t// in\n    tag_284:\n        /* \"#utility.yul\":6769:6843   */\n      swap2\n      pop\n        /* \"#utility.yul\":6852:6945   */\n      tag_285\n        /* \"#utility.yul\":6941:6944   */\n      dup3\n        /* \"#utility.yul\":6852:6945   */\n      tag_286\n      jump\t// in\n    tag_285:\n        /* \"#utility.yul\":6970:6972   */\n      0x20\n        /* \"#utility.yul\":6965:6968   */\n      dup3\n        /* \"#utility.yul\":6961:6973   */\n      add\n        /* \"#utility.yul\":6954:6973   */\n      swap1\n      pop\n        /* \"#utility.yul\":6613:6979   */\n      swap2\n      swap1\n      pop\n      jump\t// out\n        /* \"#utility.yul\":6985:7351   */\n    tag_287:\n        /* \"#utility.yul\":7127:7130   */\n      0x00\n        /* \"#utility.yul\":7148:7215   */\n      tag_289\n        /* \"#utility.yul\":7212:7214   */\n      0x34\n        /* \"#utility.yul\":7207:7210   */\n      dup4\n        /* \"#utility.yul\":7148:7215   */\n      tag_237\n      jump\t// in\n    tag_289:\n        /* \"#utility.yul\":7141:7215   */\n      swap2\n      pop\n        /* \"#utility.yul\":7224:7317   */\n      tag_290\n        /* \"#utility.yul\":7313:7316   */\n      dup3\n        /* \"#utility.yul\":7224:7317   */\n      tag_291\n      jump\t// in\n    tag_290:\n        /* \"#utility.yul\":7342:7344   */\n      0x40\n        /* \"#utility.yul\":7337:7340   */\n      dup3\n        /* \"#utility.yul\":7333:7345   */\n      add\n        /* \"#utility.yul\":7326:7345   */\n      swap1\n      pop\n        /* \"#utility.yul\":6985:7351   */\n      swap2\n      swap1\n      pop\n      jump\t// out\n        /* \"#utility.yul\":7357:7475   */\n    tag_292:\n        /* \"#utility.yul\":7444:7468   */\n      tag_294\n        /* \"#utility.yul\":7462:7467   */\n      dup2\n        /* \"#utility.yul\":7444:7468   */\n      tag_295\n      jump\t// in\n    tag_294:\n        /* \"#utility.yul\":7439:7442   */\n      dup3\n        /* \"#utility.yul\":7432:7469   */\n      mstore\n        /* \"#utility.yul\":7357:7475   */\n      pop\n      pop\n      jump\t// out\n        /* \"#utility.yul\":7481:7703   */\n    tag_88:\n        /* \"#utility.yul\":7574:7578   */\n      0x00\n        /* \"#utility.yul\":7612:7614   */\n      0x20\n        /* \"#utility.yul\":7601:7610   */\n      dup3\n        /* \"#utility.yul\":7597:7615   */\n      add\n        /* \"#utility.yul\":7589:7615   */\n      swap1\n      pop\n        /* \"#utility.yul\":7625:7696   */\n      tag_297\n        /* \"#utility.yul\":7693:7694   */\n      0x00\n        /* \"#utility.yul\":7682:7691   */\n      dup4\n        /* \"#utility.yul\":7678:7695   */\n      add\n        /* \"#utility.yul\":7669:7675   */\n      dup5\n        /* \"#utility.yul\":7625:7696   */\n      tag_224\n      jump\t// in\n    tag_297:\n        /* \"#utility.yul\":7481:7703   */\n      swap3\n      swap2\n      pop\n      pop\n      jump\t// out\n        /* \"#utility.yul\":7709:8057   */\n    tag_139:\n        /* \"#utility.yul\":7838:7842   */\n      0x00\n        /* \"#utility.yul\":7876:7878   */\n      0x40\n        /* \"#utility.yul\":7865:7874   */\n      dup3\n        /* \"#utility.yul\":7861:7879   */\n      add\n        /* \"#utility.yul\":7853:7879   */\n      swap1\n      pop\n        /* \"#utility.yul\":7889:7968   */\n      tag_299\n        /* \"#utility.yul\":7965:7966   */\n      0x00\n        /* \"#utility.yul\":7954:7963   */\n      dup4\n        /* \"#utility.yul\":7950:7967   */\n      add\n        /* \"#utility.yul\":7941:7947   */\n      dup6\n        /* \"#utility.yul\":7889:7968   */\n      tag_216\n      jump\t// in\n    tag_299:\n        /* \"#utility.yul\":7978:8050   */\n      tag_300\n        /* \"#utility.yul\":8046:8048   */\n      0x20\n        /* \"#utility.yul\":8035:8044   */\n      dup4\n        /* \"#utility.yul\":8031:8049   */\n      add\n        /* \"#utility.yul\":8022:8028   */\n      dup5\n        /* \"#utility.yul\":7978:8050   */\n      tag_292\n      jump\t// in\n    tag_300:\n        /* \"#utility.yul\":7709:8057   */\n      swap4\n      swap3\n      pop\n      pop\n      pop\n      jump\t// out\n        /* \"#utility.yul\":8063:8395   */\n    tag_103:\n        /* \"#utility.yul\":8184:8188   */\n      0x00\n        /* \"#utility.yul\":8222:8224   */\n      0x40\n        /* \"#utility.yul\":8211:8220   */\n      dup3\n        /* \"#utility.yul\":8207:8225   */\n      add\n        /* \"#utility.yul\":8199:8225   */\n      swap1\n      pop\n        /* \"#utility.yul\":8235:8306   */\n      tag_302\n        /* \"#utility.yul\":8303:8304   */\n      0x00\n        /* \"#utility.yul\":8292:8301   */\n      dup4\n        /* \"#utility.yul\":8288:8305   */\n      add\n        /* \"#utility.yul\":8279:8285   */\n      dup6\n        /* \"#utility.yul\":8235:8306   */\n      tag_224\n      jump\t// in\n    tag_302:\n        /* \"#utility.yul\":8316:8388   */\n      tag_303\n        /* \"#utility.yul\":8384:8386   */\n      0x20\n        /* \"#utility.yul\":8373:8382   */\n      dup4\n        /* \"#utility.yul\":8369:8387   */\n      add\n        /* \"#utility.yul\":8360:8366   */\n      dup5\n        /* \"#utility.yul\":8316:8388   */\n      tag_292\n      jump\t// in\n    tag_303:\n        /* \"#utility.yul\":8063:8395   */\n      swap4\n      swap3\n      pop\n      pop\n      pop\n      jump\t// out\n        /* \"#utility.yul\":8401:8950   */\n    tag_114:\n        /* \"#utility.yul\":8578:8582   */\n      0x00\n        /* \"#utility.yul\":8616:8618   */\n      0x60\n        /* \"#utility.yul\":8605:8614   */\n      dup3\n        /* \"#utility.yul\":8601:8619   */\n      add\n        /* \"#utility.yul\":8593:8619   */\n      swap1\n      pop\n        /* \"#utility.yul\":8665:8674   */\n      dup2\n        /* \"#utility.yul\":8659:8663   */\n      dup2\n        /* \"#utility.yul\":8655:8675   */\n      sub\n        /* \"#utility.yul\":8651:8652   */\n      0x00\n        /* \"#utility.yul\":8640:8649   */\n      dup4\n        /* \"#utility.yul\":8636:8653   */\n      add\n        /* \"#utility.yul\":8629:8676   */\n      mstore\n        /* \"#utility.yul\":8693:8771   */\n      tag_305\n        /* \"#utility.yul\":8766:8770   */\n      dup2\n        /* \"#utility.yul\":8757:8763   */\n      dup7\n        /* \"#utility.yul\":8693:8771   */\n      tag_232\n      jump\t// in\n    tag_305:\n        /* \"#utility.yul\":8685:8771   */\n      swap1\n      pop\n        /* \"#utility.yul\":8781:8861   */\n      tag_306\n        /* \"#utility.yul\":8857:8859   */\n      0x20\n        /* \"#utility.yul\":8846:8855   */\n      dup4\n        /* \"#utility.yul\":8842:8860   */\n      add\n        /* \"#utility.yul\":8833:8839   */\n      dup6\n        /* \"#utility.yul\":8781:8861   */\n      tag_216\n      jump\t// in\n    tag_306:\n        /* \"#utility.yul\":8871:8943   */\n      tag_307\n        /* \"#utility.yul\":8939:8941   */\n      0x40\n        /* \"#utility.yul\":8928:8937   */\n      dup4\n        /* \"#utility.yul\":8924:8942   */\n      add\n        /* \"#utility.yul\":8915:8921   */\n      dup5\n        /* \"#utility.yul\":8871:8943   */\n      tag_292\n      jump\t// in\n    tag_307:\n        /* \"#utility.yul\":8401:8950   */\n      swap5\n      swap4\n      pop\n      pop\n      pop\n      pop\n      jump\t// out\n        /* \"#utility.yul\":8956:9731   */\n    tag_63:\n        /* \"#utility.yul\":9191:9195   */\n      0x00\n        /* \"#utility.yul\":9229:9232   */\n      0xa0\n        /* \"#utility.yul\":9218:9227   */\n      dup3\n        /* \"#utility.yul\":9214:9233   */\n      add\n        /* \"#utility.yul\":9206:9233   */\n      swap1\n      pop\n        /* \"#utility.yul\":9279:9288   */\n      dup2\n        /* \"#utility.yul\":9273:9277   */\n      dup2\n        /* \"#utility.yul\":9269:9289   */\n      sub\n        /* \"#utility.yul\":9265:9266   */\n      0x00\n        /* \"#utility.yul\":9254:9263   */\n      dup4\n        /* \"#utility.yul\":9250:9267   */\n      add\n        /* \"#utility.yul\":9243:9290   */\n      mstore\n        /* \"#utility.yul\":9307:9385   */\n      tag_309\n        /* \"#utility.yul\":9380:9384   */\n      dup2\n        /* \"#utility.yul\":9371:9377   */\n      dup9\n        /* \"#utility.yul\":9307:9385   */\n      tag_232\n      jump\t// in\n    tag_309:\n        /* \"#utility.yul\":9299:9385   */\n      swap1\n      pop\n        /* \"#utility.yul\":9395:9483   */\n      tag_310\n        /* \"#utility.yul\":9479:9481   */\n      0x20\n        /* \"#utility.yul\":9468:9477   */\n      dup4\n        /* \"#utility.yul\":9464:9482   */\n      add\n        /* \"#utility.yul\":9455:9461   */\n      dup8\n        /* \"#utility.yul\":9395:9483   */\n      tag_220\n      jump\t// in\n    tag_310:\n        /* \"#utility.yul\":9493:9565   */\n      tag_311\n        /* \"#utility.yul\":9561:9563   */\n      0x40\n        /* \"#utility.yul\":9550:9559   */\n      dup4\n        /* \"#utility.yul\":9546:9564   */\n      add\n        /* \"#utility.yul\":9537:9543   */\n      dup7\n        /* \"#utility.yul\":9493:9565   */\n      tag_292\n      jump\t// in\n    tag_311:\n        /* \"#utility.yul\":9575:9641   */\n      tag_312\n        /* \"#utility.yul\":9637:9639   */\n      0x60\n        /* \"#utility.yul\":9626:9635   */\n      dup4\n        /* \"#utility.yul\":9622:9640   */\n      add\n        /* \"#utility.yul\":9613:9619   */\n      dup6\n        /* \"#utility.yul\":9575:9641   */\n      tag_228\n      jump\t// in\n    tag_312:\n        /* \"#utility.yul\":9651:9724   */\n      tag_313\n        /* \"#utility.yul\":9719:9722   */\n      0x80\n        /* \"#utility.yul\":9708:9717   */\n      dup4\n        /* \"#utility.yul\":9704:9723   */\n      add\n        /* \"#utility.yul\":9695:9701   */\n      dup5\n        /* \"#utility.yul\":9651:9724   */\n      tag_292\n      jump\t// in\n    tag_313:\n        /* \"#utility.yul\":8956:9731   */\n      swap7\n      swap6\n      pop\n      pop\n      pop\n      pop\n      pop\n      pop\n      jump\t// out\n        /* \"#utility.yul\":9737:10156   */\n    tag_118:\n        /* \"#utility.yul\":9903:9907   */\n      0x00\n        /* \"#utility.yul\":9941:9943   */\n      0x20\n        /* \"#utility.yul\":9930:9939   */\n      dup3\n        /* \"#utility.yul\":9926:9944   */\n      add\n        /* \"#utility.yul\":9918:9944   */\n      swap1\n      pop\n        /* \"#utility.yul\":9990:9999   */\n      dup2\n        /* \"#utility.yul\":9984:9988   */\n      dup2\n        /* \"#utility.yul\":9980:10000   */\n      sub\n        /* \"#utility.yul\":9976:9977   */\n      0x00\n        /* \"#utility.yul\":9965:9974   */\n      dup4\n        /* \"#utility.yul\":9961:9978   */\n      add\n        /* \"#utility.yul\":9954:10001   */\n      mstore\n        /* \"#utility.yul\":10018:10149   */\n      tag_315\n        /* \"#utility.yul\":10144:10148   */\n      dup2\n        /* \"#utility.yul\":10018:10149   */\n      tag_242\n      jump\t// in\n    tag_315:\n        /* \"#utility.yul\":10010:10149   */\n      swap1\n      pop\n        /* \"#utility.yul\":9737:10156   */\n      swap2\n      swap1\n      pop\n      jump\t// out\n        /* \"#utility.yul\":10162:10581   */\n    tag_108:\n        /* \"#utility.yul\":10328:10332   */\n      0x00\n        /* \"#utility.yul\":10366:10368   */\n      0x20\n        /* \"#utility.yul\":10355:10364   */\n      dup3\n        /* \"#utility.yul\":10351:10369   */\n      add\n        /* \"#utility.yul\":10343:10369   */\n      swap1\n      pop\n        /* \"#utility.yul\":10415:10424   */\n      dup2\n        /* \"#utility.yul\":10409:10413   */\n      dup2\n        /* \"#utility.yul\":10405:10425   */\n      sub\n        /* \"#utility.yul\":10401:10402   */\n      0x00\n        /* \"#utility.yul\":10390:10399   */\n      dup4\n        /* \"#utility.yul\":10386:10403   */\n      add\n        /* \"#utility.yul\":10379:10426   */\n      mstore\n        /* \"#utility.yul\":10443:10574   */\n      tag_317\n        /* \"#utility.yul\":10569:10573   */\n      dup2\n        /* \"#utility.yul\":10443:10574   */\n      tag_247\n      jump\t// in\n    tag_317:\n        /* \"#utility.yul\":10435:10574   */\n      swap1\n      pop\n        /* \"#utility.yul\":10162:10581   */\n      swap2\n      swap1\n      pop\n      jump\t// out\n        /* \"#utility.yul\":10587:11006   */\n    tag_95:\n        /* \"#utility.yul\":10753:10757   */\n      0x00\n        /* \"#utility.yul\":10791:10793   */\n      0x20\n        /* \"#utility.yul\":10780:10789   */\n      dup3\n        /* \"#utility.yul\":10776:10794   */\n      add\n        /* \"#utility.yul\":10768:10794   */\n      swap1\n      pop\n        /* \"#utility.yul\":10840:10849   */\n      dup2\n        /* \"#utility.yul\":10834:10838   */\n      dup2\n        /* \"#utility.yul\":10830:10850   */\n      sub\n        /* \"#utility.yul\":10826:10827   */\n      0x00\n        /* \"#utility.yul\":10815:10824   */\n      dup4\n        /* \"#utility.yul\":10811:10828   */\n      add\n        /* \"#utility.yul\":10804:10851   */\n      mstore\n        /* \"#utility.yul\":10868:10999   */\n      tag_319\n        /* \"#utility.yul\":10994:10998   */\n      dup2\n        /* \"#utility.yul\":10868:10999   */\n      tag_252\n      jump\t// in\n    tag_319:\n        /* \"#utility.yul\":10860:10999   */\n      swap1\n      pop\n        /* \"#utility.yul\":10587:11006   */\n      swap2\n      swap1\n      pop\n      jump\t// out\n        /* \"#utility.yul\":11012:11431   */\n    tag_121:\n        /* \"#utility.yul\":11178:11182   */\n      0x00\n        /* \"#utility.yul\":11216:11218   */\n      0x20\n        /* \"#utility.yul\":11205:11214   */\n      dup3\n        /* \"#utility.yul\":11201:11219   */\n      add\n        /* \"#utility.yul\":11193:11219   */\n      swap1\n      pop\n        /* \"#utility.yul\":11265:11274   */\n      dup2\n        /* \"#utility.yul\":11259:11263   */\n      dup2\n        /* \"#utility.yul\":11255:11275   */\n      sub\n        /* \"#utility.yul\":11251:11252   */\n      0x00\n        /* \"#utility.yul\":11240:11249   */\n      dup4\n        /* \"#utility.yul\":11236:11253   */\n      add\n        /* \"#utility.yul\":11229:11276   */\n      mstore\n        /* \"#utility.yul\":11293:11424   */\n      tag_321\n        /* \"#utility.yul\":11419:11423   */\n      dup2\n        /* \"#utility.yul\":11293:11424   */\n      tag_257\n      jump\t// in\n    tag_321:\n        /* \"#utility.yul\":11285:11424   */\n      swap1\n      pop\n        /* \"#utility.yul\":11012:11431   */\n      swap2\n      swap1\n      pop\n      jump\t// out\n        /* \"#utility.yul\":11437:11856   */\n    tag_129:\n        /* \"#utility.yul\":11603:11607   */\n      0x00\n        /* \"#utility.yul\":11641:11643   */\n      0x20\n        /* \"#utility.yul\":11630:11639   */\n      dup3\n        /* \"#utility.yul\":11626:11644   */\n      add\n        /* \"#utility.yul\":11618:11644   */\n      swap1\n      pop\n        /* \"#utility.yul\":11690:11699   */\n      dup2\n        /* \"#utility.yul\":11684:11688   */\n      dup2\n        /* \"#utility.yul\":11680:11700   */\n      sub\n        /* \"#utility.yul\":11676:11677   */\n      0x00\n        /* \"#utility.yul\":11665:11674   */\n      dup4\n        /* \"#utility.yul\":11661:11678   */\n      add\n        /* \"#utility.yul\":11654:11701   */\n      mstore\n        /* \"#utility.yul\":11718:11849   */\n      tag_323\n        /* \"#utility.yul\":11844:11848   */\n      dup2\n        /* \"#utility.yul\":11718:11849   */\n      tag_262\n      jump\t// in\n    tag_323:\n        /* \"#utility.yul\":11710:11849   */\n      swap1\n      pop\n        /* \"#utility.yul\":11437:11856   */\n      swap2\n      swap1\n      pop\n      jump\t// out\n        /* \"#utility.yul\":11862:12281   */\n    tag_92:\n        /* \"#utility.yul\":12028:12032   */\n      0x00\n        /* \"#utility.yul\":12066:12068   */\n      0x20\n        /* \"#utility.yul\":12055:12064   */\n      dup3\n        /* \"#utility.yul\":12051:12069   */\n      add\n        /* \"#utility.yul\":12043:12069   */\n      swap1\n      pop\n        /* \"#utility.yul\":12115:12124   */\n      dup2\n        /* \"#utility.yul\":12109:12113   */\n      dup2\n        /* \"#utility.yul\":12105:12125   */\n      sub\n        /* \"#utility.yul\":12101:12102   */\n      0x00\n        /* \"#utility.yul\":12090:12099   */\n      dup4\n        /* \"#utility.yul\":12086:12103   */\n      add\n        /* \"#utility.yul\":12079:12126   */\n      mstore\n        /* \"#utility.yul\":12143:12274   */\n      tag_325\n        /* \"#utility.yul\":12269:12273   */\n      dup2\n        /* \"#utility.yul\":12143:12274   */\n      tag_267\n      jump\t// in\n    tag_325:\n        /* \"#utility.yul\":12135:12274   */\n      swap1\n      pop\n        /* \"#utility.yul\":11862:12281   */\n      swap2\n      swap1\n      pop\n      jump\t// out\n        /* \"#utility.yul\":12287:12706   */\n    tag_152:\n        /* \"#utility.yul\":12453:12457   */\n      0x00\n        /* \"#utility.yul\":12491:12493   */\n      0x20\n        /* \"#utility.yul\":12480:12489   */\n      dup3\n        /* \"#utility.yul\":12476:12494   */\n      add\n        /* \"#utility.yul\":12468:12494   */\n      swap1\n      pop\n        /* \"#utility.yul\":12540:12549   */\n      dup2\n        /* \"#utility.yul\":12534:12538   */\n      dup2\n        /* \"#utility.yul\":12530:12550   */\n      sub\n        /* \"#utility.yul\":12526:12527   */\n      0x00\n        /* \"#utility.yul\":12515:12524   */\n      dup4\n        /* \"#utility.yul\":12511:12528   */\n      add\n        /* \"#utility.yul\":12504:12551   */\n      mstore\n        /* \"#utility.yul\":12568:12699   */\n      tag_327\n        /* \"#utility.yul\":12694:12698   */\n      dup2\n        /* \"#utility.yul\":12568:12699   */\n      tag_272\n      jump\t// in\n    tag_327:\n        /* \"#utility.yul\":12560:12699   */\n      swap1\n      pop\n        /* \"#utility.yul\":12287:12706   */\n      swap2\n      swap1\n      pop\n      jump\t// out\n        /* \"#utility.yul\":12712:13131   */\n    tag_155:\n        /* \"#utility.yul\":12878:12882   */\n      0x00\n        /* \"#utility.yul\":12916:12918   */\n      0x20\n        /* \"#utility.yul\":12905:12914   */\n      dup3\n        /* \"#utility.yul\":12901:12919   */\n      add\n        /* \"#utility.yul\":12893:12919   */\n      swap1\n      pop\n        /* \"#utility.yul\":12965:12974   */\n      dup2\n        /* \"#utility.yul\":12959:12963   */\n      dup2\n        /* \"#utility.yul\":12955:12975   */\n      sub\n        /* \"#utility.yul\":12951:12952   */\n      0x00\n        /* \"#utility.yul\":12940:12949   */\n      dup4\n        /* \"#utility.yul\":12936:12953   */\n      add\n        /* \"#utility.yul\":12929:12976   */\n      mstore\n        /* \"#utility.yul\":12993:13124   */\n      tag_329\n        /* \"#utility.yul\":13119:13123   */\n      dup2\n        /* \"#utility.yul\":12993:13124   */\n      tag_277\n      jump\t// in\n    tag_329:\n        /* \"#utility.yul\":12985:13124   */\n      swap1\n      pop\n        /* \"#utility.yul\":12712:13131   */\n      swap2\n      swap1\n      pop\n      jump\t// out\n        /* \"#utility.yul\":13137:13556   */\n    tag_132:\n        /* \"#utility.yul\":13303:13307   */\n      0x00\n        /* \"#utility.yul\":13341:13343   */\n      0x20\n        /* \"#utility.yul\":13330:13339   */\n      dup3\n        /* \"#utility.yul\":13326:13344   */\n      add\n        /* \"#utility.yul\":13318:13344   */\n      swap1\n      pop\n        /* \"#utility.yul\":13390:13399   */\n      dup2\n        /* \"#utility.yul\":13384:13388   */\n      dup2\n        /* \"#utility.yul\":13380:13400   */\n      sub\n        /* \"#utility.yul\":13376:13377   */\n      0x00\n        /* \"#utility.yul\":13365:13374   */\n      dup4\n        /* \"#utility.yul\":13361:13378   */\n      add\n        /* \"#utility.yul\":13354:13401   */\n      mstore\n        /* \"#utility.yul\":13418:13549   */\n      tag_331\n        /* \"#utility.yul\":13544:13548   */\n      dup2\n        /* \"#utility.yul\":13418:13549   */\n      tag_282\n      jump\t// in\n    tag_331:\n        /* \"#utility.yul\":13410:13549   */\n      swap1\n      pop\n        /* \"#utility.yul\":13137:13556   */\n      swap2\n      swap1\n      pop\n      jump\t// out\n        /* \"#utility.yul\":13562:13981   */\n    tag_149:\n        /* \"#utility.yul\":13728:13732   */\n      0x00\n        /* \"#utility.yul\":13766:13768   */\n      0x20\n        /* \"#utility.yul\":13755:13764   */\n      dup3\n        /* \"#utility.yul\":13751:13769   */\n      add\n        /* \"#utility.yul\":13743:13769   */\n      swap1\n      pop\n        /* \"#utility.yul\":13815:13824   */\n      dup2\n        /* \"#utility.yul\":13809:13813   */\n      dup2\n        /* \"#utility.yul\":13805:13825   */\n      sub\n        /* \"#utility.yul\":13801:13802   */\n      0x00\n        /* \"#utility.yul\":13790:13799   */\n      dup4\n        /* \"#utility.yul\":13786:13803   */\n      add\n        /* \"#utility.yul\":13779:13826   */\n      mstore\n        /* \"#utility.yul\":13843:13974   */\n      tag_333\n        /* \"#utility.yul\":13969:13973   */\n      dup2\n        /* \"#utility.yul\":13843:13974   */\n      tag_287\n      jump\t// in\n    tag_333:\n        /* \"#utility.yul\":13835:13974   */\n      swap1\n      pop\n        /* \"#utility.yul\":13562:13981   */\n      swap2\n      swap1\n      pop\n      jump\t// out\n        /* \"#utility.yul\":13987:14209   */\n    tag_29:\n        /* \"#utility.yul\":14080:14084   */\n      0x00\n        /* \"#utility.yul\":14118:14120   */\n      0x20\n        /* \"#utility.yul\":14107:14116   */\n      dup3\n        /* \"#utility.yul\":14103:14121   */\n      add\n        /* \"#utility.yul\":14095:14121   */\n      swap1\n      pop\n        /* \"#utility.yul\":14131:14202   */\n      tag_335\n        /* \"#utility.yul\":14199:14200   */\n      0x00\n        /* \"#utility.yul\":14188:14197   */\n      dup4\n        /* \"#utility.yul\":14184:14201   */\n      add\n        /* \"#utility.yul\":14175:14181   */\n      dup5\n        /* \"#utility.yul\":14131:14202   */\n      tag_292\n      jump\t// in\n    tag_335:\n        /* \"#utility.yul\":13987:14209   */\n      swap3\n      swap2\n      pop\n      pop\n      jump\t// out\n        /* \"#utility.yul\":14215:14344   */\n    tag_174:\n        /* \"#utility.yul\":14249:14255   */\n      0x00\n        /* \"#utility.yul\":14276:14296   */\n      tag_337\n      tag_338\n      jump\t// in\n    tag_337:\n        /* \"#utility.yul\":14266:14296   */\n      swap1\n      pop\n        /* \"#utility.yul\":14305:14338   */\n      tag_339\n        /* \"#utility.yul\":14333:14337   */\n      dup3\n        /* \"#utility.yul\":14325:14331   */\n      dup3\n        /* \"#utility.yul\":14305:14338   */\n      tag_340\n      jump\t// in\n    tag_339:\n        /* \"#utility.yul\":14215:14344   */\n      swap2\n      swap1\n      pop\n      jump\t// out\n        /* \"#utility.yul\":14350:14425   */\n    tag_338:\n        /* \"#utility.yul\":14383:14389   */\n      0x00\n        /* \"#utility.yul\":14416:14418   */\n      0x40\n        /* \"#utility.yul\":14410:14419   */\n      mload\n        /* \"#utility.yul\":14400:14419   */\n      swap1\n      pop\n        /* \"#utility.yul\":14350:14425   */\n      swap1\n      jump\t// out\n        /* \"#utility.yul\":14431:14739   */\n    tag_173:\n        /* \"#utility.yul\":14493:14497   */\n      0x00\n        /* \"#utility.yul\":14583:14601   */\n      0xffffffffffffffff\n        /* \"#utility.yul\":14575:14581   */\n      dup3\n        /* \"#utility.yul\":14572:14602   */\n      gt\n        /* \"#utility.yul\":14569:14625   */\n      iszero\n      tag_343\n      jumpi\n        /* \"#utility.yul\":14605:14623   */\n      tag_344\n      tag_345\n      jump\t// in\n    tag_344:\n        /* \"#utility.yul\":14569:14625   */\n    tag_343:\n        /* \"#utility.yul\":14643:14672   */\n      tag_346\n        /* \"#utility.yul\":14665:14671   */\n      dup3\n        /* \"#utility.yul\":14643:14672   */\n      tag_241\n      jump\t// in\n    tag_346:\n        /* \"#utility.yul\":14635:14672   */\n      swap1\n      pop\n        /* \"#utility.yul\":14727:14731   */\n      0x20\n        /* \"#utility.yul\":14721:14725   */\n      dup2\n        /* \"#utility.yul\":14717:14732   */\n      add\n        /* \"#utility.yul\":14709:14732   */\n      swap1\n      pop\n        /* \"#utility.yul\":14431:14739   */\n      swap2\n      swap1\n      pop\n      jump\t// out\n        /* \"#utility.yul\":14745:14844   */\n    tag_235:\n        /* \"#utility.yul\":14797:14803   */\n      0x00\n        /* \"#utility.yul\":14831:14836   */\n      dup2\n        /* \"#utility.yul\":14825:14837   */\n      mload\n        /* \"#utility.yul\":14815:14837   */\n      swap1\n      pop\n        /* \"#utility.yul\":14745:14844   */\n      swap2\n      swap1\n      pop\n      jump\t// out\n        /* \"#utility.yul\":14850:15019   */\n    tag_237:\n        /* \"#utility.yul\":14934:14945   */\n      0x00\n        /* \"#utility.yul\":14968:14974   */\n      dup3\n        /* \"#utility.yul\":14963:14966   */\n      dup3\n        /* \"#utility.yul\":14956:14975   */\n      mstore\n        /* \"#utility.yul\":15008:15012   */\n      0x20\n        /* \"#utility.yul\":15003:15006   */\n      dup3\n        /* \"#utility.yul\":14999:15013   */\n      add\n        /* \"#utility.yul\":14984:15013   */\n      swap1\n      pop\n        /* \"#utility.yul\":14850:15019   */\n      swap3\n      swap2\n      pop\n      pop\n      jump\t// out\n        /* \"#utility.yul\":15025:15330   */\n    tag_100:\n        /* \"#utility.yul\":15065:15068   */\n      0x00\n        /* \"#utility.yul\":15084:15104   */\n      tag_350\n        /* \"#utility.yul\":15102:15103   */\n      dup3\n        /* \"#utility.yul\":15084:15104   */\n      tag_295\n      jump\t// in\n    tag_350:\n        /* \"#utility.yul\":15079:15104   */\n      swap2\n      pop\n        /* \"#utility.yul\":15118:15138   */\n      tag_351\n        /* \"#utility.yul\":15136:15137   */\n      dup4\n        /* \"#utility.yul\":15118:15138   */\n      tag_295\n      jump\t// in\n    tag_351:\n        /* \"#utility.yul\":15113:15138   */\n      swap3\n      pop\n        /* \"#utility.yul\":15272:15273   */\n      dup3\n        /* \"#utility.yul\":15204:15270   */\n      0xffffffffffffffffffffffffffffffffffffffffffffffffffffffffffffffff\n        /* \"#utility.yul\":15200:15274   */\n      sub\n        /* \"#utility.yul\":15197:15198   */\n      dup3\n        /* \"#utility.yul\":15194:15275   */\n      gt\n        /* \"#utility.yul\":15191:15298   */\n      iszero\n      tag_352\n      jumpi\n        /* \"#utility.yul\":15278:15296   */\n      tag_353\n      tag_354\n      jump\t// in\n    tag_353:\n        /* \"#utility.yul\":15191:15298   */\n    tag_352:\n        /* \"#utility.yul\":15322:15323   */\n      dup3\n        /* \"#utility.yul\":15319:15320   */\n      dup3\n        /* \"#utility.yul\":15315:15324   */\n      add\n        /* \"#utility.yul\":15308:15324   */\n      swap1\n      pop\n        /* \"#utility.yul\":15025:15330   */\n      swap3\n      swap2\n      pop\n      pop\n      jump\t// out\n        /* \"#utility.yul\":15336:15521   */\n    tag_134:\n        /* \"#utility.yul\":15376:15377   */\n      0x00\n        /* \"#utility.yul\":15393:15413   */\n      tag_356\n        /* \"#utility.yul\":15411:15412   */\n      dup3\n        /* \"#utility.yul\":15393:15413   */\n      tag_295\n      jump\t// in\n    tag_356:\n        /* \"#utility.yul\":15388:15413   */\n      swap2\n      pop\n        /* \"#utility.yul\":15427:15447   */\n      tag_357\n        /* \"#utility.yul\":15445:15446   */\n      dup4\n        /* \"#utility.yul\":15427:15447   */\n      tag_295\n      jump\t// in\n    tag_357:\n        /* \"#utility.yul\":15422:15447   */\n      swap3\n      pop\n        /* \"#utility.yul\":15466:15467   */\n      dup3\n        /* \"#utility.yul\":15456:15491   */\n      tag_358\n      jumpi\n        /* \"#utility.yul\":15471:15489   */\n      tag_359\n      tag_360\n      jump\t// in\n    tag_359:\n        /* \"#utility.yul\":15456:15491   */\n    tag_358:\n        /* \"#utility.yul\":15513:15514   */\n      dup3\n        /* \"#utility.yul\":15510:15511   */\n      dup3\n        /* \"#utility.yul\":15506:15515   */\n      div\n        /* \"#utility.yul\":15501:15515   */\n      swap1\n      pop\n        /* \"#utility.yul\":15336:15521   */\n      swap3\n      swap2\n      pop\n      pop\n      jump\t// out\n        /* \"#utility.yul\":15527:15623   */\n    tag_227:\n        /* \"#utility.yul\":15564:15571   */\n      0x00\n        /* \"#utility.yul\":15593:15617   */\n      tag_362\n        /* \"#utility.yul\":15611:15616   */\n      dup3\n        /* \"#utility.yul\":15593:15617   */\n      tag_363\n      jump\t// in\n    tag_362:\n        /* \"#utility.yul\":15582:15617   */\n      swap1\n      pop\n        /* \"#utility.yul\":15527:15623   */\n      swap2\n      swap1\n      pop\n      jump\t// out\n        /* \"#utility.yul\":15629:15733   */\n    tag_223:\n        /* \"#utility.yul\":15674:15681   */\n      0x00\n        /* \"#utility.yul\":15703:15727   */\n      tag_365\n        /* \"#utility.yul\":15721:15726   */\n      dup3\n        /* \"#utility.yul\":15703:15727   */\n      tag_363\n      jump\t// in\n    tag_365:\n        /* \"#utility.yul\":15692:15727   */\n      swap1\n      pop\n        /* \"#utility.yul\":15629:15733   */\n      swap2\n      swap1\n      pop\n      jump\t// out\n        /* \"#utility.yul\":15739:15829   */\n    tag_231:\n        /* \"#utility.yul\":15773:15780   */\n      0x00\n        /* \"#utility.yul\":15816:15821   */\n      dup2\n        /* \"#utility.yul\":15809:15822   */\n      iszero\n        /* \"#utility.yul\":15802:15823   */\n      iszero\n        /* \"#utility.yul\":15791:15823   */\n      swap1\n      pop\n        /* \"#utility.yul\":15739:15829   */\n      swap2\n      swap1\n      pop\n      jump\t// out\n        /* \"#utility.yul\":15835:15961   */\n    tag_363:\n        /* \"#utility.yul\":15872:15879   */\n      0x00\n        /* \"#utility.yul\":15912:15954   */\n      0xffffffffffffffffffffffffffffffffffffffff\n        /* \"#utility.yul\":15905:15910   */\n      dup3\n        /* \"#utility.yul\":15901:15955   */\n      and\n        /* \"#utility.yul\":15890:15955   */\n      swap1\n      pop\n        /* \"#utility.yul\":15835:15961   */\n      swap2\n      swap1\n      pop\n      jump\t// out\n        /* \"#utility.yul\":15967:16044   */\n    tag_295:\n        /* \"#utility.yul\":16004:16011   */\n      0x00\n        /* \"#utility.yul\":16033:16038   */\n      dup2\n        /* \"#utility.yul\":16022:16038   */\n      swap1\n      pop\n        /* \"#utility.yul\":15967:16044   */\n      swap2\n      swap1\n      pop\n      jump\t// out\n        /* \"#utility.yul\":16050:16184   */\n    tag_219:\n        /* \"#utility.yul\":16108:16117   */\n      0x00\n        /* \"#utility.yul\":16141:16178   */\n      tag_370\n        /* \"#utility.yul\":16172:16177   */\n      dup3\n        /* \"#utility.yul\":16141:16178   */\n      tag_371\n      jump\t// in\n    tag_370:\n        /* \"#utility.yul\":16128:16178   */\n      swap1\n      pop\n        /* \"#utility.yul\":16050:16184   */\n      swap2\n      swap1\n      pop\n      jump\t// out\n        /* \"#utility.yul\":16190:16316   */\n    tag_371:\n        /* \"#utility.yul\":16240:16249   */\n      0x00\n        /* \"#utility.yul\":16273:16310   */\n      tag_373\n        /* \"#utility.yul\":16304:16309   */\n      dup3\n        /* \"#utility.yul\":16273:16310   */\n      tag_374\n      jump\t// in\n    tag_373:\n        /* \"#utility.yul\":16260:16310   */\n      swap1\n      pop\n        /* \"#utility.yul\":16190:16316   */\n      swap2\n      swap1\n      pop\n      jump\t// out\n        /* \"#utility.yul\":16322:16435   */\n    tag_374:\n        /* \"#utility.yul\":16372:16381   */\n      0x00\n        /* \"#utility.yul\":16405:16429   */\n      tag_376\n        /* \"#utility.yul\":16423:16428   */\n      dup3\n        /* \"#utility.yul\":16405:16429   */\n      tag_363\n      jump\t// in\n    tag_376:\n        /* \"#utility.yul\":16392:16429   */\n      swap1\n      pop\n        /* \"#utility.yul\":16322:16435   */\n      swap2\n      swap1\n      pop\n      jump\t// out\n        /* \"#utility.yul\":16441:16595   */\n    tag_179:\n        /* \"#utility.yul\":16525:16531   */\n      dup3\n        /* \"#utility.yul\":16520:16523   */\n      dup2\n        /* \"#utility.yul\":16515:16518   */\n      dup4\n        /* \"#utility.yul\":16502:16532   */\n      calldatacopy\n        /* \"#utility.yul\":16587:16588   */\n      0x00\n        /* \"#utility.yul\":16578:16584   */\n      dup4\n        /* \"#utility.yul\":16573:16576   */\n      dup4\n        /* \"#utility.yul\":16569:16585   */\n      add\n        /* \"#utility.yul\":16562:16589   */\n      mstore\n        /* \"#utility.yul\":16441:16595   */\n      pop\n      pop\n      pop\n      jump\t// out\n        /* \"#utility.yul\":16601:16908   */\n    tag_239:\n        /* \"#utility.yul\":16669:16670   */\n      0x00\n        /* \"#utility.yul\":16679:16792   */\n    tag_379:\n        /* \"#utility.yul\":16693:16699   */\n      dup4\n        /* \"#utility.yul\":16690:16691   */\n      dup2\n        /* \"#utility.yul\":16687:16700   */\n      lt\n        /* \"#utility.yul\":16679:16792   */\n      iszero\n      tag_381\n      jumpi\n        /* \"#utility.yul\":16778:16779   */\n      dup1\n        /* \"#utility.yul\":16773:16776   */\n      dup3\n        /* \"#utility.yul\":16769:16780   */\n      add\n        /* \"#utility.yul\":16763:16781   */\n      mload\n        /* \"#utility.yul\":16759:16760   */\n      dup2\n        /* \"#utility.yul\":16754:16757   */\n      dup5\n        /* \"#utility.yul\":16750:16761   */\n      add\n        /* \"#utility.yul\":16743:16782   */\n      mstore\n        /* \"#utility.yul\":16715:16717   */\n      0x20\n        /* \"#utility.yul\":16712:16713   */\n      dup2\n        /* \"#utility.yul\":16708:16718   */\n      add\n        /* \"#utility.yul\":16703:16718   */\n      swap1\n      pop\n        /* \"#utility.yul\":16679:16792   */\n      jump(tag_379)\n    tag_381:\n        /* \"#utility.yul\":16810:16816   */\n      dup4\n        /* \"#utility.yul\":16807:16808   */\n      dup2\n        /* \"#utility.yul\":16804:16817   */\n      gt\n        /* \"#utility.yul\":16801:16902   */\n      iszero\n      tag_382\n      jumpi\n        /* \"#utility.yul\":16890:16891   */\n      0x00\n        /* \"#utility.yul\":16881:16887   */\n      dup5\n        /* \"#utility.yul\":16876:16879   */\n      dup5\n        /* \"#utility.yul\":16872:16888   */\n      add\n        /* \"#utility.yul\":16865:16892   */\n      mstore\n        /* \"#utility.yul\":16801:16902   */\n    tag_382:\n        /* \"#utility.yul\":16650:16908   */\n      pop\n        /* \"#utility.yul\":16601:16908   */\n      pop\n      pop\n      pop\n      jump\t// out\n        /* \"#utility.yul\":16914:17234   */\n    tag_141:\n        /* \"#utility.yul\":16958:16964   */\n      0x00\n        /* \"#utility.yul\":16995:16996   */\n      0x02\n        /* \"#utility.yul\":16989:16993   */\n      dup3\n        /* \"#utility.yul\":16985:16997   */\n      div\n        /* \"#utility.yul\":16975:16997   */\n      swap1\n      pop\n        /* \"#utility.yul\":17042:17043   */\n      0x01\n        /* \"#utility.yul\":17036:17040   */\n      dup3\n        /* \"#utility.yul\":17032:17044   */\n      and\n        /* \"#utility.yul\":17063:17081   */\n      dup1\n        /* \"#utility.yul\":17053:17134   */\n      tag_384\n      jumpi\n        /* \"#utility.yul\":17119:17123   */\n      0x7f\n        /* \"#utility.yul\":17111:17117   */\n      dup3\n        /* \"#utility.yul\":17107:17124   */\n      and\n        /* \"#utility.yul\":17097:17124   */\n      swap2\n      pop\n        /* \"#utility.yul\":17053:17134   */\n    tag_384:\n        /* \"#utility.yul\":17181:17183   */\n      0x20\n        /* \"#utility.yul\":17173:17179   */\n      dup3\n        /* \"#utility.yul\":17170:17184   */\n      lt\n        /* \"#utility.yul\":17150:17168   */\n      dup2\n        /* \"#utility.yul\":17147:17185   */\n      eq\n        /* \"#utility.yul\":17144:17228   */\n      iszero\n      tag_385\n      jumpi\n        /* \"#utility.yul\":17200:17218   */\n      tag_386\n      tag_387\n      jump\t// in\n    tag_386:\n        /* \"#utility.yul\":17144:17228   */\n    tag_385:\n        /* \"#utility.yul\":16965:17234   */\n      pop\n        /* \"#utility.yul\":16914:17234   */\n      swap2\n      swap1\n      pop\n      jump\t// out\n        /* \"#utility.yul\":17240:17521   */\n    tag_340:\n        /* \"#utility.yul\":17323:17350   */\n      tag_389\n        /* \"#utility.yul\":17345:17349   */\n      dup3\n        /* \"#utility.yul\":17323:17350   */\n      tag_241\n      jump\t// in\n    tag_389:\n        /* \"#utility.yul\":17315:17321   */\n      dup2\n        /* \"#utility.yul\":17311:17351   */\n      add\n        /* \"#utility.yul\":17453:17459   */\n      dup2\n        /* \"#utility.yul\":17441:17451   */\n      dup2\n        /* \"#utility.yul\":17438:17460   */\n      lt\n        /* \"#utility.yul\":17417:17435   */\n      0xffffffffffffffff\n        /* \"#utility.yul\":17405:17415   */\n      dup3\n        /* \"#utility.yul\":17402:17436   */\n      gt\n        /* \"#utility.yul\":17399:17461   */\n      or\n        /* \"#utility.yul\":17396:17484   */\n      iszero\n      tag_390\n      jumpi\n        /* \"#utility.yul\":17464:17482   */\n      tag_391\n      tag_345\n      jump\t// in\n    tag_391:\n        /* \"#utility.yul\":17396:17484   */\n    tag_390:\n        /* \"#utility.yul\":17504:17514   */\n      dup1\n        /* \"#utility.yul\":17500:17502   */\n      0x40\n        /* \"#utility.yul\":17493:17515   */\n      mstore\n        /* \"#utility.yul\":17283:17521   */\n      pop\n        /* \"#utility.yul\":17240:17521   */\n      pop\n      pop\n      jump\t// out\n        /* \"#utility.yul\":17527:17760   */\n    tag_98:\n        /* \"#utility.yul\":17566:17569   */\n      0x00\n        /* \"#utility.yul\":17589:17613   */\n      tag_393\n        /* \"#utility.yul\":17607:17612   */\n      dup3\n        /* \"#utility.yul\":17589:17613   */\n      tag_295\n      jump\t// in\n    tag_393:\n        /* \"#utility.yul\":17580:17613   */\n      swap2\n      pop\n        /* \"#utility.yul\":17635:17701   */\n      0xffffffffffffffffffffffffffffffffffffffffffffffffffffffffffffffff\n        /* \"#utility.yul\":17628:17633   */\n      dup3\n        /* \"#utility.yul\":17625:17702   */\n      eq\n        /* \"#utility.yul\":17622:17725   */\n      iszero\n      tag_394\n      jumpi\n        /* \"#utility.yul\":17705:17723   */\n      tag_395\n      tag_354\n      jump\t// in\n    tag_395:\n        /* \"#utility.yul\":17622:17725   */\n    tag_394:\n        /* \"#utility.yul\":17752:17753   */\n      0x01\n        /* \"#utility.yul\":17745:17750   */\n      dup3\n        /* \"#utility.yul\":17741:17754   */\n      add\n        /* \"#utility.yul\":17734:17754   */\n      swap1\n      pop\n        /* \"#utility.yul\":17527:17760   */\n      swap2\n      swap1\n      pop\n      jump\t// out\n        /* \"#utility.yul\":17766:17946   */\n    tag_354:\n        /* \"#utility.yul\":17814:17891   */\n      0x4e487b7100000000000000000000000000000000000000000000000000000000\n        /* \"#utility.yul\":17811:17812   */\n      0x00\n        /* \"#utility.yul\":17804:17892   */\n      mstore\n        /* \"#utility.yul\":17911:17915   */\n      0x11\n        /* \"#utility.yul\":17908:17909   */\n      0x04\n        /* \"#utility.yul\":17901:17916   */\n      mstore\n        /* \"#utility.yul\":17935:17939   */\n      0x24\n        /* \"#utility.yul\":17932:17933   */\n      0x00\n        /* \"#utility.yul\":17925:17940   */\n      revert\n        /* \"#utility.yul\":17952:18132   */\n    tag_360:\n        /* \"#utility.yul\":18000:18077   */\n      0x4e487b7100000000000000000000000000000000000000000000000000000000\n        /* \"#utility.yul\":17997:17998   */\n      0x00\n        /* \"#utility.yul\":17990:18078   */\n      mstore\n        /* \"#utility.yul\":18097:18101   */\n      0x12\n        /* \"#utility.yul\":18094:18095   */\n      0x04\n        /* \"#utility.yul\":18087:18102   */\n      mstore\n        /* \"#utility.yul\":18121:18125   */\n      0x24\n        /* \"#utility.yul\":18118:18119   */\n      0x00\n        /* \"#utility.yul\":18111:18126   */\n      revert\n        /* \"#utility.yul\":18138:18318   */\n    tag_387:\n        /* \"#utility.yul\":18186:18263   */\n      0x4e487b7100000000000000000000000000000000000000000000000000000000\n        /* \"#utility.yul\":18183:18184   */\n      0x00\n        /* \"#utility.yul\":18176:18264   */\n      mstore\n        /* \"#utility.yul\":18283:18287   */\n      0x22\n        /* \"#utility.yul\":18280:18281   */\n      0x04\n        /* \"#utility.yul\":18273:18288   */\n      mstore\n        /* \"#utility.yul\":18307:18311   */\n      0x24\n        /* \"#utility.yul\":18304:18305   */\n      0x00\n        /* \"#utility.yul\":18297:18312   */\n      revert\n        /* \"#utility.yul\":18324:18504   */\n    tag_345:\n        /* \"#utility.yul\":18372:18449   */\n      0x4e487b7100000000000000000000000000000000000000000000000000000000\n        /* \"#utility.yul\":18369:18370   */\n      0x00\n        /* \"#utility.yul\":18362:18450   */\n      mstore\n        /* \"#utility.yul\":18469:18473   */\n      0x41\n        /* \"#utility.yul\":18466:18467   */\n      0x04\n        /* \"#utility.yul\":18459:18474   */\n      mstore\n        /* \"#utility.yul\":18493:18497   */\n      0x24\n        /* \"#utility.yul\":18490:18491   */\n      0x00\n        /* \"#utility.yul\":18483:18498   */\n      revert\n        /* \"#utility.yul\":18510:18627   */\n    tag_192:\n        /* \"#utility.yul\":18619:18620   */\n      0x00\n        /* \"#utility.yul\":18616:18617   */\n      dup1\n        /* \"#utility.yul\":18609:18621   */\n      revert\n        /* \"#utility.yul\":18633:18750   */\n    tag_177:\n        /* \"#utility.yul\":18742:18743   */\n      0x00\n        /* \"#utility.yul\":18739:18740   */\n      dup1\n        /* \"#utility.yul\":18732:18744   */\n      revert\n        /* \"#utility.yul\":18756:18873   */\n    tag_208:\n        /* \"#utility.yul\":18865:18866   */\n      0x00\n        /* \"#utility.yul\":18862:18863   */\n      dup1\n        /* \"#utility.yul\":18855:18867   */\n      revert\n        /* \"#utility.yul\":18879:18996   */\n    tag_201:\n        /* \"#utility.yul\":18988:18989   */\n      0x00\n        /* \"#utility.yul\":18985:18986   */\n      dup1\n        /* \"#utility.yul\":18978:18990   */\n      revert\n        /* \"#utility.yul\":19002:19104   */\n    tag_241:\n        /* \"#utility.yul\":19043:19049   */\n      0x00\n        /* \"#utility.yul\":19094:19096   */\n      0x1f\n        /* \"#utility.yul\":19090:19097   */\n      not\n        /* \"#utility.yul\":19085:19087   */\n      0x1f\n        /* \"#utility.yul\":19078:19083   */\n      dup4\n        /* \"#utility.yul\":19074:19088   */\n      add\n        /* \"#utility.yul\":19070:19098   */\n      and\n        /* \"#utility.yul\":19060:19098   */\n      swap1\n      pop\n        /* \"#utility.yul\":19002:19104   */\n      swap2\n      swap1\n      pop\n      jump\t// out\n        /* \"#utility.yul\":19110:19331   */\n    tag_246:\n        /* \"#utility.yul\":19250:19284   */\n      0x596f75206d757374206265206120636f6e7472696275746f7220746f20766f74\n        /* \"#utility.yul\":19246:19247   */\n      0x00\n        /* \"#utility.yul\":19238:19244   */\n      dup3\n        /* \"#utility.yul\":19234:19248   */\n      add\n        /* \"#utility.yul\":19227:19285   */\n      mstore\n        /* \"#utility.yul\":19319:19323   */\n      0x6521000000000000000000000000000000000000000000000000000000000000\n        /* \"#utility.yul\":19314:19316   */\n      0x20\n        /* \"#utility.yul\":19306:19312   */\n      dup3\n        /* \"#utility.yul\":19302:19317   */\n      add\n        /* \"#utility.yul\":19295:19324   */\n      mstore\n        /* \"#utility.yul\":19110:19331   */\n      pop\n      jump\t// out\n        /* \"#utility.yul\":19337:19517   */\n    tag_251:\n        /* \"#utility.yul\":19477:19509   */\n      0x4f6e6c792061646d696e20697320616c6c6f77656420646f2074686973210000\n        /* \"#utility.yul\":19473:19474   */\n      0x00\n        /* \"#utility.yul\":19465:19471   */\n      dup3\n        /* \"#utility.yul\":19461:19475   */\n      add\n        /* \"#utility.yul\":19454:19510   */\n      mstore\n        /* \"#utility.yul\":19337:19517   */\n      pop\n      jump\t// out\n        /* \"#utility.yul\":19523:19702   */\n    tag_256:\n        /* \"#utility.yul\":19663:19694   */\n      0x4d696e696d756d20436f6e747269627574696f6e206e6f74206d657421000000\n        /* \"#utility.yul\":19659:19660   */\n      0x00\n        /* \"#utility.yul\":19651:19657   */\n      dup3\n        /* \"#utility.yul\":19647:19661   */\n      add\n        /* \"#utility.yul\":19640:19695   */\n      mstore\n        /* \"#utility.yul\":19523:19702   */\n      pop\n      jump\t// out\n        /* \"#utility.yul\":19708:19881   */\n    tag_261:\n        /* \"#utility.yul\":19848:19873   */\n      0x596f75206861766520616c726561647920766f74656421000000000000000000\n        /* \"#utility.yul\":19844:19845   */\n      0x00\n        /* \"#utility.yul\":19836:19842   */\n      dup3\n        /* \"#utility.yul\":19832:19846   */\n      add\n        /* \"#utility.yul\":19825:19874   */\n      mstore\n        /* \"#utility.yul\":19708:19881   */\n      pop\n      jump\t// out\n        /* \"#utility.yul\":19887:20054   */\n    tag_266:\n        /* \"#utility.yul\":20027:20046   */\n      0x476f616c206e6f74206d65742079657421000000000000000000000000000000\n        /* \"#utility.yul\":20023:20024   */\n      0x00\n        /* \"#utility.yul\":20015:20021   */\n      dup3\n        /* \"#utility.yul\":20011:20025   */\n      add\n        /* \"#utility.yul\":20004:20047   */\n      mstore\n        /* \"#utility.yul\":19887:20054   */\n      pop\n      jump\t// out\n        /* \"#utility.yul\":20060:20230   */\n    tag_271:\n        /* \"#utility.yul\":20200:20222   */\n      0x446561646c696e65206861732070617373656421000000000000000000000000\n        /* \"#utility.yul\":20196:20197   */\n      0x00\n        /* \"#utility.yul\":20188:20194   */\n      dup3\n        /* \"#utility.yul\":20184:20198   */\n      add\n        /* \"#utility.yul\":20177:20223   */\n      mstore\n        /* \"#utility.yul\":20060:20230   */\n      pop\n      jump\t// out\n        /* \"#utility.yul\":20236:20487   */\n    tag_276:\n        /* \"#utility.yul\":20376:20410   */\n      0x466f74756e6174656c6c792074686520676f616c20686173206265656e207265\n        /* \"#utility.yul\":20372:20373   */\n      0x00\n        /* \"#utility.yul\":20364:20370   */\n      dup3\n        /* \"#utility.yul\":20360:20374   */\n      add\n        /* \"#utility.yul\":20353:20411   */\n      mstore\n        /* \"#utility.yul\":20445:20479   */\n      0x61636865642e205468616e6b20796f7520666f7220646f696e6720676f6f6421\n        /* \"#utility.yul\":20440:20442   */\n      0x20\n        /* \"#utility.yul\":20432:20438   */\n      dup3\n        /* \"#utility.yul\":20428:20443   */\n      add\n        /* \"#utility.yul\":20421:20480   */\n      mstore\n        /* \"#utility.yul\":20236:20487   */\n      pop\n      jump\t// out\n        /* \"#utility.yul\":20493:20715   */\n    tag_281:\n        /* \"#utility.yul\":20633:20667   */\n      0x596f7520646f6e74206861766520616e797468696e6720746f20776974686472\n        /* \"#utility.yul\":20629:20630   */\n      0x00\n        /* \"#utility.yul\":20621:20627   */\n      dup3\n        /* \"#utility.yul\":20617:20631   */\n      add\n        /* \"#utility.yul\":20610:20668   */\n      mstore\n        /* \"#utility.yul\":20702:20707   */\n      0x6177210000000000000000000000000000000000000000000000000000000000\n        /* \"#utility.yul\":20697:20699   */\n      0x20\n        /* \"#utility.yul\":20689:20695   */\n      dup3\n        /* \"#utility.yul\":20685:20700   */\n      add\n        /* \"#utility.yul\":20678:20708   */\n      mstore\n        /* \"#utility.yul\":20493:20715   */\n      pop\n      jump\t// out\n        /* \"#utility.yul\":20721:20902   */\n    tag_286:\n        /* \"#utility.yul\":20861:20894   */\n      0x546865207265717565737420686173206265656e20636f6d706c657465642100\n        /* \"#utility.yul\":20857:20858   */\n      0x00\n        /* \"#utility.yul\":20849:20855   */\n      dup3\n        /* \"#utility.yul\":20845:20859   */\n      add\n        /* \"#utility.yul\":20838:20895   */\n      mstore\n        /* \"#utility.yul\":20721:20902   */\n      pop\n      jump\t// out\n        /* \"#utility.yul\":20908:21147   */\n    tag_291:\n        /* \"#utility.yul\":21048:21082   */\n      0x596f752063616e7420676574206120726566756e6420756e74696c2074686520\n        /* \"#utility.yul\":21044:21045   */\n      0x00\n        /* \"#utility.yul\":21036:21042   */\n      dup3\n        /* \"#utility.yul\":21032:21046   */\n      add\n        /* \"#utility.yul\":21025:21083   */\n      mstore\n        /* \"#utility.yul\":21117:21139   */\n      0x646561646c696e65206861732070617373656421000000000000000000000000\n        /* \"#utility.yul\":21112:21114   */\n      0x20\n        /* \"#utility.yul\":21104:21110   */\n      dup3\n        /* \"#utility.yul\":21100:21115   */\n      add\n        /* \"#utility.yul\":21093:21140   */\n      mstore\n        /* \"#utility.yul\":20908:21147   */\n      pop\n      jump\t// out\n        /* \"#utility.yul\":21153:21275   */\n    tag_183:\n        /* \"#utility.yul\":21226:21250   */\n      tag_416\n        /* \"#utility.yul\":21244:21249   */\n      dup2\n        /* \"#utility.yul\":21226:21250   */\n      tag_227\n      jump\t// in\n    tag_416:\n        /* \"#utility.yul\":21219:21224   */\n      dup2\n        /* \"#utility.yul\":21216:21251   */\n      eq\n        /* \"#utility.yul\":21206:21269   */\n      tag_417\n      jumpi\n        /* \"#utility.yul\":21265:21266   */\n      0x00\n        /* \"#utility.yul\":21262:21263   */\n      dup1\n        /* \"#utility.yul\":21255:21267   */\n      revert\n        /* \"#utility.yul\":21206:21269   */\n    tag_417:\n        /* \"#utility.yul\":21153:21275   */\n      pop\n      jump\t// out\n        /* \"#utility.yul\":21281:21419   */\n    tag_187:\n        /* \"#utility.yul\":21362:21394   */\n      tag_419\n        /* \"#utility.yul\":21388:21393   */\n      dup2\n        /* \"#utility.yul\":21362:21394   */\n      tag_223\n      jump\t// in\n    tag_419:\n        /* \"#utility.yul\":21355:21360   */\n      dup2\n        /* \"#utility.yul\":21352:21395   */\n      eq\n        /* \"#utility.yul\":21342:21413   */\n      tag_420\n      jumpi\n        /* \"#utility.yul\":21409:21410   */\n      0x00\n        /* \"#utility.yul\":21406:21407   */\n      dup1\n        /* \"#utility.yul\":21399:21411   */\n      revert\n        /* \"#utility.yul\":21342:21413   */\n    tag_420:\n        /* \"#utility.yul\":21281:21419   */\n      pop\n      jump\t// out\n        /* \"#utility.yul\":21425:21547   */\n    tag_197:\n        /* \"#utility.yul\":21498:21522   */\n      tag_422\n        /* \"#utility.yul\":21516:21521   */\n      dup2\n        /* \"#utility.yul\":21498:21522   */\n      tag_295\n      jump\t// in\n    tag_422:\n        /* \"#utility.yul\":21491:21496   */\n      dup2\n        /* \"#utility.yul\":21488:21523   */\n      eq\n        /* \"#utility.yul\":21478:21541   */\n      tag_423\n      jumpi\n        /* \"#utility.yul\":21537:21538   */\n      0x00\n        /* \"#utility.yul\":21534:21535   */\n      dup1\n        /* \"#utility.yul\":21527:21539   */\n      revert\n        /* \"#utility.yul\":21478:21541   */\n    tag_423:\n        /* \"#utility.yul\":21425:21547   */\n      pop\n      jump\t// out\n\n    auxdata: 0xa26469706673582212207d4bd46dde105f125567707a22a471cdf71a8806a20cec3f7eb46c5c127caf1e64736f6c63430008070033\n}\n",
				"bytecode": {
					"linkReferences": {},
					"object": "60806040523480156200001157600080fd5b5060405162001bac38038062001bac8339818101604052810190620000379190620000c0565b8160058190555080426200004c919062000107565b60048190555066038d7ea4c6800060038190555033600160006101000a81548173ffffffffffffffffffffffffffffffffffffffff021916908373ffffffffffffffffffffffffffffffffffffffff1602179055505050620001bc565b600081519050620000ba81620001a2565b92915050565b60008060408385031215620000da57620000d96200019d565b5b6000620000ea85828601620000a9565b9250506020620000fd85828601620000a9565b9150509250929050565b6000620001148262000164565b9150620001218362000164565b9250827fffffffffffffffffffffffffffffffffffffffffffffffffffffffffffffffff038211156200015957620001586200016e565b5b828201905092915050565b6000819050919050565b7f4e487b7100000000000000000000000000000000000000000000000000000000600052601160045260246000fd5b600080fd5b620001ad8162000164565b8114620001b957600080fd5b50565b6119e080620001cc6000396000f3fe6080604052600436106100ec5760003560e01c806381d12c581161008a578063c59ee1dc11610059578063c59ee1dc146102e7578063d7bb99ba14610312578063db01cf9c1461031c578063f851a44014610347576100fb565b806381d12c5814610239578063937e09b11461027a5780639fb42b1f146102a5578063b2d5ae44146102d0576100fb565b806329dcb0cf116100c657806329dcb0cf1461019157806340193883146101bc5780634cb6f4a5146101e75780635114cb5214610210576100fb565b806312065fe0146101005780631b16bb5c1461012b5780631f6d494214610154576100fb565b366100fb576100f9610372565b005b600080fd5b34801561010c57600080fd5b50610115610504565b60405161012291906113c0565b60405180910390f35b34801561013757600080fd5b50610152600480360381019061014d9190610efd565b61050c565b005b34801561016057600080fd5b5061017b60048036038101906101769190610ed0565b61069a565b60405161018891906113c0565b60405180910390f35b34801561019d57600080fd5b506101a66106b2565b6040516101b391906113c0565b60405180910390f35b3480156101c857600080fd5b506101d16106b8565b6040516101de91906113c0565b60405180910390f35b3480156101f357600080fd5b5061020e60048036038101906102099190610f6c565b6106be565b005b34801561021c57600080fd5b5061023760048036038101906102329190610f6c565b610863565b005b34801561024557600080fd5b50610260600480360381019061025b9190610f6c565b610ab7565b604051610271959493929190611226565b60405180910390f35b34801561028657600080fd5b5061028f610ba2565b60405161029c91906113c0565b60405180910390f35b3480156102b157600080fd5b506102ba610ba8565b6040516102c791906113c0565b60405180910390f35b3480156102dc57600080fd5b506102e5610bae565b005b3480156102f357600080fd5b506102fc610d4c565b60405161030991906113c0565b60405180910390f35b61031a610372565b005b34801561032857600080fd5b50610331610d52565b60405161033e91906113c0565b60405180910390f35b34801561035357600080fd5b5061035c610d58565b604051610369919061117b565b60405180910390f35b60045442106103b6576040517f08c379a00000000000000000000000000000000000000000000000000000000081526004016103ad90611320565b60405180910390fd5b6003543410156103fb576040517f08c379a00000000000000000000000000000000000000000000000000000000081526004016103f2906112c0565b60405180910390fd5b60008060003373ffffffffffffffffffffffffffffffffffffffff1673ffffffffffffffffffffffffffffffffffffffff16815260200190815260200160002054141561045b576002600081548092919061045590611609565b91905055505b346000803373ffffffffffffffffffffffffffffffffffffffff1673ffffffffffffffffffffffffffffffffffffffff16815260200190815260200160002060008282546104a9919061144d565b9250508190555034600660008282546104c2919061144d565b925050819055507f2daf61dec57a2c194e9e87958b1a40a5c236b5e8c6041655d664ddbd16c2932033346040516104fa9291906111bf565b60405180910390a1565b600047905090565b600160009054906101000a900473ffffffffffffffffffffffffffffffffffffffff1673ffffffffffffffffffffffffffffffffffffffff163373ffffffffffffffffffffffffffffffffffffffff161461059c576040517f08c379a0000000000000000000000000000000000000000000000000000000008152600401610593906112a0565b60405180910390fd5b60006007600060085481526020019081526020016000209050600860008154809291906105c890611609565b9190505550838160000190805190602001906105e5929190610d7e565b50828160010160006101000a81548173ffffffffffffffffffffffffffffffffffffffff021916908373ffffffffffffffffffffffffffffffffffffffff16021790555081816002018190555060008160030160006101000a81548160ff021916908315150217905550600081600401819055507f5392bd80651676ccaaedec1afbe841d47e369223df0ba1586110b6426ee87a3a84848460405161068c939291906111e8565b60405180910390a150505050565b60006020528060005260406000206000915090505481565b60045481565b60055481565b60008060003373ffffffffffffffffffffffffffffffffffffffff1673ffffffffffffffffffffffffffffffffffffffff168152602001908152602001600020541161073f576040517f08c379a000000000000000000000000000000000000000000000000000000000815260040161073690611280565b60405180910390fd5b6000600760008381526020019081526020016000209050600015158160050160003373ffffffffffffffffffffffffffffffffffffffff1673ffffffffffffffffffffffffffffffffffffffff16815260200190815260200160002060009054906101000a900460ff161515146107eb576040517f08c379a00000000000000000000000000000000000000000000000000000000081526004016107e2906112e0565b60405180910390fd5b60018160050160003373ffffffffffffffffffffffffffffffffffffffff1673ffffffffffffffffffffffffffffffffffffffff16815260200190815260200160002060006101000a81548160ff02191690831515021790555080600401600081548092919061085a90611609565b91905055505050565b600160009054906101000a900473ffffffffffffffffffffffffffffffffffffffff1673ffffffffffffffffffffffffffffffffffffffff163373ffffffffffffffffffffffffffffffffffffffff16146108f3576040517f08c379a00000000000000000000000000000000000000000000000000000000081526004016108ea906112a0565b60405180910390fd5b600554600654101561093a576040517f08c379a000000000000000000000000000000000000000000000000000000000815260040161093190611300565b60405180910390fd5b6000600760008381526020019081526020016000209050600015158160030160009054906101000a900460ff161515146109a9576040517f08c379a00000000000000000000000000000000000000000000000000000000081526004016109a090611380565b60405180910390fd5b600280546109b791906114a3565b8160040154116109c657600080fd5b8060010160009054906101000a900473ffffffffffffffffffffffffffffffffffffffff1673ffffffffffffffffffffffffffffffffffffffff166108fc82600201549081150290604051600060405180830381858888f19350505050158015610a34573d6000803e3d6000fd5b5060018160030160006101000a81548160ff0219169083151502179055507f0715c08af8333ee58cabb5b2e4ade14c57d76d11e3f1a67167d03f1d1c90c1328160010160009054906101000a900473ffffffffffffffffffffffffffffffffffffffff168260020154604051610aab929190611196565b60405180910390a15050565b6007602052806000526040600020600091509050806000018054610ada906115a6565b80601f0160208091040260200160405190810160405280929190818152602001828054610b06906115a6565b8015610b535780601f10610b2857610100808354040283529160200191610b53565b820191906000526020600020905b815481529060010190602001808311610b3657829003601f168201915b5050505050908060010160009054906101000a900473ffffffffffffffffffffffffffffffffffffffff16908060020154908060030160009054906101000a900460ff16908060040154905085565b60035481565b60085481565b6004544211610bf2576040517f08c379a0000000000000000000000000000000000000000000000000000000008152600401610be9906113a0565b60405180910390fd5b60055460065410610c38576040517f08c379a0000000000000000000000000000000000000000000000000000000008152600401610c2f90611340565b60405180910390fd5b60008060003373ffffffffffffffffffffffffffffffffffffffff1673ffffffffffffffffffffffffffffffffffffffff16815260200190815260200160002054905060008111610cbe576040517f08c379a0000000000000000000000000000000000000000000000000000000008152600401610cb590611360565b60405180910390fd5b3373ffffffffffffffffffffffffffffffffffffffff166108fc829081150290604051600060405180830381858888f19350505050158015610d04573d6000803e3d6000fd5b5060008060003373ffffffffffffffffffffffffffffffffffffffff1673ffffffffffffffffffffffffffffffffffffffff1681526020019081526020016000208190555050565b60065481565b60025481565b600160009054906101000a900473ffffffffffffffffffffffffffffffffffffffff1681565b828054610d8a906115a6565b90600052602060002090601f016020900481019282610dac5760008555610df3565b82601f10610dc557805160ff1916838001178555610df3565b82800160010185558215610df3579182015b82811115610df2578251825591602001919060010190610dd7565b5b509050610e009190610e04565b5090565b5b80821115610e1d576000816000905550600101610e05565b5090565b6000610e34610e2f84611400565b6113db565b905082815260208101848484011115610e5057610e4f611713565b5b610e5b848285611564565b509392505050565b600081359050610e7281611965565b92915050565b600081359050610e878161197c565b92915050565b600082601f830112610ea257610ea161170e565b5b8135610eb2848260208601610e21565b91505092915050565b600081359050610eca81611993565b92915050565b600060208284031215610ee657610ee561171d565b5b6000610ef484828501610e63565b91505092915050565b600080600060608486031215610f1657610f1561171d565b5b600084013567ffffffffffffffff811115610f3457610f33611718565b5b610f4086828701610e8d565b9350506020610f5186828701610e78565b9250506040610f6286828701610ebb565b9150509250925092565b600060208284031215610f8257610f8161171d565b5b6000610f9084828501610ebb565b91505092915050565b610fa28161152e565b82525050565b610fb1816114e6565b82525050565b610fc0816114d4565b82525050565b610fcf816114f8565b82525050565b6000610fe082611431565b610fea818561143c565b9350610ffa818560208601611573565b61100381611722565b840191505092915050565b600061101b60228361143c565b915061102682611733565b604082019050919050565b600061103e601e8361143c565b915061104982611782565b602082019050919050565b6000611061601d8361143c565b915061106c826117ab565b602082019050919050565b600061108460178361143c565b915061108f826117d4565b602082019050919050565b60006110a760118361143c565b91506110b2826117fd565b602082019050919050565b60006110ca60148361143c565b91506110d582611826565b602082019050919050565b60006110ed60408361143c565b91506110f88261184f565b604082019050919050565b600061111060238361143c565b915061111b8261189e565b604082019050919050565b6000611133601f8361143c565b915061113e826118ed565b602082019050919050565b600061115660348361143c565b915061116182611916565b604082019050919050565b61117581611524565b82525050565b60006020820190506111906000830184610fb7565b92915050565b60006040820190506111ab6000830185610f99565b6111b8602083018461116c565b9392505050565b60006040820190506111d46000830185610fb7565b6111e1602083018461116c565b9392505050565b600060608201905081810360008301526112028186610fd5565b90506112116020830185610f99565b61121e604083018461116c565b949350505050565b600060a08201905081810360008301526112408188610fd5565b905061124f6020830187610fa8565b61125c604083018661116c565b6112696060830185610fc6565b611276608083018461116c565b9695505050505050565b600060208201905081810360008301526112998161100e565b9050919050565b600060208201905081810360008301526112b981611031565b9050919050565b600060208201905081810360008301526112d981611054565b9050919050565b600060208201905081810360008301526112f981611077565b9050919050565b600060208201905081810360008301526113198161109a565b9050919050565b60006020820190508181036000830152611339816110bd565b9050919050565b60006020820190508181036000830152611359816110e0565b9050919050565b6000602082019050818103600083015261137981611103565b9050919050565b6000602082019050818103600083015261139981611126565b9050919050565b600060208201905081810360008301526113b981611149565b9050919050565b60006020820190506113d5600083018461116c565b92915050565b60006113e56113f6565b90506113f182826115d8565b919050565b6000604051905090565b600067ffffffffffffffff82111561141b5761141a6116df565b5b61142482611722565b9050602081019050919050565b600081519050919050565b600082825260208201905092915050565b600061145882611524565b915061146383611524565b9250827fffffffffffffffffffffffffffffffffffffffffffffffffffffffffffffffff0382111561149857611497611652565b5b828201905092915050565b60006114ae82611524565b91506114b983611524565b9250826114c9576114c8611681565b5b828204905092915050565b60006114df82611504565b9050919050565b60006114f182611504565b9050919050565b60008115159050919050565b600073ffffffffffffffffffffffffffffffffffffffff82169050919050565b6000819050919050565b600061153982611540565b9050919050565b600061154b82611552565b9050919050565b600061155d82611504565b9050919050565b82818337600083830152505050565b60005b83811015611591578082015181840152602081019050611576565b838111156115a0576000848401525b50505050565b600060028204905060018216806115be57607f821691505b602082108114156115d2576115d16116b0565b5b50919050565b6115e182611722565b810181811067ffffffffffffffff82111715611600576115ff6116df565b5b80604052505050565b600061161482611524565b91507fffffffffffffffffffffffffffffffffffffffffffffffffffffffffffffffff82141561164757611646611652565b5b600182019050919050565b7f4e487b7100000000000000000000000000000000000000000000000000000000600052601160045260246000fd5b7f4e487b7100000000000000000000000000000000000000000000000000000000600052601260045260246000fd5b7f4e487b7100000000000000000000000000000000000000000000000000000000600052602260045260246000fd5b7f4e487b7100000000000000000000000000000000000000000000000000000000600052604160045260246000fd5b600080fd5b600080fd5b600080fd5b600080fd5b6000601f19601f8301169050919050565b7f596f75206d757374206265206120636f6e7472696275746f7220746f20766f7460008201527f6521000000000000000000000000000000000000000000000000000000000000602082015250565b7f4f6e6c792061646d696e20697320616c6c6f77656420646f2074686973210000600082015250565b7f4d696e696d756d20436f6e747269627574696f6e206e6f74206d657421000000600082015250565b7f596f75206861766520616c726561647920766f74656421000000000000000000600082015250565b7f476f616c206e6f74206d65742079657421000000000000000000000000000000600082015250565b7f446561646c696e65206861732070617373656421000000000000000000000000600082015250565b7f466f74756e6174656c6c792074686520676f616c20686173206265656e20726560008201527f61636865642e205468616e6b20796f7520666f7220646f696e6720676f6f6421602082015250565b7f596f7520646f6e74206861766520616e797468696e6720746f2077697468647260008201527f6177210000000000000000000000000000000000000000000000000000000000602082015250565b7f546865207265717565737420686173206265656e20636f6d706c657465642100600082015250565b7f596f752063616e7420676574206120726566756e6420756e74696c207468652060008201527f646561646c696e65206861732070617373656421000000000000000000000000602082015250565b61196e816114d4565b811461197957600080fd5b50565b611985816114e6565b811461199057600080fd5b50565b61199c81611524565b81146119a757600080fd5b5056fea26469706673582212207d4bd46dde105f125567707a22a471cdf71a8806a20cec3f7eb46c5c127caf1e64736f6c63430008070033",
					"opcodes": "PUSH1 0x80 PUSH1 0x40 MSTORE CALLVALUE DUP1 ISZERO PUSH3 0x11 JUMPI PUSH1 0x0 DUP1 REVERT JUMPDEST POP PUSH1 0x40 MLOAD PUSH3 0x1BAC CODESIZE SUB DUP1 PUSH3 0x1BAC DUP4 CODECOPY DUP2 DUP2 ADD PUSH1 0x40 MSTORE DUP2 ADD SWAP1 PUSH3 0x37 SWAP2 SWAP1 PUSH3 0xC0 JUMP JUMPDEST DUP2 PUSH1 0x5 DUP2 SWAP1 SSTORE POP DUP1 TIMESTAMP PUSH3 0x4C SWAP2 SWAP1 PUSH3 0x107 JUMP JUMPDEST PUSH1 0x4 DUP2 SWAP1 SSTORE POP PUSH7 0x38D7EA4C68000 PUSH1 0x3 DUP2 SWAP1 SSTORE POP CALLER PUSH1 0x1 PUSH1 0x0 PUSH2 0x100 EXP DUP2 SLOAD DUP2 PUSH20 0xFFFFFFFFFFFFFFFFFFFFFFFFFFFFFFFFFFFFFFFF MUL NOT AND SWAP1 DUP4 PUSH20 0xFFFFFFFFFFFFFFFFFFFFFFFFFFFFFFFFFFFFFFFF AND MUL OR SWAP1 SSTORE POP POP POP PUSH3 0x1BC JUMP JUMPDEST PUSH1 0x0 DUP2 MLOAD SWAP1 POP PUSH3 0xBA DUP2 PUSH3 0x1A2 JUMP JUMPDEST SWAP3 SWAP2 POP POP JUMP JUMPDEST PUSH1 0x0 DUP1 PUSH1 0x40 DUP4 DUP6 SUB SLT ISZERO PUSH3 0xDA JUMPI PUSH3 0xD9 PUSH3 0x19D JUMP JUMPDEST JUMPDEST PUSH1 0x0 PUSH3 0xEA DUP6 DUP3 DUP7 ADD PUSH3 0xA9 JUMP JUMPDEST SWAP3 POP POP PUSH1 0x20 PUSH3 0xFD DUP6 DUP3 DUP7 ADD PUSH3 0xA9 JUMP JUMPDEST SWAP2 POP POP SWAP3 POP SWAP3 SWAP1 POP JUMP JUMPDEST PUSH1 0x0 PUSH3 0x114 DUP3 PUSH3 0x164 JUMP JUMPDEST SWAP2 POP PUSH3 0x121 DUP4 PUSH3 0x164 JUMP JUMPDEST SWAP3 POP DUP3 PUSH32 0xFFFFFFFFFFFFFFFFFFFFFFFFFFFFFFFFFFFFFFFFFFFFFFFFFFFFFFFFFFFFFFFF SUB DUP3 GT ISZERO PUSH3 0x159 JUMPI PUSH3 0x158 PUSH3 0x16E JUMP JUMPDEST JUMPDEST DUP3 DUP3 ADD SWAP1 POP SWAP3 SWAP2 POP POP JUMP JUMPDEST PUSH1 0x0 DUP2 SWAP1 POP SWAP2 SWAP1 POP JUMP JUMPDEST PUSH32 0x4E487B7100000000000000000000000000000000000000000000000000000000 PUSH1 0x0 MSTORE PUSH1 0x11 PUSH1 0x4 MSTORE PUSH1 0x24 PUSH1 0x0 REVERT JUMPDEST PUSH1 0x0 DUP1 REVERT JUMPDEST PUSH3 0x1AD DUP2 PUSH3 0x164 JUMP JUMPDEST DUP2 EQ PUSH3 0x1B9 JUMPI PUSH1 0x0 DUP1 REVERT JUMPDEST POP JUMP JUMPDEST PUSH2 0x19E0 DUP1 PUSH3 0x1CC PUSH1 0x0 CODECOPY PUSH1 0x0 RETURN INVALID PUSH1 0x80 PUSH1 0x40 MSTORE PUSH1 0x4 CALLDATASIZE LT PUSH2 0xEC JUMPI PUSH1 0x0 CALLDATALOAD PUSH1 0xE0 SHR DUP1 PUSH4 0x81D12C58 GT PUSH2 0x8A JUMPI DUP1 PUSH4 0xC59EE1DC GT PUSH2 0x59 JUMPI DUP1 PUSH4 0xC59EE1DC EQ PUSH2 0x2E7 JUMPI DUP1 PUSH4 0xD7BB99BA EQ PUSH2 0x312 JUMPI DUP1 PUSH4 0xDB01CF9C EQ PUSH2 0x31C JUMPI DUP1 PUSH4 0xF851A440 EQ PUSH2 0x347 JUMPI PUSH2 0xFB JUMP JUMPDEST DUP1 PUSH4 0x81D12C58 EQ PUSH2 0x239 JUMPI DUP1 PUSH4 0x937E09B1 EQ PUSH2 0x27A JUMPI DUP1 PUSH4 0x9FB42B1F EQ PUSH2 0x2A5 JUMPI DUP1 PUSH4 0xB2D5AE44 EQ PUSH2 0x2D0 JUMPI PUSH2 0xFB JUMP JUMPDEST DUP1 PUSH4 0x29DCB0CF GT PUSH2 0xC6 JUMPI DUP1 PUSH4 0x29DCB0CF EQ PUSH2 0x191 JUMPI DUP1 PUSH4 0x40193883 EQ PUSH2 0x1BC JUMPI DUP1 PUSH4 0x4CB6F4A5 EQ PUSH2 0x1E7 JUMPI DUP1 PUSH4 0x5114CB52 EQ PUSH2 0x210 JUMPI PUSH2 0xFB JUMP JUMPDEST DUP1 PUSH4 0x12065FE0 EQ PUSH2 0x100 JUMPI DUP1 PUSH4 0x1B16BB5C EQ PUSH2 0x12B JUMPI DUP1 PUSH4 0x1F6D4942 EQ PUSH2 0x154 JUMPI PUSH2 0xFB JUMP JUMPDEST CALLDATASIZE PUSH2 0xFB JUMPI PUSH2 0xF9 PUSH2 0x372 JUMP JUMPDEST STOP JUMPDEST PUSH1 0x0 DUP1 REVERT JUMPDEST CALLVALUE DUP1 ISZERO PUSH2 0x10C JUMPI PUSH1 0x0 DUP1 REVERT JUMPDEST POP PUSH2 0x115 PUSH2 0x504 JUMP JUMPDEST PUSH1 0x40 MLOAD PUSH2 0x122 SWAP2 SWAP1 PUSH2 0x13C0 JUMP JUMPDEST PUSH1 0x40 MLOAD DUP1 SWAP2 SUB SWAP1 RETURN JUMPDEST CALLVALUE DUP1 ISZERO PUSH2 0x137 JUMPI PUSH1 0x0 DUP1 REVERT JUMPDEST POP PUSH2 0x152 PUSH1 0x4 DUP1 CALLDATASIZE SUB DUP2 ADD SWAP1 PUSH2 0x14D SWAP2 SWAP1 PUSH2 0xEFD JUMP JUMPDEST PUSH2 0x50C JUMP JUMPDEST STOP JUMPDEST CALLVALUE DUP1 ISZERO PUSH2 0x160 JUMPI PUSH1 0x0 DUP1 REVERT JUMPDEST POP PUSH2 0x17B PUSH1 0x4 DUP1 CALLDATASIZE SUB DUP2 ADD SWAP1 PUSH2 0x176 SWAP2 SWAP1 PUSH2 0xED0 JUMP JUMPDEST PUSH2 0x69A JUMP JUMPDEST PUSH1 0x40 MLOAD PUSH2 0x188 SWAP2 SWAP1 PUSH2 0x13C0 JUMP JUMPDEST PUSH1 0x40 MLOAD DUP1 SWAP2 SUB SWAP1 RETURN JUMPDEST CALLVALUE DUP1 ISZERO PUSH2 0x19D JUMPI PUSH1 0x0 DUP1 REVERT JUMPDEST POP PUSH2 0x1A6 PUSH2 0x6B2 JUMP JUMPDEST PUSH1 0x40 MLOAD PUSH2 0x1B3 SWAP2 SWAP1 PUSH2 0x13C0 JUMP JUMPDEST PUSH1 0x40 MLOAD DUP1 SWAP2 SUB SWAP1 RETURN JUMPDEST CALLVALUE DUP1 ISZERO PUSH2 0x1C8 JUMPI PUSH1 0x0 DUP1 REVERT JUMPDEST POP PUSH2 0x1D1 PUSH2 0x6B8 JUMP JUMPDEST PUSH1 0x40 MLOAD PUSH2 0x1DE SWAP2 SWAP1 PUSH2 0x13C0 JUMP JUMPDEST PUSH1 0x40 MLOAD DUP1 SWAP2 SUB SWAP1 RETURN JUMPDEST CALLVALUE DUP1 ISZERO PUSH2 0x1F3 JUMPI PUSH1 0x0 DUP1 REVERT JUMPDEST POP PUSH2 0x20E PUSH1 0x4 DUP1 CALLDATASIZE SUB DUP2 ADD SWAP1 PUSH2 0x209 SWAP2 SWAP1 PUSH2 0xF6C JUMP JUMPDEST PUSH2 0x6BE JUMP JUMPDEST STOP JUMPDEST CALLVALUE DUP1 ISZERO PUSH2 0x21C JUMPI PUSH1 0x0 DUP1 REVERT JUMPDEST POP PUSH2 0x237 PUSH1 0x4 DUP1 CALLDATASIZE SUB DUP2 ADD SWAP1 PUSH2 0x232 SWAP2 SWAP1 PUSH2 0xF6C JUMP JUMPDEST PUSH2 0x863 JUMP JUMPDEST STOP JUMPDEST CALLVALUE DUP1 ISZERO PUSH2 0x245 JUMPI PUSH1 0x0 DUP1 REVERT JUMPDEST POP PUSH2 0x260 PUSH1 0x4 DUP1 CALLDATASIZE SUB DUP2 ADD SWAP1 PUSH2 0x25B SWAP2 SWAP1 PUSH2 0xF6C JUMP JUMPDEST PUSH2 0xAB7 JUMP JUMPDEST PUSH1 0x40 MLOAD PUSH2 0x271 SWAP6 SWAP5 SWAP4 SWAP3 SWAP2 SWAP1 PUSH2 0x1226 JUMP JUMPDEST PUSH1 0x40 MLOAD DUP1 SWAP2 SUB SWAP1 RETURN JUMPDEST CALLVALUE DUP1 ISZERO PUSH2 0x286 JUMPI PUSH1 0x0 DUP1 REVERT JUMPDEST POP PUSH2 0x28F PUSH2 0xBA2 JUMP JUMPDEST PUSH1 0x40 MLOAD PUSH2 0x29C SWAP2 SWAP1 PUSH2 0x13C0 JUMP JUMPDEST PUSH1 0x40 MLOAD DUP1 SWAP2 SUB SWAP1 RETURN JUMPDEST CALLVALUE DUP1 ISZERO PUSH2 0x2B1 JUMPI PUSH1 0x0 DUP1 REVERT JUMPDEST POP PUSH2 0x2BA PUSH2 0xBA8 JUMP JUMPDEST PUSH1 0x40 MLOAD PUSH2 0x2C7 SWAP2 SWAP1 PUSH2 0x13C0 JUMP JUMPDEST PUSH1 0x40 MLOAD DUP1 SWAP2 SUB SWAP1 RETURN JUMPDEST CALLVALUE DUP1 ISZERO PUSH2 0x2DC JUMPI PUSH1 0x0 DUP1 REVERT JUMPDEST POP PUSH2 0x2E5 PUSH2 0xBAE JUMP JUMPDEST STOP JUMPDEST CALLVALUE DUP1 ISZERO PUSH2 0x2F3 JUMPI PUSH1 0x0 DUP1 REVERT JUMPDEST POP PUSH2 0x2FC PUSH2 0xD4C JUMP JUMPDEST PUSH1 0x40 MLOAD PUSH2 0x309 SWAP2 SWAP1 PUSH2 0x13C0 JUMP JUMPDEST PUSH1 0x40 MLOAD DUP1 SWAP2 SUB SWAP1 RETURN JUMPDEST PUSH2 0x31A PUSH2 0x372 JUMP JUMPDEST STOP JUMPDEST CALLVALUE DUP1 ISZERO PUSH2 0x328 JUMPI PUSH1 0x0 DUP1 REVERT JUMPDEST POP PUSH2 0x331 PUSH2 0xD52 JUMP JUMPDEST PUSH1 0x40 MLOAD PUSH2 0x33E SWAP2 SWAP1 PUSH2 0x13C0 JUMP JUMPDEST PUSH1 0x40 MLOAD DUP1 SWAP2 SUB SWAP1 RETURN JUMPDEST CALLVALUE DUP1 ISZERO PUSH2 0x353 JUMPI PUSH1 0x0 DUP1 REVERT JUMPDEST POP PUSH2 0x35C PUSH2 0xD58 JUMP JUMPDEST PUSH1 0x40 MLOAD PUSH2 0x369 SWAP2 SWAP1 PUSH2 0x117B JUMP JUMPDEST PUSH1 0x40 MLOAD DUP1 SWAP2 SUB SWAP1 RETURN JUMPDEST PUSH1 0x4 SLOAD TIMESTAMP LT PUSH2 0x3B6 JUMPI PUSH1 0x40 MLOAD PUSH32 0x8C379A000000000000000000000000000000000000000000000000000000000 DUP2 MSTORE PUSH1 0x4 ADD PUSH2 0x3AD SWAP1 PUSH2 0x1320 JUMP JUMPDEST PUSH1 0x40 MLOAD DUP1 SWAP2 SUB SWAP1 REVERT JUMPDEST PUSH1 0x3 SLOAD CALLVALUE LT ISZERO PUSH2 0x3FB JUMPI PUSH1 0x40 MLOAD PUSH32 0x8C379A000000000000000000000000000000000000000000000000000000000 DUP2 MSTORE PUSH1 0x4 ADD PUSH2 0x3F2 SWAP1 PUSH2 0x12C0 JUMP JUMPDEST PUSH1 0x40 MLOAD DUP1 SWAP2 SUB SWAP1 REVERT JUMPDEST PUSH1 0x0 DUP1 PUSH1 0x0 CALLER PUSH20 0xFFFFFFFFFFFFFFFFFFFFFFFFFFFFFFFFFFFFFFFF AND PUSH20 0xFFFFFFFFFFFFFFFFFFFFFFFFFFFFFFFFFFFFFFFF AND DUP2 MSTORE PUSH1 0x20 ADD SWAP1 DUP2 MSTORE PUSH1 0x20 ADD PUSH1 0x0 KECCAK256 SLOAD EQ ISZERO PUSH2 0x45B JUMPI PUSH1 0x2 PUSH1 0x0 DUP2 SLOAD DUP1 SWAP3 SWAP2 SWAP1 PUSH2 0x455 SWAP1 PUSH2 0x1609 JUMP JUMPDEST SWAP2 SWAP1 POP SSTORE POP JUMPDEST CALLVALUE PUSH1 0x0 DUP1 CALLER PUSH20 0xFFFFFFFFFFFFFFFFFFFFFFFFFFFFFFFFFFFFFFFF AND PUSH20 0xFFFFFFFFFFFFFFFFFFFFFFFFFFFFFFFFFFFFFFFF AND DUP2 MSTORE PUSH1 0x20 ADD SWAP1 DUP2 MSTORE PUSH1 0x20 ADD PUSH1 0x0 KECCAK256 PUSH1 0x0 DUP3 DUP3 SLOAD PUSH2 0x4A9 SWAP2 SWAP1 PUSH2 0x144D JUMP JUMPDEST SWAP3 POP POP DUP2 SWAP1 SSTORE POP CALLVALUE PUSH1 0x6 PUSH1 0x0 DUP3 DUP3 SLOAD PUSH2 0x4C2 SWAP2 SWAP1 PUSH2 0x144D JUMP JUMPDEST SWAP3 POP POP DUP2 SWAP1 SSTORE POP PUSH32 0x2DAF61DEC57A2C194E9E87958B1A40A5C236B5E8C6041655D664DDBD16C29320 CALLER CALLVALUE PUSH1 0x40 MLOAD PUSH2 0x4FA SWAP3 SWAP2 SWAP1 PUSH2 0x11BF JUMP JUMPDEST PUSH1 0x40 MLOAD DUP1 SWAP2 SUB SWAP1 LOG1 JUMP JUMPDEST PUSH1 0x0 SELFBALANCE SWAP1 POP SWAP1 JUMP JUMPDEST PUSH1 0x1 PUSH1 0x0 SWAP1 SLOAD SWAP1 PUSH2 0x100 EXP SWAP1 DIV PUSH20 0xFFFFFFFFFFFFFFFFFFFFFFFFFFFFFFFFFFFFFFFF AND PUSH20 0xFFFFFFFFFFFFFFFFFFFFFFFFFFFFFFFFFFFFFFFF AND CALLER PUSH20 0xFFFFFFFFFFFFFFFFFFFFFFFFFFFFFFFFFFFFFFFF AND EQ PUSH2 0x59C JUMPI PUSH1 0x40 MLOAD PUSH32 0x8C379A000000000000000000000000000000000000000000000000000000000 DUP2 MSTORE PUSH1 0x4 ADD PUSH2 0x593 SWAP1 PUSH2 0x12A0 JUMP JUMPDEST PUSH1 0x40 MLOAD DUP1 SWAP2 SUB SWAP1 REVERT JUMPDEST PUSH1 0x0 PUSH1 0x7 PUSH1 0x0 PUSH1 0x8 SLOAD DUP2 MSTORE PUSH1 0x20 ADD SWAP1 DUP2 MSTORE PUSH1 0x20 ADD PUSH1 0x0 KECCAK256 SWAP1 POP PUSH1 0x8 PUSH1 0x0 DUP2 SLOAD DUP1 SWAP3 SWAP2 SWAP1 PUSH2 0x5C8 SWAP1 PUSH2 0x1609 JUMP JUMPDEST SWAP2 SWAP1 POP SSTORE POP DUP4 DUP2 PUSH1 0x0 ADD SWAP1 DUP1 MLOAD SWAP1 PUSH1 0x20 ADD SWAP1 PUSH2 0x5E5 SWAP3 SWAP2 SWAP1 PUSH2 0xD7E JUMP JUMPDEST POP DUP3 DUP2 PUSH1 0x1 ADD PUSH1 0x0 PUSH2 0x100 EXP DUP2 SLOAD DUP2 PUSH20 0xFFFFFFFFFFFFFFFFFFFFFFFFFFFFFFFFFFFFFFFF MUL NOT AND SWAP1 DUP4 PUSH20 0xFFFFFFFFFFFFFFFFFFFFFFFFFFFFFFFFFFFFFFFF AND MUL OR SWAP1 SSTORE POP DUP2 DUP2 PUSH1 0x2 ADD DUP2 SWAP1 SSTORE POP PUSH1 0x0 DUP2 PUSH1 0x3 ADD PUSH1 0x0 PUSH2 0x100 EXP DUP2 SLOAD DUP2 PUSH1 0xFF MUL NOT AND SWAP1 DUP4 ISZERO ISZERO MUL OR SWAP1 SSTORE POP PUSH1 0x0 DUP2 PUSH1 0x4 ADD DUP2 SWAP1 SSTORE POP PUSH32 0x5392BD80651676CCAAEDEC1AFBE841D47E369223DF0BA1586110B6426EE87A3A DUP5 DUP5 DUP5 PUSH1 0x40 MLOAD PUSH2 0x68C SWAP4 SWAP3 SWAP2 SWAP1 PUSH2 0x11E8 JUMP JUMPDEST PUSH1 0x40 MLOAD DUP1 SWAP2 SUB SWAP1 LOG1 POP POP POP POP JUMP JUMPDEST PUSH1 0x0 PUSH1 0x20 MSTORE DUP1 PUSH1 0x0 MSTORE PUSH1 0x40 PUSH1 0x0 KECCAK256 PUSH1 0x0 SWAP2 POP SWAP1 POP SLOAD DUP2 JUMP JUMPDEST PUSH1 0x4 SLOAD DUP2 JUMP JUMPDEST PUSH1 0x5 SLOAD DUP2 JUMP JUMPDEST PUSH1 0x0 DUP1 PUSH1 0x0 CALLER PUSH20 0xFFFFFFFFFFFFFFFFFFFFFFFFFFFFFFFFFFFFFFFF AND PUSH20 0xFFFFFFFFFFFFFFFFFFFFFFFFFFFFFFFFFFFFFFFF AND DUP2 MSTORE PUSH1 0x20 ADD SWAP1 DUP2 MSTORE PUSH1 0x20 ADD PUSH1 0x0 KECCAK256 SLOAD GT PUSH2 0x73F JUMPI PUSH1 0x40 MLOAD PUSH32 0x8C379A000000000000000000000000000000000000000000000000000000000 DUP2 MSTORE PUSH1 0x4 ADD PUSH2 0x736 SWAP1 PUSH2 0x1280 JUMP JUMPDEST PUSH1 0x40 MLOAD DUP1 SWAP2 SUB SWAP1 REVERT JUMPDEST PUSH1 0x0 PUSH1 0x7 PUSH1 0x0 DUP4 DUP2 MSTORE PUSH1 0x20 ADD SWAP1 DUP2 MSTORE PUSH1 0x20 ADD PUSH1 0x0 KECCAK256 SWAP1 POP PUSH1 0x0 ISZERO ISZERO DUP2 PUSH1 0x5 ADD PUSH1 0x0 CALLER PUSH20 0xFFFFFFFFFFFFFFFFFFFFFFFFFFFFFFFFFFFFFFFF AND PUSH20 0xFFFFFFFFFFFFFFFFFFFFFFFFFFFFFFFFFFFFFFFF AND DUP2 MSTORE PUSH1 0x20 ADD SWAP1 DUP2 MSTORE PUSH1 0x20 ADD PUSH1 0x0 KECCAK256 PUSH1 0x0 SWAP1 SLOAD SWAP1 PUSH2 0x100 EXP SWAP1 DIV PUSH1 0xFF AND ISZERO ISZERO EQ PUSH2 0x7EB JUMPI PUSH1 0x40 MLOAD PUSH32 0x8C379A000000000000000000000000000000000000000000000000000000000 DUP2 MSTORE PUSH1 0x4 ADD PUSH2 0x7E2 SWAP1 PUSH2 0x12E0 JUMP JUMPDEST PUSH1 0x40 MLOAD DUP1 SWAP2 SUB SWAP1 REVERT JUMPDEST PUSH1 0x1 DUP2 PUSH1 0x5 ADD PUSH1 0x0 CALLER PUSH20 0xFFFFFFFFFFFFFFFFFFFFFFFFFFFFFFFFFFFFFFFF AND PUSH20 0xFFFFFFFFFFFFFFFFFFFFFFFFFFFFFFFFFFFFFFFF AND DUP2 MSTORE PUSH1 0x20 ADD SWAP1 DUP2 MSTORE PUSH1 0x20 ADD PUSH1 0x0 KECCAK256 PUSH1 0x0 PUSH2 0x100 EXP DUP2 SLOAD DUP2 PUSH1 0xFF MUL NOT AND SWAP1 DUP4 ISZERO ISZERO MUL OR SWAP1 SSTORE POP DUP1 PUSH1 0x4 ADD PUSH1 0x0 DUP2 SLOAD DUP1 SWAP3 SWAP2 SWAP1 PUSH2 0x85A SWAP1 PUSH2 0x1609 JUMP JUMPDEST SWAP2 SWAP1 POP SSTORE POP POP POP JUMP JUMPDEST PUSH1 0x1 PUSH1 0x0 SWAP1 SLOAD SWAP1 PUSH2 0x100 EXP SWAP1 DIV PUSH20 0xFFFFFFFFFFFFFFFFFFFFFFFFFFFFFFFFFFFFFFFF AND PUSH20 0xFFFFFFFFFFFFFFFFFFFFFFFFFFFFFFFFFFFFFFFF AND CALLER PUSH20 0xFFFFFFFFFFFFFFFFFFFFFFFFFFFFFFFFFFFFFFFF AND EQ PUSH2 0x8F3 JUMPI PUSH1 0x40 MLOAD PUSH32 0x8C379A000000000000000000000000000000000000000000000000000000000 DUP2 MSTORE PUSH1 0x4 ADD PUSH2 0x8EA SWAP1 PUSH2 0x12A0 JUMP JUMPDEST PUSH1 0x40 MLOAD DUP1 SWAP2 SUB SWAP1 REVERT JUMPDEST PUSH1 0x5 SLOAD PUSH1 0x6 SLOAD LT ISZERO PUSH2 0x93A JUMPI PUSH1 0x40 MLOAD PUSH32 0x8C379A000000000000000000000000000000000000000000000000000000000 DUP2 MSTORE PUSH1 0x4 ADD PUSH2 0x931 SWAP1 PUSH2 0x1300 JUMP JUMPDEST PUSH1 0x40 MLOAD DUP1 SWAP2 SUB SWAP1 REVERT JUMPDEST PUSH1 0x0 PUSH1 0x7 PUSH1 0x0 DUP4 DUP2 MSTORE PUSH1 0x20 ADD SWAP1 DUP2 MSTORE PUSH1 0x20 ADD PUSH1 0x0 KECCAK256 SWAP1 POP PUSH1 0x0 ISZERO ISZERO DUP2 PUSH1 0x3 ADD PUSH1 0x0 SWAP1 SLOAD SWAP1 PUSH2 0x100 EXP SWAP1 DIV PUSH1 0xFF AND ISZERO ISZERO EQ PUSH2 0x9A9 JUMPI PUSH1 0x40 MLOAD PUSH32 0x8C379A000000000000000000000000000000000000000000000000000000000 DUP2 MSTORE PUSH1 0x4 ADD PUSH2 0x9A0 SWAP1 PUSH2 0x1380 JUMP JUMPDEST PUSH1 0x40 MLOAD DUP1 SWAP2 SUB SWAP1 REVERT JUMPDEST PUSH1 0x2 DUP1 SLOAD PUSH2 0x9B7 SWAP2 SWAP1 PUSH2 0x14A3 JUMP JUMPDEST DUP2 PUSH1 0x4 ADD SLOAD GT PUSH2 0x9C6 JUMPI PUSH1 0x0 DUP1 REVERT JUMPDEST DUP1 PUSH1 0x1 ADD PUSH1 0x0 SWAP1 SLOAD SWAP1 PUSH2 0x100 EXP SWAP1 DIV PUSH20 0xFFFFFFFFFFFFFFFFFFFFFFFFFFFFFFFFFFFFFFFF AND PUSH20 0xFFFFFFFFFFFFFFFFFFFFFFFFFFFFFFFFFFFFFFFF AND PUSH2 0x8FC DUP3 PUSH1 0x2 ADD SLOAD SWAP1 DUP2 ISZERO MUL SWAP1 PUSH1 0x40 MLOAD PUSH1 0x0 PUSH1 0x40 MLOAD DUP1 DUP4 SUB DUP2 DUP6 DUP9 DUP9 CALL SWAP4 POP POP POP POP ISZERO DUP1 ISZERO PUSH2 0xA34 JUMPI RETURNDATASIZE PUSH1 0x0 DUP1 RETURNDATACOPY RETURNDATASIZE PUSH1 0x0 REVERT JUMPDEST POP PUSH1 0x1 DUP2 PUSH1 0x3 ADD PUSH1 0x0 PUSH2 0x100 EXP DUP2 SLOAD DUP2 PUSH1 0xFF MUL NOT AND SWAP1 DUP4 ISZERO ISZERO MUL OR SWAP1 SSTORE POP PUSH32 0x715C08AF8333EE58CABB5B2E4ADE14C57D76D11E3F1A67167D03F1D1C90C132 DUP2 PUSH1 0x1 ADD PUSH1 0x0 SWAP1 SLOAD SWAP1 PUSH2 0x100 EXP SWAP1 DIV PUSH20 0xFFFFFFFFFFFFFFFFFFFFFFFFFFFFFFFFFFFFFFFF AND DUP3 PUSH1 0x2 ADD SLOAD PUSH1 0x40 MLOAD PUSH2 0xAAB SWAP3 SWAP2 SWAP1 PUSH2 0x1196 JUMP JUMPDEST PUSH1 0x40 MLOAD DUP1 SWAP2 SUB SWAP1 LOG1 POP POP JUMP JUMPDEST PUSH1 0x7 PUSH1 0x20 MSTORE DUP1 PUSH1 0x0 MSTORE PUSH1 0x40 PUSH1 0x0 KECCAK256 PUSH1 0x0 SWAP2 POP SWAP1 POP DUP1 PUSH1 0x0 ADD DUP1 SLOAD PUSH2 0xADA SWAP1 PUSH2 0x15A6 JUMP JUMPDEST DUP1 PUSH1 0x1F ADD PUSH1 0x20 DUP1 SWAP2 DIV MUL PUSH1 0x20 ADD PUSH1 0x40 MLOAD SWAP1 DUP2 ADD PUSH1 0x40 MSTORE DUP1 SWAP3 SWAP2 SWAP1 DUP2 DUP2 MSTORE PUSH1 0x20 ADD DUP3 DUP1 SLOAD PUSH2 0xB06 SWAP1 PUSH2 0x15A6 JUMP JUMPDEST DUP1 ISZERO PUSH2 0xB53 JUMPI DUP1 PUSH1 0x1F LT PUSH2 0xB28 JUMPI PUSH2 0x100 DUP1 DUP4 SLOAD DIV MUL DUP4 MSTORE SWAP2 PUSH1 0x20 ADD SWAP2 PUSH2 0xB53 JUMP JUMPDEST DUP3 ADD SWAP2 SWAP1 PUSH1 0x0 MSTORE PUSH1 0x20 PUSH1 0x0 KECCAK256 SWAP1 JUMPDEST DUP2 SLOAD DUP2 MSTORE SWAP1 PUSH1 0x1 ADD SWAP1 PUSH1 0x20 ADD DUP1 DUP4 GT PUSH2 0xB36 JUMPI DUP3 SWAP1 SUB PUSH1 0x1F AND DUP3 ADD SWAP2 JUMPDEST POP POP POP POP POP SWAP1 DUP1 PUSH1 0x1 ADD PUSH1 0x0 SWAP1 SLOAD SWAP1 PUSH2 0x100 EXP SWAP1 DIV PUSH20 0xFFFFFFFFFFFFFFFFFFFFFFFFFFFFFFFFFFFFFFFF AND SWAP1 DUP1 PUSH1 0x2 ADD SLOAD SWAP1 DUP1 PUSH1 0x3 ADD PUSH1 0x0 SWAP1 SLOAD SWAP1 PUSH2 0x100 EXP SWAP1 DIV PUSH1 0xFF AND SWAP1 DUP1 PUSH1 0x4 ADD SLOAD SWAP1 POP DUP6 JUMP JUMPDEST PUSH1 0x3 SLOAD DUP2 JUMP JUMPDEST PUSH1 0x8 SLOAD DUP2 JUMP JUMPDEST PUSH1 0x4 SLOAD TIMESTAMP GT PUSH2 0xBF2 JUMPI PUSH1 0x40 MLOAD PUSH32 0x8C379A000000000000000000000000000000000000000000000000000000000 DUP2 MSTORE PUSH1 0x4 ADD PUSH2 0xBE9 SWAP1 PUSH2 0x13A0 JUMP JUMPDEST PUSH1 0x40 MLOAD DUP1 SWAP2 SUB SWAP1 REVERT JUMPDEST PUSH1 0x5 SLOAD PUSH1 0x6 SLOAD LT PUSH2 0xC38 JUMPI PUSH1 0x40 MLOAD PUSH32 0x8C379A000000000000000000000000000000000000000000000000000000000 DUP2 MSTORE PUSH1 0x4 ADD PUSH2 0xC2F SWAP1 PUSH2 0x1340 JUMP JUMPDEST PUSH1 0x40 MLOAD DUP1 SWAP2 SUB SWAP1 REVERT JUMPDEST PUSH1 0x0 DUP1 PUSH1 0x0 CALLER PUSH20 0xFFFFFFFFFFFFFFFFFFFFFFFFFFFFFFFFFFFFFFFF AND PUSH20 0xFFFFFFFFFFFFFFFFFFFFFFFFFFFFFFFFFFFFFFFF AND DUP2 MSTORE PUSH1 0x20 ADD SWAP1 DUP2 MSTORE PUSH1 0x20 ADD PUSH1 0x0 KECCAK256 SLOAD SWAP1 POP PUSH1 0x0 DUP2 GT PUSH2 0xCBE JUMPI PUSH1 0x40 MLOAD PUSH32 0x8C379A000000000000000000000000000000000000000000000000000000000 DUP2 MSTORE PUSH1 0x4 ADD PUSH2 0xCB5 SWAP1 PUSH2 0x1360 JUMP JUMPDEST PUSH1 0x40 MLOAD DUP1 SWAP2 SUB SWAP1 REVERT JUMPDEST CALLER PUSH20 0xFFFFFFFFFFFFFFFFFFFFFFFFFFFFFFFFFFFFFFFF AND PUSH2 0x8FC DUP3 SWAP1 DUP2 ISZERO MUL SWAP1 PUSH1 0x40 MLOAD PUSH1 0x0 PUSH1 0x40 MLOAD DUP1 DUP4 SUB DUP2 DUP6 DUP9 DUP9 CALL SWAP4 POP POP POP POP ISZERO DUP1 ISZERO PUSH2 0xD04 JUMPI RETURNDATASIZE PUSH1 0x0 DUP1 RETURNDATACOPY RETURNDATASIZE PUSH1 0x0 REVERT JUMPDEST POP PUSH1 0x0 DUP1 PUSH1 0x0 CALLER PUSH20 0xFFFFFFFFFFFFFFFFFFFFFFFFFFFFFFFFFFFFFFFF AND PUSH20 0xFFFFFFFFFFFFFFFFFFFFFFFFFFFFFFFFFFFFFFFF AND DUP2 MSTORE PUSH1 0x20 ADD SWAP1 DUP2 MSTORE PUSH1 0x20 ADD PUSH1 0x0 KECCAK256 DUP2 SWAP1 SSTORE POP POP JUMP JUMPDEST PUSH1 0x6 SLOAD DUP2 JUMP JUMPDEST PUSH1 0x2 SLOAD DUP2 JUMP JUMPDEST PUSH1 0x1 PUSH1 0x0 SWAP1 SLOAD SWAP1 PUSH2 0x100 EXP SWAP1 DIV PUSH20 0xFFFFFFFFFFFFFFFFFFFFFFFFFFFFFFFFFFFFFFFF AND DUP2 JUMP JUMPDEST DUP3 DUP1 SLOAD PUSH2 0xD8A SWAP1 PUSH2 0x15A6 JUMP JUMPDEST SWAP1 PUSH1 0x0 MSTORE PUSH1 0x20 PUSH1 0x0 KECCAK256 SWAP1 PUSH1 0x1F ADD PUSH1 0x20 SWAP1 DIV DUP2 ADD SWAP3 DUP3 PUSH2 0xDAC JUMPI PUSH1 0x0 DUP6 SSTORE PUSH2 0xDF3 JUMP JUMPDEST DUP3 PUSH1 0x1F LT PUSH2 0xDC5 JUMPI DUP1 MLOAD PUSH1 0xFF NOT AND DUP4 DUP1 ADD OR DUP6 SSTORE PUSH2 0xDF3 JUMP JUMPDEST DUP3 DUP1 ADD PUSH1 0x1 ADD DUP6 SSTORE DUP3 ISZERO PUSH2 0xDF3 JUMPI SWAP2 DUP3 ADD JUMPDEST DUP3 DUP2 GT ISZERO PUSH2 0xDF2 JUMPI DUP3 MLOAD DUP3 SSTORE SWAP2 PUSH1 0x20 ADD SWAP2 SWAP1 PUSH1 0x1 ADD SWAP1 PUSH2 0xDD7 JUMP JUMPDEST JUMPDEST POP SWAP1 POP PUSH2 0xE00 SWAP2 SWAP1 PUSH2 0xE04 JUMP JUMPDEST POP SWAP1 JUMP JUMPDEST JUMPDEST DUP1 DUP3 GT ISZERO PUSH2 0xE1D JUMPI PUSH1 0x0 DUP2 PUSH1 0x0 SWAP1 SSTORE POP PUSH1 0x1 ADD PUSH2 0xE05 JUMP JUMPDEST POP SWAP1 JUMP JUMPDEST PUSH1 0x0 PUSH2 0xE34 PUSH2 0xE2F DUP5 PUSH2 0x1400 JUMP JUMPDEST PUSH2 0x13DB JUMP JUMPDEST SWAP1 POP DUP3 DUP2 MSTORE PUSH1 0x20 DUP2 ADD DUP5 DUP5 DUP5 ADD GT ISZERO PUSH2 0xE50 JUMPI PUSH2 0xE4F PUSH2 0x1713 JUMP JUMPDEST JUMPDEST PUSH2 0xE5B DUP5 DUP3 DUP6 PUSH2 0x1564 JUMP JUMPDEST POP SWAP4 SWAP3 POP POP POP JUMP JUMPDEST PUSH1 0x0 DUP2 CALLDATALOAD SWAP1 POP PUSH2 0xE72 DUP2 PUSH2 0x1965 JUMP JUMPDEST SWAP3 SWAP2 POP POP JUMP JUMPDEST PUSH1 0x0 DUP2 CALLDATALOAD SWAP1 POP PUSH2 0xE87 DUP2 PUSH2 0x197C JUMP JUMPDEST SWAP3 SWAP2 POP POP JUMP JUMPDEST PUSH1 0x0 DUP3 PUSH1 0x1F DUP4 ADD SLT PUSH2 0xEA2 JUMPI PUSH2 0xEA1 PUSH2 0x170E JUMP JUMPDEST JUMPDEST DUP2 CALLDATALOAD PUSH2 0xEB2 DUP5 DUP3 PUSH1 0x20 DUP7 ADD PUSH2 0xE21 JUMP JUMPDEST SWAP2 POP POP SWAP3 SWAP2 POP POP JUMP JUMPDEST PUSH1 0x0 DUP2 CALLDATALOAD SWAP1 POP PUSH2 0xECA DUP2 PUSH2 0x1993 JUMP JUMPDEST SWAP3 SWAP2 POP POP JUMP JUMPDEST PUSH1 0x0 PUSH1 0x20 DUP3 DUP5 SUB SLT ISZERO PUSH2 0xEE6 JUMPI PUSH2 0xEE5 PUSH2 0x171D JUMP JUMPDEST JUMPDEST PUSH1 0x0 PUSH2 0xEF4 DUP5 DUP3 DUP6 ADD PUSH2 0xE63 JUMP JUMPDEST SWAP2 POP POP SWAP3 SWAP2 POP POP JUMP JUMPDEST PUSH1 0x0 DUP1 PUSH1 0x0 PUSH1 0x60 DUP5 DUP7 SUB SLT ISZERO PUSH2 0xF16 JUMPI PUSH2 0xF15 PUSH2 0x171D JUMP JUMPDEST JUMPDEST PUSH1 0x0 DUP5 ADD CALLDATALOAD PUSH8 0xFFFFFFFFFFFFFFFF DUP2 GT ISZERO PUSH2 0xF34 JUMPI PUSH2 0xF33 PUSH2 0x1718 JUMP JUMPDEST JUMPDEST PUSH2 0xF40 DUP7 DUP3 DUP8 ADD PUSH2 0xE8D JUMP JUMPDEST SWAP4 POP POP PUSH1 0x20 PUSH2 0xF51 DUP7 DUP3 DUP8 ADD PUSH2 0xE78 JUMP JUMPDEST SWAP3 POP POP PUSH1 0x40 PUSH2 0xF62 DUP7 DUP3 DUP8 ADD PUSH2 0xEBB JUMP JUMPDEST SWAP2 POP POP SWAP3 POP SWAP3 POP SWAP3 JUMP JUMPDEST PUSH1 0x0 PUSH1 0x20 DUP3 DUP5 SUB SLT ISZERO PUSH2 0xF82 JUMPI PUSH2 0xF81 PUSH2 0x171D JUMP JUMPDEST JUMPDEST PUSH1 0x0 PUSH2 0xF90 DUP5 DUP3 DUP6 ADD PUSH2 0xEBB JUMP JUMPDEST SWAP2 POP POP SWAP3 SWAP2 POP POP JUMP JUMPDEST PUSH2 0xFA2 DUP2 PUSH2 0x152E JUMP JUMPDEST DUP3 MSTORE POP POP JUMP JUMPDEST PUSH2 0xFB1 DUP2 PUSH2 0x14E6 JUMP JUMPDEST DUP3 MSTORE POP POP JUMP JUMPDEST PUSH2 0xFC0 DUP2 PUSH2 0x14D4 JUMP JUMPDEST DUP3 MSTORE POP POP JUMP JUMPDEST PUSH2 0xFCF DUP2 PUSH2 0x14F8 JUMP JUMPDEST DUP3 MSTORE POP POP JUMP JUMPDEST PUSH1 0x0 PUSH2 0xFE0 DUP3 PUSH2 0x1431 JUMP JUMPDEST PUSH2 0xFEA DUP2 DUP6 PUSH2 0x143C JUMP JUMPDEST SWAP4 POP PUSH2 0xFFA DUP2 DUP6 PUSH1 0x20 DUP7 ADD PUSH2 0x1573 JUMP JUMPDEST PUSH2 0x1003 DUP2 PUSH2 0x1722 JUMP JUMPDEST DUP5 ADD SWAP2 POP POP SWAP3 SWAP2 POP POP JUMP JUMPDEST PUSH1 0x0 PUSH2 0x101B PUSH1 0x22 DUP4 PUSH2 0x143C JUMP JUMPDEST SWAP2 POP PUSH2 0x1026 DUP3 PUSH2 0x1733 JUMP JUMPDEST PUSH1 0x40 DUP3 ADD SWAP1 POP SWAP2 SWAP1 POP JUMP JUMPDEST PUSH1 0x0 PUSH2 0x103E PUSH1 0x1E DUP4 PUSH2 0x143C JUMP JUMPDEST SWAP2 POP PUSH2 0x1049 DUP3 PUSH2 0x1782 JUMP JUMPDEST PUSH1 0x20 DUP3 ADD SWAP1 POP SWAP2 SWAP1 POP JUMP JUMPDEST PUSH1 0x0 PUSH2 0x1061 PUSH1 0x1D DUP4 PUSH2 0x143C JUMP JUMPDEST SWAP2 POP PUSH2 0x106C DUP3 PUSH2 0x17AB JUMP JUMPDEST PUSH1 0x20 DUP3 ADD SWAP1 POP SWAP2 SWAP1 POP JUMP JUMPDEST PUSH1 0x0 PUSH2 0x1084 PUSH1 0x17 DUP4 PUSH2 0x143C JUMP JUMPDEST SWAP2 POP PUSH2 0x108F DUP3 PUSH2 0x17D4 JUMP JUMPDEST PUSH1 0x20 DUP3 ADD SWAP1 POP SWAP2 SWAP1 POP JUMP JUMPDEST PUSH1 0x0 PUSH2 0x10A7 PUSH1 0x11 DUP4 PUSH2 0x143C JUMP JUMPDEST SWAP2 POP PUSH2 0x10B2 DUP3 PUSH2 0x17FD JUMP JUMPDEST PUSH1 0x20 DUP3 ADD SWAP1 POP SWAP2 SWAP1 POP JUMP JUMPDEST PUSH1 0x0 PUSH2 0x10CA PUSH1 0x14 DUP4 PUSH2 0x143C JUMP JUMPDEST SWAP2 POP PUSH2 0x10D5 DUP3 PUSH2 0x1826 JUMP JUMPDEST PUSH1 0x20 DUP3 ADD SWAP1 POP SWAP2 SWAP1 POP JUMP JUMPDEST PUSH1 0x0 PUSH2 0x10ED PUSH1 0x40 DUP4 PUSH2 0x143C JUMP JUMPDEST SWAP2 POP PUSH2 0x10F8 DUP3 PUSH2 0x184F JUMP JUMPDEST PUSH1 0x40 DUP3 ADD SWAP1 POP SWAP2 SWAP1 POP JUMP JUMPDEST PUSH1 0x0 PUSH2 0x1110 PUSH1 0x23 DUP4 PUSH2 0x143C JUMP JUMPDEST SWAP2 POP PUSH2 0x111B DUP3 PUSH2 0x189E JUMP JUMPDEST PUSH1 0x40 DUP3 ADD SWAP1 POP SWAP2 SWAP1 POP JUMP JUMPDEST PUSH1 0x0 PUSH2 0x1133 PUSH1 0x1F DUP4 PUSH2 0x143C JUMP JUMPDEST SWAP2 POP PUSH2 0x113E DUP3 PUSH2 0x18ED JUMP JUMPDEST PUSH1 0x20 DUP3 ADD SWAP1 POP SWAP2 SWAP1 POP JUMP JUMPDEST PUSH1 0x0 PUSH2 0x1156 PUSH1 0x34 DUP4 PUSH2 0x143C JUMP JUMPDEST SWAP2 POP PUSH2 0x1161 DUP3 PUSH2 0x1916 JUMP JUMPDEST PUSH1 0x40 DUP3 ADD SWAP1 POP SWAP2 SWAP1 POP JUMP JUMPDEST PUSH2 0x1175 DUP2 PUSH2 0x1524 JUMP JUMPDEST DUP3 MSTORE POP POP JUMP JUMPDEST PUSH1 0x0 PUSH1 0x20 DUP3 ADD SWAP1 POP PUSH2 0x1190 PUSH1 0x0 DUP4 ADD DUP5 PUSH2 0xFB7 JUMP JUMPDEST SWAP3 SWAP2 POP POP JUMP JUMPDEST PUSH1 0x0 PUSH1 0x40 DUP3 ADD SWAP1 POP PUSH2 0x11AB PUSH1 0x0 DUP4 ADD DUP6 PUSH2 0xF99 JUMP JUMPDEST PUSH2 0x11B8 PUSH1 0x20 DUP4 ADD DUP5 PUSH2 0x116C JUMP JUMPDEST SWAP4 SWAP3 POP POP POP JUMP JUMPDEST PUSH1 0x0 PUSH1 0x40 DUP3 ADD SWAP1 POP PUSH2 0x11D4 PUSH1 0x0 DUP4 ADD DUP6 PUSH2 0xFB7 JUMP JUMPDEST PUSH2 0x11E1 PUSH1 0x20 DUP4 ADD DUP5 PUSH2 0x116C JUMP JUMPDEST SWAP4 SWAP3 POP POP POP JUMP JUMPDEST PUSH1 0x0 PUSH1 0x60 DUP3 ADD SWAP1 POP DUP2 DUP2 SUB PUSH1 0x0 DUP4 ADD MSTORE PUSH2 0x1202 DUP2 DUP7 PUSH2 0xFD5 JUMP JUMPDEST SWAP1 POP PUSH2 0x1211 PUSH1 0x20 DUP4 ADD DUP6 PUSH2 0xF99 JUMP JUMPDEST PUSH2 0x121E PUSH1 0x40 DUP4 ADD DUP5 PUSH2 0x116C JUMP JUMPDEST SWAP5 SWAP4 POP POP POP POP JUMP JUMPDEST PUSH1 0x0 PUSH1 0xA0 DUP3 ADD SWAP1 POP DUP2 DUP2 SUB PUSH1 0x0 DUP4 ADD MSTORE PUSH2 0x1240 DUP2 DUP9 PUSH2 0xFD5 JUMP JUMPDEST SWAP1 POP PUSH2 0x124F PUSH1 0x20 DUP4 ADD DUP8 PUSH2 0xFA8 JUMP JUMPDEST PUSH2 0x125C PUSH1 0x40 DUP4 ADD DUP7 PUSH2 0x116C JUMP JUMPDEST PUSH2 0x1269 PUSH1 0x60 DUP4 ADD DUP6 PUSH2 0xFC6 JUMP JUMPDEST PUSH2 0x1276 PUSH1 0x80 DUP4 ADD DUP5 PUSH2 0x116C JUMP JUMPDEST SWAP7 SWAP6 POP POP POP POP POP POP JUMP JUMPDEST PUSH1 0x0 PUSH1 0x20 DUP3 ADD SWAP1 POP DUP2 DUP2 SUB PUSH1 0x0 DUP4 ADD MSTORE PUSH2 0x1299 DUP2 PUSH2 0x100E JUMP JUMPDEST SWAP1 POP SWAP2 SWAP1 POP JUMP JUMPDEST PUSH1 0x0 PUSH1 0x20 DUP3 ADD SWAP1 POP DUP2 DUP2 SUB PUSH1 0x0 DUP4 ADD MSTORE PUSH2 0x12B9 DUP2 PUSH2 0x1031 JUMP JUMPDEST SWAP1 POP SWAP2 SWAP1 POP JUMP JUMPDEST PUSH1 0x0 PUSH1 0x20 DUP3 ADD SWAP1 POP DUP2 DUP2 SUB PUSH1 0x0 DUP4 ADD MSTORE PUSH2 0x12D9 DUP2 PUSH2 0x1054 JUMP JUMPDEST SWAP1 POP SWAP2 SWAP1 POP JUMP JUMPDEST PUSH1 0x0 PUSH1 0x20 DUP3 ADD SWAP1 POP DUP2 DUP2 SUB PUSH1 0x0 DUP4 ADD MSTORE PUSH2 0x12F9 DUP2 PUSH2 0x1077 JUMP JUMPDEST SWAP1 POP SWAP2 SWAP1 POP JUMP JUMPDEST PUSH1 0x0 PUSH1 0x20 DUP3 ADD SWAP1 POP DUP2 DUP2 SUB PUSH1 0x0 DUP4 ADD MSTORE PUSH2 0x1319 DUP2 PUSH2 0x109A JUMP JUMPDEST SWAP1 POP SWAP2 SWAP1 POP JUMP JUMPDEST PUSH1 0x0 PUSH1 0x20 DUP3 ADD SWAP1 POP DUP2 DUP2 SUB PUSH1 0x0 DUP4 ADD MSTORE PUSH2 0x1339 DUP2 PUSH2 0x10BD JUMP JUMPDEST SWAP1 POP SWAP2 SWAP1 POP JUMP JUMPDEST PUSH1 0x0 PUSH1 0x20 DUP3 ADD SWAP1 POP DUP2 DUP2 SUB PUSH1 0x0 DUP4 ADD MSTORE PUSH2 0x1359 DUP2 PUSH2 0x10E0 JUMP JUMPDEST SWAP1 POP SWAP2 SWAP1 POP JUMP JUMPDEST PUSH1 0x0 PUSH1 0x20 DUP3 ADD SWAP1 POP DUP2 DUP2 SUB PUSH1 0x0 DUP4 ADD MSTORE PUSH2 0x1379 DUP2 PUSH2 0x1103 JUMP JUMPDEST SWAP1 POP SWAP2 SWAP1 POP JUMP JUMPDEST PUSH1 0x0 PUSH1 0x20 DUP3 ADD SWAP1 POP DUP2 DUP2 SUB PUSH1 0x0 DUP4 ADD MSTORE PUSH2 0x1399 DUP2 PUSH2 0x1126 JUMP JUMPDEST SWAP1 POP SWAP2 SWAP1 POP JUMP JUMPDEST PUSH1 0x0 PUSH1 0x20 DUP3 ADD SWAP1 POP DUP2 DUP2 SUB PUSH1 0x0 DUP4 ADD MSTORE PUSH2 0x13B9 DUP2 PUSH2 0x1149 JUMP JUMPDEST SWAP1 POP SWAP2 SWAP1 POP JUMP JUMPDEST PUSH1 0x0 PUSH1 0x20 DUP3 ADD SWAP1 POP PUSH2 0x13D5 PUSH1 0x0 DUP4 ADD DUP5 PUSH2 0x116C JUMP JUMPDEST SWAP3 SWAP2 POP POP JUMP JUMPDEST PUSH1 0x0 PUSH2 0x13E5 PUSH2 0x13F6 JUMP JUMPDEST SWAP1 POP PUSH2 0x13F1 DUP3 DUP3 PUSH2 0x15D8 JUMP JUMPDEST SWAP2 SWAP1 POP JUMP JUMPDEST PUSH1 0x0 PUSH1 0x40 MLOAD SWAP1 POP SWAP1 JUMP JUMPDEST PUSH1 0x0 PUSH8 0xFFFFFFFFFFFFFFFF DUP3 GT ISZERO PUSH2 0x141B JUMPI PUSH2 0x141A PUSH2 0x16DF JUMP JUMPDEST JUMPDEST PUSH2 0x1424 DUP3 PUSH2 0x1722 JUMP JUMPDEST SWAP1 POP PUSH1 0x20 DUP2 ADD SWAP1 POP SWAP2 SWAP1 POP JUMP JUMPDEST PUSH1 0x0 DUP2 MLOAD SWAP1 POP SWAP2 SWAP1 POP JUMP JUMPDEST PUSH1 0x0 DUP3 DUP3 MSTORE PUSH1 0x20 DUP3 ADD SWAP1 POP SWAP3 SWAP2 POP POP JUMP JUMPDEST PUSH1 0x0 PUSH2 0x1458 DUP3 PUSH2 0x1524 JUMP JUMPDEST SWAP2 POP PUSH2 0x1463 DUP4 PUSH2 0x1524 JUMP JUMPDEST SWAP3 POP DUP3 PUSH32 0xFFFFFFFFFFFFFFFFFFFFFFFFFFFFFFFFFFFFFFFFFFFFFFFFFFFFFFFFFFFFFFFF SUB DUP3 GT ISZERO PUSH2 0x1498 JUMPI PUSH2 0x1497 PUSH2 0x1652 JUMP JUMPDEST JUMPDEST DUP3 DUP3 ADD SWAP1 POP SWAP3 SWAP2 POP POP JUMP JUMPDEST PUSH1 0x0 PUSH2 0x14AE DUP3 PUSH2 0x1524 JUMP JUMPDEST SWAP2 POP PUSH2 0x14B9 DUP4 PUSH2 0x1524 JUMP JUMPDEST SWAP3 POP DUP3 PUSH2 0x14C9 JUMPI PUSH2 0x14C8 PUSH2 0x1681 JUMP JUMPDEST JUMPDEST DUP3 DUP3 DIV SWAP1 POP SWAP3 SWAP2 POP POP JUMP JUMPDEST PUSH1 0x0 PUSH2 0x14DF DUP3 PUSH2 0x1504 JUMP JUMPDEST SWAP1 POP SWAP2 SWAP1 POP JUMP JUMPDEST PUSH1 0x0 PUSH2 0x14F1 DUP3 PUSH2 0x1504 JUMP JUMPDEST SWAP1 POP SWAP2 SWAP1 POP JUMP JUMPDEST PUSH1 0x0 DUP2 ISZERO ISZERO SWAP1 POP SWAP2 SWAP1 POP JUMP JUMPDEST PUSH1 0x0 PUSH20 0xFFFFFFFFFFFFFFFFFFFFFFFFFFFFFFFFFFFFFFFF DUP3 AND SWAP1 POP SWAP2 SWAP1 POP JUMP JUMPDEST PUSH1 0x0 DUP2 SWAP1 POP SWAP2 SWAP1 POP JUMP JUMPDEST PUSH1 0x0 PUSH2 0x1539 DUP3 PUSH2 0x1540 JUMP JUMPDEST SWAP1 POP SWAP2 SWAP1 POP JUMP JUMPDEST PUSH1 0x0 PUSH2 0x154B DUP3 PUSH2 0x1552 JUMP JUMPDEST SWAP1 POP SWAP2 SWAP1 POP JUMP JUMPDEST PUSH1 0x0 PUSH2 0x155D DUP3 PUSH2 0x1504 JUMP JUMPDEST SWAP1 POP SWAP2 SWAP1 POP JUMP JUMPDEST DUP3 DUP2 DUP4 CALLDATACOPY PUSH1 0x0 DUP4 DUP4 ADD MSTORE POP POP POP JUMP JUMPDEST PUSH1 0x0 JUMPDEST DUP4 DUP2 LT ISZERO PUSH2 0x1591 JUMPI DUP1 DUP3 ADD MLOAD DUP2 DUP5 ADD MSTORE PUSH1 0x20 DUP2 ADD SWAP1 POP PUSH2 0x1576 JUMP JUMPDEST DUP4 DUP2 GT ISZERO PUSH2 0x15A0 JUMPI PUSH1 0x0 DUP5 DUP5 ADD MSTORE JUMPDEST POP POP POP POP JUMP JUMPDEST PUSH1 0x0 PUSH1 0x2 DUP3 DIV SWAP1 POP PUSH1 0x1 DUP3 AND DUP1 PUSH2 0x15BE JUMPI PUSH1 0x7F DUP3 AND SWAP2 POP JUMPDEST PUSH1 0x20 DUP3 LT DUP2 EQ ISZERO PUSH2 0x15D2 JUMPI PUSH2 0x15D1 PUSH2 0x16B0 JUMP JUMPDEST JUMPDEST POP SWAP2 SWAP1 POP JUMP JUMPDEST PUSH2 0x15E1 DUP3 PUSH2 0x1722 JUMP JUMPDEST DUP2 ADD DUP2 DUP2 LT PUSH8 0xFFFFFFFFFFFFFFFF DUP3 GT OR ISZERO PUSH2 0x1600 JUMPI PUSH2 0x15FF PUSH2 0x16DF JUMP JUMPDEST JUMPDEST DUP1 PUSH1 0x40 MSTORE POP POP POP JUMP JUMPDEST PUSH1 0x0 PUSH2 0x1614 DUP3 PUSH2 0x1524 JUMP JUMPDEST SWAP2 POP PUSH32 0xFFFFFFFFFFFFFFFFFFFFFFFFFFFFFFFFFFFFFFFFFFFFFFFFFFFFFFFFFFFFFFFF DUP3 EQ ISZERO PUSH2 0x1647 JUMPI PUSH2 0x1646 PUSH2 0x1652 JUMP JUMPDEST JUMPDEST PUSH1 0x1 DUP3 ADD SWAP1 POP SWAP2 SWAP1 POP JUMP JUMPDEST PUSH32 0x4E487B7100000000000000000000000000000000000000000000000000000000 PUSH1 0x0 MSTORE PUSH1 0x11 PUSH1 0x4 MSTORE PUSH1 0x24 PUSH1 0x0 REVERT JUMPDEST PUSH32 0x4E487B7100000000000000000000000000000000000000000000000000000000 PUSH1 0x0 MSTORE PUSH1 0x12 PUSH1 0x4 MSTORE PUSH1 0x24 PUSH1 0x0 REVERT JUMPDEST PUSH32 0x4E487B7100000000000000000000000000000000000000000000000000000000 PUSH1 0x0 MSTORE PUSH1 0x22 PUSH1 0x4 MSTORE PUSH1 0x24 PUSH1 0x0 REVERT JUMPDEST PUSH32 0x4E487B7100000000000000000000000000000000000000000000000000000000 PUSH1 0x0 MSTORE PUSH1 0x41 PUSH1 0x4 MSTORE PUSH1 0x24 PUSH1 0x0 REVERT JUMPDEST PUSH1 0x0 DUP1 REVERT JUMPDEST PUSH1 0x0 DUP1 REVERT JUMPDEST PUSH1 0x0 DUP1 REVERT JUMPDEST PUSH1 0x0 DUP1 REVERT JUMPDEST PUSH1 0x0 PUSH1 0x1F NOT PUSH1 0x1F DUP4 ADD AND SWAP1 POP SWAP2 SWAP1 POP JUMP JUMPDEST PUSH32 0x596F75206D757374206265206120636F6E7472696275746F7220746F20766F74 PUSH1 0x0 DUP3 ADD MSTORE PUSH32 0x6521000000000000000000000000000000000000000000000000000000000000 PUSH1 0x20 DUP3 ADD MSTORE POP JUMP JUMPDEST PUSH32 0x4F6E6C792061646D696E20697320616C6C6F77656420646F2074686973210000 PUSH1 0x0 DUP3 ADD MSTORE POP JUMP JUMPDEST PUSH32 0x4D696E696D756D20436F6E747269627574696F6E206E6F74206D657421000000 PUSH1 0x0 DUP3 ADD MSTORE POP JUMP JUMPDEST PUSH32 0x596F75206861766520616C726561647920766F74656421000000000000000000 PUSH1 0x0 DUP3 ADD MSTORE POP JUMP JUMPDEST PUSH32 0x476F616C206E6F74206D65742079657421000000000000000000000000000000 PUSH1 0x0 DUP3 ADD MSTORE POP JUMP JUMPDEST PUSH32 0x446561646C696E65206861732070617373656421000000000000000000000000 PUSH1 0x0 DUP3 ADD MSTORE POP JUMP JUMPDEST PUSH32 0x466F74756E6174656C6C792074686520676F616C20686173206265656E207265 PUSH1 0x0 DUP3 ADD MSTORE PUSH32 0x61636865642E205468616E6B20796F7520666F7220646F696E6720676F6F6421 PUSH1 0x20 DUP3 ADD MSTORE POP JUMP JUMPDEST PUSH32 0x596F7520646F6E74206861766520616E797468696E6720746F20776974686472 PUSH1 0x0 DUP3 ADD MSTORE PUSH32 0x6177210000000000000000000000000000000000000000000000000000000000 PUSH1 0x20 DUP3 ADD MSTORE POP JUMP JUMPDEST PUSH32 0x546865207265717565737420686173206265656E20636F6D706C657465642100 PUSH1 0x0 DUP3 ADD MSTORE POP JUMP JUMPDEST PUSH32 0x596F752063616E7420676574206120726566756E6420756E74696C2074686520 PUSH1 0x0 DUP3 ADD MSTORE PUSH32 0x646561646C696E65206861732070617373656421000000000000000000000000 PUSH1 0x20 DUP3 ADD MSTORE POP JUMP JUMPDEST PUSH2 0x196E DUP2 PUSH2 0x14D4 JUMP JUMPDEST DUP2 EQ PUSH2 0x1979 JUMPI PUSH1 0x0 DUP1 REVERT JUMPDEST POP JUMP JUMPDEST PUSH2 0x1985 DUP2 PUSH2 0x14E6 JUMP JUMPDEST DUP2 EQ PUSH2 0x1990 JUMPI PUSH1 0x0 DUP1 REVERT JUMPDEST POP JUMP JUMPDEST PUSH2 0x199C DUP2 PUSH2 0x1524 JUMP JUMPDEST DUP2 EQ PUSH2 0x19A7 JUMPI PUSH1 0x0 DUP1 REVERT JUMPDEST POP JUMP INVALID LOG2 PUSH5 0x6970667358 0x22 SLT KECCAK256 PUSH30 0x4BD46DDE105F125567707A22A471CDF71A8806A20CEC3F7EB46C5C127CAF 0x1E PUSH5 0x736F6C6343 STOP ADDMOD SMOD STOP CALLER "
				},
				"gasEstimates": {
					"creation": {
						"codeDepositCost": "1324800",
						"executionCost": "infinite",
						"totalCost": "infinite"
					},
					"external": {
						"admin()": "2602",
						"contribute()": "infinite",
						"contributors(address)": "2882",
						"createRequest(string,address,uint256)": "infinite",
						"deadline()": "2452",
						"getBalance()": "363",
						"getRefund()": "infinite",
						"goal()": "2474",
						"makePayment(uint256)": "infinite",
						"minimumContribution()": "2474",
						"nrOfContributors()": "2495",
						"numRequests()": "2496",
						"raisedAmount()": "2451",
						"requests(uint256)": "infinite",
						"voteRequest(uint256)": "infinite"
					}
				},
				"methodIdentifiers": {
					"admin()": "f851a440",
					"contribute()": "d7bb99ba",
					"contributors(address)": "1f6d4942",
					"createRequest(string,address,uint256)": "1b16bb5c",
					"deadline()": "29dcb0cf",
					"getBalance()": "12065fe0",
					"getRefund()": "b2d5ae44",
					"goal()": "40193883",
					"makePayment(uint256)": "5114cb52",
					"minimumContribution()": "937e09b1",
					"nrOfContributors()": "db01cf9c",
					"numRequests()": "9fb42b1f",
					"raisedAmount()": "c59ee1dc",
					"requests(uint256)": "81d12c58",
					"voteRequest(uint256)": "4cb6f4a5"
				}
			},
			"storageLayout": {
				"storage": [
					{
						"astId": 5,
						"contract": "SmallProjects/CrowdFunding.sol:CrowdFunding",
						"label": "contributors",
						"offset": 0,
						"slot": "0",
						"type": "t_mapping(t_address,t_uint256)"
					},
					{
						"astId": 7,
						"contract": "SmallProjects/CrowdFunding.sol:CrowdFunding",
						"label": "admin",
						"offset": 0,
						"slot": "1",
						"type": "t_address"
					},
					{
						"astId": 9,
						"contract": "SmallProjects/CrowdFunding.sol:CrowdFunding",
						"label": "nrOfContributors",
						"offset": 0,
						"slot": "2",
						"type": "t_uint256"
					},
					{
						"astId": 11,
						"contract": "SmallProjects/CrowdFunding.sol:CrowdFunding",
						"label": "minimumContribution",
						"offset": 0,
						"slot": "3",
						"type": "t_uint256"
					},
					{
						"astId": 13,
						"contract": "SmallProjects/CrowdFunding.sol:CrowdFunding",
						"label": "deadline",
						"offset": 0,
						"slot": "4",
						"type": "t_uint256"
					},
					{
						"astId": 15,
						"contract": "SmallProjects/CrowdFunding.sol:CrowdFunding",
						"label": "goal",
						"offset": 0,
						"slot": "5",
						"type": "t_uint256"
					},
					{
						"astId": 17,
						"contract": "SmallProjects/CrowdFunding.sol:CrowdFunding",
						"label": "raisedAmount",
						"offset": 0,
						"slot": "6",
						"type": "t_uint256"
					},
					{
						"astId": 37,
						"contract": "SmallProjects/CrowdFunding.sol:CrowdFunding",
						"label": "requests",
						"offset": 0,
						"slot": "7",
						"type": "t_mapping(t_uint256,t_struct(Request)32_storage)"
					},
					{
						"astId": 39,
						"contract": "SmallProjects/CrowdFunding.sol:CrowdFunding",
						"label": "numRequests",
						"offset": 0,
						"slot": "8",
						"type": "t_uint256"
					}
				],
				"types": {
					"t_address": {
						"encoding": "inplace",
						"label": "address",
						"numberOfBytes": "20"
					},
					"t_address_payable": {
						"encoding": "inplace",
						"label": "address payable",
						"numberOfBytes": "20"
					},
					"t_bool": {
						"encoding": "inplace",
						"label": "bool",
						"numberOfBytes": "1"
					},
					"t_mapping(t_address,t_bool)": {
						"encoding": "mapping",
						"key": "t_address",
						"label": "mapping(address => bool)",
						"numberOfBytes": "32",
						"value": "t_bool"
					},
					"t_mapping(t_address,t_uint256)": {
						"encoding": "mapping",
						"key": "t_address",
						"label": "mapping(address => uint256)",
						"numberOfBytes": "32",
						"value": "t_uint256"
					},
					"t_mapping(t_uint256,t_struct(Request)32_storage)": {
						"encoding": "mapping",
						"key": "t_uint256",
						"label": "mapping(uint256 => struct CrowdFunding.Request)",
						"numberOfBytes": "32",
						"value": "t_struct(Request)32_storage"
					},
					"t_string_storage": {
						"encoding": "bytes",
						"label": "string",
						"numberOfBytes": "32"
					},
					"t_struct(Request)32_storage": {
						"encoding": "inplace",
						"label": "struct CrowdFunding.Request",
						"members": [
							{
								"astId": 19,
								"contract": "SmallProjects/CrowdFunding.sol:CrowdFunding",
								"label": "description",
								"offset": 0,
								"slot": "0",
								"type": "t_string_storage"
							},
							{
								"astId": 21,
								"contract": "SmallProjects/CrowdFunding.sol:CrowdFunding",
								"label": "recipient",
								"offset": 0,
								"slot": "1",
								"type": "t_address_payable"
							},
							{
								"astId": 23,
								"contract": "SmallProjects/CrowdFunding.sol:CrowdFunding",
								"label": "value",
								"offset": 0,
								"slot": "2",
								"type": "t_uint256"
							},
							{
								"astId": 25,
								"contract": "SmallProjects/CrowdFunding.sol:CrowdFunding",
								"label": "completed",
								"offset": 0,
								"slot": "3",
								"type": "t_bool"
							},
							{
								"astId": 27,
								"contract": "SmallProjects/CrowdFunding.sol:CrowdFunding",
								"label": "nrOfVoters",
								"offset": 0,
								"slot": "4",
								"type": "t_uint256"
							},
							{
								"astId": 31,
								"contract": "SmallProjects/CrowdFunding.sol:CrowdFunding",
								"label": "voters",
								"offset": 0,
								"slot": "5",
								"type": "t_mapping(t_address,t_bool)"
							}
						],
						"numberOfBytes": "192"
					},
					"t_uint256": {
						"encoding": "inplace",
						"label": "uint256",
						"numberOfBytes": "32"
					}
				}
			},
			"userdoc": {
				"kind": "user",
				"methods": {},
				"version": 1
			}
		}
	}
}